:020000040800F2
:100000000000022095930008FD900008059100086B
:100010000D910008159100081D91000800000000D6
:100020000000000000000000000000002591000812
:100030003391000800000000419100085191000830
:10004000E5930008E5930008E5930008E5930008B0
:10005000E5930008E5930008E5930008E5930008A0
:10006000E5930008E5930008E5930008E593000890
:10007000E5930008E5930008E5930008E593000880
:10008000E5930008E5930008E5930008E593000870
:10009000E5930008E5930008E5930008E593000860
:1000A000E5930008E5930008E5930008E593000850
:1000B000E5930008E5930008E5930008E593000840
:1000C000E5930008E5930008E5930008E593000830
:1000D000E59300086D910008819100089591000852
:1000E000E5930008E5930008E5930008E593000810
:1000F000E5930008E5930008E5930008E593000800
:10010000E5930008E5930008E5930008E5930008EF
:10011000A9910008BD910008E5930008E593000847
:10012000E5930008E5930008E5930008E5930008CF
:10013000E59300080000000000000000E5930008BF
:10014000E5930008E5930008E5930008E5930008AF
:10015000E5930008E5930008E5930008D1910008B5
:10016000E5930008E5930008E5930008E59300088F
:10017000E5930008E593000800000000000000007F
:08018000E5930008E593000877
:1001900010B5054C237833B9044B13B10448AFF3C1
:1001A00000800123237010BDB00500200000000076
:1001B000FC19010808B5034B1BB103490348AFF311
:1001C000008008BD00000000B4050020FC190108F3
:1001D00010F8012B11F8013B012A28BF9A42F7D0F1
:1001E000D01A70470000000000000000000000006E
:1001F00001F0FF01102A2BDB10F0070F08D010F8D8
:10020000013B013A8B422DD010F0070F42B3F6D1DB
:10021000F0B441EA012141EA014122F007047FF0F4
:1002200000070023F0E80256083C85EA010586EA4B
:10023000010685FA47F5A3FA87F586FA47F6A5FA87
:1002400087F68EB9EED1F0BC01F0FF0102F0070293
:1002500032B110F8013B013A83EA010313B1F8D13E
:100260000020704701387047002D06BF354603381F
:10027000073815F0010F07D1013015F4807F02BF58
:10028000013015F4C03F0130F0BC0138704700BFA9
:10029000034613F8012B002AFBD1181A01387047C6
:1002A00081F0004102E000BF83F0004330B54FEA27
:1002B00041044FEA430594EA050F08BF90EA020F94
:1002C0001FBF54EA000C55EA020C7FEA645C7FEA27
:1002D000655C00F0E2804FEA5454D4EB5555B8BF4A
:1002E0006D420CDD2C4480EA020281EA030382EABB
:1002F000000083EA010180EA020281EA0303362D4D
:1003000088BF30BD11F0004F4FEA01314FF4801C1F
:100310004CEA113102D0404261EB410113F0004F31
:100320004FEA03334CEA133302D0524263EB4303E8
:1003300094EA050F00F0A780A4F10104D5F1200E86
:100340000DDB02FA0EFC22FA05F2801841F10001E1
:1003500003FA0EF2801843FA05F359410EE0A5F1B5
:1003600020050EF1200E012A03FA0EFC28BF4CF0E6
:10037000020C43FA05F3C01851EBE37101F000459C
:1003800007D54FF0000EDCF1000C7EEB00006EEBA9
:100390000101B1F5801F1BD3B1F5001F0CD3490833
:1003A0005FEA30004FEA3C0C04F101044FEA44528A
:1003B00012F5800F80F09A80BCF1004F08BF5FEA11
:1003C000500C50F1000041EB045141EA050130BDF1
:1003D0005FEA4C0C404141EB0101013C28BFB1F503
:1003E000801FE9D291F0000F04BF01460020B1FA4E
:1003F00081F308BF2033A3F10B03B3F120020CDA21
:100400000C3208DD02F1140CC2F10C0201FA0CF0FE
:1004100021FA02F10CE002F11402D8BFC2F1200C63
:1004200001FA02F120FA0CFCDCBF41EA0C01904019
:10043000E41AA2BF01EB0451294330BD6FEA040462
:100440001F3C1CDA0C340EDC04F11404C4F120024D
:1004500020FA04F001FA02F340EA030021FA04F35F
:1004600045EA030130BDC4F10C04C4F1200220FAB6
:1004700002F001FA04F340EA0300294630BD21FAF4
:1004800004F0294630BD94F0000F83F4801306BFBA
:1004900081F480110134013D4EE77FEA645C18BFAE
:1004A0007FEA655C29D094EA050F08BF90EA020F45
:1004B00005D054EA000C04BF1946104630BD91EA3D
:1004C000030F1EBF0021002030BD5FEA545C05D140
:1004D0004000494128BF41F0004130BD14F580047F
:1004E0003CBF01F5801130BD01F0004545F0FE41F3
:1004F00041F470014FF0000030BD7FEA645C1ABF28
:10050000194610467FEA655C1CBF0B46024650EA5E
:10051000013406BF52EA033591EA030F41F400218A
:1005200030BD00BF90F0000F04BF0021704730B510
:100530004FF4806404F132044FF000054FF00001E5
:1005400050E700BF90F0000F04BF0021704730B5A6
:100550004FF4806404F1320410F0004548BF40427B
:100560004FF000013EE700BF42004FEAE2014FEAD0
:1005700031014FEA02701FBF12F07F4393F07F4FAB
:1005800081F06051704732F07F4208BF704793F0AE
:100590007F4F04BF41F40021704730B54FF46074C1
:1005A00001F0004521F000411CE700BF50EA0102C4
:1005B00008BF704730B54FF000050AE050EA01026D
:1005C00008BF704730B511F0004502D5404261EBDD
:1005D00041014FF4806404F132045FEA915C3FF41E
:1005E000D8AE4FF003025FEADC0C18BF03325FEABB
:1005F000DC0C18BF033202EBDC02C2F1200300FA6C
:1006000003FC20FA02F001FA03FE40EA0E0021FA90
:1006100002F11444BDE600BF70B54FF0FF0C4CF47E
:10062000E06C1CEA11541DBF1CEA135594EA0C0F30
:1006300095EA0C0F00F0DEF82C4481EA030621EA6B
:100640004C5123EA4C5350EA013518BF52EA0335A6
:1006500041F4801143F4801338D0A0FB02CE4FF058
:100660000005E1FB02E506F00042E0FB03E54FF088
:100670000006E1FB03569CF0000F18BF4EF0010E80
:10068000A4F1FF04B6F5007F64F5407404D25FEA7C
:100690004E0E6D4146EB060642EAC62141EA55512F
:1006A0004FEAC52040EA5E504FEACE2EB4F1FD0C71
:1006B00088BFBCF5E06F1ED8BEF1004F08BF5FEAEF
:1006C000500E50F1000041EB045170BD06F00046A1
:1006D00046EA010140EA020081EA0301B4EB5C044E
:1006E000C2BFD4EB0C0541EA045170BD41F4801146
:1006F0004FF0000E013C00F3AB8014F1360FDEBF6B
:10070000002001F0004170BDC4F10004203C35DA46
:100710000C341BDC04F11404C4F1200500FA05F3C9
:1007200020FA04F001FA05F240EA020001F000426A
:1007300021F0004110EBD37021FA04F642EB0601E0
:100740005EEA430E08BF20EAD37070BDC4F10C040A
:10075000C4F1200500FA04F320FA05F001FA04F2CE
:1007600040EA020001F0004110EBD37041F10001BA
:100770005EEA430E08BF20EAD37070BDC4F12005C5
:1007800000FA05F24EEA020E20FA04F301FA05F22D
:1007900043EA020321FA04F001F0004121FA04F2D5
:1007A00020EA020000EBD3705EEA430E08BF20EAA5
:1007B000D37070BD94F0000F0FD101F000464000DF
:1007C00041EB010111F4801F08BF013CF7D041EA61
:1007D000060195F0000F18BF704703F00046520065
:1007E00043EB030313F4801F08BF013DF7D043EA36
:1007F0000603704794EA0C0F0CEA135518BF95EAEC
:100800000C0F0CD050EA410618BF52EA4306D1D172
:1008100081EA030101F000414FF0000070BD50EA91
:10082000410606BF1046194652EA430619D094EA1B
:100830000C0F02D150EA013613D195EA0C0F05D105
:1008400052EA03361CBF104619460AD181EA030159
:1008500001F0004141F0FE4141F470014FF0000011
:1008600070BD41F0FE4141F4780170BD70B54FF0AC
:10087000FF0C4CF4E06C1CEA11541DBF1CEA13552C
:1008800094EA0C0F95EA0C0F00F0A7F8A4EB05040E
:1008900081EA030E52EA03354FEA013100F0888005
:1008A0004FEA03334FF0805545EA131343EA1263CE
:1008B0004FEA022245EA111545EA10654FEA002683
:1008C0000EF000419D4208BF964244F1FD0404F53C
:1008D000407402D25B084FEA3202B61A65EB030598
:1008E0005B084FEA32024FF480104FF4002CB6EB55
:1008F000020E75EB030E22BFB61A754640EA0C00D5
:100900005B084FEA3202B6EB020E75EB030E22BF14
:10091000B61A754640EA5C005B084FEA3202B6EB55
:10092000020E75EB030E22BFB61A754640EA9C0014
:100930005B084FEA3202B6EB020E75EB030E22BFE4
:10094000B61A754640EADC0055EA060E18D04FEAA2
:10095000051545EA16754FEA06164FEAC30343EA42
:1009600052734FEAC2025FEA1C1CC0D111F4801F0F
:100970000BD141EA00014FF000004FF0004CB6E708
:1009800011F4801F04BF01430020B4F1FD0C88BFA7
:10099000BCF5E06F3FF6AFAEB5EB030C04BFB6EBB2
:1009A000020C5FEA500C50F1000041EB045170BDA5
:1009B0000EF0004E4EEA113114EB5C04C2BFD4EBD2
:1009C0000C0541EA045170BD41F480114FF0000E56
:1009D000013C90E645EA060E8DE60CEA135594EAD2
:1009E0000C0F08BF95EA0C0F3FF43BAF94EA0C0FD5
:1009F0000AD150EA01347FF434AF95EA0C0F7FF44A
:100A000025AF104619462CE795EA0C0F06D152EA9D
:100A100003353FF4FDAE1046194622E750EA410681
:100A200018BF52EA43067FF4C5AE50EA41047FF492
:100A30000DAF52EA43057FF4EBAE12E74FF0FF3CF7
:100A400006E000BF4FF0010C02E000BF4FF0010CC8
:100A50004DF804CD4FEA410C7FEA6C5C4FEA430C41
:100A600018BF7FEA6C5C1BD001B050EA410C0CBF90
:100A700052EA430C91EA030F02BF90EA020F0020F2
:100A8000704710F1000F91EA030F58BF994208BF59
:100A900090422CBFD8176FEAE37040F00100704716
:100AA0004FEA410C7FEA6C5C02D150EA013C07D16D
:100AB0004FEA430C7FEA6C5CD6D152EA033CD3D0B8
:100AC0005DF8040B704700BF8446104662468C46B2
:100AD0001946634600E000BF01B5FFF7B7FF0028E5
:100AE00048BF10F1000F01BD4DF808EDFFF7F4FF0E
:100AF0000CBF012000205DF808FB00BF4DF808ED99
:100B0000FFF7EAFF34BF012000205DF808FB00BFBB
:100B10004DF808EDFFF7E0FF94BF012000205DF8DD
:100B200008FB00BF4DF808EDFFF7CEFF94BF012092
:100B300000205DF808FB00BF4DF808EDFFF7C4FF8B
:100B400034BF012000205DF808FB00BF4FEA410CD4
:100B50007FEA6C5C02D150EA013C0AD14FEA430CB7
:100B60007FEA6C5C02D152EA033C02D14FF00000F4
:100B700070474FF0010070474FEA410212F5001232
:100B800015D211D56FF47873B3EB625212D94FEAD4
:100B9000C12343F0004343EA505311F0004F23FABE
:100BA00002F018BF404270474FF00000704750EA13
:100BB000013005D111F0004008BF6FF000407047D0
:100BC0004FF00000704700BF4A0011D212F500122A
:100BD00011D20DD56FF47873B3EB62520ED44FEA95
:100BE000C12343F0004343EA505323FA02F0704715
:100BF0004FF00000704750EA013002D14FF0FF3053
:100C000070474FF0000070474FEA4102B2F1E043F5
:100C100024BFB3F5001CDCF1FE5C0DD901F0004CE3
:100C20004FEAC0024CEA5070B2F1004F40EB830033
:100C300008BF20F00100704711F0804F21D113F15F
:100C40003872BCBF01F00040704741F480114FEA98
:100C50005252C2F11802C2F1200C10FA0CF320FA21
:100C600002F018BF40F001004FEAC1234FEAD3233E
:100C700003FA0CFC40EA0C0023FA02F34FEA4303A8
:100C8000CCE77FEA625307D150EA01331EBF4FF031
:100C9000FE4040F44000704701F0004040F0FE404C
:100CA00040F40000704700BF53B94AB9002908BF9B
:100CB00000281CBF4FF0FF314FF0FF3000F0A0B90B
:100CC000ADF1080C6DE904CE00F03CF8DDF804E06D
:100CD000DDE9022304B0704738B500220023044642
:100CE0000D46FFF70BFF28B920462946BDE83840DE
:100CF00000F00AB8204605F1004100F005F8404236
:100D000061EB410138BD00BFD0B50C4B0022064657
:100D10000F46FFF781FCFFF757FF0446FFF702FC81
:100D2000074B0022FFF778FC02460B463046394657
:100D3000FFF7BAFAFFF748FF2146D0BD0000F03DAB
:100D40000000F0412DE9F047089D0C46002B4ED1E4
:100D500094468C458646B2FA82F262D94AB1C2F113
:100D60002003914020FA03F30CFA02FC194300FA25
:100D700002FE4FEA1C471FFA8CF6B1FBF7F44FEA6C
:100D80001E4307FB141143EA014304FB06F1994299
:100D90000AD91CEB030304F1FF3080F01281994261
:100DA00040F20F81023C6344591A1FFA8EF3B1FBE3
:100DB000F7F007FB101143EA014300FB06F69E42E1
:100DC0000AD91CEB030300F1FF3180F0FC809E4246
:100DD00040F2F980634402389B1B40EA0440002142
:100DE0001DB1D3400022C5E90032BDE8F0878B4237
:100DF00005D90DB1C5E9000100210846F5E7B3FAB0
:100E000083F1002946D1A34202D39042C0F0F08082
:100E1000861A64EB03030120002DE6D0C5E90063C8
:100E2000E3E7002A40F09080A1EB0C044FEA1C4855
:100E30001FFA8CF70121B4FBF8F64FEA1E4308FBBA
:100E4000164443EA044307FB06F0984208D91CEB1A
:100E5000030306F1FF3402D2984200F2CD80264609
:100E60001C1A1FFA8EF3B4FBF8F008FB104443EA97
:100E7000044300FB07F79F4208D91CEB030300F172
:100E8000FF3402D29F4200F2B0802046DB1B40EAD2
:100E90000640A5E7C1F120068B4022FA06F71F4362
:100EA00020FA06FC04FA01F343EA0C03F44000FACA
:100EB00001F8380C4FEA1349B4FBF0FE1FFA87FC27
:100EC00000FB1E4449EA04440EFB0CF9A14502FA5A
:100ED00001F20AD93C190EF1FF3A80F08480A14555
:100EE00040F28180AEF1020E3C44A4EB09041FFAEB
:100EF00083F9B4FBF0F300FB134449EA044403FB19
:100F00000CFCA44507D93C1903F1FF3067D2A44576
:100F100065D9023B3C4443EA0E40A0FB0293A4EB9C
:100F20000C049C42CE469C4651D34ED055B1B8EBF2
:100F30000E0364EB0C0404FA06F6CB401E43CC40CF
:100F4000C5E90064002150E7C2F1200320FA03F153
:100F50000CFA02FC24FA03F394400C434FEA1C48B9
:100F600000FA02FE1FFA8CF7B3FBF8F008FB103111
:100F7000230C43EA014300FB07F1994208D91CEB1B
:100F8000030300F1FF362CD299422AD90238634478
:100F90005B1AA4B2B3FBF8F108FB113344EA034433
:100FA00001FB07F3A34208D91CEB040401F1FF364F
:100FB00013D2A34211D902396444E41A41EA004130
:100FC00039E70446F0E6084606E7C845AED2B9EB75
:100FD000020E63EB070C0138A8E73146EDE7034644
:100FE00099E73046D4E7D6467FE7634402384DE7B9
:100FF0000646234608460FE7023E634430E700BF3B
:10100000704700BF80B483B000AF78607B685B69D5
:1010100003F08003802B0CBF01230023DBB21846B2
:101020000C37BD465DF8047B704780B483B000AFD9
:1010300078607B685B6903F04003402B0CBF0123A1
:101040000023DBB218460C37BD465DF8047B7047C1
:1010500080B483B000AF78607B685B6903F0010304
:10106000012B0CBF01230023DBB218460C37BD4611
:101070005DF8047B704780B483B000AF78607B6814
:101080005B6903F00203022B0CBF01230023DBB2D8
:1010900018460C37BD465DF8047B704780B483B0BA
:1010A00000AF78607B689B6903F00203022B0CBFE2
:1010B00001230023DBB218460C37BD465DF8047BE4
:1010C000704780B485B000AF78607B685B69FB6077
:1010D000FB687B689B69FB60FB6800BF1437BD46FB
:1010E0005DF8047B704780B483B000AF78603960EE
:1010F0007B681B6823F480623B681A437B681A6034
:1011000000BF0C37BD465DF8047B704780B483B0E8
:1011100000AF78607B681B6843F480727B681A605C
:1011200000BF0C37BD465DF8047B704780B483B0C8
:1011300000AF78607B681B6843F400727B681A60BC
:1011400000BF0C37BD465DF8047B704780B483B0A8
:1011500000AF78607B681B69DBB218460C37BD4670
:101160005DF8047B704780B483B000AF78600B46B5
:10117000FB707B681B6923F0FF02FB781A437B68D6
:101180001A6100BF0C37BD465DF8047B7047000054
:1011900080B582B000AF03460A46FB711346BB71AF
:1011A00000BF1E48FFF77AFF0346002BF9D11B480A
:1011B000FFF7ACFF00BF1948FFF74AFF0346002BBB
:1011C000F9D0D0211548FFF7CEFF00BF1348FFF735
:1011D00052FF0346002BF9D01048FFF772FFFB794E
:1011E00019460E48FFF7BFFF00BF0C48FFF70AFF84
:1011F0000346002BF9D0BB7919460848FFF7B3FF27
:1012000000BF0648FFF7FEFE0346002BF9D0034857
:10121000FFF78CFF00BF0837BD4680BD005400407B
:1012200080B584B000AF0346FB710023FB7300BFA1
:101230002C48FFF733FF0346002BF9D12948FFF76D
:1012400065FF00BF2748FFF703FF0346002BF9D0D7
:10125000D0212448FFF787FF00BF2248FFF70BFF8C
:101260000346002BF9D01F48FFF72BFFFB791946E7
:101270001C48FFF778FF00BF1A48FFF7C3FE03467C
:10128000002BF9D01748FFF741FF00BF1548FFF7C3
:10129000DFFE0346002BF9D0D1211248FFF763FF90
:1012A00000BF1048FFF7E7FE0346002BF9D00D48BA
:1012B000FFF707FF00210B48FFF715FF00BF0948A4
:1012C000FFF7B3FE0346002BF9D00648FFF73EFFB9
:1012D0000346FB730348FFF729FFFB7B18461037D3
:1012E000BD4680BD0054004090B583B000AF0446B9
:1012F000084611461A462346FB710346BB710B464E
:101300007B7113463B7197F82030554AA2FB0323AB
:10131000DB08DBB21B0158B297F82020504BA3FB2F
:101320000213D9080B469B000B445B00D31ADBB2B7
:101330005BB203435BB2DBB219460020FFF728FF24
:101340003B7F474AA2FB0323DB08DBB21B0158B2F9
:101350003A7F434BA3FB0213D9080B469B000B4477
:101360005B00D31ADBB25BB203435BB2DBB219465C
:101370000120FFF70DFF3B7E394AA2FB0323DB0868
:10138000DBB21B0158B23A7E354BA3FB0213D908DE
:101390000B469B000B445B00D31ADBB25BB20343EA
:1013A0005BB2DBB219460220FFF7F2FEFB79194669
:1013B0000320FFF7EDFEBB79294AA2FB0323DB08DC
:1013C000DBB21B0158B2BA79254BA3FB0213D90833
:1013D0000B469B000B445B00D31ADBB25BB20343AA
:1013E0005BB2DBB219460420FFF7D2FE7B791C4AC0
:1013F000A2FB0323DB08DBB21B0158B27A79184B3E
:10140000A3FB0213D9080B469B000B445B00D31AC5
:10141000DBB25BB203435BB2DBB219460520FFF7D8
:10142000B7FE3B790E4AA2FB0323DB08DBB21B01AC
:1014300058B23A790A4BA3FB0213D9080B469B001A
:101440000B445B00D31ADBB25BB203435BB2DBB28B
:1014500019460620FFF79CFE00BF0C37BD4690BD25
:10146000CDCCCCCC80B584B000AFF860B9607A60E8
:101470003B600020FFF7D4FE03461A463B6A1A7011
:101480000120FFF7CDFE03461A46FB691A700220C1
:10149000FFF7C6FE03461A46BB691A700320FFF722
:1014A000BFFE03461A46FB681A700420FFF7B8FE19
:1014B00003461A46BB681A700520FFF7B1FE0346C3
:1014C0001A467B681A700620FFF7AAFE03461A46E2
:1014D0003B681A703B6A1B781B09DBB21A46920004
:1014E00013445B00DAB23B6A1B7803F00F03DBB2F4
:1014F0001344DAB23B6A1A70FB691B781B09DBB232
:101500001A46920013445B00DAB2FB691B7803F0C1
:101510000F03DBB21344DAB2FB691A70BB691B78A4
:101520001B09DBB21A46920013445B00DAB2BB69B6
:101530001B7803F00F03DBB21344DAB2BB691A70F5
:10154000BB681B781B09DBB21A46920013445B0090
:10155000DAB2BB681B7803F00F03DBB21344DAB2D4
:10156000BB681A707B681B781B09DBB21A469200B5
:1015700013445B00DAB27B681B7803F00F03DBB225
:101580001344DAB27B681A703B681B781B09DBB224
:101590001A46920013445B00DAB23B681B7803F0F2
:1015A0000F03DBB21344DAB23B681A7000BF103786
:1015B000BD4680BD80B582B000AF1120FFF730FE80
:1015C0000346FB711220FFF72BFE0346BB71FB792C
:1015D0001B021AB2BB791BB21343BB80B7F90430AC
:1015E0001846FEF7AFFF4FF00002094BFFF73EF938
:1015F00002460B4610461946FFF706FB03463B60C2
:101600003B6807EE903AB0EE670A0837BD4680BDEA
:101610000000704080B483B000AF03463960FB71B6
:1016200097F90730002B0ADB3B68DAB20C4997F9CF
:1016300007301201D2B20B4483F800230AE03B6862
:10164000DAB20849FB7903F00F03043B1201D2B26E
:101650000B441A7600BF0C37BD465DF8047B70471B
:1016600000E100E000ED00E080B582B000AF7860FE
:101670007B68013BB3F1807F01D301230FE00A4A6D
:101680007B68013B53600F214FF0FF30FFF7C2FF33
:10169000054B00229A60044B07221A60002318466B
:1016A0000837BD4680BD00BF10E000E080B400AF49
:1016B000054B1B68044A43F00103136000BFBD469D
:1016C0005DF8047B704700BF10E000E080B500AF1C
:1016D000054B1B68054AA2FB03239B091846FFF72D
:1016E000C3FF00BF80BD00BFD4030020D34D6210F4
:1016F00080B483B000AF78607B681B6803F002039E
:10170000022B0CBF01230023DBB218460C37BD4669
:101710005DF8047B704780B483B000AF78607B686D
:101720001B6803F00403042B0CBF01230023DBB26E
:1017300018460C37BD465DF8047B704780B483B013
:1017400000AF78607B681B6803F00803082B0CBFB0
:1017500001230023DBB218460C37BD465DF8047B3D
:10176000704780B483B000AF78607B681B6803F07B
:101770002003202B0CBF01230023DBB218460C37BB
:10178000BD465DF8047B704780B483B000AF7860DD
:101790007B681B6803F08003802B0CBF01230023B0
:1017A000DBB218460C37BD465DF8047B704780B449
:1017B00085B000AF78607B681B68FB60FB687B6866
:1017C0005B68FB60FB6800BF1437BD465DF8047BB7
:1017D000704780B485B000AF78607B681B68FB60A1
:1017E000FB687B685B68FB60FB6800BF1437BD4625
:1017F0005DF8047B704780B485B000AF78607B688B
:101800001B68FB60FB687B685B68FB60FB6800BF74
:101810001437BD465DF8047B704780B489B000AFD3
:1018200078607B680C33FB60FB6853E8003FBB606B
:10183000BB6843F02003FB617B680C33FA69BA6133
:101840007B617969BA6941E800233B613B69002B00
:10185000E7D100BF00BF2437BD465DF8047B704769
:1018600080B489B000AF78607B680C33FB60FB68A4
:1018700053E8003FBB60BB6843F08003FB617B68BB
:101880000C33FA69BA617B617969BA6941E800236E
:101890003B613B69002BE7D100BF00BF2437BD4649
:1018A0005DF8047B704780B489B000AF78607B68D6
:1018B0001433FB60FB6853E8003FBB60BB6843F038
:1018C0000103FB617B681433FA69BA617B61796952
:1018D000BA6941E800233B613B69002BE7D100BFB7
:1018E00000BF2437BD465DF8047B704780B489B0E3
:1018F00000AF78607B680C33FB60FB6853E8003F07
:10190000BB60BB6823F02003FB617B680C33FA6982
:10191000BA617B617969BA6941E800233B613B693F
:10192000002BE7D100BF00BF2437BD465DF8047B24
:10193000704780B489B000AF78607B680C33FB607F
:10194000FB6853E8003FBB60BB6823F08003FB618A
:101950007B680C33FA69BA617B617969BA6941E8DD
:1019600000233B613B69002BE7D100BF00BF243758
:10197000BD465DF8047B704780B483B000AF7860EB
:101980007B68DB6803F02003202B0CBF01230023BE
:10199000DBB218460C37BD465DF8047B704780B457
:1019A00083B000AF78607B68DB6803F08003802B36
:1019B0000CBF01230023DBB218460C37BD465DF88F
:1019C000047B704780B483B000AF78607B685B684D
:1019D000DBB218460C37BD465DF8047B704780B417
:1019E00083B000AF78600B46FB70FA787B685A6072
:1019F00000BF0C37BD465DF8047B704780B500AF73
:101A0000204B214A1A60214B214A1A60214B224A5D
:101A10001A60224B224A1A60224B234A1A60234B37
:101A2000234A1A60234B244A1A60244B244A1A6022
:101A3000244B1B681846FFF736FF234B1B681846DC
:101A4000FFF731FF214B1B681846FFF72CFF204B97
:101A50001B681846FFF727FF1A4B1B681846FFF74D
:101A6000DCFE194B1B681846FFF7D7FE174B1B68A7
:101A70001846FFF7D2FE164B1B681846FFF7CDFE3F
:101A800000BF80BD0C460020CC0500201046002081
:101A9000D40D002014460020DC150020184600203C
:101AA000E41D00201C460020EC25002020460020DC
:101AB000F42D002024460020FC350020284600207C
:101AC000043E002000000020040000200800002048
:101AD0000C00002080B584B000AF03463960FB7174
:101AE0003B68D3F800380133C3F30A03FB603B685B
:101AF000D3F80428FB689A4231D01B4B1B68184668
:101B0000FFF7F4FE194B1B681846FFF7EFFE184B62
:101B10001B681846FFF7EAFE164B1B681846FFF7CE
:101B2000E5FE3B68D3F800383A68F979D154FA6891
:101B30003B68C3F800280C4B1B681846FFF76DFE86
:101B40000A4B1B681846FFF768FE094B1B681846CE
:101B5000FFF763FE074B1B681846FFF75EFE00BFEA
:101B60001037BD4680BD00BF0000002004000020EB
:101B7000080000200C00002080B584B000AF786021
:101B80007B68414A934209D03F4A934212D83F4A68
:101B9000934207D03E4A934208D00BE03D4B1B686E
:101BA000FB600BE03C4B1B68FB6007E03B4B1B689A
:101BB000FB6003E03A4B1B68FB6000BFFB68D3F897
:101BC0000028FB68D3F804389A4202D14FF0FF3363
:101BD00055E07B682C4A934205D1324B1B6818466E
:101BE000FFF784FE18E07B68284A934205D12E4B0C
:101BF0001B681846FFF77AFE0EE07B68244A934282
:101C000005D12A4B1B681846FFF770FE04E0284BED
:101C10001B681846FFF76AFEFB68D3F80438FA68B9
:101C2000D35CFB72FB68D3F804380133C3F30A02B8
:101C3000FB68C3F804287B68134A934205D1194B0B
:101C40001B681846FFF7E9FD18E07B680F4A9342CE
:101C500005D1154B1B681846FFF7DFFD0EE07B68CA
:101C60000B4A934205D1114B1B681846FFF7D5FD6F
:101C700004E00F4B1B681846FFF7CFFDFB7A1846B0
:101C80001037BD4680BD00BF001001400044004039
:101C9000005000400C460020144600201C46002046
:101CA000244600200000002004000020080000203E
:101CB0000C00002080B584B000AF786039607B688C
:101CC000544A934209D0534A934212D8524A9342FB
:101CD00007D0524A934208D00BE0514B1B68FB607F
:101CE0000BE0504B1B68FB6007E04F4B1B68FB6031
:101CF00003E04E4B1B68FB6000BF3B68002BC0F24B
:101D00008580FB68D3F800380133C3F30A03BB6056
:101D10007B68404A934205D1454B1B681846FFF744
:101D2000E5FD18E07B683C4A934205D1414B1B68B6
:101D30001846FFF7DBFD0EE07B68384A934205D179
:101D40003D4B1B681846FFF7D1FD04E03B4B1B6879
:101D50001846FFF7CBFD00BFFB68D3F80428BB682B
:101D60009A42F9D0FB68D3F800383A68D1B2FA68E1
:101D7000D154BA68FB68C3F800287B68254A9342AF
:101D800005D12B4B1B681846FFF747FD18E07B6811
:101D9000214A934205D1274B1B681846FFF73DFDAA
:101DA0000EE07B681D4A934205D1234B1B68184601
:101DB000FFF733FD04E0214B1B681846FFF72DFDAC
:101DC0007B68144A934209D0124A934218D8124AA7
:101DD000934209D0114A93420CD011E0144B1B6876
:101DE0001846FFF73DFD11E0124B1B681846FFF740
:101DF00037FD0BE0104B1B681846FFF731FD05E07F
:101E00000E4B1B681846FFF72BFD00BF00BF1037B5
:101E1000BD4680BD0010014000440040005000401D
:101E200010460020184600202046002028460020AA
:101E30000000002004000020080000200C0000200A
:101E400080B485B000AF78607B68194A934209D0AE
:101E5000174A934212D8174A934207D0164A934220
:101E600008D00BE0154B1B68FB600BE0144B1B68A4
:101E7000FB6007E0134B1B68FB6003E0124B1B6821
:101E8000FB6000BFFB68D3F800389AB2FB68D3F858
:101E900004389BB2D31A9BB203F500639BB2C3F321
:101EA0000A0318461437BD465DF8047B704700BF2F
:101EB0000010014000440040005000400C4600204B
:101EC000144600201C4600202446002080B582B025
:101ED00000AF7860396007E03B685A1C3A601B78B5
:101EE00019467868FFF7E6FE3B681B78002BF3D1B4
:101EF00000BF00BF0837BD4680BD000080B584B07C
:101F000000AF78607B68184A934209D0164A934222
:101F100012D8164A934207D0154A934208D00BE0D4
:101F2000144B1B68FB600BE0134B1B68FB6007E066
:101F3000124B1B68FB6003E0114B1B68FB6000BF8A
:101F4000FB684FF40062002118460CF0FAF9FB68B8
:101F50000022C3F80028FB680022C3F8042800BF51
:101F60001037BD4680BD00BF001001400044004056
:101F7000005000400C460020144600201C46002063
:101F80002446002080B586B000AF78607B68464A62
:101F9000934209D0444A93421BD8444A93420AD000
:101FA000434A93420ED014E0424B1B687B61424B84
:101FB0001B683B6114E0414B1B687B61404B1B6815
:101FC0003B610DE03F4B1B687B613F4B1B683B61F6
:101FD00006E03E4B1B687B613D4B1B683B6100BFCD
:101FE0007868FFF7BEFB0346002B2CD07868FFF71C
:101FF000C3FC0346002B26D07868FFF7E3FC0346BA
:10200000FB737868FFF79AFB0346002B0BD17868C7
:10201000FFF76EFB0346002B05D17868FFF77BFBCB
:102020000346002B09D07868FFF7E5FB7868FFF7D7
:10203000BEFB7868FFF7CDFB32E0FB7B7969184681
:10204000FFF748FD2CE07868FFF79EFB0346002B66
:1020500026D07868FFF7A3FC0346002B20D03B690D
:10206000D3F800283B69D3F804389A4203D1786842
:10207000FFF75FFC13E03B69D3F804383A69D35C9F
:10208000BB733B69D3F804380133C3F30A023B69DD
:10209000C3F80428BB7B19467868FFF7A0FC00BF93
:1020A0001837BD4680BD00BF00100140004400400D
:1020B000005000400C46002010460020144600202E
:1020C000184600201C460020204600202446002000
:1020D0002846002080B400AF054B00221A70054B43
:1020E00000221A7000BFBD465DF8047B704700BF38
:1020F0002D4700202E47002080B400AF034B012263
:102100001A7000BFBD465DF8047B70472D47002064
:1021100080B400AF034B00221A7000BFBD465DF8CB
:10212000047B70472D47002080B582B000AF7860F7
:102130000B46FB7000BF124B1B78DBB2002BFAD1B1
:102140000F4B01221A70FF2200210E480CF0F9F803
:10215000FB781A4679680B480CF073F90A4AFB7849
:102160001370074B00221A70084B01221A704FF4AB
:102170007A71032008F014F900BF0837BD4680BD0E
:102180002C4700202C4600202B4700202D47002004
:1021900080B500AF0249034808F02EF900BF80BDAA
:1021A000140000201000002080B582B000AF032092
:1021B00008F00CF90346002B57D02E4B1B78DBB2EE
:1021C000002B4DD02C4B1B78DBB2012B33D800BF3A
:1021D0002A4B1B78DBB2002BFAD1284B01221A7054
:1021E000274B1B78DBB21A46264927480CF029F901
:1021F00000237B600AE0244A7B6813441B7819465D
:102200002248FFF757FD7B6801337B601C4B1B782E
:10221000DBB21A467B689342EDDB174B1B78DBB2CF
:102220000133DAB2144B1A70124B01221A70134B9D
:1022300000221A7014E0104B00221A70FFF768FF9A
:1022400013491448FFF742FE13491248FFF73EFEB8
:102250000F491248FFF73AFE0F491048FFF736FEC4
:102260004FF47A71032008F09BF800BF0837BD4691
:1022700080BD00BF2D4700202E4700202C470020A6
:102280002B4700202C460020304700200010014042
:10229000181A0108005000402C1A010800140140CF
:1022A00080B483B000AF786039607B683A689A6127
:1022B00000BF0C37BD465DF8047B704780B500AFAA
:1022C0000649074808F098F84FF47A71072008F09B
:1022D00067F8FFF793FB00BF80BD00BF3000002010
:1022E0002C00002080B584B000AF244B1B78002B5D
:1022F00040D0072008F06AF80346002B3AD0204B64
:102300001B78DBB2002B35D11E4B1B78DBB2002BC8
:1023100030D11D4B1B78DBB2002B2BD01B4B1B7815
:10232000DBB2002B26D0002004F0D6FC1848FFF7C3
:10233000E5FD184BBB600923FB710023FB600AE03D
:10234000FB68BA6813441B7819461148FFF7B2FCC2
:10235000FB680133FB60FB79FA689A42F0DB0E4BB5
:1023600000221A70074B01221A704FF47A7107206D
:1023700008F016F800BF1037BD4680BD5849002050
:102380002D4700202F4800203C0000203D00002069
:1023900000100140200000203E00002080B5ADF577
:1023A0000A7D02AF07F50873A3F50773186007F5F8
:1023B0000873A3F50873196007F50873A3F507738D
:1023C0001B68032B01DC0323D8E007F50873A3F592
:1023D00007731B68042B01DD0223CFE007F50873A8
:1023E000A3F508731B6804331B6818460AF08EFFB8
:1023F000034687F81B3297F81B32032B01D90423BD
:10240000BCE007F50873A3F508731B6808331B6865
:1024100018460AF07BFF0346A7F81832B7F81832BF
:10242000B3F5FA7F01D90423A8E04FF400615648C0
:10243000FFF736FF4FF480515348FFF731FF07F5A0
:102440000873A3F507731B6803F18043013B9B00EE
:1024500007F50872A2F50872126813441B68C7F8E2
:102460001432D7F81432494A934203D1484B01221F
:102470001A7002E0464B00221A70012387F81332CB
:1024800097F81B3287F81032B7F818321B0A9BB244
:10249000DBB287F81132B7F81832DBB287F81232A4
:1024A00007F5047197F8130207F588730193012368
:1024B00000930523032208F04BF907F10F0207F1FF
:1024C000100107F58873184608F0C8F907F5087376
:1024D000A3F211231B78002B2CD00023C7F81C3249
:1024E00010E007F50873A3F50472D7F81C32134403
:1024F0001B7819462748FFF7DDFBD7F81C3201335C
:10250000C7F81C3207F50873A3F211231B781A468B
:10251000D7F81C329342E4DB07F50873A3F21123CA
:102520001A7807F1100311461846FFF7FDFDFFF773
:10253000E3FD22E007F5047197F8130207F58873AD
:102540000193012300930523032208F001F907F109
:102550000F0207F1100107F58873184608F07EF99D
:1025600007F50873A3F211231A7807F11003114637
:102570001846FFF7D9FDFFF7BFFD0523184607F5FD
:102580000877BD4680BD00BF0000024000500040FB
:10259000304800200010014080B5ADF50A7D02AF43
:1025A00007F50873A3F50773186007F50873A3F51B
:1025B0000873196007F50873A3F507731B68032BED
:1025C00001DC0323CFE007F50873A3F507731B684D
:1025D000042B01DD0223C6E007F50873A3F5087399
:1025E0001B6804331B6818460AF090FE034687F800
:1025F0001B3297F81B32012B01D90423B3E007F5F6
:102600000873A3F508731B6808331B6818460AF0A3
:102610007DFE034687F81A3297F81A32032B01D948
:102620000423A0E04FF400615148FFF739FE4FF456
:1026300080514F48FFF734FE07F50873A3F5077381
:102640001B6803F18043013B9B0007F50872A2F56C
:102650000872126813441B68C7F81432D7F8143292
:10266000444A934203D1444B01221A7002E0424B88
:1026700000221A70022387F8133297F81B3287F86A
:10268000103297F81A3287F8113207F5047197F86B
:10269000130207F588730193012300930523022297
:1026A00008F056F807F10F0207F1100107F58873DB
:1026B000184608F0D3F807F50873A3F211231B7826
:1026C000002B2CD00023C7F81C3210E007F508734C
:1026D000A3F50472D7F81C3213441B781946274817
:1026E000FFF7E8FAD7F81C320133C7F81C3207F5B8
:1026F0000873A3F211231B781A46D7F81C329342B1
:10270000E4DB07F50873A3F211231A7807F110032D
:1027100011461846FFF708FDFFF7EEFC22E007F52B
:10272000047197F8130207F588730193012300934E
:102730000523022208F00CF807F10F0207F110013F
:1027400007F58873184608F089F807F50873A3F2AF
:1027500011231A7807F1100311461846FFF7E4FC1D
:10276000FFF7CAFC0523184607F50877BD4680BD6C
:10277000000002400050004030480020001001409E
:1027800080B5ADF50A7D02AF07F50873A3F50773B1
:10279000186007F50873A3F50873196007F5087347
:1027A000A3F507731B68022B01DC0323B8E007F5D0
:1027B0000873A3F507731B68032B01DD0223AFE049
:1027C00007F50873A3F508731B6804331B681846E4
:1027D0000AF09CFD034687F81B3297F81B32032B47
:1027E00001D904239CE04FF400615048FFF758FDE5
:1027F0004FF480514D48FFF753FD07F50873A3F5DB
:1028000007731B6803F18043013B9B0007F50872C7
:10281000A2F50872126813441B68C7F81432D7F87F
:102820001432434A934203D1424B01221A7002E010
:10283000404B00221A70032387F8133297F81B329B
:1028400087F8103207F5047197F8130207F58873BB
:102850000193012300930523012207F079FF07F17B
:102860000F0207F1100107F58873184607F0F6FF0D
:1028700007F50873A3F211231B78002B2CD000233B
:10288000C7F81C3210E007F50873A3F50472D7F8F7
:102890001C3213441B7819462748FFF70BFAD7F868
:1028A0001C320133C7F81C3207F50873A3F2112359
:1028B0001B781A46D7F81C329342E4DB07F50873FD
:1028C000A3F211231A7807F1100311461846FFF7F7
:1028D0002BFCFFF711FC22E007F5047197F81302B7
:1028E00007F588730193012300930523012207F064
:1028F0002FFF07F10F0207F1100107F58873184643
:1029000007F0ACFF07F50873A3F211231A7807F15B
:10291000100311461846FFF707FCFFF7EDFB0523F0
:10292000184607F50877BD4680BD00BF000002408D
:1029300000500040304800200010014080B5ADF547
:102940000A7D02AF07F50873A3F50773186007F552
:102950000873A3F50873196007F50873A3F50773E7
:102960001B68022B01DC0323B8E007F50873A3F50D
:1029700007731B68032B01DD0223AFE007F5087323
:10298000A3F508731B6804331B6818460AF0BEFCE5
:10299000034687F81B3297F81B32032B01D9042317
:1029A0009CE04FF400615048FFF77AFC4FF48051EF
:1029B0004D48FFF775FC07F50873A3F507731B680F
:1029C00003F18043013B9B0007F50872A2F50872F2
:1029D000126813441B68C7F81432D7F81432434AFC
:1029E000934203D1424B01221A7002E0404B002275
:1029F0001A70042387F8133297F81B3287F81032C5
:102A000007F5047197F8130207F588730193012302
:102A100000930523012207F09BFE07F10F0207F147
:102A2000100107F58873184607F018FF07F50873BB
:102A3000A3F211231B78002B2CD00023C7F81C32E3
:102A400010E007F50873A3F50472D7F81C3213449D
:102A50001B7819462748FFF72DF9D7F81C320133A8
:102A6000C7F81C3207F50873A3F211231B781A4626
:102A7000D7F81C329342E4DB07F50873A3F2112365
:102A80001A7807F1100311461846FFF74DFBFFF7C0
:102A900033FB22E007F5047197F8130207F58873FA
:102AA0000193012300930523012207F051FE07F152
:102AB0000F0207F1100107F58873184607F0CEFEE4
:102AC00007F50873A3F211231A7807F110031146D2
:102AD0001846FFF729FBFFF70FFB0523184607F5FC
:102AE0000877BD4680BD00BF000002400050004096
:102AF000304800200010014080B5ADF50A7D02AFDE
:102B000007F50873A3F50773186007F50873A3F5B5
:102B10000873196007F50873A3F507731B68022B88
:102B200001DC0323B8E007F50873A3F507731B68FE
:102B3000032B01DD0223AFE007F50873A3F508734B
:102B40001B6804331B6818460AF0E0FB034687F84D
:102B50001B3297F81B32032B01D904239CE04FF45E
:102B600000615048FFF79CFB4FF480514D48FFF740
:102B700097FB07F50873A3F507731B6803F1804300
:102B8000013B9B0007F50872A2F508721268134416
:102B90001B68C7F81432D7F81432434A934203D162
:102BA000424B01221A7002E0404B00221A700523AA
:102BB00087F8133297F81B3287F8103207F5047143
:102BC00097F8130207F588730193012300930523F7
:102BD000012207F0BDFD07F10F0207F1100107F513
:102BE0008873184607F03AFE07F50873A3F211231D
:102BF0001B78002B2CD00023C7F81C3210E007F5FF
:102C00000873A3F50472D7F81C3213441B781946D5
:102C10002748FFF74FF8D7F81C320133C7F81C32AA
:102C200007F50873A3F211231B781A46D7F81C3254
:102C30009342E4DB07F50873A3F211231A7807F136
:102C4000100311461846FFF76FFAFFF755FA22E016
:102C500007F5047197F8130207F5887301930123B0
:102C600000930523012207F073FD07F10F0207F11E
:102C7000100107F58873184607F0F0FD07F5087393
:102C8000A3F211231A7807F1100311461846FFF733
:102C90004BFAFFF731FA0523184607F50877BD46CA
:102CA00080BD00BF000002400050004030480020BE
:102CB0000010014080B5ADF50A7D02AF07F508733D
:102CC000A3F50773186007F50873A3F50873196077
:102CD00007F50873A3F507731B68022B01DC0323B8
:102CE000B8E007F50873A3F507731B68032B01DD34
:102CF0000223AFE007F50873A3F508731B680433DC
:102D00001B6818460AF002FB034687F81B3297F847
:102D10001B32032B01D904239CE04FF4006150487F
:102D2000FFF7BEFA4FF480514D48FFF7B9FA07F5A7
:102D30000873A3F507731B6803F18043013B9B00F5
:102D400007F50872A2F50872126813441B68C7F8E9
:102D50001432D7F81432434A934203D1424B012232
:102D60001A7002E0404B00221A70062387F81332D3
:102D700097F81B3287F8103207F5047197F81302A1
:102D800007F588730193012300930523012207F0BF
:102D9000DFFC07F10F0207F1100107F588731846F1
:102DA00007F05CFD07F50873A3F211231B78002BD5
:102DB0002CD00023C7F81C3210E007F50873A3F5E8
:102DC0000472D7F81C3213441B7819462748FEF7C3
:102DD00071FFD7F81C320133C7F81C3207F50873AE
:102DE000A3F211231B781A46D7F81C329342E4DB76
:102DF00007F50873A3F211231A7807F1100311469F
:102E00001846FFF791F9FFF777F922E007F504710B
:102E100097F8130207F588730193012300930523A4
:102E2000012207F095FC07F10F0207F1100107F5E9
:102E30008873184607F012FD07F50873A3F21123F3
:102E40001A7807F1100311461846FFF76DF9FFF7DE
:102E500053F90523184607F50877BD4680BD00BF26
:102E600000000240005000403048002000100140A7
:102E700080B5ADF50A7D02AF07F50873A3F50773BA
:102E8000186007F50873A3F50873196007F5087350
:102E9000A3F507731B68022B01DC0323B8E007F5D9
:102EA0000873A3F507731B68032B01DD0223AFE052
:102EB00007F50873A3F508731B6804331B681846ED
:102EC0000AF024FA034687F81B3297F81B32032BCB
:102ED00001D904239CE04FF400615048FFF7E0F96A
:102EE0004FF480514D48FFF7DBF907F50873A3F560
:102EF00007731B6803F18043013B9B0007F50872D1
:102F0000A2F50872126813441B68C7F81432D7F888
:102F10001432434A934203D1424B01221A7002E019
:102F2000404B00221A70072387F8133297F81B32A0
:102F300087F8103207F5047197F8130207F58873C4
:102F40000193012300930523012207F001FC07F1FF
:102F50000F0207F1100107F58873184607F07EFC91
:102F600007F50873A3F211231B78002B2CD0002344
:102F7000C7F81C3210E007F50873A3F50472D7F800
:102F80001C3213441B7819462748FEF793FED7F8E6
:102F90001C320133C7F81C3207F50873A3F2112362
:102FA0001B781A46D7F81C329342E4DB07F5087306
:102FB000A3F211231A7807F1100311461846FFF700
:102FC000B3F8FFF799F822E007F5047197F81302B8
:102FD00007F588730193012300930523012207F06D
:102FE000B7FB07F10F0207F1100107F588731846C8
:102FF00007F034FC07F50873A3F211231A7807F1E0
:10300000100311461846FFF78FF8FFF775F80523F0
:10301000184607F50877BD4680BD00BF0000024096
:1030200000500040304800200010014080B5ADF550
:103030000A7D02AF07F50873A3F50773186007F55B
:103040000873A3F50873196007F50873A3F50773F0
:103050001B68042B01DC0323EFE007F50873A3F5DD
:1030600007731B68052B01DD0223E6E007F50873F3
:10307000A3F508731B6804331B6818460AF046F969
:10308000034687F81B3297F81B32032B01D9042320
:10309000D3E007F50873A3F508731B6808331B68B2
:1030A00018460AF033F9034687F81A3297F81A32AD
:1030B000012B01D90423C0E007F50873A3F50873B9
:1030C0001B680C331B6818460AF020F90346A7F862
:1030D0001832B7F81832B3F5FA7F01D90423ACE0FF
:1030E0004FF400615748FFF7DBF84FF48051554823
:1030F000FFF7D6F807F50873A3F507731B6803F10C
:103100008043013B9B0007F50872A2F50872126824
:1031100013441B68C7F81432D7F814324A4A934252
:1031200003D14A4B01221A7002E0484B00221A7068
:10313000082387F8133297F81B3287F80C3297F878
:103140001A3287F80D32B7F818321B0A9BB2DBB27D
:1031500087F80E32B7F81832DBB287F80F3207F56E
:10316000037197F8130207F5867301930123009307
:103170000523042207F0ECFA07F10B0207F10C011A
:1031800007F58673184607F069FB07F50873A3F285
:1031900015231B78002B2CD00023C7F81C3210E01D
:1031A00007F50873A3F50572D7F81C3213441B7892
:1031B00019462748FEF77EFDD7F81C320133C7F8C1
:1031C0001C3207F50873A3F215231B781A46D7F8AB
:1031D0001C329342E4DB07F50873A3F215231A7837
:1031E00007F10C0311461846FEF79EFFFEF784FF19
:1031F00022E007F5037197F8130207F58673019330
:10320000012300930523042207F0A2FA07F10B0221
:1032100007F10C0107F58673184607F01FFB07F549
:103220000873A3F215231A7807F10C031146184608
:10323000FEF77AFFFEF760FF0523184607F50877CB
:10324000BD4680BD000002400050004030480020D4
:103250000010014080B5ADF50A7D02AF07F5087397
:10326000A3F50773186007F50873A3F508731960D1
:1032700007F50873A3F507731B68032B01DC032311
:10328000D8E007F50873A3F507731B68042B01DD6D
:103290000223CFE007F50873A3F508731B68043316
:1032A0001B6818460AF032F8034687F81B3297F875
:1032B0001B32032B01D90423BCE007F50873A3F5E7
:1032C00008731B6808331B6818460AF01FF803468A
:1032D000A7F81832B7F81832B3F5FA7F01D90423EA
:1032E000A8E04FF400615648FEF7DAFF4FF4805132
:1032F0005348FEF7D5FF07F50873A3F507731B685E
:1033000003F18043013B9B0007F50872A2F50872A8
:10331000126813441B68C7F81432D7F81432494AAC
:10332000934203D1484B01221A7002E0464B00221F
:103330001A70092387F8133297F81B3287F8103276
:10334000B7F818321B0A9BB2DBB287F81132B7F814
:103350001832DBB287F8123207F5047197F81302BE
:1033600007F588730193012300930523032207F0D7
:10337000EFF907F10F0207F1100107F588731846FE
:1033800007F06CFA07F50873A3F211231B78002BE2
:103390002CD00023C7F81C3210E007F50873A3F502
:1033A0000472D7F81C3213441B7819462748FEF7DD
:1033B00081FCD7F81C320133C7F81C3207F50873BB
:1033C000A3F211231B781A46D7F81C329342E4DB90
:1033D00007F50873A3F211231A7807F110031146B9
:1033E0001846FEF7A1FEFEF787FE22E007F50471FE
:1033F00097F8130207F588730193012300930523BF
:10340000032207F0A5F907F10F0207F1100107F5F4
:103410008873184607F022FA07F50873A3F2112300
:103420001A7807F1100311461846FEF77DFEFEF7E5
:1034300063FE0523184607F50877BD4680BD00BF2B
:1034400000000240005000403048002000100140C1
:1034500080B5ADF5067D00AF07F50673A3F50573DE
:10346000186007F50673A3F50673196007F5067370
:10347000A3F505731B68012B01DC032397E007F517
:103480000673A3F505731B68022B01DD02238EE092
:103490004FF400614848FEF703FF4FF4805146485F
:1034A000FEF7FEFE07F50673A3F505731B6803F12F
:1034B0008043013B9B0007F50672A2F50672126875
:1034C00013441B68C7F81032D7F810323B4A9342B6
:1034D00003D13B4B01221A7002E0394B00221A70D3
:1034E0000A2387F80F3207F5887397F80F02012235
:1034F000052107F005F907F10F0207F1100107F5A3
:103500008873184607F0AAF907F50673A3F2092392
:103510001B78002B2CD00023C7F8143210E007F5DD
:103520000673A3F50272D7F8143213441B781946B8
:103530002448FEF7BFFBD7F814320133C7F8143222
:1035400007F50673A3F209231B781A46D7F814323D
:103550009342E4DB07F50673A3F209231A7807F117
:10356000100311461846FEF7DFFDFEF7C5FD1DE00E
:1035700007F5887397F80F020122052107F0C0F8BC
:1035800007F10F0207F1100107F58873184607F0DD
:1035900065F907F50673A3F209231A7807F11003FA
:1035A00011461846FEF7C0FDFEF7A6FD0523184696
:1035B00007F50677BD4680BD000002400050004080
:1035C000304800200010014080B5ADF5067D00AF09
:1035D00007F50673A3F50573186007F50673A3F5E1
:1035E0000673196007F50673A3F505731B68012BB5
:1035F00001DC032397E007F50673A3F505731B6849
:10360000022B01DD02238EE04FF400614848FEF7F3
:1036100047FE4FF480514648FEF742FE07F5067319
:10362000A3F505731B6803F18043013B9B0007F57D
:103630000672A2F50672126813441B68C7F81032AE
:10364000D7F810323B4A934203D13B4B01221A7008
:1036500002E0394B00221A700B2387F80F3207F56E
:10366000887397F80F020122052107F049F807F146
:103670000F0207F1100107F58873184607F0EEF8FE
:1036800007F50673A3F209231B78002B2CD0002327
:10369000C7F8143210E007F50673A3F50272D7F8E5
:1036A000143213441B7819462448FEF703FBD7F85D
:1036B00014320133C7F8143207F50673A3F2092355
:1036C0001B781A46D7F814329342E4DB07F50673E9
:1036D000A3F209231A7807F1100311461846FEF7E2
:1036E00023FDFEF709FD1DE007F5887397F80F022B
:1036F0000122052107F004F807F10F0207F110017C
:1037000007F58873184607F0A9F807F50673A3F2C2
:1037100009231A7807F1100311461846FEF704FD35
:10372000FEF7EAFC0523184607F50677BD4680BD7F
:1037300000000240005000403048002000100140CE
:1037400080B5ADF5067D00AF07F50673A3F50573EB
:10375000186007F50673A3F50673196007F506737D
:10376000A3F505731B68012B01DC032397E007F524
:103770000673A3F505731B68022B01DD02238EE09F
:103780004FF400614848FEF78BFD4FF480514648E6
:10379000FEF786FD07F50673A3F505731B6803F1B5
:1037A0008043013B9B0007F50672A2F50672126882
:1037B00013441B68C7F81032D7F810323B4A9342C3
:1037C00003D13B4B01221A7002E0394B00221A70E0
:1037D0000C2387F80F3207F5887397F80F02012240
:1037E000052106F08DFF07F10F0207F1100107F523
:1037F0008873184607F032F807F50673A3F2092319
:103800001B78002B2CD00023C7F8143210E007F5EA
:103810000673A3F50272D7F8143213441B781946C5
:103820002448FEF747FAD7F814320133C7F81432A8
:1038300007F50673A3F209231B781A46D7F814324A
:103840009342E4DB07F50673A3F209231A7807F124
:10385000100311461846FEF767FCFEF74DFC1DE00D
:1038600007F5887397F80F020122052106F048FF3B
:1038700007F10F0207F1100107F58873184606F0EB
:10388000EDFF07F50673A3F209231A7807F1100379
:1038900011461846FEF748FCFEF72EFC0523184695
:1038A00007F50677BD4680BD00000240005000408D
:1038B000304800200010014080B5ADF50A7D02AF10
:1038C00007F50873A3F50773186007F50873A3F5E8
:1038D0000873196007F50873A3F507731B68052BB8
:1038E00001DC0323E5E007F50873A3F507731B6804
:1038F000062B01DD0223DCE007F50873A3F508734E
:103900001B6804331B68184609F000FD034687F85E
:103910001B3207F50873A3F508731B6808331B688F
:10392000184609F0F3FC034687F81A3207F50873C6
:10393000A3F508731B680C331B68184609F0E6FCF6
:10394000034687F8193207F50873A3F508731B6857
:1039500010331B68184609F0D9FC034687F8183263
:103960004FF400615548FEF79BFC4FF480515348DB
:10397000FEF796FC07F50873A3F507731B6803F1C0
:103980008043013B9B0007F50872A2F5087212689C
:1039900013441B68C7F81432D7F81432484A9342CC
:1039A00003D1484B01221A7002E0464B00221A70E4
:1039B0000D2387F8133297F81B3287F80C3297F8EB
:1039C0001A3287F80D3297F8193287F80E3297F8C5
:1039D000183287F80F3207F5037197F8130207F5CD
:1039E00086730193012300930523042206F0B0FEA1
:1039F00007F10B0207F10C0107F58673184606F074
:103A00002DFF07F50873A3F215231B78002B2CD08C
:103A10000023C7F81C3210E007F50873A3F5057200
:103A2000D7F81C3213441B7819462748FEF742F991
:103A3000D7F81C320133C7F81C3207F50873A3F21C
:103A400015231B781A46D7F81C329342E4DB07F59E
:103A50000873A3F215231A7807F10C0311461846D0
:103A6000FEF762FBFEF748FB22E007F5037197F8CB
:103A7000130207F5867301930123009305230422A3
:103A800006F066FE07F10B0207F10C0107F58673DD
:103A9000184606F0E3FE07F50873A3F215231A781B
:103AA00007F10C0311461846FEF73EFBFEF724FB18
:103AB0000523184607F50877BD4680BD0000024083
:103AC00000500040304800200010014080B5ADF5A6
:103AD000067D00AF07F50673A3F50573186007F5BB
:103AE0000673A3F50673196007F50673A3F505734E
:103AF0001B68012B01DC032397E007F50673A3F590
:103B000005731B68022B01DD02238EE04FF4006178
:103B10004848FEF7C5FB4FF480514648FEF7C0FB0E
:103B200007F50673A3F505731B6803F18043013B9A
:103B30009B0007F50672A2F50672126813441B6813
:103B4000C7F81032D7F810323B4A934203D13B4BAF
:103B500001221A7002E0394B00221A700E2387F8F6
:103B60000F3207F5887397F80F020122052106F03E
:103B7000C7FD07F10F0207F1100107F5887318461A
:103B800006F06CFE07F50673A3F209231B78002BE1
:103B90002CD00023C7F8143210E007F50673A3F504
:103BA0000272D7F8143213441B7819462448FEF7E2
:103BB00081F8D7F814320133C7F8143207F50673C9
:103BC000A3F209231B781A46D7F814329342E4DB98
:103BD00007F50673A3F209231A7807F110031146BB
:103BE0001846FEF7A1FAFEF787FA1DE007F588737D
:103BF00097F80F020122052106F082FD07F10F025E
:103C000007F1100107F58873184606F027FE07F53F
:103C10000673A3F209231A7807F110031146184618
:103C2000FEF782FAFEF768FA0523184607F50677CD
:103C3000BD4680BD000002400050004030480020DA
:103C40000010014080B5ADF50A7D02AF07F508739D
:103C5000A3F50773186007F50873A3F508731960D7
:103C600007F50873A3F507731B68022B01DC032318
:103C7000B8E007F50873A3F507731B68032B01DD94
:103C80000223AFE007F50873A3F508731B6804333C
:103C90001B68184609F03AFB034687F81B3297F871
:103CA0001B32642B01D904239CE04FF4006150487F
:103CB000FEF7F6FA4FF480514D48FEF7F1FA07F59A
:103CC0000873A3F507731B6803F18043013B9B0056
:103CD00007F50872A2F50872126813441B68C7F84A
:103CE0001432D7F81432434A934203D1424B012293
:103CF0001A7002E0404B00221A700F2387F813322B
:103D000097F81B3287F8103207F5047197F8130201
:103D100007F588730193012300930523012206F020
:103D200017FD07F10F0207F1100107F58873184618
:103D300006F094FD07F50873A3F211231B78002BFE
:103D40002CD00023C7F81C3210E007F50873A3F548
:103D50000472D7F81C3213441B7819462748FDF724
:103D6000A9FFD7F81C320133C7F81C3207F50873D6
:103D7000A3F211231B781A46D7F81C329342E4DBD6
:103D800007F50873A3F211231A7807F110031146FF
:103D90001846FEF7C9F9FEF7AFF922E007F50471FE
:103DA00097F8130207F58873019301230093052305
:103DB000012206F0CDFC07F10F0207F1100107F513
:103DC0008873184606F04AFD07F50873A3F211231D
:103DD0001A7807F1100311461846FEF7A5F9FEF709
:103DE0008BF90523184607F50877BD4680BD00BF4F
:103DF0000000024000500040304800200010014008
:103E000080B5ADF5067D00AF07F50673A3F5057324
:103E1000186007F50673A3F50673196007F50673B6
:103E2000A3F505731B68012B01DC032397E007F55D
:103E30000673A3F505731B68022B01DD02238EE0D8
:103E40004FF400614848FEF72BFA4FF48051464882
:103E5000FEF726FA07F50673A3F505731B6803F151
:103E60008043013B9B0007F50672A2F506721268BB
:103E700013441B68C7F81032D7F810323B4A9342FC
:103E800003D13B4B01221A7002E0394B00221A7019
:103E9000102387F80F3207F5887397F80F02012275
:103EA000052106F02DFC07F10F0207F1100107F5BF
:103EB0008873184606F0D2FC07F50673A3F20923AF
:103EC0001B78002B2CD00023C7F8143210E007F524
:103ED0000673A3F50272D7F8143213441B781946FF
:103EE0002448FDF7E7FED7F814320133C7F814323F
:103EF00007F50673A3F209231B781A46D7F8143284
:103F00009342E4DB07F50673A3F209231A7807F15D
:103F1000100311461846FEF707F9FEF7EDF81DE00D
:103F200007F5887397F80F020122052106F0E8FBD8
:103F300007F10F0207F1100107F58873184606F024
:103F40008DFC07F50673A3F209231A7807F1100315
:103F500011461846FEF7E8F8FEF7CEF80523184696
:103F600007F50677BD4680BD0000024000500040C6
:103F7000304800200010014080B5ADF5067D00AF4F
:103F800007F50673A3F50573186007F50673A3F527
:103F90000673196007F50673A3F505731B68012BFB
:103FA00001DC032397E007F50673A3F505731B688F
:103FB000022B01DD02238EE04FF400614848FEF73A
:103FC0006FF94FF480514648FEF76AF907F506731A
:103FD000A3F505731B6803F18043013B9B0007F5C4
:103FE0000672A2F50672126813441B68C7F81032F5
:103FF000D7F810323B4A934203D13B4B01221A704F
:1040000002E0394B00221A70112387F80F3207F5AE
:10401000887397F80F020122052106F071FB07F162
:104020000F0207F1100107F58873184606F016FC19
:1040300007F50673A3F209231B78002B2CD000236D
:10404000C7F8143210E007F50673A3F50272D7F82B
:10405000143213441B7819462448FDF72BFED7F879
:1040600014320133C7F8143207F50673A3F209239B
:104070001B781A46D7F814329342E4DB07F506732F
:10408000A3F209231A7807F1100311461846FEF728
:104090004BF8FEF731F81DE007F5887397F80F022B
:1040A0000122052106F02CFB07F10F0207F1100198
:1040B00007F58873184606F0D1FB07F50673A3F2DF
:1040C00009231A7807F1100311461846FEF72CF859
:1040D000FEF712F80523184607F50677BD4680BDA2
:1040E0000000024000500040304800200010014015
:1040F00080B5ADF5067D00AF07F50673A3F5057332
:10410000186007F50673A3F50673196007F50673C3
:10411000A3F505731B68012B01DC032397E007F56A
:104120000673A3F505731B68022B01DD02238EE0E5
:104130004FF400614848FEF7B3F84FF48051464809
:10414000FEF7AEF807F50673A3F505731B6803F1D8
:104150008043013B9B0007F50672A2F506721268C8
:1041600013441B68C7F81032D7F810323B4A934209
:1041700003D13B4B01221A7002E0394B00221A7026
:10418000122387F80F3207F5887397F80F02012280
:10419000052106F0B5FA07F10F0207F1100107F546
:1041A0008873184606F05AFB07F50673A3F2092335
:1041B0001B78002B2CD00023C7F8143210E007F531
:1041C0000673A3F50272D7F8143213441B7819460C
:1041D0002448FDF76FFDD7F814320133C7F81432C5
:1041E00007F50673A3F209231B781A46D7F8143291
:1041F0009342E4DB07F50673A3F209231A7807F16B
:10420000100311461846FDF78FFFFDF775FF1DE0FF
:1042100007F5887397F80F020122052106F070FA5E
:1042200007F10F0207F1100107F58873184606F031
:1042300015FB07F50673A3F209231A7807F110039B
:1042400011461846FDF770FFFDF756FF0523184687
:1042500007F50677BD4680BD0000024000500040D3
:10426000304800200010014080B5ADF5067D00AF5C
:1042700007F50673A3F50573186007F50673A3F534
:104280000673196007F50673A3F505731B68012B08
:1042900001DC032397E007F50673A3F505731B689C
:1042A000022B01DD02238EE04FF400614848FDF748
:1042B000F7FF4FF480514648FDF7F2FF07F506730C
:1042C000A3F505731B6803F18043013B9B0007F5D1
:1042D0000672A2F50672126813441B68C7F8103202
:1042E000D7F810323B4A934203D13B4B01221A705C
:1042F00002E0394B00221A70132387F80F3207F5BA
:10430000887397F80F020122052106F0F9F907F1E9
:104310000F0207F1100107F58873184606F09EFAA0
:1043200007F50673A3F209231B78002B2CD000237A
:10433000C7F8143210E007F50673A3F50272D7F838
:10434000143213441B7819462448FDF7B3FCD7F800
:1043500014320133C7F8143207F50673A3F20923A8
:104360001B781A46D7F814329342E4DB07F506733C
:10437000A3F209231A7807F1100311461846FDF736
:10438000D3FEFDF7B9FE1DE007F5887397F80F021D
:104390000122052106F0B4F907F10F0207F110011F
:1043A00007F58873184606F059FA07F50673A3F265
:1043B00009231A7807F1100311461846FDF7B4FED9
:1043C000FDF79AFE0523184607F50677BD4680BD22
:1043D0000000024000500040304800200010014022
:1043E00080B483B000AF786039603B681A047B68A2
:1043F0009A6100BF0C37BD465DF8047B7047000032
:1044000080B500AF0649074805F0F6FF4FF47A7112
:10441000062005F0C5FFFDF7F1FA00BF80BD00BF23
:10442000500000204C00002080B584B000AF244B29
:104430001B78002B40D0062005F0C8FF0346002B58
:104440003AD0204B1B78DBB2002B35D11E4B1B78AA
:10445000DBB2002B30D11D4B1B78DBB2002B2BD0F5
:104460001B4B1B78DBB2002B26D0002002F034FC63
:104470001848FDF743FD184BBB600923FB7100236F
:10448000FB600AE0FB68BA6813441B7819461148C0
:10449000FDF710FCFB680133FB60FB79FA689A4278
:1044A000F0DB0E4B00221A70074B01221A704FF4FA
:1044B0007A71062005F074FF00BF1037BD4680BD3D
:1044C000584900202D4700202F4800203E000020A2
:1044D0003D00002000100140400000203C00002072
:1044E00080B5ADF50A7D02AF07F50873A3F5077334
:1044F000186007F50873A3F50873196007F50873CA
:10450000A3F507731B68032B01DC0323CFE007F53A
:104510000873A3F507731B68042B01DD0223C6E0B3
:1045200007F50873A3F508731B6804331B68184666
:1045300008F0ECFE034687F81B3297F81B32092B74
:1045400001D90423B3E007F50873A3F508731B68CA
:1045500008331B68184608F0D9FE034687F81A325C
:1045600097F81A32012B01D90423A0E04FF400611F
:104570005148FFF735FF4FF480514F48FFF730FFA8
:1045800007F50873A3F507731B6803F18043013B2C
:104590009B0007F50872A2F50872126813441B68A5
:1045A000C7F81432D7F81432444A934203D1444B2B
:1045B00001221A7002E0424B00221A70012387F890
:1045C000133297F81B3287F8103297F81A3287F8AF
:1045D000113207F5047197F8130207F588730193F8
:1045E000012300930323022206F0B2F807F10F0221
:1045F00007F1100107F58873184606F02FF907F543
:104600000873A3F211231B78002B2CD00023C7F8CA
:104610001C3210E007F50873A3F50472D7F81C32BA
:1046200013441B7819462748FDF744FBD7F81C3282
:104630000133C7F81C3207F50873A3F211231B7866
:104640001A46D7F81C329342E4DB07F50873A3F24D
:1046500011231A7807F1100311461846FDF764FD7F
:10466000FDF74AFD22E007F5047197F8130207F5FC
:1046700088730193012300930323022206F068F854
:1046800007F10F0207F1100107F58873184606F0CD
:10469000E5F807F50873A3F211231A7807F1100360
:1046A00011461846FDF740FDFDF726FD0523184687
:1046B00007F50877BD4680BD00000240005000406D
:1046C000304800200010014080B5ADF50A7D02AFF2
:1046D00007F50873A3F50773186007F50873A3F5CA
:1046E0000873196007F50873A3F507731B68032B9C
:1046F00001DC0323CFE007F50873A3F507731B68FC
:10470000042B01DD0223C6E007F50873A3F5087347
:104710001B6804331B68184608F0F8FD034687F849
:104720001B3297F81B32062B01D90423B3E007F59F
:104730000873A3F508731B6808331B68184608F054
:10474000E5FD034687F81A3297F81A32012B01D992
:104750000423A0E04FF400615148FFF741FE4FF4FD
:1047600080514F48FFF73CFE07F50873A3F5077328
:104770001B6803F18043013B9B0007F50872A2F51B
:104780000872126813441B68C7F81432D7F8143241
:10479000444A934203D1444B01221A7002E0424B37
:1047A00000221A70022387F8133297F81B3287F819
:1047B000103297F81A3287F8113207F5047197F81A
:1047C000130207F588730193012300930323022248
:1047D00005F0BEFF07F10F0207F1100107F588731E
:1047E000184606F03BF807F50873A3F211231B786F
:1047F000002B2CD00023C7F81C3210E007F50873FB
:10480000A3F50472D7F81C3213441B7819462748C5
:10481000FDF750FAD7F81C320133C7F81C3207F500
:104820000873A3F211231B781A46D7F81C3293425F
:10483000E4DB07F50873A3F211231A7807F11003DC
:1048400011461846FDF770FCFDF756FC22E007F50F
:10485000047197F8130207F58873019301230093FD
:104860000323022205F074FF07F10F0207F1100184
:1048700007F58873184605F0F1FF07F50873A3F2F2
:1048800011231A7807F1100311461846FDF74CFC66
:10489000FDF732FC0523184607F50877BD4680BDB5
:1048A000000002400050004030480020001001404D
:1048B00080B5ADF50A7D02AF07F50873A3F5077360
:1048C000186007F50873A3F50873196007F50873F6
:1048D000A3F507731B68022B01DC0323B8E007F57F
:1048E0000873A3F507731B68032B01DD0223AFE0F8
:1048F00007F50873A3F508731B6804331B68184693
:1049000008F004FD034687F81B3297F81B32012B91
:1049100001D904239CE04FF400615048FFF760FD8B
:104920004FF480514D48FFF75BFD07F50873A3F581
:1049300007731B6803F18043013B9B0007F5087276
:10494000A2F50872126813441B68C7F81432D7F82E
:104950001432434A934203D1424B01221A7002E0BF
:10496000404B00221A70032387F8133297F81B324A
:1049700087F8103207F5047197F8130207F588736A
:104980000193012300930323012205F0E1FE07F1C7
:104990000F0207F1100107F58873184605F05EFF56
:1049A00007F50873A3F211231B78002B2CD00023EA
:1049B000C7F81C3210E007F50873A3F50472D7F8A6
:1049C0001C3213441B7819462748FDF773F9D7F8B2
:1049D0001C320133C7F81C3207F50873A3F2112308
:1049E0001B781A46D7F81C329342E4DB07F50873AC
:1049F000A3F211231A7807F1100311461846FDF7A8
:104A000093FBFDF779FB22E007F5047197F8130299
:104A100007F588730193012300930323012205F016
:104A200097FE07F10F0207F1100107F5887318468A
:104A300005F014FF07F50873A3F211231A7807F1A4
:104A4000100311461846FDF76FFBFDF755FB0523D4
:104A5000184607F50877BD4680BD00BF000002403C
:104A600000500040304800200010014080B5ADF5F6
:104A70000A7D02AF07F50873A3F50773186007F501
:104A80000873A3F50873196007F50873A3F5077396
:104A90001B68022B01DC0323B8E007F50873A3F5BC
:104AA00007731B68032B01DD0223AFE007F50873D2
:104AB000A3F508731B6804331B68184608F026FC2E
:104AC000034687F81B3297F81B32092B01D90423C0
:104AD0009CE04FF400615048FFF782FC4FF4805196
:104AE0004D48FFF77DFC07F50873A3F507731B68B6
:104AF00003F18043013B9B0007F50872A2F50872A1
:104B0000126813441B68C7F81432D7F81432434AAA
:104B1000934203D1424B01221A7002E0404B002223
:104B20001A70042387F8133297F81B3287F8103273
:104B300007F5047197F8130207F5887301930123B1
:104B400000930323012205F003FE07F10F0207F192
:104B5000100107F58873184605F080FE07F5087305
:104B6000A3F211231B78002B2CD00023C7F81C3292
:104B700010E007F50873A3F50472D7F81C3213444C
:104B80001B7819462748FDF795F8D7F81C320133F2
:104B9000C7F81C3207F50873A3F211231B781A46D5
:104BA000D7F81C329342E4DB07F50873A3F2112314
:104BB0001A7807F1100311461846FDF7B5FAFDF70C
:104BC0009BFA22E007F5047197F8130207F5887342
:104BD0000193012300930323012205F0B9FD07F19E
:104BE0000F0207F1100107F58873184605F036FE2D
:104BF00007F50873A3F211231A7807F11003114681
:104C00001846FDF791FAFDF777FA0523184607F5E0
:104C10000877BD4680BD00BF000002400050004044
:104C2000304800200010014080B5ADF50A7D02AF8C
:104C300007F50873A3F50773186007F50873A3F564
:104C40000873196007F50873A3F507731B68022B37
:104C500001DC0323B8E007F50873A3F507731B68AD
:104C6000032B01DD0223AFE007F50873A3F50873FA
:104C70001B6804331B68184608F048FB034687F896
:104C80001B3297F81B32062B01D904239CE04FF40A
:104C900000615048FFF7A4FB4FF480514D48FFF7E7
:104CA0009FFB07F50873A3F507731B6803F18043A7
:104CB000013B9B0007F50872A2F5087212681344C5
:104CC0001B68C7F81432D7F81432434A934203D111
:104CD000424B01221A7002E0404B00221A70052359
:104CE00087F8133297F81B3287F8103207F50471F2
:104CF00097F8130207F588730193012300930323A8
:104D0000012205F025FD07F10F0207F1100107F55B
:104D10008873184605F0A2FD07F50873A3F2112366
:104D20001B78002B2CD00023C7F81C3210E007F5AD
:104D30000873A3F50472D7F81C3213441B78194684
:104D40002748FCF7B7FFD7F81C320133C7F81C32ED
:104D500007F50873A3F211231B781A46D7F81C3203
:104D60009342E4DB07F50873A3F211231A7807F1E5
:104D7000100311461846FDF7D7F9FDF7BDF922E0FB
:104D800007F5047197F8130207F58873019301235F
:104D900000930323012205F0DBFC07F10F0207F16A
:104DA000100107F58873184605F058FD07F50873DC
:104DB000A3F211231A7807F1100311461846FDF7E4
:104DC000B3F9FDF799F90523184607F50877BD46AD
:104DD00080BD00BF0000024000500040304800206D
:104DE0000010014080B5ADF5067D00AF07F50673F4
:104DF000A3F50573186007F50673A3F5067319602C
:104E000007F50673A3F505731B68012B01DC03236B
:104E100097E007F50673A3F505731B68022B01DD08
:104E200002238EE04FF400614848FFF7D9FA4FF4AF
:104E300080514648FFF7D4FA07F50673A3F50573CA
:104E40001B6803F18043013B9B0007F50672A2F546
:104E50000672126813441B68C7F81032D7F8103274
:104E60003B4A934203D13B4B01221A7002E0394B7B
:104E700000221A70062387F80F3207F5887397F817
:104E80000F020122032105F03BFC07F10F0207F19D
:104E9000100107F58873184605F0E0FC07F5067366
:104EA000A3F209231B78002B2CD00023C7F814325F
:104EB00010E007F50673A3F50272D7F81432134415
:104EC0001B7819462448FCF7F5FED7F81432013355
:104ED000C7F8143207F50673A3F209231B781A46A4
:104EE000D7F814329342E4DB07F50673A3F20923E3
:104EF0001A7807F1100311461846FDF715F9FDF76A
:104F0000FBF81DE007F5887397F80F0201220321D3
:104F100005F0F6FB07F10F0207F1100107F58873A2
:104F2000184605F09BFC07F50673A3F209231A78CF
:104F300007F1100311461846FDF7F6F8FDF7DCF807
:104F40000523184607F50677BD4680BD00000240E0
:104F500000500040304800200010014080B483B071
:104F600000AF786039607B683A689A6100BF0C379F
:104F7000BD465DF8047B704780B483B000AF7860B5
:104F800039603B681A047B689A6100BF0C37BD46E4
:104F90005DF8047B7047000080B500AF0649074804
:104FA00005F02AFA4FF47A71052005F0F9F9FCF7BB
:104FB00025FD00BF80BD00BF6C0000206800002000
:104FC00080B584B000AF244B1B78002B40D0052067
:104FD00005F0FCF90346002B3AD0204B1B78DBB2DE
:104FE000002B35D11E4B1B78DBB2002B30D11D4B73
:104FF0001B78DBB2002B2BD01B4B1B78DBB2002BBA
:1050000026D0012001F068FE1848FCF777FF184B06
:10501000BB600923FB710023FB600AE0FB68BA68F0
:1050200013441B7819461148FCF744FEFB68013312
:10503000FB60FB79FA689A42F0DB0E4B00221A7093
:10504000074B01221A704FF47A71052005F0A8F978
:1050500000BF1037BD4680BD584900202D470020B5
:105060002F4800203E0000203C000020001001409E
:105070005C0000203D00002080B5ADF5067D00AF4E
:1050800007F50673A3F50573186007F50673A3F516
:105090000673196007F50673A3F505731B68012BEA
:1050A00001DC032397E007F50673A3F505731B687E
:1050B000022B01DD02238EE04FF400614848FFF728
:1050C0005BFF4FF480514648FFF748FF07F5067332
:1050D000A3F505731B6803F18043013B9B0007F5B3
:1050E0000672A2F50672126813441B68C7F81032E4
:1050F000D7F810323B4A934203D13B4B01221A703E
:1051000002E0394B00221A70012387F80F3207F5AD
:10511000887397F80F020122022105F0F1FA07F1D6
:105120000F0207F1100107F58873184605F096FB8A
:1051300007F50673A3F209231B78002B2CD000235C
:10514000C7F8143210E007F50673A3F50272D7F81A
:10515000143213441B7819462448FCF7ABFDD7F8EA
:1051600014320133C7F8143207F50673A3F209238A
:105170001B781A46D7F814329342E4DB07F506731E
:10518000A3F209231A7807F1100311461846FCF719
:10519000CBFFFCF7B1FF1DE007F5887397F80F020E
:1051A0000122022105F0ACFA07F10F0207F110010C
:1051B00007F58873184605F051FB07F50673A3F24F
:1051C00009231A7807F1100311461846FCF7ACFFC3
:1051D000FCF792FF0523184607F50677BD4680BD0C
:1051E0000000024000500040304800200010014004
:1051F00080B5ADF5067D00AF07F50673A3F5057321
:10520000186007F50673A3F50673196007F50673B2
:10521000A3F505731B68012B01DC032397E007F559
:105220000673A3F505731B68022B01DD02238EE0D4
:105230004FF400614848FFF79FFE4FF48051464805
:10524000FFF78CFE07F50673A3F505731B6803F1E2
:105250008043013B9B0007F50672A2F506721268B7
:1052600013441B68C7F81032D7F810323B4A9342F8
:1052700003D13B4B01221A7002E0394B00221A7015
:10528000022387F80F3207F5887397F80F0201227F
:10529000022105F035FA07F10F0207F1100107F5B9
:1052A0008873184605F0DAFA07F50673A3F20923A6
:1052B0001B78002B2CD00023C7F8143210E007F520
:1052C0000673A3F50272D7F8143213441B781946FB
:1052D0002448FCF7EFFCD7F814320133C7F8143236
:1052E00007F50673A3F209231B781A46D7F8143280
:1052F0009342E4DB07F50673A3F209231A7807F15A
:10530000100311461846FCF70FFFFCF7F5FE1DE0F1
:1053100007F5887397F80F020122022105F0F0F9D2
:1053200007F10F0207F1100107F58873184605F021
:1053300095FA07F50673A3F209231A7807F110030B
:1053400011461846FCF7F0FEFCF7D6FE052318467A
:1053500007F50677BD4680BD0000024000500040C2
:10536000304800200010014080B5ADF5067D00AF4B
:1053700007F50673A3F50573186007F50673A3F523
:105380000673196007F50673A3F505731B68012BF7
:1053900001DC032397E007F50673A3F505731B688B
:1053A000022B01DD02238EE04FF400614848FFF735
:1053B000E3FD4FF480514648FFF7D0FD07F5067333
:1053C000A3F505731B6803F18043013B9B0007F5C0
:1053D0000672A2F50672126813441B68C7F81032F1
:1053E000D7F810323B4A934203D13B4B01221A704B
:1053F00002E0394B00221A70032387F80F3207F5B9
:10540000887397F80F020122022105F079F907F15C
:105410000F0207F1100107F58873184605F01EFA10
:1054200007F50673A3F209231B78002B2CD0002369
:10543000C7F8143210E007F50673A3F50272D7F827
:10544000143213441B7819462448FCF733FCD7F870
:1054500014320133C7F8143207F50673A3F2092397
:105460001B781A46D7F814329342E4DB07F506732B
:10547000A3F209231A7807F1100311461846FCF726
:1054800053FEFCF739FE1DE007F5887397F80F020D
:105490000122022105F034F907F10F0207F1100192
:1054A00007F58873184605F0D9F907F50673A3F2D6
:1054B00009231A7807F1100311461846FCF734FE49
:1054C000FCF71AFE0523184607F50677BD4680BD92
:1054D0000000024000500040304800200010014011
:1054E00080B5ADF5067D00AF07F50673A3F505732E
:1054F000186007F50673A3F50673196007F50673C0
:10550000A3F505731B68012B01DC032397E007F566
:105510000673A3F505731B68022B01DD02238EE0E1
:105520004FF400614848FFF727FD4FF4805146488B
:10553000FFF714FD07F50673A3F505731B6803F168
:105540008043013B9B0007F50672A2F506721268C4
:1055500013441B68C7F81032D7F810323B4A934205
:1055600003D13B4B01221A7002E0394B00221A7022
:10557000042387F80F3207F5887397F80F0201228A
:10558000022105F0BDF807F10F0207F1100107F540
:105590008873184605F062F907F50673A3F209232C
:1055A0001B78002B2CD00023C7F8143210E007F52D
:1055B0000673A3F50272D7F8143213441B78194608
:1055C0002448FCF777FBD7F814320133C7F81432BC
:1055D00007F50673A3F209231B781A46D7F814328D
:1055E0009342E4DB07F50673A3F209231A7807F167
:1055F000100311461846FCF797FDFCF77DFD1DE0F2
:1056000007F5887397F80F020122022105F078F858
:1056100007F10F0207F1100107F58873184605F02E
:105620001DF907F50673A3F209231A7807F1100391
:1056300011461846FCF778FDFCF75EFD0523184679
:1056400007F50677BD4680BD0000024000500040CF
:10565000304800200010014080B5ADF50A7D02AF52
:1056600007F50873A3F50773186007F50873A3F52A
:105670000873196007F50873A3F507731B68032BFC
:1056800001DC0323DBE007F50873A3F507731B6850
:10569000042B01DD0223D2E007F50873A3F508739C
:1056A0001B6804331B68184607F030FE0346A7F852
:1056B0001A3207F50873A3F508731B6808331B68D3
:1056C000184607F023FE0346A7F81832B7F8182249
:1056D000B7F81A329A4201D20423B0E04FF40061C5
:1056E0005948FFF749FC4FF480515748FFF736FC03
:1056F00007F50873A3F507731B6803F18043013BAB
:105700009B0007F50872A2F50872126813441B6823
:10571000C7F81432D7F814324C4A934203D14C4B99
:1057200001221A7002E04A4B00221A70052387F802
:105730001332B7F81A321B0A9BB2DBB287F80C326D
:10574000B7F81A32DBB287F80D32B7F818321B0AF5
:105750009BB2DBB287F80E32B7F81832DBB287F8AB
:105760000F3207F5037197F8130207F5867301935B
:10577000012300930223042204F0EAFF07F10B0245
:1057800007F10C0107F58673184605F067F807F571
:105790000873A3F215231B78002B2CD00023C7F825
:1057A0001C3210E007F50873A3F50572D7F81C3218
:1057B00013441B7819462748FCF77CFAD7F81C32AB
:1057C0000133C7F81C3207F50873A3F215231B78C1
:1057D0001A46D7F81C329342E4DB07F50873A3F2AC
:1057E00015231A7807F10C0311461846FCF79CFCA8
:1057F000FCF782FC22E007F5037197F8130207F526
:1058000086730193012300930223042204F0A0FF76
:1058100007F10B0207F10C0107F58673184605F036
:105820001DF807F50873A3F215231A7807F10C0386
:1058300011461846FCF778FCFCF75EFC0523184679
:1058400007F50877BD4680BD0000024000500040CB
:10585000304800200010014080B5ADF50A7D02AF50
:1058600007F50873A3F50773186007F50873A3F528
:105870000873196007F50873A3F507731B68022BFB
:1058800001DC0323B8E007F50873A3F507731B6871
:10589000032B01DD0223AFE007F50873A3F50873BE
:1058A0001B6804331B68184607F030FD034687F871
:1058B0001B3297F81B32012B01D904239CE04FF4D3
:1058C00000615048FFF758FB4FF480514D48FFF7F7
:1058D00045FB07F50873A3F507731B6803F18043C5
:1058E000013B9B0007F50872A2F508721268134489
:1058F0001B68C7F81432D7F81432434A934203D1D5
:10590000424B01221A7002E0404B00221A7006231B
:1059100087F8133297F81B3287F80C3207F50371BA
:1059200097F8130207F5867301930123009302236E
:10593000042204F00DFF07F10B0207F10C0107F53B
:105940008673184604F08AFF07F50873A3F215233F
:105950001B78002B2CD00023C7F81C3210E007F571
:105960000873A3F50572D7F81C3213441B78194647
:105970002748FCF79FF9D7F81C320133C7F81C32CF
:1059800007F50873A3F215231B781A46D7F81C32C3
:105990009342E4DB07F50873A3F215231A7807F1A5
:1059A0000C0311461846FCF7BFFBFCF7A5FB22E0F1
:1059B00007F5037197F8130207F586730193012326
:1059C00000930223042204F0C3FE07F10B0207F147
:1059D0000C0107F58673184604F040FF07F50873BD
:1059E000A3F215231A7807F10C0311461846FCF7A9
:1059F0009BFBFCF781FB0523184607F50877BD469E
:105A000080BD00BF00000240005000403048002030
:105A10000010014080B5ADF50A7D02AF07F50873AF
:105A2000A3F50773186007F50873A3F508731960E9
:105A300007F50873A3F507731B68022B01DC03232A
:105A4000B8E007F50873A3F507731B68032B01DDA6
:105A50000223AFE007F50873A3F508731B6804334E
:105A60001B68184607F052FC034687F81B3297F86C
:105A70001B32642B01D904239CE04FF40061504891
:105A8000FFF77AFA4FF480514D48FFF767FA07F5B0
:105A90000873A3F507731B6803F18043013B9B0068
:105AA00007F50872A2F50872126813441B68C7F85C
:105AB0001432D7F81432434A934203D1424B0122A5
:105AC0001A7002E0404B00221A70072387F8133245
:105AD00097F81B3287F80C3207F5037197F8130219
