:020000040800F2
:10000000000002205D980008C5950008CD95000805
:10001000D5950008DD950008E59500080000000072
:10002000000000000000000000000000ED95000846
:10003000FB950008000000000996000819960008CA
:10004000AD980008AD980008AD980008AD9800087C
:10005000AD980008AD980008AD980008AD9800086C
:10006000AD980008AD980008AD980008AD9800085C
:10007000AD980008AD980008AD980008AD9800084C
:10008000AD980008AD980008AD980008AD9800083C
:10009000AD980008AD980008AD980008AD9800082C
:1000A000AD980008AD980008AD980008AD9800081C
:1000B000AD980008AD980008AD980008AD9800080C
:1000C000AD980008AD980008AD980008AD980008FC
:1000D000AD98000835960008499600085D9600081E
:1000E000AD980008AD980008AD980008AD980008DC
:1000F000AD980008AD980008AD980008AD980008CC
:10010000AD980008AD980008AD980008AD980008BB
:100110007196000885960008AD980008AD98000813
:10012000AD980008AD980008AD980008AD9800089B
:10013000AD9800080000000000000000AD98000825
:10014000AD980008AD980008AD980008AD9800087B
:10015000AD980008AD980008AD9800089996000881
:10016000AD980008AD980008AD980008AD9800085B
:10017000AD980008AD9800080000000000000000E5
:08018000AD980008AD980008DD
:1001900010B5054C237833B9044B13B10448AFF3C1
:1001A00000800123237010BDCC050020000000005A
:1001B000C41E010808B5034B1BB103490348AFF344
:1001C000008008BD00000000D0050020C41E01080A
:1001D00010F8012B11F8013B012A28BF9A42F7D0F1
:1001E000D01A70470000000000000000000000006E
:1001F00001F0FF01102A2BDB10F0070F08D010F8D8
:10020000013B013A8B422DD010F0070F42B3F6D1DB
:10021000F0B441EA012141EA014122F007047FF0F4
:1002200000070023F0E80256083C85EA010586EA4B
:10023000010685FA47F5A3FA87F586FA47F6A5FA87
:1002400087F68EB9EED1F0BC01F0FF0102F0070293
:1002500032B110F8013B013A83EA010313B1F8D13E
:100260000020704701387047002D06BF354603381F
:10027000073815F0010F07D1013015F4807F02BF58
:10028000013015F4C03F0130F0BC0138704700BFA9
:10029000034613F8012B002AFBD1181A01387047C6
:1002A00081F0004102E000BF83F0004330B54FEA27
:1002B00041044FEA430594EA050F08BF90EA020F94
:1002C0001FBF54EA000C55EA020C7FEA645C7FEA27
:1002D000655C00F0E2804FEA5454D4EB5555B8BF4A
:1002E0006D420CDD2C4480EA020281EA030382EABB
:1002F000000083EA010180EA020281EA0303362D4D
:1003000088BF30BD11F0004F4FEA01314FF4801C1F
:100310004CEA113102D0404261EB410113F0004F31
:100320004FEA03334CEA133302D0524263EB4303E8
:1003300094EA050F00F0A780A4F10104D5F1200E86
:100340000DDB02FA0EFC22FA05F2801841F10001E1
:1003500003FA0EF2801843FA05F359410EE0A5F1B5
:1003600020050EF1200E012A03FA0EFC28BF4CF0E6
:10037000020C43FA05F3C01851EBE37101F000459C
:1003800007D54FF0000EDCF1000C7EEB00006EEBA9
:100390000101B1F5801F1BD3B1F5001F0CD3490833
:1003A0005FEA30004FEA3C0C04F101044FEA44528A
:1003B00012F5800F80F09A80BCF1004F08BF5FEA11
:1003C000500C50F1000041EB045141EA050130BDF1
:1003D0005FEA4C0C404141EB0101013C28BFB1F503
:1003E000801FE9D291F0000F04BF01460020B1FA4E
:1003F00081F308BF2033A3F10B03B3F120020CDA21
:100400000C3208DD02F1140CC2F10C0201FA0CF0FE
:1004100021FA02F10CE002F11402D8BFC2F1200C63
:1004200001FA02F120FA0CFCDCBF41EA0C01904019
:10043000E41AA2BF01EB0451294330BD6FEA040462
:100440001F3C1CDA0C340EDC04F11404C4F120024D
:1004500020FA04F001FA02F340EA030021FA04F35F
:1004600045EA030130BDC4F10C04C4F1200220FAB6
:1004700002F001FA04F340EA0300294630BD21FAF4
:1004800004F0294630BD94F0000F83F4801306BFBA
:1004900081F480110134013D4EE77FEA645C18BFAE
:1004A0007FEA655C29D094EA050F08BF90EA020F45
:1004B00005D054EA000C04BF1946104630BD91EA3D
:1004C000030F1EBF0021002030BD5FEA545C05D140
:1004D0004000494128BF41F0004130BD14F580047F
:1004E0003CBF01F5801130BD01F0004545F0FE41F3
:1004F00041F470014FF0000030BD7FEA645C1ABF28
:10050000194610467FEA655C1CBF0B46024650EA5E
:10051000013406BF52EA033591EA030F41F400218A
:1005200030BD00BF90F0000F04BF0021704730B510
:100530004FF4806404F132044FF000054FF00001E5
:1005400050E700BF90F0000F04BF0021704730B5A6
:100550004FF4806404F1320410F0004548BF40427B
:100560004FF000013EE700BF42004FEAE2014FEAD0
:1005700031014FEA02701FBF12F07F4393F07F4FAB
:1005800081F06051704732F07F4208BF704793F0AE
:100590007F4F04BF41F40021704730B54FF46074C1
:1005A00001F0004521F000411CE700BF50EA0102C4
:1005B00008BF704730B54FF000050AE050EA01026D
:1005C00008BF704730B511F0004502D5404261EBDD
:1005D00041014FF4806404F132045FEA915C3FF41E
:1005E000D8AE4FF003025FEADC0C18BF03325FEABB
:1005F000DC0C18BF033202EBDC02C2F1200300FA6C
:1006000003FC20FA02F001FA03FE40EA0E0021FA90
:1006100002F11444BDE600BF70B54FF0FF0C4CF47E
:10062000E06C1CEA11541DBF1CEA135594EA0C0F30
:1006300095EA0C0F00F0DEF82C4481EA030621EA6B
:100640004C5123EA4C5350EA013518BF52EA0335A6
:1006500041F4801143F4801338D0A0FB02CE4FF058
:100660000005E1FB02E506F00042E0FB03E54FF088
:100670000006E1FB03569CF0000F18BF4EF0010E80
:10068000A4F1FF04B6F5007F64F5407404D25FEA7C
:100690004E0E6D4146EB060642EAC62141EA55512F
:1006A0004FEAC52040EA5E504FEACE2EB4F1FD0C71
:1006B00088BFBCF5E06F1ED8BEF1004F08BF5FEAEF
:1006C000500E50F1000041EB045170BD06F00046A1
:1006D00046EA010140EA020081EA0301B4EB5C044E
:1006E000C2BFD4EB0C0541EA045170BD41F4801146
:1006F0004FF0000E013C00F3AB8014F1360FDEBF6B
:10070000002001F0004170BDC4F10004203C35DA46
:100710000C341BDC04F11404C4F1200500FA05F3C9
:1007200020FA04F001FA05F240EA020001F000426A
:1007300021F0004110EBD37021FA04F642EB0601E0
:100740005EEA430E08BF20EAD37070BDC4F10C040A
:10075000C4F1200500FA04F320FA05F001FA04F2CE
:1007600040EA020001F0004110EBD37041F10001BA
:100770005EEA430E08BF20EAD37070BDC4F12005C5
:1007800000FA05F24EEA020E20FA04F301FA05F22D
:1007900043EA020321FA04F001F0004121FA04F2D5
:1007A00020EA020000EBD3705EEA430E08BF20EAA5
:1007B000D37070BD94F0000F0FD101F000464000DF
:1007C00041EB010111F4801F08BF013CF7D041EA61
:1007D000060195F0000F18BF704703F00046520065
:1007E00043EB030313F4801F08BF013DF7D043EA36
:1007F0000603704794EA0C0F0CEA135518BF95EAEC
:100800000C0F0CD050EA410618BF52EA4306D1D172
:1008100081EA030101F000414FF0000070BD50EA91
:10082000410606BF1046194652EA430619D094EA1B
:100830000C0F02D150EA013613D195EA0C0F05D105
:1008400052EA03361CBF104619460AD181EA030159
:1008500001F0004141F0FE4141F470014FF0000011
:1008600070BD41F0FE4141F4780170BD70B54FF0AC
:10087000FF0C4CF4E06C1CEA11541DBF1CEA13552C
:1008800094EA0C0F95EA0C0F00F0A7F8A4EB05040E
:1008900081EA030E52EA03354FEA013100F0888005
:1008A0004FEA03334FF0805545EA131343EA1263CE
:1008B0004FEA022245EA111545EA10654FEA002683
:1008C0000EF000419D4208BF964244F1FD0404F53C
:1008D000407402D25B084FEA3202B61A65EB030598
:1008E0005B084FEA32024FF480104FF4002CB6EB55
:1008F000020E75EB030E22BFB61A754640EA0C00D5
:100900005B084FEA3202B6EB020E75EB030E22BF14
:10091000B61A754640EA5C005B084FEA3202B6EB55
:10092000020E75EB030E22BFB61A754640EA9C0014
:100930005B084FEA3202B6EB020E75EB030E22BFE4
:10094000B61A754640EADC0055EA060E18D04FEAA2
:10095000051545EA16754FEA06164FEAC30343EA42
:1009600052734FEAC2025FEA1C1CC0D111F4801F0F
:100970000BD141EA00014FF000004FF0004CB6E708
:1009800011F4801F04BF01430020B4F1FD0C88BFA7
:10099000BCF5E06F3FF6AFAEB5EB030C04BFB6EBB2
:1009A000020C5FEA500C50F1000041EB045170BDA5
:1009B0000EF0004E4EEA113114EB5C04C2BFD4EBD2
:1009C0000C0541EA045170BD41F480114FF0000E56
:1009D000013C90E645EA060E8DE60CEA135594EAD2
:1009E0000C0F08BF95EA0C0F3FF43BAF94EA0C0FD5
:1009F0000AD150EA01347FF434AF95EA0C0F7FF44A
:100A000025AF104619462CE795EA0C0F06D152EA9D
:100A100003353FF4FDAE1046194622E750EA410681
:100A200018BF52EA43067FF4C5AE50EA41047FF492
:100A30000DAF52EA43057FF4EBAE12E74FF0FF3CF7
:100A400006E000BF4FF0010C02E000BF4FF0010CC8
:100A50004DF804CD4FEA410C7FEA6C5C4FEA430C41
:100A600018BF7FEA6C5C1BD001B050EA410C0CBF90
:100A700052EA430C91EA030F02BF90EA020F0020F2
:100A8000704710F1000F91EA030F58BF994208BF59
:100A900090422CBFD8176FEAE37040F00100704716
:100AA0004FEA410C7FEA6C5C02D150EA013C07D16D
:100AB0004FEA430C7FEA6C5CD6D152EA033CD3D0B8
:100AC0005DF8040B704700BF8446104662468C46B2
:100AD0001946634600E000BF01B5FFF7B7FF0028E5
:100AE00048BF10F1000F01BD4DF808EDFFF7F4FF0E
:100AF0000CBF012000205DF808FB00BF4DF808ED99
:100B0000FFF7EAFF34BF012000205DF808FB00BFBB
:100B10004DF808EDFFF7E0FF94BF012000205DF8DD
:100B200008FB00BF4DF808EDFFF7CEFF94BF012092
:100B300000205DF808FB00BF4DF808EDFFF7C4FF8B
:100B400034BF012000205DF808FB00BF4FEA410CD4
:100B50007FEA6C5C02D150EA013C0AD14FEA430CB7
:100B60007FEA6C5C02D152EA033C02D14FF00000F4
:100B700070474FF0010070474FEA410212F5001232
:100B800015D211D56FF47873B3EB625212D94FEAD4
:100B9000C12343F0004343EA505311F0004F23FABE
:100BA00002F018BF404270474FF00000704750EA13
:100BB000013005D111F0004008BF6FF000407047D0
:100BC0004FF00000704700BF4A0011D212F500122A
:100BD00011D20DD56FF47873B3EB62520ED44FEA95
:100BE000C12343F0004343EA505323FA02F0704715
:100BF0004FF00000704750EA013002D14FF0FF3053
:100C000070474FF0000070474FEA4102B2F1E043F5
:100C100024BFB3F5001CDCF1FE5C0DD901F0004CE3
:100C20004FEAC0024CEA5070B2F1004F40EB830033
:100C300008BF20F00100704711F0804F21D113F15F
:100C40003872BCBF01F00040704741F480114FEA98
:100C50005252C2F11802C2F1200C10FA0CF320FA21
:100C600002F018BF40F001004FEAC1234FEAD3233E
:100C700003FA0CFC40EA0C0023FA02F34FEA4303A8
:100C8000CCE77FEA625307D150EA01331EBF4FF031
:100C9000FE4040F44000704701F0004040F0FE404C
:100CA00040F40000704700BF53B94AB9002908BF9B
:100CB00000281CBF4FF0FF314FF0FF3000F0A0B90B
:100CC000ADF1080C6DE904CE00F03CF8DDF804E06D
:100CD000DDE9022304B0704738B500220023044642
:100CE0000D46FFF70BFF28B920462946BDE83840DE
:100CF00000F00AB8204605F1004100F005F8404236
:100D000061EB410138BD00BFD0B50C4B0022064657
:100D10000F46FFF781FCFFF757FF0446FFF702FC81
:100D2000074B0022FFF778FC02460B463046394657
:100D3000FFF7BAFAFFF748FF2146D0BD0000F03DAB
:100D40000000F0412DE9F047089D0C46002B4ED1E4
:100D500094468C458646B2FA82F262D94AB1C2F113
:100D60002003914020FA03F30CFA02FC194300FA25
:100D700002FE4FEA1C471FFA8CF6B1FBF7F44FEA6C
:100D80001E4307FB141143EA014304FB06F1994299
:100D90000AD91CEB030304F1FF3080F01281994261
:100DA00040F20F81023C6344591A1FFA8EF3B1FBE3
:100DB000F7F007FB101143EA014300FB06F69E42E1
:100DC0000AD91CEB030300F1FF3180F0FC809E4246
:100DD00040F2F980634402389B1B40EA0440002142
:100DE0001DB1D3400022C5E90032BDE8F0878B4237
:100DF00005D90DB1C5E9000100210846F5E7B3FAB0
:100E000083F1002946D1A34202D39042C0F0F08082
:100E1000861A64EB03030120002DE6D0C5E90063C8
:100E2000E3E7002A40F09080A1EB0C044FEA1C4855
:100E30001FFA8CF70121B4FBF8F64FEA1E4308FBBA
:100E4000164443EA044307FB06F0984208D91CEB1A
:100E5000030306F1FF3402D2984200F2CD80264609
:100E60001C1A1FFA8EF3B4FBF8F008FB104443EA97
:100E7000044300FB07F79F4208D91CEB030300F172
:100E8000FF3402D29F4200F2B0802046DB1B40EAD2
:100E90000640A5E7C1F120068B4022FA06F71F4362
:100EA00020FA06FC04FA01F343EA0C03F44000FACA
:100EB00001F8380C4FEA1349B4FBF0FE1FFA87FC27
:100EC00000FB1E4449EA04440EFB0CF9A14502FA5A
:100ED00001F20AD93C190EF1FF3A80F08480A14555
:100EE00040F28180AEF1020E3C44A4EB09041FFAEB
:100EF00083F9B4FBF0F300FB134449EA044403FB19
:100F00000CFCA44507D93C1903F1FF3067D2A44576
:100F100065D9023B3C4443EA0E40A0FB0293A4EB9C
:100F20000C049C42CE469C4651D34ED055B1B8EBF2
:100F30000E0364EB0C0404FA06F6CB401E43CC40CF
:100F4000C5E90064002150E7C2F1200320FA03F153
:100F50000CFA02FC24FA03F394400C434FEA1C48B9
:100F600000FA02FE1FFA8CF7B3FBF8F008FB103111
:100F7000230C43EA014300FB07F1994208D91CEB1B
:100F8000030300F1FF362CD299422AD90238634478
:100F90005B1AA4B2B3FBF8F108FB113344EA034433
:100FA00001FB07F3A34208D91CEB040401F1FF364F
:100FB00013D2A34211D902396444E41A41EA004130
:100FC00039E70446F0E6084606E7C845AED2B9EB75
:100FD000020E63EB070C0138A8E73146EDE7034644
:100FE00099E73046D4E7D6467FE7634402384DE7B9
:100FF0000646234608460FE7023E634430E700BF3B
:10100000704700BF80B483B000AF78607B685B69D5
:1010100003F08003802B0CBF01230023DBB21846B2
:101020000C37BD465DF8047B704780B483B000AFD9
:1010300078607B685B6903F04003402B0CBF0123A1
:101040000023DBB218460C37BD465DF8047B7047C1
:1010500080B483B000AF78607B685B6903F0010304
:10106000012B0CBF01230023DBB218460C37BD4611
:101070005DF8047B704780B483B000AF78607B6814
:101080005B6903F00203022B0CBF01230023DBB2D8
:1010900018460C37BD465DF8047B704780B483B0BA
:1010A00000AF78607B689B6903F00203022B0CBFE2
:1010B00001230023DBB218460C37BD465DF8047BE4
:1010C000704780B485B000AF78607B685B69FB6077
:1010D000FB687B689B69FB60FB6800BF1437BD46FB
:1010E0005DF8047B704780B483B000AF78603960EE
:1010F0007B681B6823F480623B681A437B681A6034
:1011000000BF0C37BD465DF8047B704780B483B0E8
:1011100000AF78607B681B6843F480727B681A605C
:1011200000BF0C37BD465DF8047B704780B483B0C8
:1011300000AF78607B681B6843F400727B681A60BC
:1011400000BF0C37BD465DF8047B704780B483B0A8
:1011500000AF78607B681B69DBB218460C37BD4670
:101160005DF8047B704780B483B000AF78600B46B5
:10117000FB707B681B6923F0FF02FB781A437B68D6
:101180001A6100BF0C37BD465DF8047B7047000054
:1011900080B582B000AF03460A46FB711346BB71AF
:1011A00000BF1E48FFF77AFF0346002BF9D11B480A
:1011B000FFF7ACFF00BF1948FFF74AFF0346002BBB
:1011C000F9D0D0211548FFF7CEFF00BF1348FFF735
:1011D00052FF0346002BF9D01048FFF772FFFB794E
:1011E00019460E48FFF7BFFF00BF0C48FFF70AFF84
:1011F0000346002BF9D0BB7919460848FFF7B3FF27
:1012000000BF0648FFF7FEFE0346002BF9D0034857
:10121000FFF78CFF00BF0837BD4680BD005400407B
:1012200080B584B000AF0346FB710023FB7300BFA1
:101230002C48FFF733FF0346002BF9D12948FFF76D
:1012400065FF00BF2748FFF703FF0346002BF9D0D7
:10125000D0212448FFF787FF00BF2248FFF70BFF8C
:101260000346002BF9D01F48FFF72BFFFB791946E7
:101270001C48FFF778FF00BF1A48FFF7C3FE03467C
:10128000002BF9D01748FFF741FF00BF1548FFF7C3
:10129000DFFE0346002BF9D0D1211248FFF763FF90
:1012A00000BF1048FFF7E7FE0346002BF9D00D48BA
:1012B000FFF707FF00210B48FFF715FF00BF0948A4
:1012C000FFF7B3FE0346002BF9D00648FFF73EFFB9
:1012D0000346FB730348FFF729FFFB7B18461037D3
:1012E000BD4680BD0054004090B583B000AF0446B9
:1012F000084611461A462346FB710346BB710B464E
:101300007B7113463B7197F82030554AA2FB0323AB
:10131000DB08DBB21B0158B297F82020504BA3FB2F
:101320000213D9080B469B000B445B00D31ADBB2B7
:101330005BB203435BB2DBB219460020FFF728FF24
:101340003B7F474AA2FB0323DB08DBB21B0158B2F9
:101350003A7F434BA3FB0213D9080B469B000B4477
:101360005B00D31ADBB25BB203435BB2DBB219465C
:101370000120FFF70DFF3B7E394AA2FB0323DB0868
:10138000DBB21B0158B23A7E354BA3FB0213D908DE
:101390000B469B000B445B00D31ADBB25BB20343EA
:1013A0005BB2DBB219460220FFF7F2FEFB79194669
:1013B0000320FFF7EDFEBB79294AA2FB0323DB08DC
:1013C000DBB21B0158B2BA79254BA3FB0213D90833
:1013D0000B469B000B445B00D31ADBB25BB20343AA
:1013E0005BB2DBB219460420FFF7D2FE7B791C4AC0
:1013F000A2FB0323DB08DBB21B0158B27A79184B3E
:10140000A3FB0213D9080B469B000B445B00D31AC5
:10141000DBB25BB203435BB2DBB219460520FFF7D8
:10142000B7FE3B790E4AA2FB0323DB08DBB21B01AC
:1014300058B23A790A4BA3FB0213D9080B469B001A
:101440000B445B00D31ADBB25BB203435BB2DBB28B
:1014500019460620FFF79CFE00BF0C37BD4690BD25
:10146000CDCCCCCC80B584B000AFF860B9607A60E8
:101470003B600020FFF7D4FE03461A463B6A1A7011
:101480000120FFF7CDFE03461A46FB691A700220C1
:10149000FFF7C6FE03461A46BB691A700320FFF722
:1014A000BFFE03461A46FB681A700420FFF7B8FE19
:1014B00003461A46BB681A700520FFF7B1FE0346C3
:1014C0001A467B681A700620FFF7AAFE03461A46E2
:1014D0003B681A703B6A1B781B09DBB21A46920004
:1014E00013445B00DAB23B6A1B7803F00F03DBB2F4
:1014F0001344DAB23B6A1A70FB691B781B09DBB232
:101500001A46920013445B00DAB2FB691B7803F0C1
:101510000F03DBB21344DAB2FB691A70BB691B78A4
:101520001B09DBB21A46920013445B00DAB2BB69B6
:101530001B7803F00F03DBB21344DAB2BB691A70F5
:10154000BB681B781B09DBB21A46920013445B0090
:10155000DAB2BB681B7803F00F03DBB21344DAB2D4
:10156000BB681A707B681B781B09DBB21A469200B5
:1015700013445B00DAB27B681B7803F00F03DBB225
:101580001344DAB27B681A703B681B781B09DBB224
:101590001A46920013445B00DAB23B681B7803F0F2
:1015A0000F03DBB21344DAB23B681A7000BF103786
:1015B000BD4680BD80B582B000AF1120FFF730FE80
:1015C0000346FB711220FFF72BFE0346BB71FB792C
:1015D0001B021AB2BB791BB21343BB80B7F90430AC
:1015E0001846FEF7AFFF4FF00002094BFFF73EF938
:1015F00002460B4610461946FFF706FB03463B60C2
:101600003B6807EE903AB0EE670A0837BD4680BDEA
:101610000000704080B483B000AF03463960FB71B6
:1016200097F90730002B0ADB3B68DAB20C4997F9CF
:1016300007301201D2B20B4483F800230AE03B6862
:10164000DAB20849FB7903F00F03043B1201D2B26E
:101650000B441A7600BF0C37BD465DF8047B70471B
:1016600000E100E000ED00E080B582B000AF7860FE
:101670007B68013BB3F1807F01D301230FE00A4A6D
:101680007B68013B53600F214FF0FF30FFF7C2FF33
:10169000054B00229A60044B07221A60002318466B
:1016A0000837BD4680BD00BF10E000E080B400AF49
:1016B000054B1B68044A43F00103136000BFBD469D
:1016C0005DF8047B704700BF10E000E080B500AF1C
:1016D000054B1B68054AA2FB03239B091846FFF72D
:1016E000C3FF00BF80BD00BFF0030020D34D6210D8
:1016F00080B483B000AF78607B681B6803F002039E
:10170000022B0CBF01230023DBB218460C37BD4669
:101710005DF8047B704780B483B000AF78607B686D
:101720001B6803F00403042B0CBF01230023DBB26E
:1017300018460C37BD465DF8047B704780B483B013
:1017400000AF78607B681B6803F00803082B0CBFB0
:1017500001230023DBB218460C37BD465DF8047B3D
:10176000704780B483B000AF78607B681B6803F07B
:101770002003202B0CBF01230023DBB218460C37BB
:10178000BD465DF8047B704780B483B000AF7860DD
:101790007B681B6803F08003802B0CBF01230023B0
:1017A000DBB218460C37BD465DF8047B704780B449
:1017B00085B000AF78607B681B68FB60FB687B6866
:1017C0005B68FB60FB6800BF1437BD465DF8047BB7
:1017D000704780B485B000AF78607B681B68FB60A1
:1017E000FB687B685B68FB60FB6800BF1437BD4625
:1017F0005DF8047B704780B485B000AF78607B688B
:101800001B68FB60FB687B685B68FB60FB6800BF74
:101810001437BD465DF8047B704780B489B000AFD3
:1018200078607B680C33FB60FB6853E8003FBB606B
:10183000BB6843F02003FB617B680C33FA69BA6133
:101840007B617969BA6941E800233B613B69002B00
:10185000E7D100BF00BF2437BD465DF8047B704769
:1018600080B489B000AF78607B680C33FB60FB68A4
:1018700053E8003FBB60BB6843F08003FB617B68BB
:101880000C33FA69BA617B617969BA6941E800236E
:101890003B613B69002BE7D100BF00BF2437BD4649
:1018A0005DF8047B704780B489B000AF78607B68D6
:1018B0001433FB60FB6853E8003FBB60BB6843F038
:1018C0000103FB617B681433FA69BA617B61796952
:1018D000BA6941E800233B613B69002BE7D100BFB7
:1018E00000BF2437BD465DF8047B704780B489B0E3
:1018F00000AF78607B680C33FB60FB6853E8003F07
:10190000BB60BB6823F02003FB617B680C33FA6982
:10191000BA617B617969BA6941E800233B613B693F
:10192000002BE7D100BF00BF2437BD465DF8047B24
:10193000704780B489B000AF78607B680C33FB607F
:10194000FB6853E8003FBB60BB6823F08003FB618A
:101950007B680C33FA69BA617B617969BA6941E8DD
:1019600000233B613B69002BE7D100BF00BF243758
:10197000BD465DF8047B704780B483B000AF7860EB
:101980007B68DB6803F02003202B0CBF01230023BE
:10199000DBB218460C37BD465DF8047B704780B457
:1019A00083B000AF78607B68DB6803F08003802B36
:1019B0000CBF01230023DBB218460C37BD465DF88F
:1019C000047B704780B483B000AF78607B685B684D
:1019D000DBB218460C37BD465DF8047B704780B417
:1019E00083B000AF78600B46FB70FA787B685A6072
:1019F00000BF0C37BD465DF8047B704780B500AF73
:101A0000204B214A1A60214B214A1A60214B224A5D
:101A10001A60224B224A1A60224B234A1A60234B37
:101A2000234A1A60234B244A1A60244B244A1A6022
:101A3000244B1B681846FFF736FF234B1B681846DC
:101A4000FFF731FF214B1B681846FFF72CFF204B97
:101A50001B681846FFF727FF1A4B1B681846FFF74D
:101A6000DCFE194B1B681846FFF7D7FE174B1B68A7
:101A70001846FFF7D2FE164B1B681846FFF7CDFE3F
:101A800000BF80BD28460020E80500202C4600202D
:101A9000F00D002030460020F815002034460020CC
:101AA000001E002038460020082600203C4600206A
:101AB000102E00204046002018360020444600200A
:101AC000203E00200000002004000020080000202C
:101AD0000C00002080B584B000AF03463960FB7174
:101AE0003B68D3F800380133C3F30A03FB603B685B
:101AF000D3F80428FB689A4231D01B4B1B68184668
:101B0000FFF7F4FE194B1B681846FFF7EFFE184B62
:101B10001B681846FFF7EAFE164B1B681846FFF7CE
:101B2000E5FE3B68D3F800383A68F979D154FA6891
:101B30003B68C3F800280C4B1B681846FFF76DFE86
:101B40000A4B1B681846FFF768FE094B1B681846CE
:101B5000FFF763FE074B1B681846FFF75EFE00BFEA
:101B60001037BD4680BD00BF0000002004000020EB
:101B7000080000200C00002080B584B000AF786021
:101B80007B68414A934209D03F4A934212D83F4A68
:101B9000934207D03E4A934208D00BE03D4B1B686E
:101BA000FB600BE03C4B1B68FB6007E03B4B1B689A
:101BB000FB6003E03A4B1B68FB6000BFFB68D3F897
:101BC0000028FB68D3F804389A4202D14FF0FF3363
:101BD00055E07B682C4A934205D1324B1B6818466E
:101BE000FFF784FE18E07B68284A934205D12E4B0C
:101BF0001B681846FFF77AFE0EE07B68244A934282
:101C000005D12A4B1B681846FFF770FE04E0284BED
:101C10001B681846FFF76AFEFB68D3F80438FA68B9
:101C2000D35CFB72FB68D3F804380133C3F30A02B8
:101C3000FB68C3F804287B68134A934205D1194B0B
:101C40001B681846FFF7E9FD18E07B680F4A9342CE
:101C500005D1154B1B681846FFF7DFFD0EE07B68CA
:101C60000B4A934205D1114B1B681846FFF7D5FD6F
:101C700004E00F4B1B681846FFF7CFFDFB7A1846B0
:101C80001037BD4680BD00BF001001400044004039
:101C900000500040284600203046002038460020F2
:101CA0004046002000000020040000200800002022
:101CB0000C00002080B584B000AF786039607B688C
:101CC000544A934209D0534A934212D8524A9342FB
:101CD00007D0524A934208D00BE0514B1B68FB607F
:101CE0000BE0504B1B68FB6007E04F4B1B68FB6031
:101CF00003E04E4B1B68FB6000BF3B68002BC0F24B
:101D00008580FB68D3F800380133C3F30A03BB6056
:101D10007B68404A934205D1454B1B681846FFF744
:101D2000E5FD18E07B683C4A934205D1414B1B68B6
:101D30001846FFF7DBFD0EE07B68384A934205D179
:101D40003D4B1B681846FFF7D1FD04E03B4B1B6879
:101D50001846FFF7CBFD00BFFB68D3F80428BB682B
:101D60009A42F9D0FB68D3F800383A68D1B2FA68E1
:101D7000D154BA68FB68C3F800287B68254A9342AF
:101D800005D12B4B1B681846FFF747FD18E07B6811
:101D9000214A934205D1274B1B681846FFF73DFDAA
:101DA0000EE07B681D4A934205D1234B1B68184601
:101DB000FFF733FD04E0214B1B681846FFF72DFDAC
:101DC0007B68144A934209D0124A934218D8124AA7
:101DD000934209D0114A93420CD011E0144B1B6876
:101DE0001846FFF73DFD11E0124B1B681846FFF740
:101DF00037FD0BE0104B1B681846FFF731FD05E07F
:101E00000E4B1B681846FFF72BFD00BF00BF1037B5
:101E1000BD4680BD0010014000440040005000401D
:101E20002C460020344600203C460020444600203A
:101E30000000002004000020080000200C0000200A
:101E400080B485B000AF78607B68194A934209D0AE
:101E5000174A934212D8174A934207D0164A934220
:101E600008D00BE0154B1B68FB600BE0144B1B68A4
:101E7000FB6007E0134B1B68FB6003E0124B1B6821
:101E8000FB6000BFFB68D3F800389AB2FB68D3F858
:101E900004389BB2D31A9BB203F500639BB2C3F321
:101EA0000A0318461437BD465DF8047B704700BF2F
:101EB000001001400044004000500040284600202F
:101EC00030460020384600204046002080B582B0D1
:101ED00000AF7860396007E03B685A1C3A601B78B5
:101EE00019467868FFF7E6FE3B681B78002BF3D1B4
:101EF00000BF00BF0837BD4680BD000080B584B07C
:101F000000AF78607B68184A934209D0164A934222
:101F100012D8164A934207D0154A934208D00BE0D4
:101F2000144B1B68FB600BE0134B1B68FB6007E066
:101F3000124B1B68FB6003E0114B1B68FB6000BF8A
:101F4000FB684FF40062002118460CF05EFCFB6851
:101F50000022C3F80028FB680022C3F8042800BF51
:101F60001037BD4680BD00BF001001400044004056
:101F7000005000402846002030460020384600200F
:101F80004046002080B586B000AF78607B68464A46
:101F9000934209D0444A93421BD8444A93420AD000
:101FA000434A93420ED014E0424B1B687B61424B84
:101FB0001B683B6114E0414B1B687B61404B1B6815
:101FC0003B610DE03F4B1B687B613F4B1B683B61F6
:101FD00006E03E4B1B687B613D4B1B683B6100BFCD
:101FE0007868FFF7BEFB0346002B2CD07868FFF71C
:101FF000C3FC0346002B26D07868FFF7E3FC0346BA
:10200000FB737868FFF79AFB0346002B0BD17868C7
:10201000FFF76EFB0346002B05D17868FFF77BFBCB
:102020000346002B09D07868FFF7E5FB7868FFF7D7
:10203000BEFB7868FFF7CDFB32E0FB7B7969184681
:10204000FFF748FD2CE07868FFF79EFB0346002B66
:1020500026D07868FFF7A3FC0346002B20D03B690D
:10206000D3F800283B69D3F804389A4203D1786842
:10207000FFF75FFC13E03B69D3F804383A69D35C9F
:10208000BB733B69D3F804380133C3F30A023B69DD
:10209000C3F80428BB7B19467868FFF7A0FC00BF93
:1020A0001837BD4680BD00BF00100140004400400D
:1020B00000500040284600202C46002030460020DA
:1020C00034460020384600203C4600204046002090
:1020D0004446002080B400AF054B00221A70054B27
:1020E00000221A7000BFBD465DF8047B704700BF38
:1020F000494700204A47002080B400AF034B01222B
:102100001A7000BFBD465DF8047B70474947002048
:1021100080B400AF034B00221A7000BFBD465DF8CB
:10212000047B70474947002080B582B000AF7860DB
:102130000B46FB7000BF124B1B78DBB2002BFAD1B1
:102140000F4B01221A70FF2200210E480CF05DFB9C
:10215000FB781A4679680B480CF0D7FB0A4AFB78E3
:102160001370074B00221A70084B01221A704FF4AB
:102170007A71032008F078FB00BF0837BD4680BDA8
:102180004847002048460020474700204947002094
:1021900080B500AF0249034808F092FB00BF80BD44
:1021A000140000201000002080B582B000AF032092
:1021B00008F070FB0346002B57D02E4B1B78DBB288
:1021C000002B4DD02C4B1B78DBB2012B33D800BF3A
:1021D0002A4B1B78DBB2002BFAD1284B01221A7054
:1021E000274B1B78DBB21A46264927480CF08DFB9B
:1021F00000237B600AE0244A7B6813441B7819465D
:102200002248FFF757FD7B6801337B601C4B1B782E
:10221000DBB21A467B689342EDDB174B1B78DBB2CF
:102220000133DAB2144B1A70124B01221A70134B9D
:1022300000221A7014E0104B00221A70FFF768FF9A
:1022400013491448FFF742FE13491248FFF73EFEB8
:102250000F491248FFF73AFE0F491048FFF736FEC4
:102260004FF47A71032008F0FFFA00BF0837BD462B
:1022700080BD00BF494700204A4700204847002052
:1022800047470020484600204C47002000100140EE
:10229000E01E010800500040F41E01080014014037
:1022A00080B483B000AF786039607B683A689A6127
:1022B00000BF0C37BD465DF8047B704780B500AFAA
:1022C0000649074808F0FCFA4FF47A71072008F035
:1022D000CBFAFFF793FB00BF80BD00BF30000020AA
:1022E0002C00002080B584B000AF3D4B1B78DBB2E2
:1022F000002B71D0072008F0CDFA0346002B6BD0DD
:10230000384B1B78DBB2002B66D1374B1B78DBB226
:10231000002B61D1354B1B78DBB2002B2BD0344B1B
:102320001B78DBB2002B26D0002004F0DBFD314807
:10233000FFF7E4FD304B7B600923FB700023FB605B
:102340000AE0FB687A6813441B7819462948FFF7AE
:10235000B1FCFB680133FB60FB78FA689A42F0DB62
:10236000264B00221A70204B01221A704FF47A710A
:10237000072008F079FA214B1B78DBB2002B2BD118
:102380001F4B1B78DBB20133DAB21D4B1A701C4BAA
:102390001B78DBB2022B1FD91A4B1B78DBB201333F
:1023A000DAB2184B1A70164B00221A70104B012229
:1023B0001A70144B1B78DBB2042B0DD90123BB60C0
:1023C00007E0BB680733104AFF21D154BB680133D3
:1023D000BB60BB68232BF4DD00BF1037BD4680BD5A
:1023E00078490020494700204E4800203C0000204A
:1023F0003D00002000100140200000203E00002091
:102400004F4800204B4800207C49002080B5ADF5A6
:102410000A7D02AF07F50873A3F50773186007F587
:102420000873A3F50873196007F50873A3F507731C
:102430001B68032B01DC0323D8E007F50873A3F521
:1024400007731B68042B01DD0223CFE007F5087337
:10245000A3F508731B6804331B6818460BF0BAF920
:10246000034687F81B3297F81B32032B01D904234C
:10247000BCE007F50873A3F508731B6808331B68F5
:1024800018460BF0A7F90346A7F81832B7F8183228
:10249000B3F5FA7F01D90423A8E04FF40061564850
:1024A000FFF7FEFE4FF480515348FFF7F9FE07F5A2
:1024B0000873A3F507731B6803F18043013B9B007E
:1024C00007F50872A2F50872126813441B68C7F872
:1024D0001432D7F81432494A934203D1484B0122AF
:1024E0001A7002E0464B00221A70012387F813325B
:1024F00097F81B3287F81032B7F818321B0A9BB2D4
:10250000DBB287F81132B7F81832DBB287F8123233
:1025100007F5047197F8130207F5887301930123F7
:1025200000930523032208F077FB07F10F0207F160
:10253000100107F58873184608F0F4FB07F50873D7
:10254000A3F211231B78002B2CD00023C7F81C32D8
:1025500010E007F50873A3F50472D7F81C32134492
:102560001B7819462748FFF7A5FBD7F81C32013323
:10257000C7F81C3207F50873A3F211231B781A461B
:10258000D7F81C329342E4DB07F50873A3F211235A
:102590001A7807F1100311461846FFF7C5FDFFF73B
:1025A000ABFD22E007F5047197F8130207F5887375
:1025B0000193012300930523032208F02DFB07F16B
:1025C0000F0207F1100107F58873184608F0AAFBFF
:1025D00007F50873A3F211231A7807F110031146C7
:1025E0001846FFF7A1FDFFF787FD0523184607F5FD
:1025F0000877BD4680BD00BF00000240005000408B
:10260000504800200010014080B5ADF50A7D02AFB2
:1026100007F50873A3F50773186007F50873A3F5AA
:102620000873196007F50873A3F507731B68032B7C
:1026300001DC0323CFE007F50873A3F507731B68DC
:10264000042B01DD0223C6E007F50873A3F5087328
:102650001B6804331B6818460BF0BCF8034687F868
:102660001B3297F81B32012B01D90423B3E007F585
:102670000873A3F508731B6808331B6818460BF032
:10268000A9F8034687F81A3297F81A32032B01D9B2
:102690000423A0E04FF400615148FFF701FE4FF41E
:1026A00080514F48FFF7FCFD07F50873A3F507734A
:1026B0001B6803F18043013B9B0007F50872A2F5FC
:1026C0000872126813441B68C7F81432D7F8143222
:1026D000444A934203D1444B01221A7002E0424B18
:1026E00000221A70022387F8133297F81B3287F8FA
:1026F000103297F81A3287F8113207F5047197F8FB
:10270000130207F588730193012300930523022226
:1027100008F082FA07F10F0207F1100107F588733C
:10272000184608F0FFFA07F50873A3F211231B7887
:10273000002B2CD00023C7F81C3210E007F50873DB
:10274000A3F50472D7F81C3213441B7819462748A6
:10275000FFF7B0FAD7F81C320133C7F81C3207F57F
:102760000873A3F211231B781A46D7F81C32934240
:10277000E4DB07F50873A3F211231A7807F11003BD
:1027800011461846FFF7D0FCFFF7B6FC22E007F52C
:10279000047197F8130207F58873019301230093DE
:1027A0000523022208F038FA07F10F0207F11001A1
:1027B00007F58873184608F0B5FA07F50873A3F211
:1027C00011231A7807F1100311461846FFF7ACFCE5
:1027D000FFF792FC0523184607F50877BD4680BD34
:1027E000000002400050004050480020001001400E
:1027F00080B5ADF50A7D02AF07F50873A3F5077341
:10280000186007F50873A3F50873196007F50873D6
:10281000A3F507731B68022B01DC0323B8E007F55F
:102820000873A3F507731B68032B01DD0223AFE0D8
:1028300007F50873A3F508731B6804331B68184673
:102840000AF0C8FF034687F81B3297F81B32032BA8
:1028500001D904239CE04FF400615048FFF720FDAC
:102860004FF480514D48FFF71BFD07F50873A3F5A2
:1028700007731B6803F18043013B9B0007F5087257
:10288000A2F50872126813441B68C7F81432D7F80F
:102890001432434A934203D1424B01221A7002E0A0
:1028A000404B00221A70032387F8133297F81B322B
:1028B00087F8103207F5047197F8130207F588734B
:1028C0000193012300930523012208F0A5F907F1E4
:1028D0000F0207F1100107F58873184608F022FA75
:1028E00007F50873A3F211231B78002B2CD00023CB
:1028F000C7F81C3210E007F50873A3F50472D7F887
:102900001C3213441B7819462748FFF7D3F9D7F830
:102910001C320133C7F81C3207F50873A3F21123E8
:102920001B781A46D7F81C329342E4DB07F508738C
:10293000A3F211231A7807F1100311461846FFF786
:10294000F3FBFFF7D9FB22E007F5047197F81302B8
:1029500007F588730193012300930523012208F0F2
:102960005BF907F10F0207F1100107F588731846AC
:1029700008F0D8F907F50873A3F211231A7807F1C4
:10298000100311461846FFF7CFFBFFF7B5FB0523F1
:10299000184607F50877BD4680BD00BF000002401D
:1029A00000500040504800200010014080B5ADF5B7
:1029B0000A7D02AF07F50873A3F50773186007F5E2
:1029C0000873A3F50873196007F50873A3F5077377
:1029D0001B68022B01DC0323B8E007F50873A3F59D
:1029E00007731B68032B01DD0223AFE007F50873B3
:1029F000A3F508731B6804331B6818460AF0EAFE47
:102A0000034687F81B3297F81B32032B01D90423A6
:102A10009CE04FF400615048FFF742FC4FF48051B6
:102A20004D48FFF73DFC07F50873A3F507731B68D6
:102A300003F18043013B9B0007F50872A2F5087281
:102A4000126813441B68C7F81432D7F81432434A8B
:102A5000934203D1424B01221A7002E0404B002204
:102A60001A70042387F8133297F81B3287F8103254
:102A700007F5047197F8130207F588730193012392
:102A800000930523012208F0C7F807F10F0207F1B0
:102A9000100107F58873184608F044F907F5087324
:102AA000A3F211231B78002B2CD00023C7F81C3273
:102AB00010E007F50873A3F50472D7F81C3213442D
:102AC0001B7819462748FFF7F5F8D7F81C32013371
:102AD000C7F81C3207F50873A3F211231B781A46B6
:102AE000D7F81C329342E4DB07F50873A3F21123F5
:102AF0001A7807F1100311461846FFF715FBFFF788
:102B0000FBFA22E007F5047197F8130207F58873C2
:102B10000193012300930523012208F07DF807F1BA
:102B20000F0207F1100107F58873184608F0FAF84C
:102B300007F50873A3F211231A7807F11003114661
:102B40001846FFF7F1FAFFF7D7FA0523184607F5FD
:102B50000877BD4680BD00BF000002400050004025
:102B6000504800200010014080B5ADF50A7D02AF4D
:102B700007F50873A3F50773186007F50873A3F545
:102B80000873196007F50873A3F507731B68022B18
:102B900001DC0323B8E007F50873A3F507731B688E
:102BA000032B01DD0223AFE007F50873A3F50873DB
:102BB0001B6804331B6818460AF00CFE034687F8AE
:102BC0001B3297F81B32032B01D904239CE04FF4EE
:102BD00000615048FFF764FB4FF480514D48FFF708
:102BE0005FFB07F50873A3F507731B6803F18043C8
:102BF000013B9B0007F50872A2F5087212681344A6
:102C00001B68C7F81432D7F81432434A934203D1F1
:102C1000424B01221A7002E0404B00221A70052339
:102C200087F8133297F81B3287F8103207F50471D2
:102C300097F8130207F58873019301230093052386
:102C4000012207F0E9FF07F10F0207F1100107F574
:102C50008873184608F066F807F50873A3F2112385
:102C60001B78002B2CD00023C7F81C3210E007F58E
:102C70000873A3F50472D7F81C3213441B78194665
:102C80002748FFF717F8D7F81C320133C7F81C3272
:102C900007F50873A3F211231B781A46D7F81C32E4
:102CA0009342E4DB07F50873A3F211231A7807F1C6
:102CB000100311461846FFF737FAFFF71DFA22E016
:102CC00007F5047197F8130207F588730193012340
:102CD00000930523012207F09FFF07F10F0207F180
:102CE000100107F58873184608F01CF807F50873FB
:102CF000A3F211231A7807F1100311461846FFF7C3
:102D000013FAFFF7F9F90523184607F50877BD46CA
:102D100080BD00BF0000024000500040504800202D
:102D20000010014080B5ADF50A7D02AF07F50873CC
:102D3000A3F50773186007F50873A3F50873196006
:102D400007F50873A3F507731B68022B01DC032347
:102D5000B8E007F50873A3F507731B68032B01DDC3
:102D60000223AFE007F50873A3F508731B6804336B
:102D70001B6818460AF02EFD034687F81B3297F8A9
:102D80001B32032B01D904239CE04FF4006150480F
:102D9000FFF786FA4FF480514D48FFF781FA07F5A7
:102DA0000873A3F507731B6803F18043013B9B0085
:102DB00007F50872A2F50872126813441B68C7F879
:102DC0001432D7F81432434A934203D1424B0122C2
:102DD0001A7002E0404B00221A70062387F8133263
:102DE00097F81B3287F8103207F5047197F8130231
:102DF00007F588730193012300930523012207F04F
:102E00000BFF07F10F0207F1100107F58873184651
:102E100007F088FF07F50873A3F211231B78002B36
:102E20002CD00023C7F81C3210E007F50873A3F577
:102E30000472D7F81C3213441B7819462748FEF752
:102E400039FFD7F81C320133C7F81C3207F5087375
:102E5000A3F211231B781A46D7F81C329342E4DB05
:102E600007F50873A3F211231A7807F1100311462E
:102E70001846FFF759F9FFF73FF922E007F504710B
:102E800097F8130207F58873019301230093052334
:102E9000012207F0C1FE07F10F0207F1100107F54B
:102EA0008873184607F03EFF07F50873A3F2112355
:102EB0001A7807F1100311461846FFF735F9FFF7A6
:102EC0001BF90523184607F50877BD4680BD00BFEE
:102ED0000000024000500040504800200010014017
:102EE00080B5ADF50A7D02AF07F50873A3F507734A
:102EF000186007F50873A3F50873196007F50873E0
:102F0000A3F507731B68022B01DC0323B8E007F568
:102F10000873A3F507731B68032B01DD0223AFE0E1
:102F200007F50873A3F508731B6804331B6818467C
:102F30000AF050FC034687F81B3297F81B32032B2C
:102F400001D904239CE04FF400615048FFF7A8F931
:102F50004FF480514D48FFF7A3F907F50873A3F527
:102F600007731B6803F18043013B9B0007F5087260
:102F7000A2F50872126813441B68C7F81432D7F818
:102F80001432434A934203D1424B01221A7002E0A9
:102F9000404B00221A70072387F8133297F81B3230
:102FA00087F8103207F5047197F8130207F5887354
:102FB0000193012300930523012207F02DFE07F161
:102FC0000F0207F1100107F58873184607F0AAFEF3
:102FD00007F50873A3F211231B78002B2CD00023D4
:102FE000C7F81C3210E007F50873A3F50472D7F890
:102FF0001C3213441B7819462748FEF75BFED7F8AE
:103000001C320133C7F81C3207F50873A3F21123F1
:103010001B781A46D7F81C329342E4DB07F5087395
:10302000A3F211231A7807F1100311461846FFF78F
:103030007BF8FFF761F822E007F5047197F81302B7
:1030400007F588730193012300930523012207F0FC
:10305000E3FD07F10F0207F1100107F58873184629
:1030600007F060FE07F50873A3F211231A7807F141
:10307000100311461846FFF757F8FFF73DF80523F0
:10308000184607F50877BD4680BD00BF0000024026
:1030900000500040504800200010014080B5ADF5C0
:1030A0000A7D02AF07F50873A3F50773186007F5EB
:1030B0000873A3F50873196007F50873A3F5077380
:1030C0001B68042B01DC0323EFE007F50873A3F56D
:1030D00007731B68052B01DD0223E6E007F5087383
:1030E000A3F508731B6804331B6818460AF072FBCB
:1030F000034687F81B3297F81B32032B01D90423B0
:10310000D3E007F50873A3F508731B6808331B6841
:1031100018460AF05FFB034687F81A3297F81A320E
:10312000012B01D90423C0E007F50873A3F5087348
:103130001B680C331B6818460AF04CFB0346A7F8C3
:103140001832B7F81832B3F5FA7F01D90423ACE08E
:103150004FF400615748FFF7A3F84FF480515548EA
:10316000FFF79EF807F50873A3F507731B6803F1D3
:103170008043013B9B0007F50872A2F508721268B4
:1031800013441B68C7F81432D7F814324A4A9342E2
:1031900003D14A4B01221A7002E0484B00221A70F8
:1031A000082387F8133297F81B3287F80C3297F808
:1031B0001A3287F80D32B7F818321B0A9BB2DBB20D
:1031C00087F80E32B7F81832DBB287F80F3207F5FE
:1031D000037197F8130207F5867301930123009397
:1031E0000523042207F018FD07F10B0207F10C017B
:1031F00007F58673184607F095FD07F50873A3F2E7
:1032000015231B78002B2CD00023C7F81C3210E0AC
:1032100007F50873A3F50572D7F81C3213441B7821
:1032200019462748FEF746FDD7F81C320133C7F888
:103230001C3207F50873A3F215231B781A46D7F83A
:103240001C329342E4DB07F50873A3F215231A78C6
:1032500007F10C0311461846FEF766FFFEF74CFF18
:1032600022E007F5037197F8130207F586730193BF
:10327000012300930523042207F0CEFC07F10B0283
:1032800007F10C0107F58673184607F04BFD07F5AB
:103290000873A3F215231A7807F10C031146184698
:1032A000FEF742FFFEF728FF0523184607F50877CB
:1032B000BD4680BD00000240005000405048002044
:1032C0000010014080B5ADF50A7D02AF07F5087327
:1032D000A3F50773186007F50873A3F50873196061
:1032E00007F50873A3F507731B68032B01DC0323A1
:1032F000D8E007F50873A3F507731B68042B01DDFD
:103300000223CFE007F50873A3F508731B680433A5
:103310001B6818460AF05EFA034687F81B3297F8D6
:103320001B32032B01D90423BCE007F50873A3F576
:1033300008731B6808331B6818460AF04BFA0346EB
:10334000A7F81832B7F81832B3F5FA7F01D9042379
:10335000A8E04FF400615648FEF7A2FF4FF48051F9
:103360005348FEF79DFF07F50873A3F507731B6825
:1033700003F18043013B9B0007F50872A2F5087238
:10338000126813441B68C7F81432D7F81432494A3C
:10339000934203D1484B01221A7002E0464B0022AF
:1033A0001A70092387F8133297F81B3287F8103206
:1033B000B7F818321B0A9BB2DBB287F81132B7F8A4
:1033C0001832DBB287F8123207F5047197F813024E
:1033D00007F588730193012300930523032207F067
:1033E0001BFC07F10F0207F1100107F5887318465F
:1033F00007F098FC07F50873A3F211231B78002B44
:103400002CD00023C7F81C3210E007F50873A3F591
:103410000472D7F81C3213441B7819462748FEF76C
:1034200049FCD7F81C320133C7F81C3207F5087382
:10343000A3F211231B781A46D7F81C329342E4DB1F
:1034400007F50873A3F211231A7807F11003114648
:103450001846FEF769FEFEF74FFE22E007F50471FD
:1034600097F8130207F5887301930123009305234E
:10347000032207F0D1FB07F10F0207F1100107F556
:103480008873184607F04EFC07F50873A3F2112362
:103490001A7807F1100311461846FEF745FEFEF7AD
:1034A0002BFE0523184607F50877BD4680BD00BFF3
:1034B0000000024000500040504800200010014031
:1034C00080B5ADF5067D00AF07F50673A3F505736E
:1034D000186007F50673A3F50673196007F5067300
:1034E000A3F505731B68012B01DC032397E007F5A7
:1034F0000673A3F505731B68022B01DD02238EE022
:103500004FF400614848FEF7CBFE4FF48051464827
:10351000FEF7C6FE07F50673A3F505731B6803F1F6
:103520008043013B9B0007F50672A2F50672126804
:1035300013441B68C7F81032D7F810323B4A934245
:1035400003D13B4B01221A7002E0394B00221A7062
:103550000A2387F80F3207F5887397F80F020122C4
:10356000052107F031FB07F10F0207F1100107F504
:103570008873184607F0D6FB07F50673A3F20923F4
:103580001B78002B2CD00023C7F8143210E007F56D
:103590000673A3F50272D7F8143213441B78194648
:1035A0002448FEF787FBD7F814320133C7F81432EA
:1035B00007F50673A3F209231B781A46D7F81432CD
:1035C0009342E4DB07F50673A3F209231A7807F1A7
:1035D000100311461846FEF7A7FDFEF78DFD1DE00E
:1035E00007F5887397F80F020122052107F0ECFA1E
:1035F00007F10F0207F1100107F58873184607F06D
:1036000091FB07F50673A3F209231A7807F110035B
:1036100011461846FEF788FDFEF76EFD0523184695
:1036200007F50677BD4680BD00000240005000400F
:10363000504800200010014080B5ADF5067D00AF78
:1036400007F50673A3F50573186007F50673A3F570
:103650000673196007F50673A3F505731B68012B44
:1036600001DC032397E007F50673A3F505731B68D8
:10367000022B01DD02238EE04FF400614848FEF783
:103680000FFE4FF480514648FEF70AFE07F5067319
:10369000A3F505731B6803F18043013B9B0007F50D
:1036A0000672A2F50672126813441B68C7F810323E
:1036B000D7F810323B4A934203D13B4B01221A7098
:1036C00002E0394B00221A700B2387F80F3207F5FE
:1036D000887397F80F020122052107F075FA07F1A8
:1036E0000F0207F1100107F58873184607F01AFB5F
:1036F00007F50673A3F209231B78002B2CD00023B7
:10370000C7F8143210E007F50673A3F50272D7F874
:10371000143213441B7819462448FEF7CBFAD7F825
:1037200014320133C7F8143207F50673A3F20923E4
:103730001B781A46D7F814329342E4DB07F5067378
:10374000A3F209231A7807F1100311461846FEF771
:10375000EBFCFEF7D1FC1DE007F5887397F80F022C
:103760000122052107F030FA07F10F0207F11001DD
:1037700007F58873184607F0D5FA07F50673A3F224
:1037800009231A7807F1100311461846FEF7CCFCFE
:10379000FEF7B2FC0523184607F50677BD4680BD47
:1037A000000002400050004050480020001001403E
:1037B00080B5ADF5067D00AF07F50673A3F505737B
:1037C000186007F50673A3F50673196007F506730D
:1037D000A3F505731B68012B01DC032397E007F5B4
:1037E0000673A3F505731B68022B01DD02238EE02F
:1037F0004FF400614848FEF753FD4FF480514648AE
:10380000FEF74EFD07F50673A3F505731B6803F17C
:103810008043013B9B0007F50672A2F50672126811
:1038200013441B68C7F81032D7F810323B4A934252
:1038300003D13B4B01221A7002E0394B00221A706F
:103840000C2387F80F3207F5887397F80F020122CF
:10385000052107F0B9F907F10F0207F1100107F58B
:103860008873184607F05EFA07F50673A3F209237A
:103870001B78002B2CD00023C7F8143210E007F57A
:103880000673A3F50272D7F8143213441B78194655
:103890002448FEF70FFAD7F814320133C7F8143270
:1038A00007F50673A3F209231B781A46D7F81432DA
:1038B0009342E4DB07F50673A3F209231A7807F1B4
:1038C000100311461846FEF72FFCFEF715FC1DE00D
:1038D00007F5887397F80F020122052107F074F9A4
:1038E00007F10F0207F1100107F58873184607F07A
:1038F00019FA07F50673A3F209231A7807F11003E2
:1039000011461846FEF710FCFEF7F6FB0523184695
:1039100007F50677BD4680BD00000240005000401C
:10392000504800200010014080B5ADF50A7D02AF7F
:1039300007F50873A3F50773186007F50873A3F577
:103940000873196007F50873A3F507731B68052B47
:1039500001DC0323E5E007F50873A3F507731B6893
:10396000062B01DD0223DCE007F50873A3F50873DD
:103970001B6804331B68184609F02CFF034687F8C0
:103980001B3207F50873A3F508731B6808331B681F
:10399000184609F01FFF034687F81A3207F5087327
:1039A000A3F508731B680C331B68184609F012FF57
:1039B000034687F8193207F50873A3F508731B68E7
:1039C00010331B68184609F005FF034687F81832C4
:1039D0004FF400615548FEF763FC4FF480515348A3
:1039E000FEF75EFC07F50873A3F507731B6803F188
:1039F0008043013B9B0007F50872A2F5087212682C
:103A000013441B68C7F81432D7F81432484A93425B
:103A100003D1484B01221A7002E0464B00221A7073
:103A20000D2387F8133297F81B3287F80C3297F87A
:103A30001A3287F80D3297F8193287F80E3297F854
:103A4000183287F80F3207F5037197F8130207F55C
:103A500086730193012300930523042207F0DCF809
:103A600007F10B0207F10C0107F58673184607F002
:103A700059F907F50873A3F215231B78002B2CD0F6
:103A80000023C7F81C3210E007F50873A3F5057290
:103A9000D7F81C3213441B7819462748FEF70AF959
:103AA000D7F81C320133C7F81C3207F50873A3F2AC
:103AB00015231B781A46D7F81C329342E4DB07F52E
:103AC0000873A3F215231A7807F10C031146184660
:103AD000FEF72AFBFEF710FB22E007F5037197F8CB
:103AE000130207F586730193012300930523042233
:103AF00007F092F807F10B0207F10C0107F5867346
:103B0000184607F00FF907F50873A3F215231A7882
:103B100007F10C0311461846FEF706FBFEF7ECFA18
:103B20000523184607F50877BD4680BD0000024012
:103B300000500040504800200010014080B5ADF515
:103B4000067D00AF07F50673A3F50573186007F54A
:103B50000673A3F50673196007F50673A3F50573DD
:103B60001B68012B01DC032397E007F50673A3F51F
:103B700005731B68022B01DD02238EE04FF4006108
:103B80004848FEF78DFB4FF480514648FEF788FB0E
:103B900007F50673A3F505731B6803F18043013B2A
:103BA0009B0007F50672A2F50672126813441B68A3
:103BB000C7F81032D7F810323B4A934203D13B4B3F
:103BC00001221A7002E0394B00221A700E2387F886
:103BD0000F3207F5887397F80F020122052106F0CE
:103BE000F3FF07F10F0207F1100107F5887318467C
:103BF00007F098F807F50673A3F209231B78002B4A
:103C00002CD00023C7F8143210E007F50673A3F593
:103C10000272D7F8143213441B7819462448FEF771
:103C200049F8D7F814320133C7F8143207F5067390
:103C3000A3F209231B781A46D7F814329342E4DB27
:103C400007F50673A3F209231A7807F1100311464A
:103C50001846FEF769FAFEF74FFA1DE007F588737C
:103C600097F80F020122052106F0AEFF07F10F02BF
:103C700007F1100107F58873184607F053F807F5A8
:103C80000673A3F209231A7807F1100311461846A8
:103C9000FEF74AFAFEF730FA0523184607F50677CD
:103CA000BD4680BD0000024000500040504800204A
:103CB0000010014080B5ADF50A7D02AF07F508732D
:103CC000A3F50773186007F50873A3F50873196067
:103CD00007F50873A3F507731B68022B01DC0323A8
:103CE000B8E007F50873A3F507731B68032B01DD24
:103CF0000223AFE007F50873A3F508731B680433CC
:103D00001B68184609F066FD034687F81B3297F8D2
:103D10001B32642B01D904239CE04FF4006150480E
:103D2000FEF7BEFA4FF480514D48FEF7B9FA07F599
:103D30000873A3F507731B6803F18043013B9B00E5
:103D400007F50872A2F50872126813441B68C7F8D9
:103D50001432D7F81432434A934203D1424B012222
:103D60001A7002E0404B00221A700F2387F81332BA
:103D700097F81B3287F8103207F5047197F8130291
:103D800007F588730193012300930523012206F0B0
:103D900043FF07F10F0207F1100107F5887318467A
:103DA00006F0C0FF07F50873A3F211231B78002B60
:103DB0002CD00023C7F81C3210E007F50873A3F5D8
:103DC0000472D7F81C3213441B7819462748FDF7B4
:103DD00071FFD7F81C320133C7F81C3207F508739E
:103DE000A3F211231B781A46D7F81C329342E4DB66
:103DF00007F50873A3F211231A7807F1100311468F
:103E00001846FEF791F9FEF777F922E007F50471FD
:103E100097F8130207F58873019301230093052394
:103E2000012206F0F9FE07F10F0207F1100107F574
:103E30008873184606F076FF07F50873A3F211237E
:103E40001A7807F1100311461846FEF76DF9FEF7D0
:103E500053F90523184607F50877BD4680BD00BF16
:103E60000000024000500040504800200010014077
:103E700080B5ADF5067D00AF07F50673A3F50573B4
:103E8000186007F50673A3F50673196007F5067346
:103E9000A3F505731B68012B01DC032397E007F5ED
:103EA0000673A3F505731B68022B01DD02238EE068
:103EB0004FF400614848FEF7F3F94FF4805146484B
:103EC000FEF7EEF907F50673A3F505731B6803F11A
:103ED0008043013B9B0007F50672A2F5067212684B
:103EE00013441B68C7F81032D7F810323B4A93428C
:103EF00003D13B4B01221A7002E0394B00221A70A9
:103F0000102387F80F3207F5887397F80F02012204
:103F1000052106F059FE07F10F0207F1100107F520
:103F20008873184606F0FEFE07F50673A3F2092310
:103F30001B78002B2CD00023C7F8143210E007F5B3
:103F40000673A3F50272D7F8143213441B7819468E
:103F50002448FDF7AFFED7F814320133C7F8143206
:103F600007F50673A3F209231B781A46D7F8143213
:103F70009342E4DB07F50673A3F209231A7807F1ED
:103F8000100311461846FEF7CFF8FEF7B5F81DE00E
:103F900007F5887397F80F020122052106F014FE39
:103FA00007F10F0207F1100107F58873184606F0B4
:103FB000B9FE07F50673A3F209231A7807F1100377
:103FC00011461846FEF7B0F8FEF796F80523184696
:103FD00007F50677BD4680BD000002400050004056
:103FE000504800200010014080B5ADF5067D00AFBF
:103FF00007F50673A3F50573186007F50673A3F5B7
:104000000673196007F50673A3F505731B68012B8A
:1040100001DC032397E007F50673A3F505731B681E
:10402000022B01DD02238EE04FF400614848FEF7C9
:1040300037F94FF480514648FEF732F907F5067319
:10404000A3F505731B6803F18043013B9B0007F553
:104050000672A2F50672126813441B68C7F8103284
:10406000D7F810323B4A934203D13B4B01221A70DE
:1040700002E0394B00221A70112387F80F3207F53E
:10408000887397F80F020122052106F09DFD07F1C4
:104090000F0207F1100107F58873184606F042FE7B
:1040A00007F50673A3F209231B78002B2CD00023FD
:1040B000C7F8143210E007F50673A3F50272D7F8BB
:1040C000143213441B7819462448FDF7F3FDD7F842
:1040D00014320133C7F8143207F50673A3F209232B
:1040E0001B781A46D7F814329342E4DB07F50673BF
:1040F000A3F209231A7807F1100311461846FEF7B8
:1041000013F8FDF7F9FF1DE007F5887397F80F0224
:104110000122052106F058FD07F10F0207F11001F9
:1041200007F58873184606F0FDFD07F50673A3F240
:1041300009231A7807F1100311461846FDF7F4FF1A
:10414000FDF7DAFF0523184607F50677BD4680BD63
:104150000000024000500040504800200010014084
:1041600080B5ADF5067D00AF07F50673A3F50573C1
:10417000186007F50673A3F50673196007F5067353
:10418000A3F505731B68012B01DC032397E007F5FA
:104190000673A3F505731B68022B01DD02238EE075
:1041A0004FF400614848FEF77BF84FF480514648D1
:1041B000FEF776F807F50673A3F505731B6803F1A0
:1041C0008043013B9B0007F50672A2F50672126858
:1041D00013441B68C7F81032D7F810323B4A934299
:1041E00003D13B4B01221A7002E0394B00221A70B6
:1041F000122387F80F3207F5887397F80F02012210
:10420000052106F0E1FC07F10F0207F1100107F5A7
:104210008873184606F086FD07F50673A3F2092396
:104220001B78002B2CD00023C7F8143210E007F5C0
:104230000673A3F50272D7F8143213441B7819469B
:104240002448FDF737FDD7F814320133C7F814328C
:1042500007F50673A3F209231B781A46D7F8143220
:104260009342E4DB07F50673A3F209231A7807F1FA
:10427000100311461846FDF757FFFDF73DFF1DE0FF
:1042800007F5887397F80F020122052106F09CFCC0
:1042900007F10F0207F1100107F58873184606F0C1
:1042A00041FD07F50673A3F209231A7807F11003FD
:1042B00011461846FDF738FFFDF71EFF0523184687
:1042C00007F50677BD4680BD000002400050004063
:1042D000504800200010014080B5ADF5067D00AFCC
:1042E00007F50673A3F50573186007F50673A3F5C4
:1042F0000673196007F50673A3F505731B68012B98
:1043000001DC032397E007F50673A3F505731B682B
:10431000022B01DD02238EE04FF400614848FDF7D7
:10432000BFFF4FF480514648FDF7BAFF07F506730B
:10433000A3F505731B6803F18043013B9B0007F560
:104340000672A2F50672126813441B68C7F8103291
:10435000D7F810323B4A934203D13B4B01221A70EB
:1043600002E0394B00221A70132387F80F3207F549
:10437000887397F80F020122052106F025FC07F14A
:104380000F0207F1100107F58873184606F0CAFC02
:1043900007F50673A3F209231B78002B2CD000230A
:1043A000C7F8143210E007F50673A3F50272D7F8C8
:1043B000143213441B7819462448FDF77BFCD7F8C8
:1043C00014320133C7F8143207F50673A3F2092338
:1043D0001B781A46D7F814329342E4DB07F50673CC
:1043E000A3F209231A7807F1100311461846FDF7C6
:1043F0009BFEFDF781FE1DE007F5887397F80F021D
:104400000122052106F0E0FB07F10F0207F1100180
:1044100007F58873184606F085FC07F50673A3F2C6
:1044200009231A7807F1100311461846FDF77CFEA0
:10443000FDF762FE0523184607F50677BD4680BDE9
:104440000000024000500040504800200010014091
:1044500080B483B000AF786039603B681A047B6831
:104460009A6100BF0C37BD465DF8047B70470000C1
:1044700080B500AF0649074806F022FA4FF47A717A
:10448000062006F0F1F9FDF7B9FA00BF80BD00BFC4
:10449000500000204C00002080B584B000AF3D4BA0
:1044A0001B78DBB2002B71D0062006F0F3F903462F
:1044B000002B6BD0384B1B78DBB2002B66D1374B0F
:1044C0001B78DBB2002B61D1354B1B78DBB2002BA4
:1044D0002BD0344B1B78DBB2002B26D0002002F00F
:1044E00001FD3148FDF70AFD304B7B600923FB706D
:1044F0000023FB600AE0FB687A6813441B781946C6
:104500002948FDF7D7FBFB680133FB60FB78FA68AD
:104510009A42F0DB264B00221A70204B01221A70BF
:104520004FF47A71062006F09FF9214B1B78DBB21D
:10453000002B2BD11F4B1B78DBB20133DAB21D4BA2
:104540001A701C4B1B78DBB2022B1FD91A4B1B783D
:10455000DBB20133DAB2184B1A70164B00221A7014
:10456000134B01221A70144B1B78DBB2042B0DD9AC
:104570000123BB6007E0BB682A33104AFF21D154F6
:10458000BB680133BB60BB68362BF4DD00BF10375E
:10459000BD4680BD78490020494700204E48002094
:1045A0003E0000203D00002000100140400000209F
:1045B0003C000020514800204C4800207C4900204D
:1045C00080B5ADF50A7D02AF07F50873A3F5077353
:1045D000186007F50873A3F50873196007F50873E9
:1045E000A3F507731B68032B01DC0323CFE007F55A
:1045F0000873A3F507731B68042B01DD0223C6E0D3
:1046000007F50873A3F508731B6804331B68184685
:1046100009F0E0F8034687F81B3297F81B32092BA4
:1046200001D90423B3E007F50873A3F508731B68E9
:1046300008331B68184609F0CDF8034687F81A328C
:1046400097F81A32012B01D90423A0E04FF400613E
:104650005148FFF7FDFE4FF480514F48FFF7F8FE39
:1046600007F50873A3F507731B6803F18043013B4B
:104670009B0007F50872A2F50872126813441B68C4
:10468000C7F81432D7F81432444A934203D1444B4A
:1046900001221A7002E0424B00221A70012387F8AF
:1046A000133297F81B3287F8103297F81A3287F8CE
:1046B000113207F5047197F8130207F58873019317
:1046C000012300930323022206F0A6FA07F10F024A
:1046D00007F1100107F58873184606F023FB07F56C
:1046E0000873A3F211231B78002B2CD00023C7F8EA
:1046F0001C3210E007F50873A3F50472D7F81C32DA
:1047000013441B7819462748FDF7D4FAD7F81C3212
:104710000133C7F81C3207F50873A3F211231B7885
:104720001A46D7F81C329342E4DB07F50873A3F26C
:1047300011231A7807F1100311461846FDF7F4FC0F
:10474000FDF7DAFC22E007F5047197F8130207F58C
:1047500088730193012300930323022206F05CFA7D
:1047600007F10F0207F1100107F58873184606F0EC
:10477000D9FA07F50873A3F211231A7807F1100389
:1047800011461846FDF7D0FCFDF7B6FC0523184688
:1047900007F50877BD4680BD00000240005000408C
:1047A000504800200010014080B5ADF50A7D02AFF1
:1047B00007F50873A3F50773186007F50873A3F5E9
:1047C0000873196007F50873A3F507731B68032BBB
:1047D00001DC0323CFE007F50873A3F507731B681B
:1047E000042B01DD0223C6E007F50873A3F5087367
:1047F0001B6804331B68184608F0ECFF034687F873
:104800001B3297F81B32062B01D90423B3E007F5BE
:104810000873A3F508731B6808331B68184608F073
:10482000D9FF034687F81A3297F81A32012B01D9BB
:104830000423A0E04FF400615148FFF709FE4FF454
:1048400080514F48FFF704FE07F50873A3F507737F
:104850001B6803F18043013B9B0007F50872A2F53A
:104860000872126813441B68C7F81432D7F8143260
:10487000444A934203D1444B01221A7002E0424B56
:1048800000221A70022387F8133297F81B3287F838
:10489000103297F81A3287F8113207F5047197F839
:1048A000130207F588730193012300930323022267
:1048B00006F0B2F907F10F0207F1100107F588734E
:1048C000184606F02FFA07F50873A3F211231B7898
:1048D000002B2CD00023C7F81C3210E007F508731A
:1048E000A3F50472D7F81C3213441B7819462748E5
:1048F000FDF7E0F9D7F81C320133C7F81C3207F591
:104900000873A3F211231B781A46D7F81C3293427E
:10491000E4DB07F50873A3F211231A7807F11003FB
:1049200011461846FDF700FCFDF7E6FB22E007F50F
:10493000047197F8130207F588730193012300931C
:104940000323022206F068F907F10F0207F11001B4
:1049500007F58873184606F0E5F907F50873A3F222
:1049600011231A7807F1100311461846FDF7DCFBF6
:10497000FDF7C2FB0523184607F50877BD4680BD45
:10498000000002400050004050480020001001404C
:1049900080B5ADF50A7D02AF07F50873A3F507737F
:1049A000186007F50873A3F50873196007F5087315
:1049B000A3F507731B68022B01DC0323B8E007F59E
:1049C0000873A3F507731B68032B01DD0223AFE017
:1049D00007F50873A3F508731B6804331B681846B2
:1049E00008F0F8FE034687F81B3297F81B32012BBC
:1049F00001D904239CE04FF400615048FFF728FDE3
:104A00004FF480514D48FFF723FD07F50873A3F5D8
:104A100007731B6803F18043013B9B0007F5087295
:104A2000A2F50872126813441B68C7F81432D7F84D
:104A30001432434A934203D1424B01221A7002E0DE
:104A4000404B00221A70032387F8133297F81B3269
:104A500087F8103207F5047197F8130207F5887389
:104A60000193012300930323012206F0D5F807F1F7
:104A70000F0207F1100107F58873184606F052F986
:104A800007F50873A3F211231B78002B2CD0002309
:104A9000C7F81C3210E007F50873A3F50472D7F8C5
:104AA0001C3213441B7819462748FDF703F9D7F841
:104AB0001C320133C7F81C3207F50873A3F2112327
:104AC0001B781A46D7F81C329342E4DB07F50873CB
:104AD000A3F211231A7807F1100311461846FDF7C7
:104AE00023FBFDF709FB22E007F5047197F8130299
:104AF00007F588730193012300930323012206F035
:104B00008BF807F10F0207F1100107F588731846BB
:104B100006F008F907F50873A3F211231A7807F1D4
:104B2000100311461846FDF7FFFAFDF7E5FA0523D5
:104B3000184607F50877BD4680BD00BF000002405B
:104B400000500040504800200010014080B5ADF5F5
:104B50000A7D02AF07F50873A3F50773186007F520
:104B60000873A3F50873196007F50873A3F50773B5
:104B70001B68022B01DC0323B8E007F50873A3F5DB
:104B800007731B68032B01DD0223AFE007F50873F1
:104B9000A3F508731B6804331B68184608F01AFE57
:104BA000034687F81B3297F81B32092B01D90423DF
:104BB0009CE04FF400615048FFF74AFC4FF48051ED
:104BC0004D48FFF745FC07F50873A3F507731B680D
:104BD00003F18043013B9B0007F50872A2F50872C0
:104BE000126813441B68C7F81432D7F81432434ACA
:104BF000934203D1424B01221A7002E0404B002243
:104C00001A70042387F8133297F81B3287F8103292
:104C100007F5047197F8130207F5887301930123D0
:104C200000930323012205F0F7FF07F10F0207F1BC
:104C3000100107F58873184606F074F807F5087335
:104C4000A3F211231B78002B2CD00023C7F81C32B1
:104C500010E007F50873A3F50472D7F81C3213446B
:104C60001B7819462748FDF725F8D7F81C32013381
:104C7000C7F81C3207F50873A3F211231B781A46F4
:104C8000D7F81C329342E4DB07F50873A3F2112333
:104C90001A7807F1100311461846FDF745FAFDF79B
:104CA0002BFA22E007F5047197F8130207F58873D1
:104CB0000193012300930323012205F0ADFF07F1C7
:104CC0000F0207F1100107F58873184606F02AF85D
:104CD00007F50873A3F211231A7807F110031146A0
:104CE0001846FDF721FAFDF707FA0523184607F5E0
:104CF0000877BD4680BD00BF000002400050004064
:104D0000504800200010014080B5ADF50A7D02AF8B
:104D100007F50873A3F50773186007F50873A3F583
:104D20000873196007F50873A3F507731B68022B56
:104D300001DC0323B8E007F50873A3F507731B68CC
:104D4000032B01DD0223AFE007F50873A3F5087319
:104D50001B6804331B68184608F03CFD034687F8BF
:104D60001B3297F81B32062B01D904239CE04FF429
:104D700000615048FFF76CFB4FF480514D48FFF73E
:104D800067FB07F50873A3F507731B6803F18043FE
:104D9000013B9B0007F50872A2F5087212681344E4
:104DA0001B68C7F81432D7F81432434A934203D130
:104DB000424B01221A7002E0404B00221A70052378
:104DC00087F8133297F81B3287F8103207F5047111
:104DD00097F8130207F588730193012300930323C7
:104DE000012205F019FF07F10F0207F1100107F585
:104DF0008873184605F096FF07F50873A3F2112390
:104E00001B78002B2CD00023C7F81C3210E007F5CC
:104E10000873A3F50472D7F81C3213441B781946A3
:104E20002748FCF747FFD7F81C320133C7F81C327C
:104E300007F50873A3F211231B781A46D7F81C3222
:104E40009342E4DB07F50873A3F211231A7807F104
:104E5000100311461846FDF767F9FDF74DF922E0FA
:104E600007F5047197F8130207F58873019301237E
:104E700000930323012205F0CFFE07F10F0207F193
:104E8000100107F58873184605F04CFF07F5087305
:104E9000A3F211231A7807F1100311461846FDF703
:104EA00043F9FDF729F90523184607F50877BD46AC
:104EB00080BD00BF0000024000500040504800206C
:104EC0000010014080B5ADF5067D00AF07F5067313
:104ED000A3F50573186007F50673A3F5067319604B
:104EE00007F50673A3F505731B68012B01DC03238B
:104EF00097E007F50673A3F505731B68022B01DD28
:104F000002238EE04FF400614848FFF7A1FA4FF406
:104F100080514648FFF79CFA07F50673A3F5057321
:104F20001B6803F18043013B9B0007F50672A2F565
:104F30000672126813441B68C7F81032D7F8103293
:104F40003B4A934203D13B4B01221A7002E0394B9A
:104F500000221A70062387F80F3207F5887397F836
:104F60000F020122032105F02FFE07F10F0207F1C6
:104F7000100107F58873184605F0D4FE07F506738F
:104F8000A3F209231B78002B2CD00023C7F814327E
:104F900010E007F50673A3F50272D7F81432134434
:104FA0001B7819462448FCF785FED7F814320133E4
:104FB000C7F8143207F50673A3F209231B781A46C3
:104FC000D7F814329342E4DB07F50673A3F2092302
:104FD0001A7807F1100311461846FDF7A5F8FDF7FA
:104FE0008BF81DE007F5887397F80F020122032163
:104FF00005F0EAFD07F10F0207F1100107F58873CC
:10500000184605F08FFE07F50673A3F209231A78F8
:1050100007F1100311461846FDF786F8FDF76CF806
:105020000523184607F50677BD4680BD00000240FF
:1050300000500040504800200010014080B483B070
:1050400000AF786039607B683A689A6100BF0C37BE
:10505000BD465DF8047B704780B483B000AF7860D4
:1050600039603B681A047B689A6100BF0C37BD4603
:105070005DF8047B7047000080B500AF0649074823
:1050800005F01EFC4FF47A71052005F0EDFBFCF7EE
:10509000B5FC00BF80BD00BF6C0000206800002090
:1050A00080B584B000AF3D4B1B78DBB2002B71D0D4
:1050B000052005F0EFFB0346002B6BD0384B1B7827
:1050C000DBB2002B66D1374B1B78DBB2002B61D1F2
:1050D000354B1B78DBB2002B2BD0344B1B78DBB26B
:1050E000002B26D0012001F0FDFE3148FCF706FF21
:1050F000304B7B600923FB700023FB600AE0FB68F8
:105100007A6813441B7819462948FCF7D3FDFB68DD
:105110000133FB60FB78FA689A42F0DB264B0022F1
:105120001A70204B01221A704FF47A71052005F095
:105130009BFB214B1B78DBB2002B2BD11F4B1B7829
:10514000DBB20133DAB21D4B1A701C4B1B78DBB299
:10515000022B1FD91A4B1B78DBB20133DAB2184B82
:105160001A70164B00221A70134B01221A70144B3E
:105170001B78DBB2042B0DD90123BB6007E0BB68B1
:105180006033104AFF21D154BB680133BB60BB6858
:10519000182BF4DD00BF1037BD4680BD78490020D4
:1051A000494700204E4800203E0000203C000020DF
:1051B000001001405C0000203D000020524800200B
:1051C0004D4800207C49002080B5ADF5067D00AF3C
:1051D00007F50673A3F50573186007F50673A3F5C5
:1051E0000673196007F50673A3F505731B68012B99
:1051F00001DC032397E007F50673A3F505731B682D
:10520000022B01DD02238EE04FF400614848FFF7D6
:1052100023FF4FF480514648FFF710FF07F5067350
:10522000A3F505731B6803F18043013B9B0007F561
:105230000672A2F50672126813441B68C7F8103292
:10524000D7F810323B4A934203D13B4B01221A70EC
:1052500002E0394B00221A70012387F80F3207F55C
:10526000887397F80F020122022105F0ADFC07F1C7
:105270000F0207F1100107F58873184605F052FD7B
:1052800007F50673A3F209231B78002B2CD000230B
:10529000C7F8143210E007F50673A3F50272D7F8C9
:1052A000143213441B7819462448FCF703FDD7F841
:1052B00014320133C7F8143207F50673A3F2092339
:1052C0001B781A46D7F814329342E4DB07F50673CD
:1052D000A3F209231A7807F1100311461846FCF7C8
:1052E00023FFFCF709FF1DE007F5887397F80F020D
:1052F0000122022105F068FC07F10F0207F11001FD
:1053000007F58873184605F00DFD07F50673A3F23F
:1053100009231A7807F1100311461846FCF704FF19
:10532000FCF7EAFE0523184607F50677BD4680BD63
:105330000000024000500040504800200010014092
:1053400080B5ADF5067D00AF07F50673A3F50573CF
:10535000186007F50673A3F50673196007F5067361
:10536000A3F505731B68012B01DC032397E007F508
:105370000673A3F505731B68022B01DD02238EE083
:105380004FF400614848FFF767FE4FF480514648EC
:10539000FFF754FE07F50673A3F505731B6803F1C9
:1053A0008043013B9B0007F50672A2F50672126866
:1053B00013441B68C7F81032D7F810323B4A9342A7
:1053C00003D13B4B01221A7002E0394B00221A70C4
:1053D000022387F80F3207F5887397F80F0201222E
:1053E000022105F0F1FB07F10F0207F1100107F5AB
:1053F0008873184605F096FC07F50673A3F2092397
:105400001B78002B2CD00023C7F8143210E007F5CE
:105410000673A3F50272D7F8143213441B781946A9
:105420002448FCF747FCD7F814320133C7F814328C
:1054300007F50673A3F209231B781A46D7F814322E
:105440009342E4DB07F50673A3F209231A7807F108
:10545000100311461846FCF767FEFCF74DFE1DE0F1
:1054600007F5887397F80F020122022105F0ACFBC3
:1054700007F10F0207F1100107F58873184605F0D0
:1054800051FC07F50673A3F209231A7807F11003FC
:1054900011461846FCF748FEFCF72EFE0523184679
:1054A00007F50677BD4680BD000002400050004071
:1054B000504800200010014080B5ADF5067D00AFDA
:1054C00007F50673A3F50573186007F50673A3F5D2
:1054D0000673196007F50673A3F505731B68012BA6
:1054E00001DC032397E007F50673A3F505731B683A
:1054F000022B01DD02238EE04FF400614848FFF7E4
:10550000ABFD4FF480514648FFF798FD07F5067351
:10551000A3F505731B6803F18043013B9B0007F56E
:105520000672A2F50672126813441B68C7F810329F
:10553000D7F810323B4A934203D13B4B01221A70F9
:1055400002E0394B00221A70032387F80F3207F567
:10555000887397F80F020122022105F035FB07F14D
:105560000F0207F1100107F58873184605F0DAFB02
:1055700007F50673A3F209231B78002B2CD0002318
:10558000C7F8143210E007F50673A3F50272D7F8D6
:10559000143213441B7819462448FCF78BFBD7F8C8
:1055A00014320133C7F8143207F50673A3F2092346
:1055B0001B781A46D7F814329342E4DB07F50673DA
:1055C000A3F209231A7807F1100311461846FCF7D5
:1055D000ABFDFCF791FD1DE007F5887397F80F020E
:1055E0000122022105F0F0FA07F10F0207F1100184
:1055F00007F58873184605F095FB07F50673A3F2C7
:1056000009231A7807F1100311461846FCF78CFDA0
:10561000FCF772FD0523184607F50677BD4680BDE9
:10562000000002400050004050480020001001409F
:1056300080B5ADF5067D00AF07F50673A3F50573DC
:10564000186007F50673A3F50673196007F506736E
:10565000A3F505731B68012B01DC032397E007F515
:105660000673A3F505731B68022B01DD02238EE090
:105670004FF400614848FFF7EFFC4FF48051464873
:10568000FFF7DCFC07F50673A3F505731B6803F150
:105690008043013B9B0007F50672A2F50672126873
:1056A00013441B68C7F81032D7F810323B4A9342B4
:1056B00003D13B4B01221A7002E0394B00221A70D1
:1056C000042387F80F3207F5887397F80F02012239
:1056D000022105F079FA07F10F0207F1100107F531
:1056E0008873184605F01EFB07F50673A3F209231D
:1056F0001B78002B2CD00023C7F8143210E007F5DC
:105700000673A3F50272D7F8143213441B781946B6
:105710002448FCF7CFFAD7F814320133C7F8143213
:1057200007F50673A3F209231B781A46D7F814323B
:105730009342E4DB07F50673A3F209231A7807F115
:10574000100311461846FCF7EFFCFCF7D5FC1DE0F2
:1057500007F5887397F80F020122022105F034FA49
:1057600007F10F0207F1100107F58873184605F0DD
:10577000D9FA07F50673A3F209231A7807F1100383
:1057800011461846FCF7D0FCFCF7B6FC052318467A
:1057900007F50677BD4680BD00000240005000407E
:1057A000504800200010014080B5ADF50A7D02AFE1
:1057B00007F50873A3F50773186007F50873A3F5D9
:1057C0000873196007F50873A3F507731B68032BAB
:1057D00001DC0323DBE007F50873A3F507731B68FF
:1057E000042B01DD0223D2E007F50873A3F508734B
:1057F0001B6804331B68184607F0ECFF0346A7F844
:105800001A3207F50873A3F508731B6808331B6881
:10581000184607F0DFFF0346A7F81832B7F818223A
:10582000B7F81A329A4201D20423B0E04FF4006173
:105830005948FFF711FC4FF480515748FFF7FEFB22
:1058400007F50873A3F507731B6803F18043013B59
:105850009B0007F50872A2F50872126813441B68D2
:10586000C7F81432D7F814324C4A934203D14C4B48
:1058700001221A7002E04A4B00221A70052387F8B1
:105880001332B7F81A321B0A9BB2DBB287F80C321C
:10589000B7F81A32DBB287F80D32B7F818321B0AA4
:1058A0009BB2DBB287F80E32B7F81832DBB287F85A
:1058B0000F3207F5037197F8130207F5867301930A
:1058C000012300930223042205F0A6F907F10B023D
:1058D00007F10C0107F58673184605F023FA07F562
:1058E0000873A3F215231B78002B2CD00023C7F8D4
:1058F0001C3210E007F50873A3F50572D7F81C32C7
:1059000013441B7819462748FCF7D4F9D7F81C3202
:105910000133C7F81C3207F50873A3F215231B786F
:105920001A46D7F81C329342E4DB07F50873A3F25A
:1059300015231A7807F10C0311461846FCF7F4FBFF
:10594000FCF7DAFB22E007F5037197F8130207F57D
:1059500086730193012300930223042205F05CF96E
:1059600007F10B0207F10C0107F58673184605F0E5
:10597000D9F907F50873A3F215231A7807F10C0378
:1059800011461846FCF7D0FBFCF7B6FB052318467A
:1059900007F50877BD4680BD00000240005000407A
:1059A000504800200010014080B5ADF50A7D02AFDF
:1059B00007F50873A3F50773186007F50873A3F5D7
:1059C0000873196007F50873A3F507731B68022BAA
:1059D00001DC0323B8E007F50873A3F507731B6820
:1059E000032B01DD0223AFE007F50873A3F508736D
:1059F0001B6804331B68184607F0ECFE034687F863
:105A00001B3297F81B32012B01D904239CE04FF481
:105A100000615048FFF720FB4FF480514D48FFF7DD
:105A20000DFB07F50873A3F507731B6803F18043AB
:105A3000013B9B0007F50872A2F508721268134437
:105A40001B68C7F81432D7F81432434A934203D183
:105A5000424B01221A7002E0404B00221A700623CA
:105A600087F8133297F81B3287F80C3207F5037169
:105A700097F8130207F5867301930123009302231D
:105A8000042205F0C9F807F10B0207F10C0107F534
:105A90008673184605F046F907F50873A3F2152337
:105AA0001B78002B2CD00023C7F81C3210E007F520
:105AB0000873A3F50572D7F81C3213441B781946F6
:105AC0002748FCF7F7F8D7F81C320133C7F81C3227
:105AD00007F50873A3F215231B781A46D7F81C3272
