:020000040800F2
:1000000000000220E9AD000835AB00083DAB000858
:1000100045AB00084DAB000855AB000800000000E0
:100020000000000000000000000000005DAB0008C0
:100030006BAB00080000000079AB000889AB00083A
:1000400039AE000839AE000839AE000839AE0008F4
:1000500039AE000839AE000839AE000839AE0008E4
:1000600039AE000839AE000839AE000839AE0008D4
:1000700039AE000839AE000839AE000839AE0008C4
:1000800039AE000839AE000839AE000839AE0008B4
:1000900039AE000839AE000839AE000839AE0008A4
:1000A00039AE000839AE000839AE000839AE000894
:1000B00039AE000839AE000839AE000839AE000884
:1000C00039AE000839AE000839AE000839AE000874
:1000D00039AE0008A5AB0008B9AB0008CDAB0008ED
:1000E00039AE000839AE000839AE000839AE000854
:1000F00039AE000839AE000839AE000839AE000844
:1001000039AE000839AE000839AE000839AE000833
:10011000E1AB0008F5AB000839AE000839AE0008C5
:1001200039AE000839AE000839AE000839AE000813
:1001300039AE0008000000000000000039AE0008E1
:1001400039AE000839AE000839AE000839AE0008F3
:1001500039AE000839AE000839AE000809AC000815
:100160001DAC000829AC000839AE000839AE000803
:1001700039AE000839AE00080000000000000000A1
:0801800039AE000839AE000899
:1001900010B5054C237833B9044B13B10448AFF3C1
:1001A00000800123237010BDDC0600200000000049
:1001B0000C36010808B5034B1BB103490348AFF3E4
:1001C000008008BD00000000E00600200C36010899
:1001D00010F8012B11F8013B012A28BF9A42F7D0F1
:1001E000D01A70470000000000000000000000006E
:1001F00001F0FF01102A2BDB10F0070F08D010F8D8
:10020000013B013A8B422DD010F0070F42B3F6D1DB
:10021000F0B441EA012141EA014122F007047FF0F4
:1002200000070023F0E80256083C85EA010586EA4B
:10023000010685FA47F5A3FA87F586FA47F6A5FA87
:1002400087F68EB9EED1F0BC01F0FF0102F0070293
:1002500032B110F8013B013A83EA010313B1F8D13E
:100260000020704701387047002D06BF354603381F
:10027000073815F0010F07D1013015F4807F02BF58
:10028000013015F4C03F0130F0BC0138704700BFA9
:10029000034613F8012B002AFBD1181A01387047C6
:1002A00081F0004102E000BF83F0004330B54FEA27
:1002B00041044FEA430594EA050F08BF90EA020F94
:1002C0001FBF54EA000C55EA020C7FEA645C7FEA27
:1002D000655C00F0E2804FEA5454D4EB5555B8BF4A
:1002E0006D420CDD2C4480EA020281EA030382EABB
:1002F000000083EA010180EA020281EA0303362D4D
:1003000088BF30BD11F0004F4FEA01314FF4801C1F
:100310004CEA113102D0404261EB410113F0004F31
:100320004FEA03334CEA133302D0524263EB4303E8
:1003300094EA050F00F0A780A4F10104D5F1200E86
:100340000DDB02FA0EFC22FA05F2801841F10001E1
:1003500003FA0EF2801843FA05F359410EE0A5F1B5
:1003600020050EF1200E012A03FA0EFC28BF4CF0E6
:10037000020C43FA05F3C01851EBE37101F000459C
:1003800007D54FF0000EDCF1000C7EEB00006EEBA9
:100390000101B1F5801F1BD3B1F5001F0CD3490833
:1003A0005FEA30004FEA3C0C04F101044FEA44528A
:1003B00012F5800F80F09A80BCF1004F08BF5FEA11
:1003C000500C50F1000041EB045141EA050130BDF1
:1003D0005FEA4C0C404141EB0101013C28BFB1F503
:1003E000801FE9D291F0000F04BF01460020B1FA4E
:1003F00081F308BF2033A3F10B03B3F120020CDA21
:100400000C3208DD02F1140CC2F10C0201FA0CF0FE
:1004100021FA02F10CE002F11402D8BFC2F1200C63
:1004200001FA02F120FA0CFCDCBF41EA0C01904019
:10043000E41AA2BF01EB0451294330BD6FEA040462
:100440001F3C1CDA0C340EDC04F11404C4F120024D
:1004500020FA04F001FA02F340EA030021FA04F35F
:1004600045EA030130BDC4F10C04C4F1200220FAB6
:1004700002F001FA04F340EA0300294630BD21FAF4
:1004800004F0294630BD94F0000F83F4801306BFBA
:1004900081F480110134013D4EE77FEA645C18BFAE
:1004A0007FEA655C29D094EA050F08BF90EA020F45
:1004B00005D054EA000C04BF1946104630BD91EA3D
:1004C000030F1EBF0021002030BD5FEA545C05D140
:1004D0004000494128BF41F0004130BD14F580047F
:1004E0003CBF01F5801130BD01F0004545F0FE41F3
:1004F00041F470014FF0000030BD7FEA645C1ABF28
:10050000194610467FEA655C1CBF0B46024650EA5E
:10051000013406BF52EA033591EA030F41F400218A
:1005200030BD00BF90F0000F04BF0021704730B510
:100530004FF4806404F132044FF000054FF00001E5
:1005400050E700BF90F0000F04BF0021704730B5A6
:100550004FF4806404F1320410F0004548BF40427B
:100560004FF000013EE700BF42004FEAE2014FEAD0
:1005700031014FEA02701FBF12F07F4393F07F4FAB
:1005800081F06051704732F07F4208BF704793F0AE
:100590007F4F04BF41F40021704730B54FF46074C1
:1005A00001F0004521F000411CE700BF50EA0102C4
:1005B00008BF704730B54FF000050AE050EA01026D
:1005C00008BF704730B511F0004502D5404261EBDD
:1005D00041014FF4806404F132045FEA915C3FF41E
:1005E000D8AE4FF003025FEADC0C18BF03325FEABB
:1005F000DC0C18BF033202EBDC02C2F1200300FA6C
:1006000003FC20FA02F001FA03FE40EA0E0021FA90
:1006100002F11444BDE600BF70B54FF0FF0C4CF47E
:10062000E06C1CEA11541DBF1CEA135594EA0C0F30
:1006300095EA0C0F00F0DEF82C4481EA030621EA6B
:100640004C5123EA4C5350EA013518BF52EA0335A6
:1006500041F4801143F4801338D0A0FB02CE4FF058
:100660000005E1FB02E506F00042E0FB03E54FF088
:100670000006E1FB03569CF0000F18BF4EF0010E80
:10068000A4F1FF04B6F5007F64F5407404D25FEA7C
:100690004E0E6D4146EB060642EAC62141EA55512F
:1006A0004FEAC52040EA5E504FEACE2EB4F1FD0C71
:1006B00088BFBCF5E06F1ED8BEF1004F08BF5FEAEF
:1006C000500E50F1000041EB045170BD06F00046A1
:1006D00046EA010140EA020081EA0301B4EB5C044E
:1006E000C2BFD4EB0C0541EA045170BD41F4801146
:1006F0004FF0000E013C00F3AB8014F1360FDEBF6B
:10070000002001F0004170BDC4F10004203C35DA46
:100710000C341BDC04F11404C4F1200500FA05F3C9
:1007200020FA04F001FA05F240EA020001F000426A
:1007300021F0004110EBD37021FA04F642EB0601E0
:100740005EEA430E08BF20EAD37070BDC4F10C040A
:10075000C4F1200500FA04F320FA05F001FA04F2CE
:1007600040EA020001F0004110EBD37041F10001BA
:100770005EEA430E08BF20EAD37070BDC4F12005C5
:1007800000FA05F24EEA020E20FA04F301FA05F22D
:1007900043EA020321FA04F001F0004121FA04F2D5
:1007A00020EA020000EBD3705EEA430E08BF20EAA5
:1007B000D37070BD94F0000F0FD101F000464000DF
:1007C00041EB010111F4801F08BF013CF7D041EA61
:1007D000060195F0000F18BF704703F00046520065
:1007E00043EB030313F4801F08BF013DF7D043EA36
:1007F0000603704794EA0C0F0CEA135518BF95EAEC
:100800000C0F0CD050EA410618BF52EA4306D1D172
:1008100081EA030101F000414FF0000070BD50EA91
:10082000410606BF1046194652EA430619D094EA1B
:100830000C0F02D150EA013613D195EA0C0F05D105
:1008400052EA03361CBF104619460AD181EA030159
:1008500001F0004141F0FE4141F470014FF0000011
:1008600070BD41F0FE4141F4780170BD70B54FF0AC
:10087000FF0C4CF4E06C1CEA11541DBF1CEA13552C
:1008800094EA0C0F95EA0C0F00F0A7F8A4EB05040E
:1008900081EA030E52EA03354FEA013100F0888005
:1008A0004FEA03334FF0805545EA131343EA1263CE
:1008B0004FEA022245EA111545EA10654FEA002683
:1008C0000EF000419D4208BF964244F1FD0404F53C
:1008D000407402D25B084FEA3202B61A65EB030598
:1008E0005B084FEA32024FF480104FF4002CB6EB55
:1008F000020E75EB030E22BFB61A754640EA0C00D5
:100900005B084FEA3202B6EB020E75EB030E22BF14
:10091000B61A754640EA5C005B084FEA3202B6EB55
:10092000020E75EB030E22BFB61A754640EA9C0014
:100930005B084FEA3202B6EB020E75EB030E22BFE4
:10094000B61A754640EADC0055EA060E18D04FEAA2
:10095000051545EA16754FEA06164FEAC30343EA42
:1009600052734FEAC2025FEA1C1CC0D111F4801F0F
:100970000BD141EA00014FF000004FF0004CB6E708
:1009800011F4801F04BF01430020B4F1FD0C88BFA7
:10099000BCF5E06F3FF6AFAEB5EB030C04BFB6EBB2
:1009A000020C5FEA500C50F1000041EB045170BDA5
:1009B0000EF0004E4EEA113114EB5C04C2BFD4EBD2
:1009C0000C0541EA045170BD41F480114FF0000E56
:1009D000013C90E645EA060E8DE60CEA135594EAD2
:1009E0000C0F08BF95EA0C0F3FF43BAF94EA0C0FD5
:1009F0000AD150EA01347FF434AF95EA0C0F7FF44A
:100A000025AF104619462CE795EA0C0F06D152EA9D
:100A100003353FF4FDAE1046194622E750EA410681
:100A200018BF52EA43067FF4C5AE50EA41047FF492
:100A30000DAF52EA43057FF4EBAE12E74FF0FF3CF7
:100A400006E000BF4FF0010C02E000BF4FF0010CC8
:100A50004DF804CD4FEA410C7FEA6C5C4FEA430C41
:100A600018BF7FEA6C5C1BD001B050EA410C0CBF90
:100A700052EA430C91EA030F02BF90EA020F0020F2
:100A8000704710F1000F91EA030F58BF994208BF59
:100A900090422CBFD8176FEAE37040F00100704716
:100AA0004FEA410C7FEA6C5C02D150EA013C07D16D
:100AB0004FEA430C7FEA6C5CD6D152EA033CD3D0B8
:100AC0005DF8040B704700BF8446104662468C46B2
:100AD0001946634600E000BF01B5FFF7B7FF0028E5
:100AE00048BF10F1000F01BD4DF808EDFFF7F4FF0E
:100AF0000CBF012000205DF808FB00BF4DF808ED99
:100B0000FFF7EAFF34BF012000205DF808FB00BFBB
:100B10004DF808EDFFF7E0FF94BF012000205DF8DD
:100B200008FB00BF4DF808EDFFF7CEFF94BF012092
:100B300000205DF808FB00BF4DF808EDFFF7C4FF8B
:100B400034BF012000205DF808FB00BF4FEA410CD4
:100B50007FEA6C5C02D150EA013C0AD14FEA430CB7
:100B60007FEA6C5C02D152EA033C02D14FF00000F4
:100B700070474FF0010070474FEA410212F5001232
:100B800015D211D56FF47873B3EB625212D94FEAD4
:100B9000C12343F0004343EA505311F0004F23FABE
:100BA00002F018BF404270474FF00000704750EA13
:100BB000013005D111F0004008BF6FF000407047D0
:100BC0004FF00000704700BF4A0011D212F500122A
:100BD00011D20DD56FF47873B3EB62520ED44FEA95
:100BE000C12343F0004343EA505323FA02F0704715
:100BF0004FF00000704750EA013002D14FF0FF3053
:100C000070474FF0000070474FEA4102B2F1E043F5
:100C100024BFB3F5001CDCF1FE5C0DD901F0004CE3
:100C20004FEAC0024CEA5070B2F1004F40EB830033
:100C300008BF20F00100704711F0804F21D113F15F
:100C40003872BCBF01F00040704741F480114FEA98
:100C50005252C2F11802C2F1200C10FA0CF320FA21
:100C600002F018BF40F001004FEAC1234FEAD3233E
:100C700003FA0CFC40EA0C0023FA02F34FEA4303A8
:100C8000CCE77FEA625307D150EA01331EBF4FF031
:100C9000FE4040F44000704701F0004040F0FE404C
:100CA00040F40000704700BF53B94AB9002908BF9B
:100CB00000281CBF4FF0FF314FF0FF3000F0A0B90B
:100CC000ADF1080C6DE904CE00F03CF8DDF804E06D
:100CD000DDE9022304B0704738B500220023044642
:100CE0000D46FFF70BFF28B920462946BDE83840DE
:100CF00000F00AB8204605F1004100F005F8404236
:100D000061EB410138BD00BFD0B50C4B0022064657
:100D10000F46FFF781FCFFF757FF0446FFF702FC81
:100D2000074B0022FFF778FC02460B463046394657
:100D3000FFF7BAFAFFF748FF2146D0BD0000F03DAB
:100D40000000F0412DE9F047089D0C46002B4ED1E4
:100D500094468C458646B2FA82F262D94AB1C2F113
:100D60002003914020FA03F30CFA02FC194300FA25
:100D700002FE4FEA1C471FFA8CF6B1FBF7F44FEA6C
:100D80001E4307FB141143EA014304FB06F1994299
:100D90000AD91CEB030304F1FF3080F01281994261
:100DA00040F20F81023C6344591A1FFA8EF3B1FBE3
:100DB000F7F007FB101143EA014300FB06F69E42E1
:100DC0000AD91CEB030300F1FF3180F0FC809E4246
:100DD00040F2F980634402389B1B40EA0440002142
:100DE0001DB1D3400022C5E90032BDE8F0878B4237
:100DF00005D90DB1C5E9000100210846F5E7B3FAB0
:100E000083F1002946D1A34202D39042C0F0F08082
:100E1000861A64EB03030120002DE6D0C5E90063C8
:100E2000E3E7002A40F09080A1EB0C044FEA1C4855
:100E30001FFA8CF70121B4FBF8F64FEA1E4308FBBA
:100E4000164443EA044307FB06F0984208D91CEB1A
:100E5000030306F1FF3402D2984200F2CD80264609
:100E60001C1A1FFA8EF3B4FBF8F008FB104443EA97
:100E7000044300FB07F79F4208D91CEB030300F172
:100E8000FF3402D29F4200F2B0802046DB1B40EAD2
:100E90000640A5E7C1F120068B4022FA06F71F4362
:100EA00020FA06FC04FA01F343EA0C03F44000FACA
:100EB00001F8380C4FEA1349B4FBF0FE1FFA87FC27
:100EC00000FB1E4449EA04440EFB0CF9A14502FA5A
:100ED00001F20AD93C190EF1FF3A80F08480A14555
:100EE00040F28180AEF1020E3C44A4EB09041FFAEB
:100EF00083F9B4FBF0F300FB134449EA044403FB19
:100F00000CFCA44507D93C1903F1FF3067D2A44576
:100F100065D9023B3C4443EA0E40A0FB0293A4EB9C
:100F20000C049C42CE469C4651D34ED055B1B8EBF2
:100F30000E0364EB0C0404FA06F6CB401E43CC40CF
:100F4000C5E90064002150E7C2F1200320FA03F153
:100F50000CFA02FC24FA03F394400C434FEA1C48B9
:100F600000FA02FE1FFA8CF7B3FBF8F008FB103111
:100F7000230C43EA014300FB07F1994208D91CEB1B
:100F8000030300F1FF362CD299422AD90238634478
:100F90005B1AA4B2B3FBF8F108FB113344EA034433
:100FA00001FB07F3A34208D91CEB040401F1FF364F
:100FB00013D2A34211D902396444E41A41EA004130
:100FC00039E70446F0E6084606E7C845AED2B9EB75
:100FD000020E63EB070C0138A8E73146EDE7034644
:100FE00099E73046D4E7D6467FE7634402384DE7B9
:100FF0000646234608460FE7023E634430E700BF3B
:10100000704700BF80B483B000AF78607B685B69D5
:1010100003F08003802B0CBF01230023DBB21846B2
:101020000C37BD465DF8047B704780B483B000AFD9
:1010300078607B685B6903F04003402B0CBF0123A1
:101040000023DBB218460C37BD465DF8047B7047C1
:1010500080B483B000AF78607B685B6903F0010304
:10106000012B0CBF01230023DBB218460C37BD4611
:101070005DF8047B704780B483B000AF78607B6814
:101080005B6903F00203022B0CBF01230023DBB2D8
:1010900018460C37BD465DF8047B704780B483B0BA
:1010A00000AF78607B689B6903F00203022B0CBFE2
:1010B00001230023DBB218460C37BD465DF8047BE4
:1010C000704780B485B000AF78607B685B69FB6077
:1010D000FB687B689B69FB60FB6800BF1437BD46FB
:1010E0005DF8047B704780B483B000AF78603960EE
:1010F0007B681B6823F480623B681A437B681A6034
:1011000000BF0C37BD465DF8047B704780B483B0E8
:1011100000AF78607B681B6843F480727B681A605C
:1011200000BF0C37BD465DF8047B704780B483B0C8
:1011300000AF78607B681B6843F400727B681A60BC
:1011400000BF0C37BD465DF8047B704780B483B0A8
:1011500000AF78607B681B69DBB218460C37BD4670
:101160005DF8047B704780B483B000AF78600B46B5
:10117000FB707B681B6923F0FF02FB781A437B68D6
:101180001A6100BF0C37BD465DF8047B7047000054
:1011900080B582B000AF03460A46FB711346BB71AF
:1011A00000BF1E48FFF77AFF0346002BF9D11B480A
:1011B000FFF7ACFF00BF1948FFF74AFF0346002BBB
:1011C000F9D0D0211548FFF7CEFF00BF1348FFF735
:1011D00052FF0346002BF9D01048FFF772FFFB794E
:1011E00019460E48FFF7BFFF00BF0C48FFF70AFF84
:1011F0000346002BF9D0BB7919460848FFF7B3FF27
:1012000000BF0648FFF7FEFE0346002BF9D0034857
:10121000FFF78CFF00BF0837BD4680BD005400407B
:1012200080B584B000AF0346FB710023FB7300BFA1
:101230002C48FFF733FF0346002BF9D12948FFF76D
:1012400065FF00BF2748FFF703FF0346002BF9D0D7
:10125000D0212448FFF787FF00BF2248FFF70BFF8C
:101260000346002BF9D01F48FFF72BFFFB791946E7
:101270001C48FFF778FF00BF1A48FFF7C3FE03467C
:10128000002BF9D01748FFF741FF00BF1548FFF7C3
:10129000DFFE0346002BF9D0D1211248FFF763FF90
:1012A00000BF1048FFF7E7FE0346002BF9D00D48BA
:1012B000FFF707FF00210B48FFF715FF00BF0948A4
:1012C000FFF7B3FE0346002BF9D00648FFF73EFFB9
:1012D0000346FB730348FFF729FFFB7B18461037D3
:1012E000BD4680BD0054004090B583B000AF0446B9
:1012F000084611461A462346FB710346BB710B464E
:101300007B7113463B7197F82030554AA2FB0323AB
:10131000DB08DBB21B0158B297F82020504BA3FB2F
:101320000213D9080B469B000B445B00D31ADBB2B7
:101330005BB203435BB2DBB219460020FFF728FF24
:101340003B7F474AA2FB0323DB08DBB21B0158B2F9
:101350003A7F434BA3FB0213D9080B469B000B4477
:101360005B00D31ADBB25BB203435BB2DBB219465C
:101370000120FFF70DFF3B7E394AA2FB0323DB0868
:10138000DBB21B0158B23A7E354BA3FB0213D908DE
:101390000B469B000B445B00D31ADBB25BB20343EA
:1013A0005BB2DBB219460220FFF7F2FEFB79194669
:1013B0000320FFF7EDFEBB79294AA2FB0323DB08DC
:1013C000DBB21B0158B2BA79254BA3FB0213D90833
:1013D0000B469B000B445B00D31ADBB25BB20343AA
:1013E0005BB2DBB219460420FFF7D2FE7B791C4AC0
:1013F000A2FB0323DB08DBB21B0158B27A79184B3E
:10140000A3FB0213D9080B469B000B445B00D31AC5
:10141000DBB25BB203435BB2DBB219460520FFF7D8
:10142000B7FE3B790E4AA2FB0323DB08DBB21B01AC
:1014300058B23A790A4BA3FB0213D9080B469B001A
:101440000B445B00D31ADBB25BB203435BB2DBB28B
:1014500019460620FFF79CFE00BF0C37BD4690BD25
:10146000CDCCCCCC80B584B000AFF860B9607A60E8
:101470003B600020FFF7D4FE03461A463B6A1A7011
:101480000120FFF7CDFE03461A46FB691A700220C1
:10149000FFF7C6FE03461A46BB691A700320FFF722
:1014A000BFFE03461A46FB681A700420FFF7B8FE19
:1014B00003461A46BB681A700520FFF7B1FE0346C3
:1014C0001A467B681A700620FFF7AAFE03461A46E2
:1014D0003B681A703B6A1B781B09DBB21A46920004
:1014E00013445B00DAB23B6A1B7803F00F03DBB2F4
:1014F0001344DAB23B6A1A70FB691B781B09DBB232
:101500001A46920013445B00DAB2FB691B7803F0C1
:101510000F03DBB21344DAB2FB691A70BB691B78A4
:101520001B09DBB21A46920013445B00DAB2BB69B6
:101530001B7803F00F03DBB21344DAB2BB691A70F5
:10154000BB681B781B09DBB21A46920013445B0090
:10155000DAB2BB681B7803F00F03DBB21344DAB2D4
:10156000BB681A707B681B781B09DBB21A469200B5
:1015700013445B00DAB27B681B7803F00F03DBB225
:101580001344DAB27B681A703B681B781B09DBB224
:101590001A46920013445B00DAB23B681B7803F0F2
:1015A0000F03DBB21344DAB23B681A7000BF103786
:1015B000BD4680BD80B582B000AF1120FFF730FE80
:1015C0000346FB711220FFF72BFE0346BB71FB792C
:1015D0001B021AB2BB791BB21343BB80B7F90430AC
:1015E0001846FEF7AFFF4FF00002094BFFF73EF938
:1015F00002460B4610461946FFF706FB03463B60C2
:101600003B6807EE903AB0EE670A0837BD4680BDEA
:101610000000704080B483B000AF03463960FB71B6
:1016200097F90730002B0ADB3B68DAB20C4997F9CF
:1016300007301201D2B20B4483F800230AE03B6862
:10164000DAB20849FB7903F00F03043B1201D2B26E
:101650000B441A7600BF0C37BD465DF8047B70471B
:1016600000E100E000ED00E080B582B000AF7860FE
:101670007B68013BB3F1807F01D301230FE00A4A6D
:101680007B68013B53600F214FF0FF30FFF7C2FF33
:10169000054B00229A60044B07221A60002318466B
:1016A0000837BD4680BD00BF10E000E080B400AF49
:1016B000054B1B68044A43F00103136000BFBD469D
:1016C0005DF8047B704700BF10E000E080B500AF1C
:1016D000054B1B68054AA2FB03239B091846FFF72D
:1016E000C3FF00BF80BD00BF00050020D34D6210C6
:1016F00080B483B000AF78607B681B6803F002039E
:10170000022B0CBF01230023DBB218460C37BD4669
:101710005DF8047B704780B483B000AF78607B686D
:101720001B6803F00403042B0CBF01230023DBB26E
:1017300018460C37BD465DF8047B704780B483B013
:1017400000AF78607B681B6803F00803082B0CBFB0
:1017500001230023DBB218460C37BD465DF8047B3D
:10176000704780B483B000AF78607B681B6803F07B
:101770002003202B0CBF01230023DBB218460C37BB
:10178000BD465DF8047B704780B483B000AF7860DD
:101790007B681B6803F08003802B0CBF01230023B0
:1017A000DBB218460C37BD465DF8047B704780B449
:1017B00085B000AF78607B681B68FB60FB687B6866
:1017C0005B68FB60FB6800BF1437BD465DF8047BB7
:1017D000704780B485B000AF78607B681B68FB60A1
:1017E000FB687B685B68FB60FB6800BF1437BD4625
:1017F0005DF8047B704780B485B000AF78607B688B
:101800001B68FB60FB687B685B68FB60FB6800BF74
:101810001437BD465DF8047B704780B489B000AFD3
:1018200078607B680C33FB60FB6853E8003FBB606B
:10183000BB6843F02003FB617B680C33FA69BA6133
:101840007B617969BA6941E800233B613B69002B00
:10185000E7D100BF00BF2437BD465DF8047B704769
:1018600080B489B000AF78607B680C33FB60FB68A4
:1018700053E8003FBB60BB6843F08003FB617B68BB
:101880000C33FA69BA617B617969BA6941E800236E
:101890003B613B69002BE7D100BF00BF2437BD4649
:1018A0005DF8047B704780B489B000AF78607B68D6
:1018B0001433FB60FB6853E8003FBB60BB6843F038
:1018C0000103FB617B681433FA69BA617B61796952
:1018D000BA6941E800233B613B69002BE7D100BFB7
:1018E00000BF2437BD465DF8047B704780B489B0E3
:1018F00000AF78607B680C33FB60FB6853E8003F07
:10190000BB60BB6823F02003FB617B680C33FA6982
:10191000BA617B617969BA6941E800233B613B693F
:10192000002BE7D100BF00BF2437BD465DF8047B24
:10193000704780B489B000AF78607B680C33FB607F
:10194000FB6853E8003FBB60BB6823F08003FB618A
:101950007B680C33FA69BA617B617969BA6941E8DD
:1019600000233B613B69002BE7D100BF00BF243758
:10197000BD465DF8047B704780B483B000AF7860EB
:101980007B68DB6803F02003202B0CBF01230023BE
:10199000DBB218460C37BD465DF8047B704780B457
:1019A00083B000AF78607B68DB6803F08003802B36
:1019B0000CBF01230023DBB218460C37BD465DF88F
:1019C000047B704780B483B000AF78607B685B684D
:1019D000DBB218460C37BD465DF8047B704780B417
:1019E00083B000AF78600B46FB70FA787B685A6072
:1019F00000BF0C37BD465DF8047B704780B500AF73
:101A0000284B294A1A60294B294A1A60294B2A4A2D
:101A10001A602A4B2A4A1A602A4B2B4A1A602B4B0F
:101A20002B4A1A602B4B2C4A1A602C4B2C4A1A60FA
:101A30002C4B2D4A1A602D4B2D4A1A602D4B1B68DA
:101A40001846FFF730FF2C4B1B681846FFF72BFF9B
:101A50002A4B1B681846FFF726FF294B1B681846C0
:101A6000FFF721FF274B1B681846FFF71CFF214B90
:101A70001B681846FFF7D1FE1F4B1B681846FFF77F
:101A8000CCFE1E4B1B681846FFF7C7FE1C4B1B689D
:101A90001846FFF7C2FE1B4B1B681846FFF7BDFE3A
:101AA00000BF80BD905A002014000020945A0020EE
:101AB00024000020985A0020340000209C5A002066
:101AC00044000020A05A002054000020A45A002006
:101AD00064000020A85A002074000020AC5A0020A6
:101AE00084000020B05A002094000020B45A002046
:101AF000A4000020000000200400002008000020B6
:101B00000C0000201000002080B584B000AF034618
:101B10003960FB713B685B6801333A68D268B3FB9C
:101B2000F2F101FB02F29B1AFB603B689A68FB68CA
:101B30009A423BD01F4B1B681846FFF7D7FE1E4B3F
:101B40001B681846FFF7D2FE1C4B1B681846FFF7B0
:101B5000CDFE1B4B1B681846FFF7C8FE194B1B68D0
:101B60001846FFF7C3FE3B681A683B685B6813447E
:101B7000FA791A70FA683B685A600E4B1B6818466F
:101B8000FFF74BFE0C4B1B681846FFF746FE0B4B4E
:101B90001B681846FFF741FE094B1B681846FFF704
:101BA0003CFE084B1B681846FFF737FE00BF103796
:101BB000BD4680BD00000020040000200800002079
:101BC0000C0000201000002080B584B000AF7860C9
:101BD0007B68514A93420FD04F4A93421CD84F4AD8
:101BE000934215D04D4A934216D84D4A934207D09E
:101BF0004C4A934208D00FE04B4B1B68FB600FE050
:101C00004A4B1B68FB600BE0494B1B68FB6007E01D
:101C1000484B1B68FB6003E0474B1B68FB6000BF41
:101C2000FB685A68FB689B689A4202D14FF0FF3309
:101C30006DE07B68384A934205D1404B1B681846DB
:101C4000FFF754FE22E07B68354A934205D13C4BB6
:101C50001B681846FFF74AFE18E07B68314A93423A
:101C600005D1384B1B681846FFF740FE0EE07B6835
:101C70002A4A934205D1344B1B681846FFF736FEBB
:101C800004E0324B1B681846FFF730FEFB681A6809
:101C9000FB689B6813441B78FB72FB689B680133ED
:101CA000FA68D268B3FBF2F101FB02F29A1AFB6800
:101CB0009A607B68184A934205D1204B1B681846EE
:101CC000FFF7ABFD22E07B68154A934205D11C4B20
:101CD0001B681846FFF7A1FD18E07B68114A934284
:101CE00005D1184B1B681846FFF797FD0EE07B687F
:101CF0000A4A934205D1144B1B681846FFF78DFD25
:101D000004E0124B1B681846FFF787FDFB7A184664
:101D10001037BD4680BD00BF00100140005000409C
:101D20000044004000480040905A0020985A00208B
:101D3000A05A0020A85A0020B05A0020000000201D
:101D400004000020080000200C00002010000020EB
:101D500080B584B000AF786039607B686B4A93428D
:101D60000FD06A4A93421CD8694A934215D0684AF8
:101D7000934216D8674A934207D0674A934208D0E5
:101D80000FE0664B1B68FB600FE0654B1B68FB6058
:101D90000BE0644B1B68FB6007E0634B1B68FB6058
:101DA00003E0624B1B68FB6000BF3B68002BC0F286
:101DB000A880FB685B680133FA68D268B3FBF2F174
:101DC00001FB02F29B1ABB607B68504A934205D12B
:101DD000574B1B681846FFF789FD22E07B684D4A88
:101DE000934205D1534B1B681846FFF77FFD18E05F
:101DF0007B68494A934205D14F4B1B681846FFF751
:101E000075FD0EE07B68424A934205D14B4B1B683F
:101E10001846FFF76BFD04E0494B1B681846FFF7B7
:101E200065FD00BFFB689A68BB689A42FAD0FB6800
:101E30001A68FB685B6813443A68D2B21A70BA68D1
:101E4000FB685A607B68314A934205D1384B1B6866
:101E50001846FFF7E2FC22E07B682E4A934205D148
:101E6000344B1B681846FFF7D8FC18E07B682A4AF9
:101E7000934205D1304B1B681846FFF7CEFC0EE0AD
:101E80007B68234A934205D12C4B1B681846FFF709
:101E9000C4FC04E02A4B1B681846FFF7BEFC7B68B5
:101EA0001A4A93420FD0194A934224D8184A9342AF
:101EB0001BD0174A93421ED8164A934209D0164A9D
:101EC00093420CD017E01A4B1B681846FFF7C8FC6A
:101ED00017E0184B1B681846FFF7C2FC11E0164BC1
:101EE0001B681846FFF7BCFC0BE0144B1B68184638
:101EF000FFF7B6FC05E0124B1B681846FFF7B0FC75
:101F000000BF00BF1037BD4680BD00BF00100140BC
:101F1000005000400044004000480040945A002017
:101F20009C5A0020A45A0020AC5A0020B45A002029
:101F30000000002004000020080000200C00002009
:101F40001000002080B485B000AF78607B68214A23
:101F500093420FD01F4A93421CD81F4A934215D078
:101F60001D4A934216D81D4A934207D01C4A9342F9
:101F700008D00FE01B4B1B68FB600FE01A4B1B687F
:101F8000FB600BE0194B1B68FB6007E0184B1B68FC
:101F9000FB6003E0174B1B68FB6000BFFB68DB685E
:101FA0009AB2FB685B689BB213449AB2FB689B6869
:101FB0009BB2D31A9BB21A46FB68DB68B2FBF3F103
:101FC00001FB03F3D31A18461437BD465DF8047BB2
:101FD000704700BF00100140005000400044004026
:101FE00000480040905A0020985A0020A05A002033
:101FF000A85A0020B05A002080B582B000AF7860A7
:10200000396007E03B685A1C3A601B7819467868CB
:10201000FFF79EFE3B681B78002BF3D100BF00BF8B
:102020000837BD4680BD000080B584B000AF786041
:102030007B681C4A93420FD01A4A93421CD81A4A12
:10204000934215D0184A934216D8184A934207D0A3
:10205000174A934208D00FE0164B1B68FB600FE055
:10206000154B1B68FB600BE0144B1B68FB6007E023
:10207000134B1B68FB6003E0124B1B68FB6000BF47
:10208000FB681868FB68DB681A4600210DF061FFE9
:10209000FB6800225A60FB6800229A6000BF10377C
:1020A000BD4680BD0010014000500040004400408B
:1020B00000480040905A0020985A0020A05A002062
:1020C000A85A0020B05A002080B586B000AF7860D2
:1020D0007B684D4A93420FD04B4A934228D84B4AD3
:1020E00093421ED0494A934222D8494A93420AD089
:1020F000484A93420ED01BE0474B1B687B61474B1D
:102100001B683B611BE0464B1B687B61454B1B68B2
:102110003B6114E0444B1B687B61444B1B683B6193
:102120000DE0434B1B687B61424B1B683B6106E043
:10213000414B1B687B61414B1B683B6100BF78686A
:10214000FFF70FFB0346002B2CD07868FFF714FC39
:102150000346002B26D07868FFF734FC0346FB7358
:102160007868FFF7EBFA0346002B0BD17868FFF78E
:10217000BFFA0346002B05D17868FFF7CCFA034677
:10218000002B09D07868FFF736FB7868FFF70FFB64
:102190007868FFF71EFB34E0FB7B79691846FFF790
:1021A000B3FC2EE07868FFF7EFFA0346002B28D047
:1021B0007868FFF7F4FB0346002B22D03B695A688E
:1021C0003B699B689A4203D17868FFF7B2FB17E03E
:1021D0003B691A683B699B6813441B78BB733B6976
:1021E0009B6801333A69D268B3FBF2F101FB02F25A
:1021F0009A1A3B699A60BB7B19467868FFF7EFFB38
:1022000000BF1837BD4680BD00100140005000409F
:102210000044004000480040905A0020945A00209A
:10222000985A00209C5A0020A05A0020A45A00204E
:10223000A85A0020AC5A0020B05A0020B45A0020FE
:1022400080B400AF054B00221A70054B00221A70B3
:1022500000BFBD465DF8047B704700BFB95B00203E
:10226000BA5B002080B400AF034B01221A7000BF9C
:10227000BD465DF8047B7047B95B002080B400AFB9
:10228000034B00221A7000BFBD465DF8047B704707
:10229000B95B002080B582B000AF78600B46FB7060
:1022A00000BF124B1B78DBB2002BFAD10F4B01227F
:1022B0001A70FF2200210E480DF04BFEFB781A46E3
:1022C00079680B480DF0C5FE0A4AFB781370074B7E
:1022D00000221A70084B01221A704FF47A71032001
:1022E00009F088FD00BF0837BD4680BDB85B0020FF
:1022F000B85A0020B75B0020B95B002080B500AF62
:102300000249034809F0A2FD00BF80BDB8000020CB
:10231000B400002080B582B000AF032009F080FD3A
:102320000346002B59D02F4B1B78DBB2002B4FD02C
:102330002D4B1B78DBB2012B33D800BF2B4B1B7806
:10234000DBB2002BFAD1294B01221A70284B1B78E3
:10235000DBB21A46274928480DF07BFE00237B603C
:102360000AE0254A7B6813441B7819462348FFF787
:10237000EFFC7B6801337B601D4B1B78DBB21A4698
:102380007B689342EDDB184B1B78DBB20133DAB28A
:10239000154B1A70134B01221A70144B00221A703D
:1023A00016E0114B00221A70FFF768FF1449154818
:1023B000FFF722FE14491348FFF71EFE1049134889
:1023C000FFF71AFE10491148FFF716FEFFF756FFF8
:1023D0004FF47A71032009F00DFD00BF0837BD46A8
:1023E00080BD00BFB95B0020BA5B0020B85B002055
:1023F000B75B0020B85A0020BC5B002000100140F1
:1024000028360108004C00403C36010800440040DA
:1024100080B483B000AF786039607B683A689A61B5
:1024200000BF0C37BD465DF8047B704780B500AF38
:102430000649074809F00AFD4FF47A71072009F0B0
:10244000D9FCFFF7DBFA00BF80BD00BFD40000203D
:10245000D000002080B584B000AF414B1B78DBB2C8
:10246000002B79D0072009F0DBFC0346002B73D04A
:102470003C4B1B78DBB2002B6ED13B4B1B78DBB2A5
:10248000002B30D1394B1B78DBB2002B2BD0384BD3
:102490001B78DBB2002B26D0032005F0B5FB3548B6
:1024A000FFF7C2FD344B7B600923FB700023FB6008
:1024B0000AE0FB687A6813441B7819462D48FFF739
:1024C00047FCFB680133FB60FB78FA689A42F0DB5B
:1024D0002A4B00221A70244B01221A704FF47A7191
:1024E000072009F087FC254B1B78DBB2002B33D18A
:1024F000234B1B78DBB20133DAB2214B1A70204B2D
:102500001B78DBB2022B27D91E4B1B78DBB20133C1
:10251000DAB21C4B1A701A4B00221A70174B0122A8
:102520001A70114B00221A70164B1B78DBB2042B69
:1025300012D9144B05221A700123BB6009E0124B1B
:102540001A68BB6807331344FF221A70BB68013353
:10255000BB60BB68232BF2DD00BF1037BD4680BDDA
:10256000E95D0020B95B0020BE5C0020E000002097
:10257000E100002000100140C4000020E200002023
:10258000BF5C0020BB5C00209C04002080B5ADF542
:102590000A7D02AF07F50873A3F50773186007F506
:1025A0000873A3F50873196007F50873A3F507739B
:1025B0001B68032B01DC0323E4E007F50873A3F594
:1025C00007731B68042B01DD0223DBE007F50873AA
:1025D000A3F508731B6804331B6818460CF09EFCB7
:1025E000034687F81B3297F81B32032B01D90423CB
:1025F000C8E007F50873A3F508731B6808331B6868
:1026000018460CF08BFC0346A7F81832B7F81832BE
:10261000B3F5FA7F01D90423B4E04FF400615C48BC
:10262000FFF7F6FE4FF480515948FFF7F1FE07F52A
:102630000873A3F507731B6803F18043013B9B00FC
:1026400007F50872A2F50872126813441B68C7F8F0
:102650001432D7F814324F4A934203D14E4B012221
:102660001A7002E04C4B00221A70D7F814324B4A11
:10267000934203D14A4B01221A7002E0484B0022D8
:102680001A70012387F8133297F81B3287F810323B
:10269000B7F818321B0A9BB2DBB287F81132B7F8D1
:1026A0001832DBB287F8123207F5047197F813027B
:1026B00007F588730193012300930523032209F092
:1026C00071FD07F10F0207F1100107F58873184635
:1026D00009F0EEFD07F50873A3F211231B78002B18
:1026E0002CD00023C7F81C3210E007F50873A3F5BF
:1026F0000472D7F81C3213441B7819462948FFF797
:1027000027FBD7F81C320133C7F81C3207F50873D2
:10271000A3F211231B781A46D7F81C329342E4DB4C
:1027200007F50873A3F211231A7807F11003114675
:102730001846FFF7AFFDFFF795FD22E007F504719E
:1027400097F8130207F5887301930123009305237B
:10275000032209F027FD07F10F0207F1100107F529
:102760008873184609F0A4FD07F50873A3F2112336
:102770001A7807F1100311461846FFF78BFDFFF793
:1027800071FD0523184607F50877BD4680BD00BFDB
:102790000000024000500040C05C002000440040A7
:1027A000C15C00200010014080B5ADF50A7D02AF8C
:1027B00007F50873A3F50773186007F50873A3F509
:1027C0000873196007F50873A3F507731B68032BDB
:1027D00001DC0323DBE007F50873A3F507731B682F
:1027E000042B01DD0223D2E007F50873A3F508737B
:1027F0001B6804331B6818460CF090FB034687F8EF
:102800001B3297F81B32012B01D90423BFE007F5D7
:102810000873A3F508731B6808331B6818460CF08F
:102820007DFB034687F81A3297F81A32032B01D939
:102830000423ACE04FF400615748FFF7E9FD4FF483
:1028400080515548FFF7E4FD07F50873A3F50773BA
:102850001B6803F18043013B9B0007F50872A2F55A
:102860000872126813441B68C7F81432D7F8143280
:102870004A4A934203D14A4B01221A7002E0484B64
:1028800000221A70D7F81432464A934203D1464BBD
:1028900001221A7002E0444B00221A70022387F8CA
:1028A000133297F81B3287F8103297F81A3287F8EC
:1028B000113207F5047197F8130207F58873019335
:1028C000012300930523022209F06CFC07F10F029B
:1028D00007F1100107F58873184609F0E9FC07F5C0
:1028E0000873A3F211231B78002B2CD00023C7F808
:1028F0001C3210E007F50873A3F50472D7F81C32F8
:1029000013441B7819462948FFF722FAD7F81C32DE
:102910000133C7F81C3207F50873A3F211231B78A3
:102920001A46D7F81C329342E4DB07F50873A3F28A
:1029300011231A7807F1100311461846FFF7AAFC75
:10294000FFF790FC22E007F5047197F8130207F5F2
:1029500088730193012300930523022209F022FCCE
:1029600007F10F0207F1100107F58873184609F007
:102970009FFC07F50873A3F211231A7807F11003DF
:1029800011461846FFF786FCFFF76CFC0523184636
:1029900007F50877BD4680BD0000024000500040AA
:1029A000C05C002000440040C15C002000100140D9
:1029B00080B5ADF50A7D02AF07F50873A3F507737F
:1029C000186007F50873A3F50873196007F5087315
:1029D000A3F507731B68022B01DC0323C4E007F592
:1029E0000873A3F507731B68032B01DD0223BBE00B
:1029F00007F50873A3F508731B6804331B681846B2
:102A00000CF08CFA034687F81B3297F81B32032B25
:102A100001D90423A8E04FF400615648FFF7F8FC01
:102A20004FF480515348FFF7F3FC07F50873A3F503
:102A300007731B6803F18043013B9B0007F5087295
:102A4000A2F50872126813441B68C7F81432D7F84D
:102A50001432494A934203D1484B01221A7002E0D2
:102A6000464B00221A70D7F81432454A934203D1DC
:102A7000444B01221A7002E0424B00221A700323D9
:102A800087F8133297F81B3287F8103207F5047174
:102A900097F8130207F58873019301230093052328
:102AA000012209F07FFB07F10F0207F1100107F582
:102AB0008873184609F0FCFB07F50873A3F211238D
:102AC0001B78002B2CD00023C7F81C3210E007F530
:102AD0000873A3F50472D7F81C3213441B78194607
:102AE0002948FFF735F9D7F81C320133C7F81C32F3
:102AF00007F50873A3F211231B781A46D7F81C3286
:102B00009342E4DB07F50873A3F211231A7807F167
:102B1000100311461846FFF7BDFBFFF7A3FB22E0A9
:102B200007F5047197F8130207F5887301930123E1
:102B300000930523012209F035FB07F10F0207F18D
:102B4000100107F58873184609F0B2FB07F5087302
:102B5000A3F211231A7807F1100311461846FFF764
:102B600099FBFFF77FFB0523184607F50877BD465D
:102B700080BD00BF0000024000500040C05C00204B
:102B800000440040C15C00200010014080B5ADF55C
:102B90000A7D02AF07F50873A3F50773186007F500
:102BA0000873A3F50873196007F50873A3F5077395
:102BB0001B68022B01DC0323C4E007F50873A3F5AF
:102BC00007731B68032B01DD0223BBE007F50873C5
:102BD000A3F508731B6804331B6818460CF09EF9B4
:102BE000034687F81B3297F81B32032B01D90423C5
:102BF000A8E04FF400615648FFF70AFC4FF48051FB
:102C00005348FFF705FC07F50873A3F507731B6826
:102C100003F18043013B9B0007F50872A2F508729F
:102C2000126813441B68C7F81432D7F81432494AA3
:102C3000934203D1484B01221A7002E0464B002216
:102C40001A70D7F81432454A934203D1444B0122FB
:102C50001A7002E0424B00221A70042387F81332E4
:102C600097F81B3287F8103207F5047197F81302B2
:102C700007F588730193012300930523012209F0CE
:102C800091FA07F10F0207F1100107F58873184652
:102C900009F00EFB07F50873A3F211231B78002B34
:102CA0002CD00023C7F81C3210E007F50873A3F5F9
:102CB0000472D7F81C3213441B7819462948FFF7D1
:102CC00047F8D7F81C320133C7F81C3207F50873F0
:102CD000A3F211231B781A46D7F81C329342E4DB87
:102CE00007F50873A3F211231A7807F110031146B0
:102CF0001846FFF7CFFAFFF7B5FA22E007F504719F
:102D000097F8130207F588730193012300930523B5
:102D1000012209F047FA07F10F0207F1100107F548
:102D20008873184609F0C4FA07F50873A3F2112353
:102D30001A7807F1100311461846FFF7ABFAFFF7B0
:102D400091FA0523184607F50877BD4680BD00BFF8
:102D50000000024000500040C05C002000440040E1
:102D6000C15C00200010014080B5ADF50A7D02AFC6
:102D700007F50873A3F50773186007F50873A3F543
:102D80000873196007F50873A3F507731B68022B16
:102D900001DC0323C4E007F50873A3F507731B6880
:102DA000032B01DD0223BBE007F50873A3F50873CD
:102DB0001B6804331B6818460CF0B0F8034687F80C
:102DC0001B3297F81B32032B01D90423A8E04FF4E0
:102DD00000615648FFF71CFB4FF480515348FFF742
:102DE00017FB07F50873A3F507731B6803F180430E
:102DF000013B9B0007F50872A2F5087212681344A4
:102E00001B68C7F81432D7F81432494A934203D1E9
:102E1000484B01221A7002E0464B00221A70D7F884
:102E20001432454A934203D1444B01221A7002E006
:102E3000424B00221A70052387F8133297F81B3291
:102E400087F8103207F5047197F8130207F58873B5
:102E50000193012300930523012209F0A3F907F14F
:102E60000F0207F1100107F58873184609F020FAE0
:102E700007F50873A3F211231B78002B2CD0002335
:102E8000C7F81C3210E007F50873A3F50472D7F8F1
:102E90001C3213441B7819462948FEF759FFD7F80E
:102EA0001C320133C7F81C3207F50873A3F2112353
:102EB0001B781A46D7F81C329342E4DB07F50873F7
:102EC000A3F211231A7807F1100311461846FFF7F1
:102ED000E1F9FFF7C7F922E007F5047197F813024B
:102EE00007F588730193012300930523012209F05C
:102EF00059F907F10F0207F1100107F58873184619
:102F000009F0D6F907F50873A3F211231A7807F12F
:102F1000100311461846FFF7BDF9FFF7A3F9052383
:102F2000184607F50877BD4680BD00BF0000024087
:102F300000500040C05C002000440040C15C002004
:102F40000010014080B5ADF50A7D02AF07F50873AA
:102F5000A3F50773186007F50873A3F508731960E4
:102F600007F50873A3F507731B68022B01DC032325
:102F7000C4E007F50873A3F507731B68032B01DD95
:102F80000223BBE007F50873A3F508731B6804333D
:102F90001B6818460BF0C2FF034687F81B3297F8F0
:102FA0001B32032B01D90423A8E04FF400615648DB
:102FB000FFF72EFA4FF480515348FFF729FA07F52F
:102FC0000873A3F507731B6803F18043013B9B0063
:102FD00007F50872A2F50872126813441B68C7F857
:102FE0001432D7F81432494A934203D1484B012294
:102FF0001A7002E0464B00221A70D7F81432454A84
:10300000934203D1444B01221A7002E0424B00224A
:103010001A70062387F8133297F81B3287F810329C
:1030200007F5047197F8130207F5887301930123DC
:1030300000930523012209F0B5F807F10F0207F10B
:10304000100107F58873184609F032F907F508737F
:10305000A3F211231B78002B2CD00023C7F81C32BD
:1030600010E007F50873A3F50472D7F81C32134477
:103070001B7819462948FEF76BFED7F81C3201333E
:10308000C7F81C3207F50873A3F211231B781A4600
:10309000D7F81C329342E4DB07F50873A3F211233F
:1030A0001A7807F1100311461846FFF7F3F8FFF7F7
:1030B000D9F822E007F5047197F8130207F5887331
:1030C0000193012300930523012209F06BF807F116
:1030D0000F0207F1100107F58873184609F0E8F8A8
:1030E00007F50873A3F211231A7807F110031146AC
:1030F0001846FFF7CFF8FFF7B5F80523184607F590
:103100000877BD4680BD00BF00000240005000406F
:10311000C05C002000440040C15C00200010014061
:1031200080B5ADF50A7D02AF07F50873A3F5077307
:10313000186007F50873A3F50873196007F508739D
:10314000A3F507731B68022B01DC0323C4E007F51A
:103150000873A3F507731B68032B01DD0223BBE093
:1031600007F50873A3F508731B6804331B6818463A
:103170000BF0D4FE034687F81B3297F81B32032B63
:1031800001D90423A8E04FF400615648FFF740F945
:103190004FF480515348FFF73BF907F50873A3F547
:1031A00007731B6803F18043013B9B0007F508721E
:1031B000A2F50872126813441B68C7F81432D7F8D6
:1031C0001432494A934203D1484B01221A7002E05B
:1031D000464B00221A70D7F81432454A934203D165
:1031E000444B01221A7002E0424B00221A7007235E
:1031F00087F8133297F81B3287F8103207F50471FD
:1032000097F8130207F588730193012300930523B0
:10321000012208F0C7FF07F10F0207F1100107F5BF
:103220008873184609F044F807F50873A3F21123D0
:103230001B78002B2CD00023C7F81C3210E007F5B8
:103240000873A3F50472D7F81C3213441B7819468F
:103250002948FEF77DFDD7F81C320133C7F81C3230
:1032600007F50873A3F211231B781A46D7F81C320E
:103270009342E4DB07F50873A3F211231A7807F1F0
:10328000100311461846FFF705F8FEF7EBFF22E0A2
:1032900007F5047197F8130207F58873019301236A
:1032A00000930523012208F07DFF07F10F0207F1CB
:1032B000100107F58873184608F0FAFF07F5087340
:1032C000A3F211231A7807F1100311461846FEF7EE
:1032D000E1FFFEF7C7FF0523184607F50877BD464F
:1032E00080BD00BF0000024000500040C05C0020D4
:1032F00000440040C15C00200010014080B5ADF5E5
:103300000A7D02AF07F50873A3F50773186007F588
:103310000873A3F50873196007F50873A3F507731D
:103320001B68042B01DC0323FBE007F50873A3F5FE
:1033300007731B68052B01DD0223F2E007F5087314
:10334000A3F508731B6804331B6818460BF0E6FDF1
:10335000034687F81B3297F81B32032B01D904234D
:10336000DFE007F50873A3F508731B6808331B68D3
:1033700018460BF0D3FD034687F81A3297F81A3235
:10338000012B01D90423CCE007F50873A3F50873DA
:103390001B680C331B6818460BF0C0FD0346A7F8EA
:1033A0001832B7F81832B3F5FA7F01D90423B8E020
:1033B0004FF400615D48FFF72BF84FF480515B48F4
:1033C000FFF726F807F50873A3F507731B6803F1E9
:1033D0008043013B9B0007F50872A2F50872126852
:1033E00013441B68C7F81432D7F81432504A93427A
:1033F00003D1504B01221A7002E04E4B00221A708A
:10340000D7F814324C4A934203D14C4B01221A7024
:1034100002E04A4B00221A70082387F8133297F80B
:103420001B3287F80C3297F81A3287F80D32B7F84A
:1034300018321B0A9BB2DBB287F80E32B7F818328B
:10344000DBB287F80F3207F5037197F8130207F51F
:1034500086730193012300930523042208F0A2FE42
:1034600007F10B0207F10C0107F58673184608F007
:103470001FFF07F50873A3F215231B78002B2CD030
:103480000023C7F81C3210E007F50873A3F5057296
:10349000D7F81C3213441B7819462948FEF758FC0C
:1034A000D7F81C320133C7F81C3207F50873A3F2B2
:1034B00015231B781A46D7F81C329342E4DB07F534
:1034C0000873A3F215231A7807F10C031146184666
:1034D000FEF7E0FEFEF7C6FE22E007F5037197F85F
:1034E000130207F586730193012300930523042239
:1034F00008F058FE07F10B0207F10C0107F586737F
:10350000184608F0D5FE07F50873A3F215231A78BC
:1035100007F10C0311461846FEF7BCFEFEF7A2FEAB
:103520000523184607F50877BD4680BD0000024018
:1035300000500040C05C002000440040C15C0020FE
:103540000010014080B5ADF50A7D02AF07F50873A4
:10355000A3F50773186007F50873A3F508731960DE
:1035600007F50873A3F507731B68032B01DC03231E
:10357000E4E007F50873A3F507731B68042B01DD6E
:103580000223DBE007F50873A3F508731B68043317
:103590001B6818460BF0C2FC034687F81B3297F8ED
:1035A0001B32032B01D90423C8E007F50873A3F5E8
:1035B00008731B6808331B6818460BF0AFFC034602
:1035C000A7F81832B7F81832B3F5FA7F01D90423F7
:1035D000B4E04FF400615C48FEF71AFF4FF48051ED
:1035E0005948FEF715FF07F50873A3F507731B6825
:1035F00003F18043013B9B0007F50872A2F50872B6
:10360000126813441B68C7F81432D7F814324F4AB3
:10361000934203D14E4B01221A7002E04C4B002220
:103620001A70D7F814324B4A934203D14A4B012205
:103630001A7002E0484B00221A70092387F81332EF
:1036400097F81B3287F81032B7F818321B0A9BB272
:10365000DBB287F81132B7F81832DBB287F81232D2
:1036600007F5047197F8130207F588730193012396
:1036700000930523032208F095FD07F10F0207F1DF
:10368000100107F58873184608F012FE07F5087355
:10369000A3F211231B78002B2CD00023C7F81C3277
:1036A00010E007F50873A3F50472D7F81C32134431
:1036B0001B7819462948FEF74BFBD7F81C3201331B
:1036C000C7F81C3207F50873A3F211231B781A46BA
:1036D000D7F81C329342E4DB07F50873A3F21123F9
:1036E0001A7807F1100311461846FEF7D3FDFEF7CE
:1036F000B9FD22E007F5047197F8130207F5887306
:103700000193012300930523032208F04BFD07F1E9
:103710000F0207F1100107F58873184608F0C8FD7D
:1037200007F50873A3F211231A7807F11003114665
:103730001846FEF7AFFDFEF795FD0523184607F581
:103740000877BD4680BD00BF000002400050004029
:10375000C05C002000440040C15C0020001001401B
:1037600080B5ADF5067D00AF07F50673A3F50573CB
:10377000186007F50673A3F50673196007F506735D
:10378000A3F505731B68012B01DC0323A3E007F5F8
:103790000673A3F505731B68022B01DD02239AE073
:1037A0004FF400614E48FEF733FE4FF480514C4811
:1037B000FEF72EFE07F50673A3F505731B6803F1EC
:1037C0008043013B9B0007F50672A2F50672126862
:1037D00013441B68C7F81032D7F81032414A93429D
:1037E00003D1414B01221A7002E03F4B00221A70B4
:1037F000D7F810323D4A934203D13D4B01221A7053
:1038000002E03B4B00221A700A2387F80F3207F5BB
:10381000887397F80F020122052108F09BFC07F13D
:103820000F0207F1100107F58873184608F040FDF4
:1038300007F50673A3F209231B78002B2CD0002375
:10384000C7F8143210E007F50673A3F50272D7F833
:10385000143213441B7819462648FEF779FAD7F834
:1038600014320133C7F8143207F50673A3F20923A3
:103870001B781A46D7F814329342E4DB07F5067337
:10388000A3F209231A7807F1100311461846FEF730
:1038900001FDFEF7E7FC1DE007F5887397F80F02BE
:1038A0000122052108F056FC07F10F0207F1100173
:1038B00007F58873184608F0FBFC07F50673A3F2BA
:1038C00009231A7807F1100311461846FEF7E2FCA7
:1038D000FEF7C8FC0523184607F50677BD4680BDF0
:1038E0000000024000500040C05C00200044004046
:1038F000C15C00200010014080B5ADF5067D00AF31
:1039000007F50673A3F50573186007F50673A3F5AD
:103910000673196007F50673A3F505731B68012B81
:1039200001DC0323A3E007F50673A3F505731B6809
:10393000022B01DD02239AE04FF400614E48FEF7AE
:1039400067FD4FF480514C48FEF762FD07F50673A2
:10395000A3F505731B6803F18043013B9B0007F54A
:103960000672A2F50672126813441B68C7F810327B
:10397000D7F81032414A934203D1414B01221A70C9
:1039800002E03F4B00221A70D7F810323D4A9342B2
:1039900003D13D4B01221A7002E03B4B00221A700A
:1039A0000B2387F80F3207F5887397F80F0201226F
:1039B000052108F0CFFB07F10F0207F1100107F511
:1039C0008873184608F074FC07F50673A3F2092300
:1039D0001B78002B2CD00023C7F8143210E007F519
:1039E0000673A3F50272D7F8143213441B781946F4
:1039F0002648FEF7ADF9D7F814320133C7F8143270
:103A000007F50673A3F209231B781A46D7F8143278
:103A10009342E4DB07F50673A3F209231A7807F152
:103A2000100311461846FEF735FCFEF71BFC1DE09F
:103A300007F5887397F80F020122052108F08AFB29
:103A400007F10F0207F1100107F58873184608F017
:103A50002FFC07F50673A3F209231A7807F1100368
:103A600011461846FEF716FCFEF7FCFB0523184628
:103A700007F50677BD4680BD0000024000500040BB
:103A8000C05C002000440040C15C002000100140E8
:103A900080B5ADF5067D00AF07F50673A3F5057398
:103AA000186007F50673A3F50673196007F506732A
:103AB000A3F505731B68012B01DC0323A3E007F5C5
:103AC0000673A3F505731B68022B01DD02239AE040
:103AD0004FF400614E48FEF79BFC4FF480514C4878
:103AE000FEF796FC07F50673A3F505731B6803F153
:103AF0008043013B9B0007F50672A2F5067212682F
:103B000013441B68C7F81032D7F81032414A934269
:103B100003D1414B01221A7002E03F4B00221A7080
:103B2000D7F810323D4A934203D13D4B01221A701F
:103B300002E03B4B00221A700C2387F80F3207F586
:103B4000887397F80F020122052108F003FB07F1A3
:103B50000F0207F1100107F58873184608F0A8FB5B
:103B600007F50673A3F209231B78002B2CD0002342
:103B7000C7F8143210E007F50673A3F50272D7F800
:103B8000143213441B7819462648FEF7E1F8D7F89B
:103B900014320133C7F8143207F50673A3F2092370
:103BA0001B781A46D7F814329342E4DB07F5067304
:103BB000A3F209231A7807F1100311461846FEF7FD
:103BC00069FBFEF74FFB1DE007F5887397F80F02BE
:103BD0000122052108F0BEFA07F10F0207F11001DA
:103BE00007F58873184608F063FB07F50673A3F220
:103BF00009231A7807F1100311461846FEF74AFB0D
:103C0000FEF730FB0523184607F50677BD4680BD55
:103C10000000024000500040C05C00200044004012
:103C2000C15C00200010014080B5ADF50A7D02AFF7
:103C300007F50873A3F50773186007F50873A3F574
:103C40000873196007F50873A3F507731B68052B44
:103C500001DC0323F1E007F50873A3F507731B6884
:103C6000062B01DD0223E8E007F50873A3F50873CE
:103C70001B6804331B6818460BF050F9034687F89D
:103C80001B3207F50873A3F508731B6808331B681C
:103C900018460BF043F9034687F81A3207F5087304
:103CA000A3F508731B680C331B6818460BF036F934
:103CB000034687F8193207F50873A3F508731B68E4
:103CC00010331B6818460BF029F9034687F81832A1
:103CD0004FF400615B48FEF79BFB4FF4805159485D
:103CE000FEF796FB07F50873A3F507731B6803F14E
:103CF0008043013B9B0007F50872A2F50872126829
:103D000013441B68C7F81432D7F814324E4A934252
:103D100003D14E4B01221A7002E04C4B00221A7064
:103D2000D7F814324A4A934203D14A4B01221A70FF
:103D300002E0484B00221A700D2387F8133297F8DF
:103D40001B3287F80C3297F81A3287F80D3297F841
:103D5000193287F80E3297F8183287F80F3207F5C4
:103D6000037197F8130207F58673019301230093FB
:103D70000523042208F016FA07F10B0207F10C01E3
:103D800007F58673184608F093FA07F50873A3F24F
:103D900015231B78002B2CD00023C7F81C3210E011
:103DA00007F50873A3F50572D7F81C3213441B7886
:103DB00019462948FDF7CCFFD7F81C320133C7F864
:103DC0001C3207F50873A3F215231B781A46D7F89F
:103DD0001C329342E4DB07F50873A3F215231A782B
:103DE00007F10C0311461846FEF754FAFEF73AFAAB
:103DF00022E007F5037197F8130207F58673019324
:103E0000012300930523042208F0CCF907F10B02EB
:103E100007F10C0107F58673184608F049FA07F513
:103E20000873A3F215231A7807F10C0311461846FC
:103E3000FEF730FAFEF716FA0523184607F508775D
:103E4000BD4680BD0000024000500040C05C002024
:103E500000440040C15C00200010014080B5ADF579
:103E6000067D00AF07F50673A3F50573186007F527
:103E70000673A3F50673196007F50673A3F50573BA
:103E80001B68012B01DC0323A3E007F50673A3F5F0
:103E900005731B68022B01DD02239AE04FF40061D9
:103EA0004E48FEF7B5FA4FF480514C48FEF7B0FA91
:103EB00007F50673A3F505731B6803F18043013B07
:103EC0009B0007F50672A2F50672126813441B6880
:103ED000C7F81032D7F81032414A934203D1414B10
:103EE00001221A7002E03F4B00221A70D7F81032FC
:103EF0003D4A934203D13D4B01221A7002E03B4BF5
:103F000000221A700E2387F80F3207F5887397F88E
:103F10000F020122052108F01DF907F10F0207F138
:103F2000100107F58873184608F0C2F907F5067303
:103F3000A3F209231B78002B2CD00023C7F81432DE
:103F400010E007F50673A3F50272D7F81432134494
:103F50001B7819462648FDF7FBFED7F814320133CB
:103F6000C7F8143207F50673A3F209231B781A4623
:103F7000D7F814329342E4DB07F50673A3F2092362
:103F80001A7807F1100311461846FEF783F9FEF779
:103F900069F91DE007F5887397F80F0201220521E2
:103FA00008F0D8F807F10F0207F1100107F5887340
:103FB000184608F07DF907F50673A3F209231A786D
:103FC00007F1100311461846FEF764F9FEF74AF9A7
:103FD0000523184607F50677BD4680BD0000024060
:103FE00000500040C05C002000440040C15C002044
:103FF0000010014080B5ADF50A7D02AF07F50873EA
:10400000A3F50773186007F50873A3F50873196023
:1040100007F50873A3F507731B68022B01DC032364
:10402000C4E007F50873A3F507731B68032B01DDD4
:104030000223BBE007F50873A3F508731B6804337C
:104040001B6818460AF06AFF034687F81B3297F888
:104050001B32642B01D90423A8E04FF400615648B9
:10406000FEF7D6F94FF480515348FEF7D1F907F522
:104070000873A3F507731B6803F18043013B9B00A2
:1040800007F50872A2F50872126813441B68C7F896
:104090001432D7F81432494A934203D1484B0122D3
:1040A0001A7002E0464B00221A70D7F81432454AC3
:1040B000934203D1444B01221A7002E0424B00228A
:1040C0001A700F2387F8133297F81B3287F81032D3
:1040D00007F5047197F8130207F58873019301231C
:1040E00000930523012208F05DF807F10F0207F1A4
:1040F000100107F58873184608F0DAF807F5087319
:10410000A3F211231B78002B2CD00023C7F81C32FC
:1041100010E007F50873A3F50472D7F81C321344B6
:104120001B7819462948FDF713FED7F81C320133D6
:10413000C7F81C3207F50873A3F211231B781A463F
:10414000D7F81C329342E4DB07F50873A3F211237E
:104150001A7807F1100311461846FEF79BF8FEF790
:1041600081F822E007F5047197F8130207F58873C8
:104170000193012300930523012208F013F807F1AE
:104180000F0207F1100107F58873184608F090F840
:1041900007F50873A3F211231A7807F110031146EB
:1041A0001846FEF777F8FEF75DF80523184607F581
:1041B0000877BD4680BD00BF0000024000500040AF
:1041C000C05C002000440040C15C002000100140A1
:1041D00080B5ADF5067D00AF07F50673A3F5057351
:1041E000186007F50673A3F50673196007F50673E3
:1041F000A3F505731B68012B01DC0323A3E007F57E
:104200000673A3F505731B68022B01DD02239AE0F8
:104210004FF400614E48FEF7FBF84FF480514C48D4
:10422000FEF7F6F807F50673A3F505731B6803F1AF
:104230008043013B9B0007F50672A2F506721268E7
:1042400013441B68C7F81032D7F81032414A934222
:1042500003D1414B01221A7002E03F4B00221A7039
:10426000D7F810323D4A934203D13D4B01221A70D8
:1042700002E03B4B00221A70102387F80F3207F53B
:10428000887397F80F020122052107F063FF07F1F9
:104290000F0207F1100107F58873184608F008F8B7
:1042A00007F50673A3F209231B78002B2CD00023FB
:1042B000C7F8143210E007F50673A3F50272D7F8B9
:1042C000143213441B7819462648FDF741FDD7F8F0
:1042D00014320133C7F8143207F50673A3F2092329
:1042E0001B781A46D7F814329342E4DB07F50673BD
:1042F000A3F209231A7807F1100311461846FDF7B7
:10430000C9FFFDF7AFFF1DE007F5887397F80F02AF
:104310000122052107F01EFF07F10F0207F110012E
:1043200007F58873184607F0C3FF07F50673A3F275
:1043300009231A7807F1100311461846FDF7AAFF62
:10434000FDF790FF0523184607F50677BD4680BDAB
:104350000000024000500040C05C002000440040CB
:10436000C15C00200010014080B5ADF5067D00AFB6
:1043700007F50673A3F50573186007F50673A3F533
:104380000673196007F50673A3F505731B68012B07
:1043900001DC0323A3E007F50673A3F505731B688F
:1043A000022B01DD02239AE04FF400614E48FEF734
:1043B0002FF84FF480514C48FEF72AF807F50673A2
:1043C000A3F505731B6803F18043013B9B0007F5D0
:1043D0000672A2F50672126813441B68C7F8103201
:1043E000D7F81032414A934203D1414B01221A704F
:1043F00002E03F4B00221A70D7F810323D4A934238
:1044000003D13D4B01221A7002E03B4B00221A708F
:10441000112387F80F3207F5887397F80F020122EE
:10442000052107F097FE07F10F0207F1100107F5CC
:104430008873184607F03CFF07F50673A3F20923BB
:104440001B78002B2CD00023C7F8143210E007F59E
:104450000673A3F50272D7F8143213441B78194679
:104460002648FDF775FCD7F814320133C7F814322B
:1044700007F50673A3F209231B781A46D7F81432FE
:104480009342E4DB07F50673A3F209231A7807F1D8
:10449000100311461846FDF7FDFEFDF7E3FE1DE093
:1044A00007F5887397F80F020122052107F052FEE5
:1044B00007F10F0207F1100107F58873184607F09E
:1044C000F7FE07F50673A3F209231A7807F1100324
:1044D00011461846FDF7DEFEFDF7C4FE052318461B
:1044E00007F50677BD4680BD000002400050004041
:1044F000C05C002000440040C15C0020001001406E
:1045000080B5ADF5067D00AF07F50673A3F505731D
:10451000186007F50673A3F50673196007F50673AF
:10452000A3F505731B68012B01DC0323A3E007F54A
:104530000673A3F505731B68022B01DD02239AE0C5
:104540004FF400614E48FDF763FF4FF480514C4833
:10455000FDF75EFF07F50673A3F505731B6803F10E
:104560008043013B9B0007F50672A2F506721268B4
:1045700013441B68C7F81032D7F81032414A9342EF
:1045800003D1414B01221A7002E03F4B00221A7006
:10459000D7F810323D4A934203D13D4B01221A70A5
:1045A00002E03B4B00221A70122387F80F3207F506
:1045B000887397F80F020122052107F0CBFD07F160
:1045C0000F0207F1100107F58873184607F070FE17
:1045D00007F50673A3F209231B78002B2CD00023C8
:1045E000C7F8143210E007F50673A3F50272D7F886
:1045F000143213441B7819462648FDF7A9FBD7F857
:1046000014320133C7F8143207F50673A3F20923F5
:104610001B781A46D7F814329342E4DB07F5067389
:10462000A3F209231A7807F1100311461846FDF783
:1046300031FEFDF717FE1DE007F5887397F80F02AE
:104640000122052107F086FD07F10F0207F1100195
:1046500007F58873184607F02BFE07F50673A3F2DB
:1046600009231A7807F1100311461846FDF712FEC8
:10467000FDF7F8FD0523184607F50677BD4680BD12
:104680000000024000500040C05C00200044004098
:10469000C15C00200010014080B5ADF5067D00AF83
:1046A00007F50673A3F50573186007F50673A3F500
:1046B0000673196007F50673A3F505731B68012BD4
:1046C00001DC0323A3E007F50673A3F505731B685C
:1046D000022B01DD02239AE04FF400614E48FDF702
:1046E00097FE4FF480514C48FDF792FE07F5067394
:1046F000A3F505731B6803F18043013B9B0007F59D
:104700000672A2F50672126813441B68C7F81032CD
:10471000D7F81032414A934203D1414B01221A701B
:1047200002E03F4B00221A70D7F810323D4A934204
:1047300003D13D4B01221A7002E03B4B00221A705C
:10474000132387F80F3207F5887397F80F020122B9
:10475000052107F0FFFC07F10F0207F1100107F533
:104760008873184607F0A4FD07F50673A3F2092322
:104770001B78002B2CD00023C7F8143210E007F56B
:104780000673A3F50272D7F8143213441B78194646
:104790002648FDF7DDFAD7F814320133C7F8143292
:1047A00007F50673A3F209231B781A46D7F81432CB
:1047B0009342E4DB07F50673A3F209231A7807F1A5
:1047C000100311461846FDF765FDFDF74BFD1DE092
:1047D00007F5887397F80F020122052107F0BAFC4C
:1047E00007F10F0207F1100107F58873184607F06B
:1047F0005FFD07F50673A3F209231A7807F110038A
:1048000011461846FDF746FDFDF72CFD0523184619
:1048100007F50677BD4680BD00000240005000400D
:10482000C05C002000440040C15C0020001001403A
:1048300080B483B000AF786039603B681A047B684D
:104840009A6100BF0C37BD465DF8047B70470000DD
:1048500080B500AF0649074807F0F8FA4FF47A71BF
:10486000062007F0C7FAFDF7C9F800BF80BD00BFFA
:10487000F4000020F000002080B584B000AF414B70
:104880001B78DBB2002B79D0062007F0C9FA03466B
:10489000002B73D03C4B1B78DBB2002B6ED13B4B13
:1048A0001B78DBB2002B30D1394B1B78DBB2002BED
:1048B0002BD0384B1B78DBB2002B26D0002003F026
:1048C000A3F93548FDF7B0FB344B7B600923FB703F
:1048D0000023FB600AE0FB687A6813441B781946E2
:1048E0002D48FDF735FAFB680133FB60FB78FA6869
:1048F0009A42F0DB2A4B00221A70244B01221A70D4
:104900004FF47A71062007F075FA254B1B78DBB25D
:10491000002B33D1234B1B78DBB20133DAB2214BAE
:104920001A70204B1B78DBB2022B27D91E4B1B7849
:10493000DBB20133DAB21C4B1A701A4B00221A7028
:10494000174B01221A70114B00221A70164B1B785C
:10495000DBB2042B12D9144B05221A700123BB6061
:1049600009E0124B1A68BB682A331344FF221A70FD
:10497000BB680133BB60BB68362BF2DD00BF10376C
:10498000BD4680BDE95D0020B95B0020BE5C002013
:10499000E2000020E100002000100140E4000020BF
:1049A000E0000020C25C0020BC5C00209C040020D1
:1049B00080B5ADF50A7D02AF07F50873A3F507735F
:1049C000186007F50873A3F50873196007F50873F5
:1049D000A3F507731B68032B01DC0323DBE007F55A
:1049E0000873A3F507731B68042B01DD0223D2E0D3
:1049F00007F50873A3F508731B6804331B68184692
:104A00000AF08CFA034687F81B3297F81B32092B01
:104A100001D90423BFE007F50873A3F508731B68E9
:104A200008331B6818460AF079FA034687F81A32E9
:104A300097F81A32012B01D90423ACE04FF400613E
:104A40005748FFF7F5FE4FF480515548FFF7F0FE49
:104A500007F50873A3F507731B6803F18043013B57
:104A60009B0007F50872A2F50872126813441B68D0
:104A7000C7F81432D7F814324A4A934203D14A4B4A
:104A800001221A7002E0484B00221A70D7F8143243
:104A9000464A934203D1464B01221A7002E0444B2E
:104AA00000221A70012387F8133297F81B3287F817
:104AB000103297F81A3287F8113207F5047197F817
:104AC000130207F588730193012300930323022245
:104AD00007F068FB07F10F0207F1100107F5887373
:104AE000184607F0E5FB07F50873A3F211231B78BE
:104AF000002B2CD00023C7F81C3210E007F50873F8
:104B0000A3F50472D7F81C3213441B7819462948C0
:104B1000FDF71EF9D7F81C320133C7F81C3207F530
:104B20000873A3F211231B781A46D7F81C3293425C
:104B3000E4DB07F50873A3F211231A7807F11003D9
:104B400011461846FDF7A6FBFDF78CFB22E007F5A2
:104B5000047197F8130207F58873019301230093FA
:104B60000323022207F01EFB07F10F0207F11001D9
:104B700007F58873184607F09BFB07F50873A3F247
:104B800011231A7807F1100311461846FDF782FB2E
:104B9000FDF768FB0523184607F50877BD4680BD7D
:104BA0000000024000500040C05C00200044004073
:104BB000C15C00200010014080B5ADF50A7D02AF58
:104BC00007F50873A3F50773186007F50873A3F5D5
:104BD0000873196007F50873A3F507731B68032BA7
:104BE00001DC0323DBE007F50873A3F507731B68FB
:104BF000042B01DD0223D2E007F50873A3F5087347
:104C00001B6804331B6818460AF088F9034687F8C6
:104C10001B3297F81B32062B01D90423BFE007F59E
:104C20000873A3F508731B6808331B6818460AF05D
:104C300075F9034687F81A3297F81A32012B01D911
:104C40000423ACE04FF400615748FFF7F1FD4FF447
:104C500080515548FFF7ECFD07F50873A3F507737E
:104C60001B6803F18043013B9B0007F50872A2F526
:104C70000872126813441B68C7F81432D7F814324C
:104C80004A4A934203D14A4B01221A7002E0484B30
:104C900000221A70D7F81432464A934203D1464B89
:104CA00001221A7002E0444B00221A70022387F896
:104CB000133297F81B3287F8103297F81A3287F8B8
:104CC000113207F5047197F8130207F58873019301
:104CD000012300930323022207F064FA07F10F0275
:104CE00007F1100107F58873184607F0E1FA07F598
:104CF0000873A3F211231B78002B2CD00023C7F8D4
:104D00001C3210E007F50873A3F50472D7F81C32C3
:104D100013441B7819462948FDF71AF8D7F81C32B6
:104D20000133C7F81C3207F50873A3F211231B786F
:104D30001A46D7F81C329342E4DB07F50873A3F256
:104D400011231A7807F1100311461846FDF7A2FA4D
:104D5000FDF788FA22E007F5047197F8130207F5CA
:104D600088730193012300930323022207F01AFAA8
:104D700007F10F0207F1100107F58873184607F0D5
:104D800097FA07F50873A3F211231A7807F11003B5
:104D900011461846FDF77EFAFDF764FA052318461A
:104DA00007F50877BD4680BD000002400050004076
:104DB000C05C002000440040C15C002000100140A5
:104DC00080B5ADF50A7D02AF07F50873A3F507734B
:104DD000186007F50873A3F50873196007F50873E1
:104DE000A3F507731B68022B01DC0323C4E007F55E
:104DF0000873A3F507731B68032B01DD0223BBE0D7
:104E000007F50873A3F508731B6804331B6818467D
:104E10000AF084F8034687F81B3297F81B32012BFF
:104E200001D90423A8E04FF400615648FFF700FDC4
:104E30004FF480515348FFF7FBFC07F50873A3F5C7
:104E400007731B6803F18043013B9B0007F5087261
:104E5000A2F50872126813441B68C7F81432D7F819
:104E60001432494A934203D1484B01221A7002E09E
:104E7000464B00221A70D7F81432454A934203D1A8
:104E8000444B01221A7002E0424B00221A700323A5
:104E900087F8133297F81B3287F8103207F5047140
:104EA00097F8130207F588730193012300930323F6
:104EB000012207F077F907F10F0207F1100107F55A
:104EC0008873184607F0F4F907F50873A3F2112365
:104ED0001B78002B2CD00023C7F81C3210E007F5FC
:104EE0000873A3F50472D7F81C3213441B781946D3
:104EF0002948FCF72DFFD7F81C320133C7F81C32C4
:104F000007F50873A3F211231B781A46D7F81C3251
:104F10009342E4DB07F50873A3F211231A7807F133
:104F2000100311461846FDF7B5F9FDF79BF922E08D
:104F300007F5047197F8130207F5887301930123AD
:104F400000930323012207F02DF907F10F0207F167
:104F5000100107F58873184607F0AAF907F50873DA
:104F6000A3F211231A7807F1100311461846FDF732
:104F700091F9FDF777F90523184607F50877BD463F
:104F800080BD00BF0000024000500040C05C002017
:104F900000440040C15C00200010014080B5ADF528
:104FA0000A7D02AF07F50873A3F50773186007F5CC
:104FB0000873A3F50873196007F50873A3F5077361
:104FC0001B68022B01DC0323C4E007F50873A3F57B
:104FD00007731B68032B01DD0223BBE007F5087391
:104FE000A3F508731B6804331B68184609F096FF85
:104FF000034687F81B3297F81B32092B01D904238B
:10500000A8E04FF400615648FFF712FC4FF48051BE
:105010005348FFF70DFC07F50873A3F507731B68EA
:1050200003F18043013B9B0007F50872A2F508726B
:10503000126813441B68C7F81432D7F81432494A6F
:10504000934203D1484B01221A7002E0464B0022E2
:105050001A70D7F81432454A934203D1444B0122C7
:105060001A7002E0424B00221A70042387F81332B0
:1050700097F81B3287F8103207F5047197F813027E
:1050800007F588730193012300930323012207F09E
:1050900089F807F10F0207F1100107F58873184628
:1050A00007F006F907F50873A3F211231B78002B0C
:1050B0002CD00023C7F81C3210E007F50873A3F5C5
:1050C0000472D7F81C3213441B7819462948FCF7A0
:1050D0003FFED7F81C320133C7F81C3207F50873BE
:1050E000A3F211231B781A46D7F81C329342E4DB53
:1050F00007F50873A3F211231A7807F1100311467C
:105100001846FDF7C7F8FDF7ADF822E007F5047182
:1051100097F8130207F58873019301230093032383
:10512000012207F03FF807F10F0207F1100107F520
:105130008873184607F0BCF807F50873A3F211232B
:105140001A7807F1100311461846FDF7A3F8FDF78A
:1051500089F80523184607F50877BD4680BD00BFCE
:105160000000024000500040C05C002000440040AD
:10517000C15C00200010014080B5ADF50A7D02AF92
:1051800007F50873A3F50773186007F50873A3F50F
:105190000873196007F50873A3F507731B68022BE2
:1051A00001DC0323C4E007F50873A3F507731B684C
:1051B000032B01DD0223BBE007F50873A3F5087399
:1051C0001B6804331B68184609F0A8FE034687F8DD
:1051D0001B3297F81B32062B01D90423A8E04FF4A9
:1051E00000615648FFF724FB4FF480515348FFF706
:1051F0001FFB07F50873A3F507731B6803F18043D2
:10520000013B9B0007F50872A2F50872126813446F
:105210001B68C7F81432D7F81432494A934203D1B5
:10522000484B01221A7002E0464B00221A70D7F850
:105230001432454A934203D1444B01221A7002E0D2
:10524000424B00221A70052387F8133297F81B325D
:1052500087F8103207F5047197F8130207F5887381
:105260000193012300930323012206F09BFF07F122
:105270000F0207F1100107F58873184607F018F8B8
:1052800007F50873A3F211231B78002B2CD0002301
:10529000C7F81C3210E007F50873A3F50472D7F8BD
:1052A0001C3213441B7819462948FCF751FDD7F8E6
:1052B0001C320133C7F81C3207F50873A3F211231F
:1052C0001B781A46D7F81C329342E4DB07F50873C3
:1052D000A3F211231A7807F1100311461846FCF7C0
:1052E000D9FFFCF7BFFF22E007F5047197F813021E
:1052F00007F588730193012300930323012206F02D
:1053000051FF07F10F0207F1100107F588731846E6
:1053100006F0CEFF07F50873A3F211231A7807F100
:10532000100311461846FCF7B5FFFCF79BFF052359
:10533000184607F50877BD4680BD00BF0000024053
:1053400000500040C05C002000440040C15C0020D0
:105350000010014080B5ADF5067D00AF07F506737E
:10536000A3F50573186007F50673A3F506731960B6
:1053700007F50673A3F505731B68012B01DC0323F6
:10538000A3E007F50673A3F505731B68022B01DD87
:1053900002239AE04FF400614E48FFF749FA4FF4B8
:1053A00080514C48FFF744FA07F50673A3F50573DF
:1053B0001B6803F18043013B9B0007F50672A2F5D1
:1053C0000672126813441B68C7F81032D7F81032FF
:1053D000414A934203D1414B01221A7002E03F4BF4
:1053E00000221A70D7F810323D4A934203D13D4B48
:1053F00001221A7002E03B4B00221A70062387F844
:105400000F3207F5887397F80F020122032106F087
:10541000A1FE07F10F0207F1100107F58873184686
:1054200006F046FF07F50673A3F209231B78002B4D
:105430002CD00023C7F8143210E007F50673A3F54B
:105440000272D7F8143213441B7819462648FCF729
:105450007FFCD7F814320133C7F8143207F506730E
:10546000A3F209231B781A46D7F814329342E4DBDF
:1054700007F50673A3F209231A7807F11003114602
:105480001846FCF707FFFCF7EDFE1DE007F58873F3
:1054900097F80F020122032106F05CFE07F10F02CC
:1054A00007F1100107F58873184606F001FF07F5AC
:1054B0000673A3F209231A7807F110031146184660
:1054C000FCF7E8FEFCF7CEFE0523184607F5067745
:1054D000BD4680BD0000024000500040C05C00207E
:1054E00000440040C15C00200010014080B483B043
:1054F00000AF786039607B683A689A6100BF0C370A
:10550000BD465DF8047B704780B483B000AF78601F
:1055100039603B681A047B689A6100BF0C37BD464E
:105520005DF8047B7047000080B500AF064907486E
:1055300006F08CFC4FF47A71052006F05BFCFCF75A
:105540005DFA00BF80BD00BF100100200C010020EB
:1055500080B584B000AF414B1B78DBB2002B79D013
:10556000052006F05DFC0346002B73D03C4B1B78F6
:10557000DBB2002B6ED13B4B1B78DBB2002B30D162
:10558000394B1B78DBB2002B2BD0384B1B78DBB2AE
:10559000002B26D0012002F037FB3548FCF744FDF4
:1055A000344B7B600923FB700023FB600AE0FB683F
:1055B0007A6813441B7819462D48FCF7C9FBFB6831
:1055C0000133FB60FB78FA689A42F0DB2A4B002239
:1055D0001A70244B01221A704FF47A71052006F0DC
:1055E00009FC254B1B78DBB2002B33D1234B1B78F6
:1055F000DBB20133DAB2214B1A70204B1B78DBB2DD
:10560000022B27D91E4B1B78DBB20133DAB21C4BBD
:105610001A701A4B00221A70174B01221A70114B84
:1056200000221A70164B1B78DBB2042B12D901230F
:10563000BB600CE0124B05221A70124B1A68BB6853
:1056400060331344FF221A70BB680133BB60BB6830
:10565000182BEFDD00BF1037BD4680BDE95D00208F
:10566000B95B0020BE5C0020E2000020E0000020CA
:105670000010014000010020E1000020C35C002078
:10568000BD5C00209C04002080B5ADF5067D00AF18
:1056900007F50673A3F50573186007F50673A3F500
:1056A0000673196007F50673A3F505731B68012BD4
:1056B00001DC0323A3E007F50673A3F505731B685C
:1056C000022B01DD02239AE04FF400614E48FFF700
:1056D0001BFF4FF480514C48FFF708FF07F5067396
:1056E000A3F505731B6803F18043013B9B0007F59D
:1056F0000672A2F50672126813441B68C7F81032CE
:10570000D7F81032414A934203D1414B01221A701B
:1057100002E03F4B00221A70D7F810323D4A934204
:1057200003D13D4B01221A7002E03B4B00221A705C
:10573000012387F80F3207F5887397F80F020122CB
:10574000022106F007FD07F10F0207F1100107F52E
:105750008873184606F0ACFD07F50673A3F209231B
:105760001B78002B2CD00023C7F8143210E007F56B
:105770000673A3F50272D7F8143213441B78194646
:105780002648FCF7E5FAD7F814320133C7F814328B
:1057900007F50673A3F209231B781A46D7F81432CB
:1057A0009342E4DB07F50673A3F209231A7807F1A5
:1057B000100311461846FCF76DFDFCF753FD1DE084
:1057C00007F5887397F80F020122022106F0C2FC48
:1057D00007F10F0207F1100107F58873184606F06C
:1057E00067FD07F50673A3F209231A7807F1100382
:1057F00011461846FCF74EFDFCF734FD052318460C
:1058000007F50677BD4680BD00000240005000400D
:10581000C05C002000440040C15C0020001001403A
:1058200080B5ADF5067D00AF07F50673A3F50573EA
:10583000186007F50673A3F50673196007F506737C
:10584000A3F505731B68012B01DC0323A3E007F517
:105850000673A3F505731B68022B01DD02239AE092
:105860004FF400614E48FFF74FFE4FF480514C4813
:10587000FFF73CFE07F50673A3F505731B6803F1FC
:105880008043013B9B0007F50672A2F50672126881
:1058900013441B68C7F81032D7F81032414A9342BC
:1058A00003D1414B01221A7002E03F4B00221A70D3
:1058B000D7F810323D4A934203D13D4B01221A7072
:1058C00002E03B4B00221A70022387F80F3207F5E3
:1058D000887397F80F020122022106F03BFC07F1C2
:1058E0000F0207F1100107F58873184606F0E0FC77
:1058F00007F50673A3F209231B78002B2CD0002395
:10590000C7F8143210E007F50673A3F50272D7F852
:10591000143213441B7819462648FCF719FAD7F8B5
:1059200014320133C7F8143207F50673A3F20923C2
:105930001B781A46D7F814329342E4DB07F5067356
:10594000A3F209231A7807F1100311461846FCF751
:10595000A1FCFCF787FC1DE007F5887397F80F02A0
:105960000122022106F0F6FB07F10F0207F11001F8
:1059700007F58873184606F09BFC07F50673A3F23B
:1059800009231A7807F1100311461846FCF782FC28
:10599000FCF768FC0523184607F50677BD4680BD71
:1059A0000000024000500040C05C00200044004065
:1059B000C15C00200010014080B5ADF5067D00AF50
:1059C00007F50673A3F50573186007F50673A3F5CD
:1059D0000673196007F50673A3F505731B68012BA1
:1059E00001DC0323A3E007F50673A3F505731B6829
:1059F000022B01DD02239AE04FF400614E48FFF7CD
:105A000083FD4FF480514C48FFF770FD07F5067396
:105A1000A3F505731B6803F18043013B9B0007F569
:105A20000672A2F50672126813441B68C7F810329A
:105A3000D7F81032414A934203D1414B01221A70E8
:105A400002E03F4B00221A70D7F810323D4A9342D1
:105A500003D13D4B01221A7002E03B4B00221A7029
:105A6000032387F80F3207F5887397F80F02012296
:105A7000022106F06FFB07F10F0207F1100107F595
:105A80008873184606F014FC07F50673A3F2092381
:105A90001B78002B2CD00023C7F8143210E007F538
:105AA0000673A3F50272D7F8143213441B78194613
:105AB0002648FCF74DF9D7F814320133C7F81432F1
:105AC00007F50673A3F209231B781A46D7F8143298
:105AD0009342E4DB07F50673A3F209231A7807F172
