:020000040800F2
:100000000000022019500008954D00089D4D000881
:10001000A54D0008AD4D0008B54D000800000000DA
:10002000000000000000000000000000BD4D0008BE
:10003000CB4D000800000000D94D0008E94D000834
:1000400069500008695000086950000869500008AC
:10005000695000086950000869500008695000089C
:10006000695000086950000869500008695000088C
:10007000695000086950000869500008695000087C
:10008000695000086950000869500008695000086C
:10009000695000086950000869500008695000085C
:1000A000695000086950000869500008695000084C
:1000B000695000086950000869500008695000083C
:1000C000695000086950000869500008695000082C
:1000D00069500008054E000869500008194E0008D4
:1000E000695000086950000869500008695000080C
:1000F00069500008695000086950000869500008FC
:1001000069500008695000086950000869500008EB
:100110002D4E0008414E0008695000086950000843
:1001200069500008695000086950000869500008CB
:10013000695000080000000000000000695000083D
:1001400069500008695000086950000869500008AB
:10015000695000086950000869500008554E0008B1
:10016000695000086950000869500008695000088B
:1001700069500008695000080000000000000000FD
:080180006950000869500008F5
:1001900010B5054C237833B9044B13B10448AFF3C1
:1001A00000800123237010BDBC040020000000006B
:1001B000C4B4000808B5034B1BB103490348AFF3AF
:1001C000008008BD00000000C0040020C4B4000886
:1001D00010F8012B11F8013B012A28BF9A42F7D0F1
:1001E000D01A70470000000000000000000000006E
:1001F00001F0FF01102A2BDB10F0070F08D010F8D8
:10020000013B013A8B422DD010F0070F42B3F6D1DB
:10021000F0B441EA012141EA014122F007047FF0F4
:1002200000070023F0E80256083C85EA010586EA4B
:10023000010685FA47F5A3FA87F586FA47F6A5FA87
:1002400087F68EB9EED1F0BC01F0FF0102F0070293
:1002500032B110F8013B013A83EA010313B1F8D13E
:100260000020704701387047002D06BF354603381F
:10027000073815F0010F07D1013015F4807F02BF58
:10028000013015F4C03F0130F0BC0138704700BFA9
:10029000034613F8012B002AFBD1181A01387047C6
:1002A00081F0004102E000BF83F0004330B54FEA27
:1002B00041044FEA430594EA050F08BF90EA020F94
:1002C0001FBF54EA000C55EA020C7FEA645C7FEA27
:1002D000655C00F0E2804FEA5454D4EB5555B8BF4A
:1002E0006D420CDD2C4480EA020281EA030382EABB
:1002F000000083EA010180EA020281EA0303362D4D
:1003000088BF30BD11F0004F4FEA01314FF4801C1F
:100310004CEA113102D0404261EB410113F0004F31
:100320004FEA03334CEA133302D0524263EB4303E8
:1003300094EA050F00F0A780A4F10104D5F1200E86
:100340000DDB02FA0EFC22FA05F2801841F10001E1
:1003500003FA0EF2801843FA05F359410EE0A5F1B5
:1003600020050EF1200E012A03FA0EFC28BF4CF0E6
:10037000020C43FA05F3C01851EBE37101F000459C
:1003800007D54FF0000EDCF1000C7EEB00006EEBA9
:100390000101B1F5801F1BD3B1F5001F0CD3490833
:1003A0005FEA30004FEA3C0C04F101044FEA44528A
:1003B00012F5800F80F09A80BCF1004F08BF5FEA11
:1003C000500C50F1000041EB045141EA050130BDF1
:1003D0005FEA4C0C404141EB0101013C28BFB1F503
:1003E000801FE9D291F0000F04BF01460020B1FA4E
:1003F00081F308BF2033A3F10B03B3F120020CDA21
:100400000C3208DD02F1140CC2F10C0201FA0CF0FE
:1004100021FA02F10CE002F11402D8BFC2F1200C63
:1004200001FA02F120FA0CFCDCBF41EA0C01904019
:10043000E41AA2BF01EB0451294330BD6FEA040462
:100440001F3C1CDA0C340EDC04F11404C4F120024D
:1004500020FA04F001FA02F340EA030021FA04F35F
:1004600045EA030130BDC4F10C04C4F1200220FAB6
:1004700002F001FA04F340EA0300294630BD21FAF4
:1004800004F0294630BD94F0000F83F4801306BFBA
:1004900081F480110134013D4EE77FEA645C18BFAE
:1004A0007FEA655C29D094EA050F08BF90EA020F45
:1004B00005D054EA000C04BF1946104630BD91EA3D
:1004C000030F1EBF0021002030BD5FEA545C05D140
:1004D0004000494128BF41F0004130BD14F580047F
:1004E0003CBF01F5801130BD01F0004545F0FE41F3
:1004F00041F470014FF0000030BD7FEA645C1ABF28
:10050000194610467FEA655C1CBF0B46024650EA5E
:10051000013406BF52EA033591EA030F41F400218A
:1005200030BD00BF90F0000F04BF0021704730B510
:100530004FF4806404F132044FF000054FF00001E5
:1005400050E700BF90F0000F04BF0021704730B5A6
:100550004FF4806404F1320410F0004548BF40427B
:100560004FF000013EE700BF42004FEAE2014FEAD0
:1005700031014FEA02701FBF12F07F4393F07F4FAB
:1005800081F06051704732F07F4208BF704793F0AE
:100590007F4F04BF41F40021704730B54FF46074C1
:1005A00001F0004521F000411CE700BF50EA0102C4
:1005B00008BF704730B54FF000050AE050EA01026D
:1005C00008BF704730B511F0004502D5404261EBDD
:1005D00041014FF4806404F132045FEA915C3FF41E
:1005E000D8AE4FF003025FEADC0C18BF03325FEABB
:1005F000DC0C18BF033202EBDC02C2F1200300FA6C
:1006000003FC20FA02F001FA03FE40EA0E0021FA90
:1006100002F11444BDE600BF70B54FF0FF0C4CF47E
:10062000E06C1CEA11541DBF1CEA135594EA0C0F30
:1006300095EA0C0F00F0DEF82C4481EA030621EA6B
:100640004C5123EA4C5350EA013518BF52EA0335A6
:1006500041F4801143F4801338D0A0FB02CE4FF058
:100660000005E1FB02E506F00042E0FB03E54FF088
:100670000006E1FB03569CF0000F18BF4EF0010E80
:10068000A4F1FF04B6F5007F64F5407404D25FEA7C
:100690004E0E6D4146EB060642EAC62141EA55512F
:1006A0004FEAC52040EA5E504FEACE2EB4F1FD0C71
:1006B00088BFBCF5E06F1ED8BEF1004F08BF5FEAEF
:1006C000500E50F1000041EB045170BD06F00046A1
:1006D00046EA010140EA020081EA0301B4EB5C044E
:1006E000C2BFD4EB0C0541EA045170BD41F4801146
:1006F0004FF0000E013C00F3AB8014F1360FDEBF6B
:10070000002001F0004170BDC4F10004203C35DA46
:100710000C341BDC04F11404C4F1200500FA05F3C9
:1007200020FA04F001FA05F240EA020001F000426A
:1007300021F0004110EBD37021FA04F642EB0601E0
:100740005EEA430E08BF20EAD37070BDC4F10C040A
:10075000C4F1200500FA04F320FA05F001FA04F2CE
:1007600040EA020001F0004110EBD37041F10001BA
:100770005EEA430E08BF20EAD37070BDC4F12005C5
:1007800000FA05F24EEA020E20FA04F301FA05F22D
:1007900043EA020321FA04F001F0004121FA04F2D5
:1007A00020EA020000EBD3705EEA430E08BF20EAA5
:1007B000D37070BD94F0000F0FD101F000464000DF
:1007C00041EB010111F4801F08BF013CF7D041EA61
:1007D000060195F0000F18BF704703F00046520065
:1007E00043EB030313F4801F08BF013DF7D043EA36
:1007F0000603704794EA0C0F0CEA135518BF95EAEC
:100800000C0F0CD050EA410618BF52EA4306D1D172
:1008100081EA030101F000414FF0000070BD50EA91
:10082000410606BF1046194652EA430619D094EA1B
:100830000C0F02D150EA013613D195EA0C0F05D105
:1008400052EA03361CBF104619460AD181EA030159
:1008500001F0004141F0FE4141F470014FF0000011
:1008600070BD41F0FE4141F4780170BD70B54FF0AC
:10087000FF0C4CF4E06C1CEA11541DBF1CEA13552C
:1008800094EA0C0F95EA0C0F00F0A7F8A4EB05040E
:1008900081EA030E52EA03354FEA013100F0888005
:1008A0004FEA03334FF0805545EA131343EA1263CE
:1008B0004FEA022245EA111545EA10654FEA002683
:1008C0000EF000419D4208BF964244F1FD0404F53C
:1008D000407402D25B084FEA3202B61A65EB030598
:1008E0005B084FEA32024FF480104FF4002CB6EB55
:1008F000020E75EB030E22BFB61A754640EA0C00D5
:100900005B084FEA3202B6EB020E75EB030E22BF14
:10091000B61A754640EA5C005B084FEA3202B6EB55
:10092000020E75EB030E22BFB61A754640EA9C0014
:100930005B084FEA3202B6EB020E75EB030E22BFE4
:10094000B61A754640EADC0055EA060E18D04FEAA2
:10095000051545EA16754FEA06164FEAC30343EA42
:1009600052734FEAC2025FEA1C1CC0D111F4801F0F
:100970000BD141EA00014FF000004FF0004CB6E708
:1009800011F4801F04BF01430020B4F1FD0C88BFA7
:10099000BCF5E06F3FF6AFAEB5EB030C04BFB6EBB2
:1009A000020C5FEA500C50F1000041EB045170BDA5
:1009B0000EF0004E4EEA113114EB5C04C2BFD4EBD2
:1009C0000C0541EA045170BD41F480114FF0000E56
:1009D000013C90E645EA060E8DE60CEA135594EAD2
:1009E0000C0F08BF95EA0C0F3FF43BAF94EA0C0FD5
:1009F0000AD150EA01347FF434AF95EA0C0F7FF44A
:100A000025AF104619462CE795EA0C0F06D152EA9D
:100A100003353FF4FDAE1046194622E750EA410681
:100A200018BF52EA43067FF4C5AE50EA41047FF492
:100A30000DAF52EA43057FF4EBAE12E74FF0FF3CF7
:100A400006E000BF4FF0010C02E000BF4FF0010CC8
:100A50004DF804CD4FEA410C7FEA6C5C4FEA430C41
:100A600018BF7FEA6C5C1BD001B050EA410C0CBF90
:100A700052EA430C91EA030F02BF90EA020F0020F2
:100A8000704710F1000F91EA030F58BF994208BF59
:100A900090422CBFD8176FEAE37040F00100704716
:100AA0004FEA410C7FEA6C5C02D150EA013C07D16D
:100AB0004FEA430C7FEA6C5CD6D152EA033CD3D0B8
:100AC0005DF8040B704700BF8446104662468C46B2
:100AD0001946634600E000BF01B5FFF7B7FF0028E5
:100AE00048BF10F1000F01BD4DF808EDFFF7F4FF0E
:100AF0000CBF012000205DF808FB00BF4DF808ED99
:100B0000FFF7EAFF34BF012000205DF808FB00BFBB
:100B10004DF808EDFFF7E0FF94BF012000205DF8DD
:100B200008FB00BF4DF808EDFFF7CEFF94BF012092
:100B300000205DF808FB00BF4DF808EDFFF7C4FF8B
:100B400034BF012000205DF808FB00BF4FEA410CD4
:100B50007FEA6C5C02D150EA013C0AD14FEA430CB7
:100B60007FEA6C5C02D152EA033C02D14FF00000F4
:100B700070474FF0010070474FEA410212F5001232
:100B800015D211D56FF47873B3EB625212D94FEAD4
:100B9000C12343F0004343EA505311F0004F23FABE
:100BA00002F018BF404270474FF00000704750EA13
:100BB000013005D111F0004008BF6FF000407047D0
:100BC0004FF00000704700BF4A0011D212F500122A
:100BD00011D20DD56FF47873B3EB62520ED44FEA95
:100BE000C12343F0004343EA505323FA02F0704715
:100BF0004FF00000704750EA013002D14FF0FF3053
:100C000070474FF0000070474FEA4102B2F1E043F5
:100C100024BFB3F5001CDCF1FE5C0DD901F0004CE3
:100C20004FEAC0024CEA5070B2F1004F40EB830033
:100C300008BF20F00100704711F0804F21D113F15F
:100C40003872BCBF01F00040704741F480114FEA98
:100C50005252C2F11802C2F1200C10FA0CF320FA21
:100C600002F018BF40F001004FEAC1234FEAD3233E
:100C700003FA0CFC40EA0C0023FA02F34FEA4303A8
:100C8000CCE77FEA625307D150EA01331EBF4FF031
:100C9000FE4040F44000704701F0004040F0FE404C
:100CA00040F40000704700BF53B94AB9002908BF9B
:100CB00000281CBF4FF0FF314FF0FF3000F0A0B90B
:100CC000ADF1080C6DE904CE00F03CF8DDF804E06D
:100CD000DDE9022304B0704738B500220023044642
:100CE0000D46FFF70BFF28B920462946BDE83840DE
:100CF00000F00AB8204605F1004100F005F8404236
:100D000061EB410138BD00BFD0B50C4B0022064657
:100D10000F46FFF781FCFFF757FF0446FFF702FC81
:100D2000074B0022FFF778FC02460B463046394657
:100D3000FFF7BAFAFFF748FF2146D0BD0000F03DAB
:100D40000000F0412DE9F047089D0C46002B4ED1E4
:100D500094468C458646B2FA82F262D94AB1C2F113
:100D60002003914020FA03F30CFA02FC194300FA25
:100D700002FE4FEA1C471FFA8CF6B1FBF7F44FEA6C
:100D80001E4307FB141143EA014304FB06F1994299
:100D90000AD91CEB030304F1FF3080F01281994261
:100DA00040F20F81023C6344591A1FFA8EF3B1FBE3
:100DB000F7F007FB101143EA014300FB06F69E42E1
:100DC0000AD91CEB030300F1FF3180F0FC809E4246
:100DD00040F2F980634402389B1B40EA0440002142
:100DE0001DB1D3400022C5E90032BDE8F0878B4237
:100DF00005D90DB1C5E9000100210846F5E7B3FAB0
:100E000083F1002946D1A34202D39042C0F0F08082
:100E1000861A64EB03030120002DE6D0C5E90063C8
:100E2000E3E7002A40F09080A1EB0C044FEA1C4855
:100E30001FFA8CF70121B4FBF8F64FEA1E4308FBBA
:100E4000164443EA044307FB06F0984208D91CEB1A
:100E5000030306F1FF3402D2984200F2CD80264609
:100E60001C1A1FFA8EF3B4FBF8F008FB104443EA97
:100E7000044300FB07F79F4208D91CEB030300F172
:100E8000FF3402D29F4200F2B0802046DB1B40EAD2
:100E90000640A5E7C1F120068B4022FA06F71F4362
:100EA00020FA06FC04FA01F343EA0C03F44000FACA
:100EB00001F8380C4FEA1349B4FBF0FE1FFA87FC27
:100EC00000FB1E4449EA04440EFB0CF9A14502FA5A
:100ED00001F20AD93C190EF1FF3A80F08480A14555
:100EE00040F28180AEF1020E3C44A4EB09041FFAEB
:100EF00083F9B4FBF0F300FB134449EA044403FB19
:100F00000CFCA44507D93C1903F1FF3067D2A44576
:100F100065D9023B3C4443EA0E40A0FB0293A4EB9C
:100F20000C049C42CE469C4651D34ED055B1B8EBF2
:100F30000E0364EB0C0404FA06F6CB401E43CC40CF
:100F4000C5E90064002150E7C2F1200320FA03F153
:100F50000CFA02FC24FA03F394400C434FEA1C48B9
:100F600000FA02FE1FFA8CF7B3FBF8F008FB103111
:100F7000230C43EA014300FB07F1994208D91CEB1B
:100F8000030300F1FF362CD299422AD90238634478
:100F90005B1AA4B2B3FBF8F108FB113344EA034433
:100FA00001FB07F3A34208D91CEB040401F1FF364F
:100FB00013D2A34211D902396444E41A41EA004130
:100FC00039E70446F0E6084606E7C845AED2B9EB75
:100FD000020E63EB070C0138A8E73146EDE7034644
:100FE00099E73046D4E7D6467FE7634402384DE7B9
:100FF0000646234608460FE7023E634430E700BF3B
:10100000704700BF80B483B000AF78607B685B69D5
:1010100003F08003802B0CBF01230023DBB21846B2
:101020000C37BD465DF8047B704780B483B000AFD9
:1010300078607B685B6903F04003402B0CBF0123A1
:101040000023DBB218460C37BD465DF8047B7047C1
:1010500080B483B000AF78607B685B6903F0010304
:10106000012B0CBF01230023DBB218460C37BD4611
:101070005DF8047B704780B483B000AF78607B6814
:101080005B6903F00203022B0CBF01230023DBB2D8
:1010900018460C37BD465DF8047B704780B483B0BA
:1010A00000AF78607B689B6903F00203022B0CBFE2
:1010B00001230023DBB218460C37BD465DF8047BE4
:1010C000704780B485B000AF78607B685B69FB6077
:1010D000FB687B689B69FB60FB6800BF1437BD46FB
:1010E0005DF8047B704780B483B000AF78603960EE
:1010F0007B681B6823F480623B681A437B681A6034
:1011000000BF0C37BD465DF8047B704780B483B0E8
:1011100000AF78607B681B6843F480727B681A605C
:1011200000BF0C37BD465DF8047B704780B483B0C8
:1011300000AF78607B681B6843F400727B681A60BC
:1011400000BF0C37BD465DF8047B704780B483B0A8
:1011500000AF78607B681B69DBB218460C37BD4670
:101160005DF8047B704780B483B000AF78600B46B5
:10117000FB707B681B6923F0FF02FB781A437B68D6
:101180001A6100BF0C37BD465DF8047B7047000054
:1011900080B582B000AF03460A46FB711346BB71AF
:1011A00000BF1E48FFF77AFF0346002BF9D11B480A
:1011B000FFF7ACFF00BF1948FFF74AFF0346002BBB
:1011C000F9D0D0211548FFF7CEFF00BF1348FFF735
:1011D00052FF0346002BF9D01048FFF772FFFB794E
:1011E00019460E48FFF7BFFF00BF0C48FFF70AFF84
:1011F0000346002BF9D0BB7919460848FFF7B3FF27
:1012000000BF0648FFF7FEFE0346002BF9D0034857
:10121000FFF78CFF00BF0837BD4680BD005400407B
:1012200080B584B000AF0346FB710023FB7300BFA1
:101230002C48FFF733FF0346002BF9D12948FFF76D
:1012400065FF00BF2748FFF703FF0346002BF9D0D7
:10125000D0212448FFF787FF00BF2248FFF70BFF8C
:101260000346002BF9D01F48FFF72BFFFB791946E7
:101270001C48FFF778FF00BF1A48FFF7C3FE03467C
:10128000002BF9D01748FFF741FF00BF1548FFF7C3
:10129000DFFE0346002BF9D0D1211248FFF763FF90
:1012A00000BF1048FFF7E7FE0346002BF9D00D48BA
:1012B000FFF707FF00210B48FFF715FF00BF0948A4
:1012C000FFF7B3FE0346002BF9D00648FFF73EFFB9
:1012D0000346FB730348FFF729FFFB7B18461037D3
:1012E000BD4680BD0054004090B583B000AF0446B9
:1012F000084611461A462346FB710346BB710B464E
:101300007B7113463B7197F82030554AA2FB0323AB
:10131000DB08DBB21B0158B297F82020504BA3FB2F
:101320000213D9080B469B000B445B00D31ADBB2B7
:101330005BB203435BB2DBB219460020FFF728FF24
:101340003B7F474AA2FB0323DB08DBB21B0158B2F9
:101350003A7F434BA3FB0213D9080B469B000B4477
:101360005B00D31ADBB25BB203435BB2DBB219465C
:101370000120FFF70DFF3B7E394AA2FB0323DB0868
:10138000DBB21B0158B23A7E354BA3FB0213D908DE
:101390000B469B000B445B00D31ADBB25BB20343EA
:1013A0005BB2DBB219460220FFF7F2FEFB79194669
:1013B0000320FFF7EDFEBB79294AA2FB0323DB08DC
:1013C000DBB21B0158B2BA79254BA3FB0213D90833
:1013D0000B469B000B445B00D31ADBB25BB20343AA
:1013E0005BB2DBB219460420FFF7D2FE7B791C4AC0
:1013F000A2FB0323DB08DBB21B0158B27A79184B3E
:10140000A3FB0213D9080B469B000B445B00D31AC5
:10141000DBB25BB203435BB2DBB219460520FFF7D8
:10142000B7FE3B790E4AA2FB0323DB08DBB21B01AC
:1014300058B23A790A4BA3FB0213D9080B469B001A
:101440000B445B00D31ADBB25BB203435BB2DBB28B
:1014500019460620FFF79CFE00BF0C37BD4690BD25
:10146000CDCCCCCC80B584B000AFF860B9607A60E8
:101470003B600020FFF7D4FE03461A463B6A1A7011
:101480000120FFF7CDFE03461A46FB691A700220C1
:10149000FFF7C6FE03461A46BB691A700320FFF722
:1014A000BFFE03461A46FB681A700420FFF7B8FE19
:1014B00003461A46BB681A700520FFF7B1FE0346C3
:1014C0001A467B681A700620FFF7AAFE03461A46E2
:1014D0003B681A703B6A1B781B09DBB21A46920004
:1014E00013445B00DAB23B6A1B7803F00F03DBB2F4
:1014F0001344DAB23B6A1A70FB691B781B09DBB232
:101500001A46920013445B00DAB2FB691B7803F0C1
:101510000F03DBB21344DAB2FB691A70BB691B78A4
:101520001B09DBB21A46920013445B00DAB2BB69B6
:101530001B7803F00F03DBB21344DAB2BB691A70F5
:10154000BB681B781B09DBB21A46920013445B0090
:10155000DAB2BB681B7803F00F03DBB21344DAB2D4
:10156000BB681A707B681B781B09DBB21A469200B5
:1015700013445B00DAB27B681B7803F00F03DBB225
:101580001344DAB27B681A703B681B781B09DBB224
:101590001A46920013445B00DAB23B681B7803F0F2
:1015A0000F03DBB21344DAB23B681A7000BF103786
:1015B000BD4680BD80B582B000AF1120FFF730FE80
:1015C0000346FB711220FFF72BFE0346BB71FB792C
:1015D0001B021AB2BB791BB21343BB80B7F90430AC
:1015E0001846FEF7AFFF4FF00002094BFFF73EF938
:1015F00002460B4610461946FFF706FB03463B60C2
:101600003B6807EE903AB0EE670A0837BD4680BDEA
:101610000000704080B483B000AF03463960FB71B6
:1016200097F90730002B0ADB3B68DAB20C4997F9CF
:1016300007301201D2B20B4483F800230AE03B6862
:10164000DAB20849FB7903F00F03043B1201D2B26E
:101650000B441A7600BF0C37BD465DF8047B70471B
:1016600000E100E000ED00E080B582B000AF7860FE
:101670007B68013BB3F1807F01D301230FE00A4A6D
:101680007B68013B53600F214FF0FF30FFF7C2FF33
:10169000054B00229A60044B07221A60002318466B
:1016A0000837BD4680BD00BF10E000E080B400AF49
:1016B000054B1B68044A43F00103136000BFBD469D
:1016C0005DF8047B704700BF10E000E080B500AF1C
:1016D000054B1B68054AA2FB03239B091846FFF72D
:1016E000C3FF00BF80BD00BFE0020020D34D6210E9
:1016F00080B483B000AF78607B681B6803F0200380
:10170000202B0CBF01230023DBB218460C37BD464B
:101710005DF8047B704780B483B000AF78607B686D
:101720001B6803F08003802B0CBF01230023DBB276
:1017300018460C37BD465DF8047B704780B489B00D
:1017400000AF78607B680C33FB60FB6853E8003FB8
:10175000BB60BB6843F02003FB617B680C33FA6914
:10176000BA617B617969BA6941E800233B613B69F1
:10177000002BE7D100BF00BF2437BD465DF8047BD6
:10178000704780B489B000AF78607B680C33FB6031
:10179000FB6853E8003FBB60BB6843F08003FB611C
:1017A0007B680C33FA69BA617B617969BA6941E88F
:1017B00000233B613B69002BE7D100BF00BF24370A
:1017C000BD465DF8047B704780B489B000AF786097
:1017D0007B681433FB60FB6853E8003FBB60BB6869
:1017E00043F00103FB617B681433FA69BA617B61E2
:1017F0007969BA6941E800233B613B69002BE7D175
:1018000000BF00BF2437BD465DF8047B704780B43D
:1018100089B000AF78607B680C33FB60FB6853E8ED
:10182000003FBB60BB6823F02003FB617B680C3387
:10183000FA69BA617B617969BA6941E800233B6161
:101840003B69002BE7D100BF00BF2437BD465DF8E0
:10185000047B704780B489B000AF78607B680C333C
:10186000FB60FB6853E8003FBB60BB6823F080036C
:10187000FB617B680C33FA69BA617B617969BA698B
:1018800041E800233B613B69002BE7D100BF00BF6B
:101890002437BD465DF8047B704780B483B000AF49
:1018A00078607B68DB6803F02003202B0CBF0123EA
:1018B0000023DBB218460C37BD465DF8047B704749
:1018C00080B483B000AF78607B68DB6803F080038E
:1018D000802B0CBF01230023DBB218460C37BD461A
:1018E0005DF8047B704780B483B000AF78607B689C
:1018F0005B68DBB218460C37BD465DF8047B704769
:1019000080B483B000AF78600B46FB70FA787B68D8
:101910005A6000BF0C37BD465DF8047B704700007D
:1019200080B500AF104B114A1A60114B114A1A6072
:10193000114B124A1A60124B124A1A60124B1B6862
:101940001846FFF741FF114B1B681846FFF73CFF95
:101950000D4B1B681846FFF7F1FE0C4B1B68184631
:10196000FFF7ECFE00BF80BDF8080020D80400207F
:10197000FC080020E005002000090020E806002007
:1019800004090020F00700200000002004000020CF
:1019900080B584B000AF03463960FB713B68D3F873
:1019A0000031591C184BA3FB0123DA0913461B0213
:1019B0009B1ACA1AFA603B68D3F80421FB689A4262
:1019C0001DD0124B1B681846FFF721FF104B1B68F8
:1019D0001846FFF71CFF3B68D3F800313A68F979E5
:1019E000D154FA683B68C3F80021084B1B681846BD
:1019F000FFF7A4FE064B1B681846FFF79FFE00BFCB
:101A00001037BD4680BD00BF81808080000000206F
:101A10000400002080B584B000AF78607B68264A5F
:101A2000934203D1254B1B68FB6002E0244B1B68EB
:101A3000FB60FB68D3F80021FB68D3F804319A42BD
:101A400002D14FF0FF3333E07B681B4A934205D14C
:101A50001C4B1B681846FFF7DAFE04E01A4B1B68A4
:101A60001846FFF7D4FEFB68D3F80431FA68D35C5C
:101A7000FB72FB68D3F80431591C144BA3FB012300
:101A8000DA0913461B029B1ACA1AFB68C3F8042121
:101A90007B68094A934205D10A4B1B681846FFF739
:101AA0004DFE04E0084B1B681846FFF747FEFB7A23
:101AB00018461037BD4680BD00500040F808002091
:101AC00000090020000000200400002081808080A8
:101AD00080B584B000AF786039607B682E4A93424D
:101AE00003D12E4B1B68FB6002E02D4B1B68FB6093
:101AF0003B68002B4BDBFB68D3F80031591C294BAA
:101B0000A3FB0123DA0913461B029B1ACA1ABA6007
:101B10007B68214A934205D1234B1B681846FFF787
:101B200076FE04E0214B1B681846FFF770FE00BFED
:101B3000FB68D3F80421BB689A42F9D0FB68D3F85C
:101B400000313A68D1B2FA68D154BA68FB68C3F878
:101B500000217B68104A934205D1134B1B6818463D
:101B6000FFF7ECFD04E0114B1B681846FFF7E6FD9C
:101B70007B68094A934205D10B4B1B681846FFF757
:101B800000FE04E0094B1B681846FFF7FAFD00BF92
:101B90001037BD4680BD00BF00500040FC0800204B
:101BA00004090020818080800000002004000020C3
:101BB00080B485B000AF78607B68124A934203D14D
:101BC000114B1B68FB6002E0104B1B68FB60FB685D
:101BD000D3F800319AB2FB68D3F804319BB2D31A20
:101BE0009BB2FF339AB20A4BA3FB0213D9090B46EF
:101BF0001B025B1AD31A9BB218461437BD465DF818
:101C0000047B704700500040F808002000090020C5
:101C10008180808080B582B000AF7860396007E055
:101C20003B685A1C3A601B7819467868FFF750FFEA
:101C30003B681B78002BF3D100BF00BF0837BD46BF
:101C400080BD000080B586B000AF78607B68304A08
:101C5000934206D12F4B1B687B612F4B1B683B6166
:101C600005E02E4B1B687B612D4B1B683B61786840
:101C7000FFF73EFD0346002B13D07868FFF70DFEFB
:101C80000346002B0DD07868FFF72DFE7868FFF72C
:101C90002AFE0346FB73FB7B79691846FFF778FE43
:101CA00032E07868FFF737FD0346002B2CD07868C8
:101CB000FFF706FE0346002B26D03B69D3F8002130
:101CC0003B69D3F804319A4203D17868FFF7C2FD2B
:101CD00019E03B69D3F804313A69D35CBB733B69C3
:101CE000D3F80431591C0F4BA3FB0123DA09134627
:101CF0001B029B1ACA1A3B69C3F80421BB7B194615
:101D00007868FFF7FDFD00BF1837BD4680BD00BFF6
:101D100000500040F8080020FC08002000090020C6
:101D2000040900208180808080B400AF054B002230
:101D30001A70054B00221A7000BFBD465DF8047B87
:101D4000704700BF080A0020090A002080B400AFD5
:101D5000034B01221A7000BFBD465DF8047B70473B
:101D6000080A002080B400AF034B00221A7000BFA5
:101D7000BD465DF8047B7047080A002080B582B03C
:101D800000AF78600B46FB70FF220021074806F089
:101D90003EF8FB781A467968044806F0B8F8044A19
:101DA000FB78137000BF0837BD4680BD08090020CE
:101DB000070A002080B500AF0249034804F05EF92D
:101DC00000BF80BD0C0000200800002080B582B05C
:101DD00000AF032004F03CF90346002B37D01E4B24
:101DE0001B78DBB2002B2DD01C4B1B78DBB2022BF7
:101DF0001BD800237B600AE0194A7B6813441B78D8
:101E000019461848FFF764FE7B6801337B60164B68
:101E10001B781A467B689342EEDB104B1B78DBB2D3
:101E20000133DAB20D4B1A700CE00C4B00221A7021
:101E3000FFF798FF0D490E48FFF7ECFE0D490C48DF
:101E4000FFF7E8FE4FF47A71032004F0EBF800BFCF
:101E50000837BD4680BD00BF080A0020090A0020DF
:101E60000809002000100140070A0020E0B4000823
:101E700000140140F4B4000880B483B000AF78606F
:101E800039607B683A689A6100BF0C37BD465DF8DF
:101E9000047B704780B5ADF5087D02AF07F506738A
:101EA000A3F50573186007F50673A3F506731960AB
:101EB00007F50673A3F505731B68022B01DC0323EA
:101EC0006CE007F50673A3F505731B68032B01DDB2
:101ED000022363E007F50673A3F506731B6804335A
:101EE0001B68184604F078FF034687F8173297F806
:101EF0001732042B01D9042350E007F50673A3F52C
:101F000006731B6808331B68184604F065FF034618
:101F1000A7F81432012387F81332B7F81432DBB272
:101F200087F81032B7F814321B0A9BB2DBB287F87D
:101F3000113297F8173287F8123207F5047197F8C3
:101F4000130207F5887301930123009305230322ED
:101F500004F054FA07F10F0207F1100107F5887336
:101F6000184604F0D1FA4FF400610F48FFF784FFE0
:101F70004FF480510C48FFF77FFF052004F0B0F9C3
:101F800007F50673A3F209231A7807F11003114627
:101F90001846FFF7F3FEFFF7D9FE0523184607F5AD
:101FA0000677BD4680BD00BF0000024080B5ADF59C
:101FB000087D02AF07F50673A3F50573186007F5F2
:101FC0000673A3F50673196007F50673A3F5057389
:101FD0001B68022B01DC03236AE007F50673A3F5F7
:101FE00005731B68032B01DD022361E007F506730F
:101FF000A3F506731B6804331B68184604F0ECFE57
:10200000034687F8173297F81732042B01D90423B7
:102010004EE007F50673A3F506731B6808331B68CB
:10202000184604F0D9FE034687F8163297F81632A0
:10203000012B01D904233BE0022387F8153297F8DE
:10204000163287F8103297F8173287F8113207F5F1
:10205000047197F8150207F5887301930123009323
:102060000523022204F0CAF907F10F0207F110015B
:1020700007F58873184604F047FA4FF400610F48DB
:10208000FFF7FAFE4FF480510C48FFF7F5FE0520EC
:1020900004F026F907F50673A3F209231A7807F16D
:1020A000100311461846FFF769FEFFF74FFE0523A0
:1020B000184607F50677BD4680BD00BF0000024008
:1020C00080B5ADF5067D02AF07F50473A3F5037384
:1020D000186007F50473A3F50473196007F504731A
:1020E000A3F503731B68012B01DC032353E007F501
:1020F0000473A3F503731B68022B01DD02234AE07E
:1021000007F50473A3F504731B6804331B681846B2
:1021100004F062FE034687F80F3297F80F32042B63
:1021200001D9042337E0032387F80E3297F80F32E2
:1021300087F80C3207F5037197F80E0207F58673DE
:102140000193012300930523012204F057F907F1BD
:102150000B0207F10C0107F58673184604F0D4F959
:102160004FF400610E48FFF787FE4FF480510C4892
:10217000FFF782FE052004F0B3F807F50473A3F21D
:1021800005231A7807F10C0311461846FFF7F6FDF0
:10219000FFF7DCFD0523184607F50477BD4680BD33
:1021A0000000024080B5ADF5067D02AF07F504736F
:1021B000A3F50373186007F50473A3F5047319609E
:1021C00007F50473A3F503731B68012B01DC0323DC
:1021D00053E007F50473A3F503731B68022B01DDBD
:1021E00002234AE007F50473A3F504731B68043364
:1021F0001B68184604F0F0FD034687F80F3297F885
:102200000F32042B01D9042337E0042387F80E3260
:1022100097F80F3287F80C3207F5037197F80E0222
:1022200007F586730193012300930523012204F02F
:10223000E5F807F10B0207F10C0107F58673184664
:1022400004F062F94FF400610E48FFF715FE4FF4F9
:1022500080510C48FFF710FE052004F041F807F507
:102260000473A3F205231A7807F10C0311461846EC
:10227000FFF784FDFFF76AFD0523184607F504778D
:10228000BD4680BD0000024080B5ADF5067D02AFC1
:1022900007F50473A3F50373186007F50473A3F53A
:1022A0000473196007F50473A3F503731B68012B0E
:1022B00001DC032353E007F50473A3F503731B68E4
:1022C000022B01DD02234AE007F50473A3F5047332
:1022D0001B6804331B68184604F07EFD034687F82C
:1022E0000F3297F80F32042B01D9042337E005236E
:1022F00087F80E3297F80F3287F80C3207F5037122
:1023000097F80E0207F586730193012300930523C6
:10231000012204F073F807F10B0207F10C0107F535
:102320008673184604F0F0F84FF400610E48FFF78A
:10233000A3FD4FF480510C48FFF79EFD052003F0EC
:10234000CFFF07F50473A3F205231A7807F10C03F6
:1023500011461846FFF712FDFFF7F8FC0523184653
:1023600007F50477BD4680BD0000024080B5ADF59D
:10237000067D02AF07F50473A3F50373186007F534
:102380000473A3F50473196007F50473A3F50373CD
:102390001B68012B01DC032353E007F50473A3F54D
:1023A00003731B68022B01DD02234AE007F5047367
:1023B000A3F504731B6804331B68184604F00CFD76
:1023C000034687F80F3297F80F32042B01D9042304
:1023D00037E0062387F80E3297F80F3287F80C3271
:1023E00007F5037197F80E0207F586730193012331
:1023F00000930523012204F001F807F10B0207F115
:102400000C0107F58673184604F07EF84FF400615E
:102410000E48FFF731FD4FF480510C48FFF72CFDBB
:10242000052003F05DFF07F50473A3F205231A7876
:1024300007F10C0311461846FFF7A0FCFFF786FCD6
:102440000523184607F50477BD4680BD000002400D
:1024500080B5ADF5067D02AF07F50473A3F50373F0
:10246000186007F50473A3F50473196007F5047386
:10247000A3F503731B68012B01DC032353E007F56D
:102480000473A3F503731B68022B01DD02234AE0EA
:1024900007F50473A3F504731B6804331B6818461F
:1024A00004F09AFC034687F80F3297F80F32042B9A
:1024B00001D9042337E0072387F80E3297F80F324B
:1024C00087F80C3207F5037197F80E0207F586734B
:1024D0000193012300930523012203F08FFF07F1ED
:1024E0000B0207F10C0107F58673184604F00CF88F
:1024F0004FF400610E48FFF7BFFC4FF480510C48C9
:10250000FFF7BAFC052003F0EBFE07F50473A3F216
:1025100005231A7807F10C0311461846FFF72EFC25
:10252000FFF714FC0523184607F50477BD4680BD68
:102530000000024080B5ADF5087D02AF07F50673D7
:10254000A3F50573186007F50673A3F50673196004
:1025500007F50673A3F505731B68032B01DC032342
:1025600083E007F50673A3F505731B68042B01DDF3
:1025700002237AE007F50673A3F506731B6804339C
:102580001B68184604F028FC034687F8173297F8B2
:102590001732042B01D9042367E007F50673A3F56E
:1025A00006731B6808331B68184604F015FC0346C5
:1025B00087F8163297F81632012B01D9042354E01C
:1025C00007F50673A3F506731B680C331B681846E2
:1025D00004F002FC0346A7F81432082387F81332EC
:1025E000B7F81432DBB287F80C32B7F814321B0A92
:1025F0009BB2DBB287F80D3297F8163287F80E32AD
:1026000097F8173287F80F3207F5037197F813021E
:1026100007F586730193012300930523042203F039
:10262000EDFE07F10B0207F10C0107F58673184662
:1026300003F06AFF4FF400610E48FFF71DFC4FF4F2
:1026400080510C48FFF718FC052003F049FE07F500
:102650000673A3F20D231A7807F10C0311461846EE
:10266000FFF78CFBFFF772FB0523184607F506778B
:10267000BD4680BD0000024080B5ADF5087D02AFCB
:1026800007F50673A3F50573186007F50673A3F540
:102690000673196007F50673A3F505731B68022B13
:1026A00001DC03236CE007F50673A3F505731B68D3
:1026B000032B01DD022363E007F50673A3F5067320
:1026C0001B6804331B68184604F086FB034687F832
:1026D000173297F81732042B01D9042350E007F57D
:1026E0000673A3F506731B6808331B68184604F0CD
:1026F00073FB0346A7F81432092387F81332B7F89F
:102700001432DBB287F81032B7F814321B0A9BB2CE
:10271000DBB287F8113297F8173287F8123207F5D3
:10272000047197F8130207F588730193012300934E
:102730000523032203F062FE07F10F0207F11001E7
:1027400007F58873184603F0DFFE4FF400610F4869
:10275000FFF792FB4FF480510C48FFF78DFB0520EB
:1027600003F0BEFD07F50673A3F209231A7807F1FB
:10277000100311461846FFF701FBFFF7E7FA0523A0
:10278000184607F50677BD4680BD00BF0000024031
:1027900080B5ADF5047D00AF07F50473A3F50373B1
:1027A000186007F50473A3F50473196007F5047343
:1027B000A3F503731B68002B01DC032337E007F547
:1027C0000473A3F503731B68012B01DD02232EE0C4
:1027D0000A2387F80F3207F5887397F80F02012252
:1027E000052103F0E3FD07F10F0207F1100107F5E2
:1027F0008873184603F088FE4FF400610E48FFF717
:102800003BFB4FF480510C48FFF736FB052003F0EB
:1028100067FD07F50473A3F201231A7807F110038B
:1028200011461846FFF7AAFAFFF790FA0523184653
:1028300007F50477BD4680BD0000024080B5ADF5C8
:10284000047D00AF07F50473A3F50373186007F563
:102850000473A3F50473196007F50473A3F50373F8
:102860001B68002B01DC032337E007F50473A3F595
:1028700003731B68012B01DD02232EE00B2387F875
:102880000F3207F5887397F80F020122052103F034
:102890008DFD07F10F0207F1100107F58873184647
:1028A00003F032FE4FF400610E48FFF7E5FA4FF4F3
:1028B00080510C48FFF7E0FA052003F011FD07F501
:1028C0000473A3F201231A7807F110031146184686
:1028D000FFF754FAFFF73AFA0523184607F504778D
:1028E000BD4680BD0000024080B5ADF5047D00AF5F
:1028F00007F50473A3F50373186007F50473A3F5D4
:102900000473196007F50473A3F503731B68002BA8
:1029100001DC032337E007F50473A3F503731B6899
:10292000012B01DD02232EE00C2387F80F3207F57F
:10293000887397F80F020122052103F037FD07F194
:102940000F0207F1100107F58873184603F0DCFD4C
:102950004FF400610E48FFF78FFA4FF480510C4896
:10296000FFF78AFA052003F0BBFC07F50473A3F216
:1029700001231A7807F1100311461846FFF7FEF9F4
:10298000FFF7E4F90523184607F50477BD4680BD37
:102990000000024080B5ADF5067D02AF07F5047377
:1029A000A3F50373186007F50473A3F504731960A6
:1029B00007F50473A3F503731B68012B01DC0323E4
:1029C00053E007F50473A3F503731B68022B01DDC5
:1029D00002234AE007F50473A3F504731B6804336C
:1029E0001B68184604F0F8F9034687F80F3297F889
:1029F0000F32022B01D9042337E00D2387F80E3262
:102A000097F80F3287F80C3207F5037197F80E022A
:102A100007F586730193012300930523012203F038
:102A2000EDFC07F10B0207F10C0107F58673184660
:102A300003F06AFD4FF400610E48FFF71DFA4FF4F2
:102A400080510C48FFF718FA052003F049FC07F500
:102A50000473A3F205231A7807F10C0311461846F4
:102A6000FFF78CF9FFF772F90523184607F504778D
:102A7000BD4680BD0000024080B5ADF5067D02AFC9
:102A800007F50473A3F50373186007F50473A3F542
:102A90000473196007F50473A3F503731B68012B16
:102AA00001DC032353E007F50473A3F503731B68EC
:102AB000022B01DD02234AE007F50473A3F504733A
:102AC0001B6804331B68184604F086F9034687F830
:102AD0000F3297F80F32642B01D9042337E00E230D
:102AE00087F80E3297F80F3287F80C3207F503712A
:102AF00097F80E0207F586730193012300930523CF
:102B0000012203F07BFC07F10B0207F10C0107F532
:102B10008673184603F0F8FC4FF400610E48FFF787
:102B2000ABF94FF480510C48FFF7A6F9052003F0EC
:102B3000D7FB07F50473A3F205231A7807F10C03FA
:102B400011461846FFF71AF9FFF700F90523184652
:102B500007F50477BD4680BD0000024080B5ADF5A5
:102B6000047D00AF07F50473A3F50373186007F540
:102B70000473A3F50473196007F50473A3F50373D5
:102B80001B68002B01DC032337E007F50473A3F572
:102B900003731B68012B01DD02232EE00F2387F84E
:102BA0000F3207F5887397F80F020122052103F011
:102BB000FDFB07F10F0207F1100107F588731846B6
:102BC00003F0A2FC4FF400610E48FFF755F94FF4F3
:102BD00080510C48FFF750F9052003F081FB07F501
:102BE0000473A3F201231A7807F110031146184663
:102BF000FFF7C4F8FFF7AAF80523184607F504778E
:102C0000BD4680BD0000024080B483B000AF786054
:102C100039603B681A047B689A6100BF0C37BD4677
:102C20005DF8047B7047000080B5ADF5087D02AF0C
:102C300007F50673A3F50573186007F50673A3F58A
:102C40000673196007F50673A3F505731B68022B5D
:102C500001DC03236AE007F50673A3F505731B681F
:102C6000032B01DD022361E007F50673A3F506736C
:102C70001B6804331B68184604F0AEF8034687F857
:102C8000173297F81732092B01D904234EE007F5C4
:102C90000673A3F506731B6808331B68184604F017
:102CA0009BF8034687F8163297F81632012B01D9A4
:102CB00004233BE0012387F8153297F8163287F892
:102CC000103297F8173287F8113207F5047197F828
:102CD000150207F588730193012300930323022251
:102CE00003F08CFB07F10F0207F1100107F5887361
:102CF000184603F009FC4FF400610F48FFF784FF0A
:102D00004FF480510C48FFF77FFF052003F0E8FAED
:102D100007F50673A3F209231A7807F11003114689
:102D20001846FFF72BF8FFF711F80523184607F5AB
:102D30000677BD4680BD00BF0000024080B5ADF5FE
:102D4000087D02AF07F50673A3F50573186007F554
:102D50000673A3F50673196007F50673A3F50573EB
:102D60001B68022B01DC03236AE007F50673A3F559
:102D700005731B68032B01DD022361E007F5067371
:102D8000A3F506731B6804331B68184604F024F887
:102D9000034687F8173297F81732062B01D9042318
:102DA0004EE007F50673A3F506731B6808331B682E
:102DB000184604F011F8034687F8163297F81632D1
:102DC000012B01D904233BE0022387F8153297F841
:102DD000163287F8103297F8173287F8113207F554
:102DE000047197F8150207F5887301930123009386
:102DF0000323022203F002FB07F10F0207F1100187
:102E000007F58873184603F07FFB4FF400610F4805
:102E1000FFF7FAFE4FF480510C48FFF7F5FE05204E
:102E200003F05EFA07F50673A3F209231A7807F197
:102E3000100311461846FEF7A1FFFEF787FF052392
:102E4000184607F50677BD4680BD00BF000002406A
:102E500080B5ADF5067D02AF07F50473A3F50373E6
:102E6000186007F50473A3F50473196007F504737C
:102E7000A3F503731B68022B01DC032353E007F562
:102E80000473A3F503731B68032B01DD02234AE0DF
:102E900007F50473A3F504731B6804331B68184615
:102EA00003F09AFF034687F80F3297F80F32012B91
:102EB00001D9042337E0032387F80E3297F80F3245
:102EC00087F80C3207F5037197F80E0207F5867341
:102ED0000193012300930323012203F08FFA07F1EA
:102EE0000B0207F10C0107F58673184603F00CFB83
:102EF0004FF400610E48FFF787FE4FF480510C48F5
:102F0000FFF782FE052003F0EBF907F50473A3F247
:102F100005231A7807F10C0311461846FEF72EFF19
:102F2000FEF714FF0523184607F50477BD4680BD5C
:102F30000000024080B5ADF5067D02AF07F50473D1
:102F4000A3F50373186007F50473A3F50473196000
:102F500007F50473A3F503731B68022B01DC03233D
:102F600053E007F50473A3F503731B68032B01DD1E
:102F700002234AE007F50473A3F504731B680433C6
:102F80001B68184603F028FF034687F80F3297F8AE
:102F90000F32092B01D9042337E0042387F80E32BE
:102FA00097F80F3287F80C3207F5037197F80E0285
:102FB00007F586730193012300930323012203F095
:102FC0001DFA07F10B0207F10C0107F5867318468D
:102FD00003F09AFA4FF400610E48FFF715FE4FF424
:102FE00080510C48FFF710FE052003F079F907F532
:102FF0000473A3F205231A7807F10C03114618464F
:10300000FEF7BCFEFEF7A2FE0523184607F504777F
:10301000BD4680BD0000024080B5ADF5067D02AF23
:1030200007F50473A3F50373186007F50473A3F59C
:103030000473196007F50473A3F503731B68022B6F
:1030400001DC032353E007F50473A3F503731B6846
:10305000032B01DD02234AE007F50473A3F5047393
:103060001B6804331B68184603F0B6FE034687F856
:103070000F3297F80F32062B01D9042337E00523CE
:1030800087F80E3297F80F3287F80C3207F5037184
:1030900097F80E0207F5867301930123009303232B
:1030A000012203F0ABF907F10B0207F10C0107F560
:1030B0008673184603F028FA4FF400610E48FFF7B4
:1030C000A3FD4FF480510C48FFF79EFD052003F04F
:1030D00007F907F50473A3F205231A7807F10C0327
:1030E00011461846FEF74AFEFEF730FE0523184645
:1030F00007F50477BD4680BD0000024080B483B070
:1031000000AF786039607B683A689A6100BF0C371D
:10311000BD465DF8047B704780B483B000AF786033
:1031200039603B681A047B689A6100BF0C37BD4662
:103130005DF8047B7047000080B5ADF5047D00AFFD
:1031400007F50473A3F50373186007F50473A3F57B
:103150000473196007F50473A3F503731B68002B50
:1031600001DC032337E007F50473A3F503731B6841
:10317000012B01DD02232EE0012387F80F3207F532
:10318000887397F80F020122022103F00FF907F16B
:103190000F0207F1100107F58873184603F0B4F920
:1031A0004FF400610E48FFF7B7FF4FF480510C4811
:1031B000FFF7A4FF052003F093F807F50473A3F2CB
:1031C00001231A7807F1100311461846FEF7D6FDC1
:1031D000FEF7BCFD0523184607F50477BD4680BD04
:1031E0000000024080B5ADF5047D00AF07F5047323
:1031F000A3F50373186007F50473A3F5047319604E
:1032000007F50473A3F503731B68002B01DC03238C
:1032100037E007F50473A3F503731B68012B01DD89
:1032200002232EE0022387F80F3207F5887397F800
:103230000F020122022103F0B9F807F10F0207F192
:10324000100107F58873184603F05EF94FF400612A
:103250000E48FFF761FF4FF480510C48FFF74EFF17
:10326000052003F03DF807F50473A3F201231A7853
:1032700007F1100311461846FEF780FDFEF766FDC4
:103280000523184607F50477BD4680BD00000240BF
:1032900080B5ADF5047D00AF07F50473A3F50373A6
:1032A000186007F50473A3F50473196007F5047338
:1032B000A3F503731B68002B01DC032337E007F53C
:1032C0000473A3F503731B68012B01DD02232EE0B9
:1032D000032387F80F3207F5887397F80F0201224E
:1032E000022103F063F807F10F0207F1100107F55F
:1032F0008873184603F008F94FF400610E48FFF791
:103300000BFF4FF480510C48FFF7F8FE052002F048
:10331000E7FF07F50473A3F201231A7807F11003FE
:1033200011461846FEF72AFDFEF710FD0523184644
:1033300007F50477BD4680BD0000024080B5ADF5BD
:10334000047D00AF07F50473A3F50373186007F558
:103350000473A3F50473196007F50473A3F50373ED
:103360001B68002B01DC032337E007F50473A3F58A
:1033700003731B68012B01DD02232EE0042387F871
:103380000F3207F5887397F80F020122022103F02C
:103390000DF807F10F0207F1100107F588731846C1
:1033A00003F0B2F84FF400610E48FFF7B5FE4FF49A
:1033B00080510C48FFF7A2FE052002F091FF07F5AF
:1033C0000473A3F201231A7807F11003114618467B
:1033D000FEF7D4FCFEF7BAFC0523184607F5047780
:1033E000BD4680BD0000024080B586B000AF786069
:1033F0000123FB7300233B617B687B611FE07B69DA
:103400001B78202B05D17B6900221A700123FB73E6
:1034100012E0FB7B002B0FD03B69072B0AD81D491C
:103420003B697A6941F823203B6901333B61002302
:10343000FB7301E0022328E07B6901337B617B6938
:103440001B78002BDBD13B69002B1DD0124BBB60DE
:1034500016E0104B1A68BB681B6819461046FCF74B
:10346000B7FE0346002B08D1BB685B683A6909497F
:10347000104698470346DBB207E0BB680C33BB60DD
:10348000BB681B68002BE4D1012318461837BD46E2
:1034900080BD00BF0C0A00203000002080B400AFC7
:1034A000BFF34F8F00BF064BDB6803F4E0620449B3
:1034B000044B1343CB60BFF34F8F00BF00BFFDE74A
:1034C00000ED00E00400FA0580B483B000AF78603E
:1034D00039607B683A689A6100BF0C37BD465DF879
:1034E000047B704780B483B000AF786039603B687C
:1034F0001A047B689A6100BF0C37BD465DF8047BF7
:103500007047000080B582B000AFFEF709FA802254
:103510000021244804F07BFC234B00221A7023492D
:103520002348FEF777FB21492148FEF773FB214929
:103530001F48FEF76FFB1D491D48FEF76BFB00F0AF
:103540006FFC1D491A48FEF765FB1C491848FEF739
:1035500061FB1B4B7B6016E07B681B6819461448B7
:10356000FEF758FB7B689B6819461148FEF752FB33
:103570000E490F48FEF74EFB7B68124A934207D074
:103580007B680C337B607B681B68002BE4D100E018
:1035900000BF0D490648FEF73DFB00BF0837BD469A
:1035A00080BD00BF300A0020B00A0020CCC4000853
:1035B00000140140D0C40008ECC4000810C5000885
:1035C000300000209000002030C5000880B582B097
:1035D00000AF62E03648FEF71DFA0346FB71FB7947
:1035E00019463348FEF774FAFB790D2B02D0FB79AC
:1035F0000A2B2ED12F4B1B78002B25D02D4B1B785F
:103600001A462D4B002199542A4B1B780133DAB20C
:10361000284B1A702848FFF7E7FE0346BB71254B7D
:1036200000221A7025492248FEF7F4FA97F906306D
:10363000234A52F8233019461D48FEF7EBFA214978
:103640001B48FEF7E7FA28E01C491948FEF7E2FAA2
:1036500023E0FB79082B02D0FB797F2B0AD1154B95
:103660001B78002B19D0134B1B78013BDAB2114B9E
:103670001A7012E00F4B1B7819460F4AFB7953540E
:103680000C4B1B780133DAB20A4B1A70094B1B78CA
:10369000802B02D9074B00221A700548FEF788FAE2
:1036A0000346002B96D100BF00BF0837BD4680BD42
:1036B00000140140B00A0020300A002030C5000884
:1036C0001800002038C5000880B584B000AF7860CD
:1036D000396016491648FEF79DFA16491448FEF758
:1036E00099FA154BFB6016E0FB681B6819461048F9
:1036F000FEF790FAFB689B6819460D48FEF78AFAB8
:103700000E490B48FEF786FAFB680D4A934207D034
:10371000FB680C33FB60FB681B68002BE4D100E006
:1037200000BF002318461037BD4680BD3CC50008C9
:103730000014014050C5000830000020CCC400082F
:103740009000002080B584B000AF786039602B49CC
:103750002B48FEF75FFA2B492948FEF75BFA2A4B04
:10376000FB603EE0FB681B6819462548FEF752FAED
:10377000FB689B6819462248FEF74CFA234920480B
:10378000FEF748FAFB68224A934204D121491C48BB
:10379000FEF740FA22E0FB681F4A934204D11F491A
:1037A0001748FEF737FA19E0FB681D4A934204D127
:1037B0001C491348FEF72EFA10E0FB681A4A9342A0
:1037C00004D11A490E48FEF725FA07E0FB68184AAB
:1037D000934203D117490A48FEF71CFAFB680C33E1
:1037E000FB60FB681B68002BBCD113490448FEF743
:1037F00011FA002318461037BD4680BD68C5000881
:103800000014014050C5000830000020CCC400085E
:103810009000002080C5000850010020A8C50008C5
:1038200080010020D0C50008BC010020F8C50008B8
:10383000C801002020C6000848C6000880B584B032
:1038400000AF7860396014491448FEF7E3F9144B6F
:10385000FB6016E0FB681B6819461048FEF7DAF9B2
:10386000FB689B6819460D48FEF7D4F90D490B48D3
:10387000FEF7D0F9FB680C4A934207D0FB680C3383
:10388000FB60FB681B68002BE4D100E000BF002355
:1038900018461037BD4680BD68C6000800140140B8
:1038A0009C000020CCC400085001002080B584B0EA
:1038B00000AF7860396014491448FEF7ABF9144B37
:1038C000FB6016E0FB681B6819461048FEF7A2F97A
:1038D000FB689B6819460D48FEF79CF90D490B489B
:1038E000FEF798F9FB680C4A934207D0FB680C334B
:1038F000FB60FB681B68002BE4D100E000BF0023E5
:1039000018461037BD4680BD90C60008001401401F
:103910005C010020CCC400088001002080B584B088
:1039200000AF7860396014491448FEF773F9144BFE
:10393000FB6016E0FB681B6819461048FEF76AF941
:10394000FB689B6819460D48FEF764F90D490B4862
:10395000FEF760F9FB680C4A934207D0FB680C3312
:10396000FB60FB681B68002BE4D100E000BF002374
:1039700018461037BD4680BDB4C60008001401408B
:103980008C010020CCC40008BC01002080B584B0AC
:1039900000AF7860396014491448FEF73BF9144BC6
:1039A000FB6016E0FB681B6819461048FEF732F909
:1039B000FB689B6819460D48FEF72CF90D490B482A
:1039C000FEF728F9FB680A4A934207D0FB680C33DC
:1039D000FB60FB681B68002BE4D100E000BF002304
:1039E00018461037BD4680BDD8C6000800140140F7
:1039F000C8010020CCC4000880B584B000AF786056
:103A0000396014491448FEF705F9144BFB6016E0C1
:103A1000FB681B6819461048FEF7FCF8FB689B68BA
:103A200019460D48FEF7F6F80D490B48FEF7F2F877
:103A3000FB680C4A934207D0FB680C33FB60FB68C1
:103A40001B68002BE4D100E000BF002318461037AC
:103A5000BD4680BDFCC6000800140140D401002012
:103A6000CCC400084401002080B582B000AF78606B
:103A7000396004490448FEF7CDF80023184608379A
:103A8000BD4680BD20C700080014014080B582B04B
:103A900000AF7860396000F0C3F90023184608379A
:103AA000BD4680BDF0B5A3B004AF7860396007F1C2
:103AB000700407F1710207F1720107F1730007F159
:103AC0006D03029307F16E03019307F16F030093F7
:103AD0002346FDF7C7FCFDF76DFD87ED1D0A97F83E
:103AE0006F301D4697F86E301E4697F86D301A46B7
:103AF00097F87230194697F871301C4697F8703075
:103B000003F5FA6307F10800039302940191009210
:103B100033462A46264904F017F907F108031946E7
:103B20002448FEF777F8786FFCF71EFD02460B4637
:103B300007F10800204904F007F907F108031946C6
:103B40001C48FEF767F807F108031C49184604F003
:103B5000FBF807F1080319461648FEF75BF807F172
:103B600008031749184604F0EFF807F1080319464F
:103B70001048FEF74FF807F108031249184604F001
:103B8000E3F807F1080319460A48FEF743F807F17E
:103B900008030D49184604F0D7F807F10803194641
:103BA0000448FEF737F8002318467C37BD46F0BDC1
:103BB00048C700080014014068C7000880C7000813
:103BC000A4C70008C8C70008D8C70008F0B5A3B04C
:103BD00004AF7860396007F1740407F1750207F1EA
:103BE000760107F1770007F17103029307F1720381
:103BF000019307F1730300932346FDF733FC97F815
:103C000073301D4697F872301E4697F871301A4689
:103C100097F87630194697F875301C4697F8743047
:103C200003F5FA6307F10C000393029401910092EB
:103C300033462A46064904F087F807F10C03194673
:103C40000448FDF7E7FF002318467C37BD46F0BD6A
:103C500048C7000800140140F0B5A3B004AF786075
:103C600039607B68062B01DC032388E07B68072B27
:103C700001DD022383E03B6804331B68184603F030
:103C8000ABF8034687F877303B6808331B68184663
:103C900003F0A2F8034687F876303B680C331B68C4
:103CA000184603F099F8034687F875303B681033DF
:103CB0001B68184603F090F8034687F874303B6899
:103CC00014331B68184603F087F8034687F87330EF
:103CD0003B6818331B68184603F07EF8034687F8E4
:103CE000723097F87730172B13D897F876303B2B34
:103CF0000FD897F875303B2B0BD897F874301F2BE3
:103D000007D897F873300C2B03D897F87230632BD1
:103D100001D9042333E097F8720097F8732097F8DD
:103D2000741097F87530029397F87630019397F8EE
:103D30007730009303460120FDF7D6FA97F87750C5
:103D400097F8766097F8753097F8742097F87310A5
:103D500097F8720000F5FA6007F10C0403900291E5
:103D60000192009333462A460749204603F0ECFFB0
:103D700007F10C0319460548FDF74CFF00231846D0
:103D80007C37BD46F0BD00BFE8C700080014014005
:103D900080B582B000AF78603960FFF77FFB00002C
:103DA00080B582B000AF786039604FF4805106482A
:103DB000FFF798FB05490648FDF72CFF002318463E
:103DC0000837BD4680BD00BF0004024018C8000887
:103DD0000014014080B582B000AF786039604FF4C4
:103DE00080510648FFF770FB05490648FDF712FFB2
:103DF000002318460837BD4680BD00BF00040240BE
:103E00002CC800080014014080B500AF02490348E7
:103E100002F034F900BF80BD980200209402002017
:103E200080B500AF34493548FDF7F4FE34493348D6
:103E3000FDF7F0FE33493148FDF7ECFE32492F48DB
:103E4000FDF7E8FE31492D48FDF7E4FE30492B48E7
:103E5000FDF7E0FE2F492948FDF7DCFE2E492748F3
:103E6000FDF7D8FE2D492548FDF7D4FE2C492348FF
:103E7000FDF7D0FE2B492148FDF7CCFE2A491F480B
:103E8000FDF7C8FE29491D48FDF7C4FE1C491B4823
:103E9000FDF7C0FE26491948FDF7BCFE2549174825
:103EA000FDF7B8FE24491548FDF7B4FE2349134831
:103EB000FDF7B0FE22491148FDF7ACFE21490F483D
:103EC000FDF7A8FE20490D48FDF7A4FE1F490B4849
:103ED000FDF7A0FE1E490948FDF79CFE1D49074855
:103EE000FDF798FE06490548FDF794FE1A49034878
:103EF000FDF790FE00BF80BDCCC400080014014057
:103F00003CC8000870C80008A4C80008D8C8000849
:103F100010C9000844C900087CC90008B0C90008DD
:103F2000E4C9000818CA00084CCA000880CA000882
:103F3000B4CA0008E8CA00081CCB000850CB00082F
:103F400084CB0008B8CB0008ECCB000820CC0008DC
:103F500058CC00088CCC000838C5000880B500AFEC
:103F6000FDF7DEFC012002F00BFA024B024A1A6058
:103F700000BF80BDB40B0020B90A002080B5D0B0CE
:103F800000AF4FE02D48FDF745FD034687F83F3170
:103F90002B4B1B78DBB2002B0AD197F83F31CA2B91
:103FA00040D1274B01221A70264B00221A7039E0AB
:103FB00097F83F31EF2B21D1214B00221A70214B72
:103FC0001B78DBB207F1380219461F4802F0A0FC4B
:103FD000C7F83801D7F83831002B1BDD1B4AD7F85A
:103FE000383152F823203B1D1949184603F0ACFE26
:103FF0003B1D19461748FDF70DFE0BE0114B1B78D2
:10400000DBB25A1CD1B20F4A117019460E4A97F80A
:104010003F3153540B4B1B78DBB2FF2B02D1084BC3
:1040200000221A700548FDF7C3FD0346002BA9D1F5
:1040300000BF00BF07F5A077BD4680BD001001405E
:10404000B80B0020BB0C0020BC0B0020A4020020F9
:104050004CCD00080014014080B500AFFFF77EFF93
:104060000249034802F00AF800BF80BDC4020020E4
:10407000C002002080B483B000AF786039607B68F4
:104080003A689A6100BF0C37BD465DF8047B704703
:1040900080B483B000AF786039603B681A047B68F5
:1040A0009A6100BF0C37BD465DF8047B7047000085
:1040B00080B500AF064A13786FF300031370044A0B
:1040C00013786FF34703137000F004F800BF80BD4E
:1040D000BC0C002080B500AF20210248FFF7D8FFBC
:1040E00000BF80BD0008024080B500AF202102481B
:1040F000FFF7C0FF00BF80BD0008024080B500AFE1
:104100000D4B1B78C3F34603DBB2032B11D801A27E
:1041100052F823F0254100082B41000831410008E6
:104120003141000800F00AF803E000F041F800E037
:1041300000BF00BF80BD00BFBC0C002080B500AF39
:104140001A4B1B7803F00103DBB2002B12D00020C6
:1041500001F07EFF0346002B25D0144A13786FF33D
:1041600000031370FFF7B6FF4FF47A71002001F0DF
:1041700059FF18E00D4B1B7803F00103DBB2002B55
:1041800011D1002001F064FF0346002B0BD0074A39
:10419000137843F001031370FFF7A6FF4FF47A7111
:1041A000002001F03FFF00BF80BD00BFBC0C00201D
:1041B00080B400AF00BFBD465DF8047B70470000CF
:1041C00080B500AF0249034801F058FF00BF80BD31
:1041D000D4020020D002002080B485B000AF786007
:1041E0007B6803F00703FB600C4BDB68BB60BA68BD
:1041F0004FF6FF031340BB60FB681A02BB68134312
:1042000043F0BF6343F40033BB60044ABB68D36030
:1042100000BF1437BD465DF8047B704700ED00E039
:1042200080B400AF044BDB681B0A03F00703184699
:10423000BD465DF8047B704700ED00E080B483B0BC
:1042400000AF0346FB7197F90730002B0BDBFB79BE
:1042500003F01F02074997F907305B09012000FAB4
:1042600002F241F8232000BF0C37BD465DF8047B05
:10427000704700BF00E100E080B483B000AF0346A8
:104280003960FB7197F90730002B0ADB3B68DAB223
:104290000C4997F907301201D2B20B4483F800237E
:1042A0000AE03B68DAB20849FB7903F00F03043BEC
:1042B0001201D2B20B441A7600BF0C37BD465DF82E
:1042C000047B704700E100E000ED00E080B489B0BD
:1042D00000AFF860B9607A60FB6803F00703FB6128
:1042E000FB69C3F10703042B28BF0423BB61FB69EF
:1042F0000433062B02D9FB69033B00E000237B61FA
:104300004FF0FF32BB6902FA03F3DA43BB681A408D
:104310007B699A404FF0FF317B6901FA03F3D9437F
:104320007B680B40134318462437BD465DF8047B79
:10433000704780B483B000AF78607B681B6823F05F
:1043400080027B681A6000BF0C37BD465DF8047BB5
:10435000704780B483B000AF78607B681B6823F03F
:1043600040027B681A6000BF0C37BD465DF8047BD5
:10437000704780B483B000AF786039607B68DB68D9
:1043800023F0FE023B681A437B68DA6000BF0C37FB
:10439000BD465DF8047B704780B483B000AF7860A1
:1043A0007B68DB6823F001027B68DA6000BF0C37B2
:1043B000BD465DF8047B704780B400AF054B1B68B9
:1043C000044A43F48033136000BFBD465DF8047BAC
:1043D000704700BF0038024080B400AF074B1B6835
:1043E00003F40033B3F5003F0CBF01230023DBB21D
:1043F0001846BD465DF8047B704700BF0038024098
:1044000080B483B000AF7860064B9B6823F0030252
:1044100004497B6813438B6000BF0C37BD465DF8D1
:10442000047B70470038024080B400AF044B9B68A7
:1044300003F00C031846BD465DF8047B704700BFCF
:104440000038024080B483B000AF7860064B9B68B0
:1044500023F0F00204497B6813438B6000BF0C37E4
:10446000BD465DF8047B70470038024080B483B0DD
:1044700000AF7860064B9B6823F4E05204497B68E8
:1044800013438B6000BF0C37BD465DF8047B70475B
:104490000038024080B483B000AF7860064B9B6860
:1044A00023F4604204497B6813438B6000BF0C37E0
:1044B000BD465DF8047B70470038024080B485B08B
:1044C00000AF7860084B1A6B07497B6813430B6396
:1044D000054B1A6B7B681340FB60FB6800BF143709
:1044E000BD465DF8047B70470038024080B485B05B
:1044F00000AF7860084B1A6C07497B6813430B6464
:10450000054B1A6C7B681340FB60FB6800BF1437D7
:10451000BD465DF8047B70470038024080B485B02A
:1045200000AF7860084B5A6C07497B6813434B64B3
:10453000054B5A6C7B681340FB60FB6800BF143767
:10454000BD465DF8047B70470038024080B483B0FC
:1045500000AF7860064B1B6823F0070204497B68B4
:1045600013430B6000BF0C37BD465DF8047B7047FA
:10457000003C024080B400AF044B1B6803F007030B
:104580001846BD465DF8047B704700BF003C024002
:1045900080B483B000AF7860064B1B6823F4804280
:1045A00004497B6813430B6000BF0C37BD465DF8C0
:1045B000047B70470070004080B483B000AF786027
:1045C0007B68DB6843F400527B68DA6000BF0C371D
:1045D000BD465DF8047B704780B483B000AF78605F
:1045E0007B681B6923F490427B681A617B685B6976
:1045F00023F02A027B685A6100BF0C37BD465DF884
:10460000047B704780B483B000AF786039603B684A
:104610001A047B689A6100BF0C37BD465DF8047BC5
:104620007047000080B500AF4FF48040FFF776FF81
:104630004FF08050FFF75AFF0320FFF7CDFDFFF743
:10464000EFFD034600220F211846FFF73FFE034609
:1046500019464FF0FF30FFF70FFE00F033F800F07F
:1046600029FB00F063F800F0C5FA00F089F900F0CA
:10467000FFF900F023F900F05BFA00F0AFF8FEF765
:1046800041FF012001F07CFE4FF480710C48FFF7E0
:10469000B9FFFFF70DFD00F005FD01F099FCFFF7F4
:1046A0008FFDFDF741FBFDF785FBFFF7ADFBFFF746
:1046B000D3FC00F003FD01F0B3FD01F0B7FDFCE712
:1046C0000008024080B500AF0020FFF73FFF00BFA9
:1046D000FFF750FF0346002BFAD14FF48040FFF75D
:1046E00057FFFFF769FE00BFFFF776FE0346012B79
:1046F000FAD10020FFF7A6FE0020FFF7B7FE00204A
:10470000FFF7C8FE0120FFF77BFE00BFFFF78CFE1E
:104710000346042BFAD1044801F03CFC024801F0A6
:1047200047FC00BF80BD00BF00127A0080B58CB08E
:1047300000AF07F1180300221A605A609A60DA602D
:104740001A615A613B4600221A605A609A60DA6028
:104750001A615A610220FFF7B1FEC0233B600223B9
:104760007B600323BB600123FB6000233B610423C8
:104770007B613B461946164800F027FE4FF40010B7
:10478000FFF7B4FE1348FFF707FE1248FFF7E1FDFD
:104790001048FFF7CEFD0023BB610F4BFB610023E8
:1047A0003B6200237B624FF48063BB624FF4804323
:1047B000FB6207F118031946064800F07DFF00214F
:1047C0000448FFF7D6FD00BF3037BD4680BD00BFAF
:1047D0000004024000540040A086010080B58CB067
:1047E00000AF07F1180300221A605A609A60DA607D
:1047F0001A615A613B4600221A605A609A60DA6078
:104800001A615A610420FFF759FE0120FFF756FE96
:104810004FF400733B6002237B600323BB600123E2
:10482000FB6000233B6104237B613B4619461F4824
:1048300000F0CBFD4FF480733B6002237B600323C9
:10484000BB600123FB6000233B6104237B613B468B
:104850001946174800F0B9FD4FF40000FFF746FE77
:104860001448FFF799FD1348FFF773FD1148FFF750
:1048700060FD0023BB61104BFB6100233B62002302
:104880007B624FF48063BB624FF48043FB6207F1AD
:1048900018031946074800F00FFF00210548FFF7ED
:1048A00068FD00BF3037BD4680BD00BF0008024034
:1048B00000000240005C0040A086010080B58EB080
:1048C00000AF07F11C0300221A605A609A60DA6098
:1048D0001A615A619A613B1D00221A605A609A60FF
:1048E000DA601A615A614FF40020FFF7FFFD0420DF
:1048F000FFF7E4FD4FF440637B600223BB600323BA
:10490000FB6000233B6100237B610823BB613B1DEF
:104910001946194800F059FDFFF782FC03460022B2
:1049200000211846FFF7D2FC034619463420FFF752
:10493000A3FC3420FFF782FC4FF41653FB610023E5
:104940003B6200237B620023BB620C23FB620023DB
:104950003B6300237B6307F11C031946074801F002
:104960007FFA0648FFF738FE0448FFF725FE00BF30
:104970003837BD4680BD00BF00080240004C0040F3
:1049800080B58EB000AF07F11C0300221A605A6098
:104990009A60DA601A615A619A613B1D00221A60BE
:1049A0005A609A60DA601A615A614FF48010FFF71A
:1049B0009DFD0420FFF782FD0820FFF77FFD4FF4E7
:1049C00080537B600223BB600323FB6000233B61B9
:1049D00000237B610823BB613B1D1946214800F081
:1049E000F4FC04237B600223BB600323FB600023F1
:1049F0003B6100237B610823BB613B1D19461A48BC
:104A000000F0E3FCFFF70CFC0346002200211846EF
:104A1000FFF75CFC034619463520FFF72DFC3520D7
:104A2000FFF70CFC4FF4E123FB6100233B62002302
:104A30007B620023BB620C23FB6200233B630023E9
:104A40007B6307F11C031946084801F009FA07487F
:104A5000FFF7C2FD0548FFF7AFFD00BF3837BD4681
:104A600080BD00BF00080240000C02400050004022
:104A700080B58EB000AF07F11C0300221A605A60A7
:104A80009A60DA601A615A619A613B1D00221A60CD
:104A90005A609A60DA601A615A611020FFF73EFD91
:104AA0000120FFF70BFD4FF4C0637B600223BB6066
:104AB0000323FB6000233B6100237B610723BB6171
:104AC0003B1D1946184800F080FCFFF7A9FB034680
:104AD000002200211846FFF7F9FB0346194625205E
:104AE000FFF7CAFB2520FFF7A9FB4FF41653FB6124
:104AF00000233B6200237B620023BB620C23FB622A
:104B000000233B6300237B6307F11C03194607481E
:104B100001F0A6F90548FFF75FFD0448FFF74CFDDB
:104B200000BF3837BD4680BD000002400010014084
:104B300080B58EB000AF07F11C0300221A605A60E6
:104B40009A60DA601A615A619A613B1D00221A600C
:104B50005A609A60DA601A615A614FF48020FFF758
:104B6000C5FC0220FFF7AAFC4FF440637B600223E0
:104B7000BB600323FB6000233B6100237B610723B1
:104B8000BB613B1D1946194800F01FFCFFF748FBAD
:104B90000346002200211846FFF798FB03461946FA
:104BA0002720FFF769FB2720FFF748FB4FF4165338
:104BB000FB6100233B6200237B620023BB620C236A
:104BC000FB6200233B6300237B6307F11C03194650
:104BD000074801F045F90648FFF7FEFC0448FFF7D7
:104BE000EBFC00BF3837BD4680BD00BF000402406B
:104BF0000048004080B58EB000AF07F11C030022D2
:104C00001A605A609A60DA601A615A619A613B1DB3
:104C100000221A605A609A60DA601A615A61202094
:104C2000FFF77CFC0420FFF749FCC0237B600223D4
:104C3000BB600323FB6000233B6100237B610823EF
:104C4000BB613B1D1946194800F0BFFBFFF7E8FAAE
:104C50000346002200211846FFF738FB0346194699
:104C60004720FFF709FB4720FFF7E8FA4FF41653F8
:104C7000FB6100233B6200237B620023BB620C23A9
:104C8000FB6200233B6300237B6307F11C0319468F
:104C9000074801F0E5F80648FFF79EFC0448FFF7D7
:104CA0008BFC00BF3837BD4680BD00BF0008024006
:104CB0000014014080B586B000AF3B4600221A6068
:104CC0005A609A60DA601A615A610420FFF7F6FBB5
:104CD0008020FFF7F3FB0120FFF7F0FB0220FFF736
:104CE000EDFB0820FFF7EAFB41F602012648FFF73B
:104CF00089FC4FF490712548FFF784FC4FF48051F4
:104D00002348FFF77FFC4EF20C033B6000237B60DF
:104D100000233B613B4619461C4800F056FB41F618
:104D200002033B6001237B600023BB600023FB6028
:104D300000233B613B461946134800F046FB4FF405
:104D400090733B6001237B600023BB600023FB600A
:104D500000233B613B4619460C4800F036FB4FF4FC
:104D600080533B6001237B600023BB600023FB601A
:104D700000233B613B461946054800F026FB00BF77
:104D80001837BD4680BD00BF000002400008024049
:104D90000004024080B400AF00BFFDE780B400AF64
:104DA00000BFFDE780B400AF00BFFDE780B400AFF7
:104DB00000BFFDE780B400AF00BFFDE780B400AFE7
:104DC00000BFBD465DF8047B704780B400AF00BFF4
:104DD000BD465DF8047B704780B400AF00BFBD46A0
:104DE0005DF8047B7047000080B500AF044B1B6882
:104DF0000133034A136001F07FF900BF80BD00BF9B
:104E0000C00C002080B500AF0248FCF71BFF00BFBC
:104E100080BD00BF0010014080B500AF0248FCF724
:104E200011FF00BF80BD00BF0048004080B500AF4B
:104E30000248FCF707FF00BF80BD00BF004C0040E8
:104E400080B500AF0248FCF7FDFE00BF80BD00BF8B
:104E50000050004080B500AF0248FCF7F3FE00BFF1
:104E600080BD00BF0014014080B400AF012318468C
:104E7000BD465DF8047B704780B582B000AF7860B6
:104E8000396003F017F8034616221A604FF0FF331B
:104E900018460837BD4680BD80B582B000AF786047
:104EA0004FF0FF317868FFF7E7FF00BFFDE780B5FF
:104EB00086B000AFF860B9607A6000237B610AE0D9
:104EC000AFF300800146BB685A1CBA60CAB21A70C0
:104ED0007B6901337B617A697B689A42F0DB7B688E
:104EE00018461837BD4680BD80B586B000AFF86063
:104EF000B9607A6000237B6109E0BB685A1CBA6024
:104F00001B781846AFF300807B6901337B617A69B7
:104F10007B689A42F1DB7B6818461837BD4680BD36
:104F200080B483B000AF78604FF0FF3318460C3781
:104F3000BD465DF8047B704780B483B000AF7860F5
:104F400039603B684FF400525A60002318460C3712
:104F5000BD465DF8047B704780B483B000AF7860D5
:104F6000012318460C37BD465DF8047B704780B4BA
:104F700085B000AFF860B9607A6000231846143736
:104F8000BD465DF8047B704780B586B000AF7860A1
:104F9000144A154BD31A7B617B693B61134B1B6829
:104FA000002B02D1114B124A1A60104B1A687B6811
:104FB00013443A699A4207D202F07CFF03460C225E
:104FC0001A604FF0FF3309E0084B1B68FB60074B8A
:104FD0001A687B681344054A1360FB681846183743
:104FE000BD4680BD0000022000040000C40C00206B
:104FF000380F002080B400AF064BD3F88830054A44
:1050000043F47003C2F8883000BFBD465DF8047BEE
:10501000704700BF00ED00E0DFF834D0FFF7EAFF93
:105020000C480D490D4A002302E0D458C450043303
:10503000C4188C42F9D30A4A0A4C002301E01360D9
:105040000432A242FBD302F03BFFFFF7EBFA7047BA
:105050000000022000000020BC04002010D2000844
:10506000BC040020340F0020FEE780B483B000AF02
:10507000786039607B683A689A6100BF0C37BD463A
:105080005DF8047B704780B483B000AF786039600E
:105090003B681A047B689A6100BF0C37BD465DF817
:1050A000047B704780B400AF034B00221A7000BF2E
:1050B000BD465DF8047B7047C80C002080B500AF8A
:1050C0000249034800F0DAFF00BF80BDE80200207B
:1050D000E402002080B500AF144B1B78002B12D0E7
:1050E000012000F0B5FF0346002B1DD00F4B00221E
:1050F0001A7002210E48FFF7C6FF4FF47A710120A3
:1051000000F090FF10E0012000F0A2FF0346002B0A
:105110000AD0064B01221A7002210548FFF7A5FFAD
:10512000C821012000F07EFF00BF80BDC80C002018
:105130000000024080B48BB000AFF860B9607A60C4
:10514000FB681A68BB687B617B6993FAA3F33B61D8
:105150003B69BB61BB69002B01D1202303E0BB6924
:10516000B3FA83F3DBB25B00032101FA03F3DB4301
:105170001A40BB683B623B6A93FAA3F3FB61FB698D
:105180007B627B6A002B01D1202303E07B6AB3FAA8
:1051900083F3DBB25B00796801FA03F31A43FB681F
:1051A0001A6000BF2C37BD465DF8047B704780B4A1
:1051B00085B000AFF860B9607A60FB685A68BB6878
:1051C000DB431A40BB68796801FB03F31A43FB68B1
:1051D0005A6000BF1437BD465DF8047B704780B449
:1051E0008BB000AFF860B9607A60FB689A68BB6802
:1051F0007B617B6993FAA3F33B613B69BB61BB694C
:10520000002B01D1202303E0BB69B3FA83F3DBB2A7
:105210005B00032101FA03F3DB431A40BB683B62E6
:105220003B6A93FAA3F3FB61FB697B627B6A002B09
:1052300001D1202303E07B6AB3FA83F3DBB25B0086
:10524000796801FA03F31A43FB689A6000BF2C37B0
:10525000BD465DF8047B704780B48BB000AFF8604A
:10526000B9607A60FB68DA68BB687B617B6993FA36
:10527000A3F33B613B69BB61BB69002B01D12023D8
:1052800003E0BB69B3FA83F3DBB25B00032101FAED
:1052900003F3DB431A40BB683B623B6A93FAA3F318
:1052A000FB61FB697B627B6A002B01D1202303E059
:1052B0007B6AB3FA83F3DBB25B00796801FA03F32C
:1052C0001A43FB68DA6000BF2C37BD465DF8047BEB
:1052D000704780B48BB000AFF860B9607A60FB684B
:1052E0001A6ABB687B617B6993FAA3F33B613B69F4
:1052F000BB61BB69002B01D1202303E0BB69B3FA7A
:1053000083F3DBB29B000F2101FA03F3DB431A4066
:10531000BB683B623B6A93FAA3F3FB61FB697B6268
:105320007B6A002B01D1202303E07B6AB3FA83F36D
:10533000DBB29B00796801FA03F31A43FB681A6237
:1053400000BF2C37BD465DF8047B704780B48BB03E
:1053500000AFF860B9607A60FB685A6ABB681B0AE4
:105360007B617B6993FAA3F33B613B69BB61BB69DA
:10537000002B01D1202303E0BB69B3FA83F3DBB236
:105380009B000F2101FA03F3DB431A40BB681B0AA1
:105390003B623B6A93FAA3F3FB61FB697B627B6A26
:1053A000002B01D1202303E07B6AB3FA83F3DBB245
:1053B0009B00796801FA03F31A43FB685A6200BF45
:1053C0002C37BD465DF8047B704780B58AB000AFCE
:1053D0007860396000237B6200233B623B681B6876
:1053E000BB61BB6993FAA3F37B617B69FB61FB69DA
:1053F000002B01D1202303E0FB69B3FA83F3DBB276
:105400007B6257E03B681A6801217B6A01FA03F36B
:1054100013403B623B6A002B49D03B685B68012B21
:1054200003D03B685B68022B0DD13B689B681A4632
:10543000396A7868FFF7D3FE3B68DB681A46396A39
:105440007868FFF7B4FE3B681B691A46396A7868CA
:10545000FFF702FF3B685B68022B21D13B6AFB60D0
:10546000FB6893FAA3F3BB60BB683B613B69002B0D
:1054700001D1202303E03B69B3FA83F3DBB2072BAE
:1054800007D83B685B691A46396A7868FFF721FFDD
:1054900006E03B685B691A46396A7868FFF756FF91
:1054A0003B685B681A46396A7868FFF743FE7B6A97
:1054B00001337B623B681A687B6A22FA03F3002B94
:1054C000A0D1002318462837BD4680BD80B483B0E4
:1054D00000AF78607B681B6843F001027B681A604C
:1054E00000BF0C37BD465DF8047B704780B483B0C5
:1054F00000AF78607B681B6823F001027B681A604C
:1055000000BF0C37BD465DF8047B704780B485B0A2
:1055100000AFF860B9607A60FB689B6823F40343CE
:1055200023F0FF03B9687A680A431A43FB689A605C
:1055300000BF1437BD465DF8047B704780B487B068
:1055400000AFF860B9607A603B6000233B610023E4
:105550007B61BB68424AA2FB03239B0C3B61FB6857
:105560005B6823F03F023B691A43FB685A60FB68A3
:105570001B6A23F03F027B683A498B4202D83B69A1
:10558000013309E03B694FF4967101FB03F336499F
:10559000A1FB03139B0901331A43FB681A627B6862
:1055A000304A934239D93B68002B17D17A681346A9
:1055B0005B001344BA68B2FBF3F3C3F30B03002B95
:1055C00009D07A6813465B001344BA68B2FBF3F360
:1055D00043F400431DE048F201031AE07A681346E1
:1055E0009B0013449A001344BA68B2FBF3F3C3F36D
:1055F0000B03002B0BD07A6813469B0013449A00D0
:105600001344BA68B2FBF3F343F4004301E048F2F9
:1056100001033A6813437B6111E07B685B00BA6861
:10562000B2FBF3F240F6FC731340002B05D07B680D
:105630005B00BA68B2FBF3F300E004237B61FB6814
:10564000DB6923F44F4323F0FF037A691A43FB68B5
:10565000DA6100BF1C37BD465DF8047B704700BFB0
:1056600083DE1B43A0860100D34D621080B483B05B
:1056700000AF786039607B681B6823F01A023B68D2
:105680001A437B681A6000BF0C37BD465DF8047B87
:10569000704780B483B000AF786039607B681B6866
:1056A00023F480623B681A437B681A6000BF0C37A2
:1056B000BD465DF8047B704780B586B000AF78606A
:1056C00039607868FFF712FF07F10803184600F009
:1056D00095F839693B685A683B689B687868FFF7BA
:1056E0002DFF3B68D9683B685B691A467868FFF70D
:1056F0000DFF3B681B6819467868FFF7B7FF7868AD
:10570000FFF7E4FE3B681B6919467868FFF7C1FFA5
:10571000002318461837BD4680BD000080B400AF96
:10572000044B9B6803F00C031846BD465DF8047BF0
:10573000704700BF0038024080B400AF044B9B6844
:1057400003F0F0031846BD465DF8047B704700BFC8
:105750000038024080B400AF044B9B6803F4E05370
:105760001846BD465DF8047B704700BF0038024014
:1057700080B400AF044B9B6803F460431846BD46F9
:105780005DF8047B704700BF0038024080B400AF72
:10579000044B5B6803F480031846BD465DF8047B48
:1057A000704700BF0038024080B400AF044B5B6814
:1057B0009B09C3F308031846BD465DF8047B704798
:1057C0000038024080B400AF044B5B6803F4403300
:1057D0001846BD465DF8047B704700BF00380240A4
:1057E00080B400AF044B5B6803F03F031846BD462E
:1057F0005DF8047B704700BF0038024080B582B07E
:1058000000AF786000F020F802467B681A607B6881
:105810001B68184600F040F802467B685A607B68B7
:105820005B68184600F04EF802467B689A607B6819
:105830005B68184600F05AF802467B68DA6000BFE1
:105840000837BD4680BD000080B582B000AF0023A0
:105850007B60FFF763FF0346082B0CD0082B0FD8A3
:10586000002B02D0042B03D00AE0094B7B600AE036
:10587000084B7B6007E0082000F04CF8786002E0FD
:10588000034B7B6000BF7B6818460837BD4680BD70
:105890000024F40000127A0080B582B000AF786076
:1058A000FFF74AFF03461B0903F00F03044AD35CCA
:1058B0001A467B68D34018460837BD4680BD00BFF6
:1058C000B8CD000880B582B000AF7860FFF742FF26
:1058D00003469B0A044AD35C1A467B68D3401846A9
:1058E0000837BD4680BD00BFC8CD000880B582B076
:1058F00000AF7860FFF73CFF03465B0B044AD35CC4
:105900001A467B68D34018460837BD4680BD00BFA5
:10591000C8CD000890B587B000AF786000237B61E8
:105920000023FB6000233B61FFF730FFF860FB685A
:10593000002B04D0FB68B3F5800F03D005E0124BB9
:105940007B6105E0114B7B6102E00F4B7B6100BF87
:105950007B68082B13D1FFF743FF02467B69B3FB3B
:10596000F2F4FFF721FF034603FB04F4FFF72AFFDD
:1059700003461B0C01335B00B4FBF3F33B613B6953
:1059800018461C37BD4690BD0024F40000127A0072
:1059900080B483B000AF78607B68DB6803F40053A9
:1059A000B3F5005F0CBF01230023DBB218460C37B0
:1059B000BD465DF8047B704780B483B000AF78606B
:1059C00039607B681B6923F440523B681A437B684B
:1059D0001A6100BF0C37BD465DF8047B704780B488
:1059E00083B000AF786039607B685B6923F44072F4
:1059F0003B681A437B685A6100BF0C37BD465DF8AF
:105A0000047B70472DE9B04FC0B000AFC7F8FC0071
:105A1000C7F8F810C7F8F420C7F8F030D7F8F4301A
:105A2000B3F5004F40F00C81D7F8F8300022C7F8EA
:105A3000E830C7F8EC20D7E93A4522462B469118C2
:105A400039665B417B66D7E91823214612EB0108D2
:105A5000294643EB01094FF000024FF000034FEAE3
:105A6000C90343EA58734FEAC80290469946234651
:105A700018EB0303C7F8E0302B4649EB0303C7F8E4
:105A8000E430D7F8F03000229A4693461AEB0A0326
:105A9000BB654BEB0B03FB65D7E91623D7E9380150
:105AA000FBF702F902460B46644BA3FB02235B099A
:105AB0009BB21B019CB2D7F8F8300022C7F8D8304F
:105AC000C7F8DC20D7E9368942464B46911839653C
:105AD0005B417B65D7E9142341465118B9644946B7
