:020000040800F2
:1000000000000220B5B5000801B3000809B30008DC
:1000100011B3000819B3000821B300080000000064
:1000200000000000000000000000000029B30008EC
:1000300037B300080000000045B3000855B30008BE
:1000400005B6000805B6000805B6000805B60008A4
:1000500005B6000805B6000805B6000805B6000894
:1000600005B6000805B6000805B6000805B6000884
:1000700005B6000805B6000805B6000805B6000874
:1000800005B6000805B6000805B6000805B6000864
:1000900005B6000805B6000805B6000805B6000854
:1000A00005B6000805B6000805B6000805B6000844
:1000B00005B6000805B6000805B6000805B6000834
:1000C00005B6000805B6000805B6000805B6000824
:1000D00005B6000871B3000885B3000899B300089D
:1000E00005B6000805B6000805B6000805B6000804
:1000F00005B6000805B6000805B6000805B60008F4
:1001000005B6000805B6000805B6000805B60008E3
:10011000ADB30008C1B3000805B6000805B6000875
:1001200005B6000805B6000805B6000805B60008C3
:1001300005B60008000000000000000005B6000839
:1001400005B6000805B6000805B6000805B60008A3
:1001500005B6000805B6000805B60008D5B30008C6
:10016000E9B30008F5B3000805B6000805B60008B5
:1001700005B6000805B600080000000000000000F9
:0801800005B6000805B60008F1
:1001900010B5054C237833B9044B13B10448AFF3C1
:1001A00000800123237010BDB02300200000000058
:1001B000D83E010808B5034B1BB103490348AFF310
:1001C000008008BD00000000B4230020D83E0108D4
:1001D00010F8012B11F8013B012A28BF9A42F7D0F1
:1001E000D01A70470000000000000000000000006E
:1001F00001F0FF01102A2BDB10F0070F08D010F8D8
:10020000013B013A8B422DD010F0070F42B3F6D1DB
:10021000F0B441EA012141EA014122F007047FF0F4
:1002200000070023F0E80256083C85EA010586EA4B
:10023000010685FA47F5A3FA87F586FA47F6A5FA87
:1002400087F68EB9EED1F0BC01F0FF0102F0070293
:1002500032B110F8013B013A83EA010313B1F8D13E
:100260000020704701387047002D06BF354603381F
:10027000073815F0010F07D1013015F4807F02BF58
:10028000013015F4C03F0130F0BC0138704700BFA9
:10029000034613F8012B002AFBD1181A01387047C6
:1002A00081F0004102E000BF83F0004330B54FEA27
:1002B00041044FEA430594EA050F08BF90EA020F94
:1002C0001FBF54EA000C55EA020C7FEA645C7FEA27
:1002D000655C00F0E2804FEA5454D4EB5555B8BF4A
:1002E0006D420CDD2C4480EA020281EA030382EABB
:1002F000000083EA010180EA020281EA0303362D4D
:1003000088BF30BD11F0004F4FEA01314FF4801C1F
:100310004CEA113102D0404261EB410113F0004F31
:100320004FEA03334CEA133302D0524263EB4303E8
:1003300094EA050F00F0A780A4F10104D5F1200E86
:100340000DDB02FA0EFC22FA05F2801841F10001E1
:1003500003FA0EF2801843FA05F359410EE0A5F1B5
:1003600020050EF1200E012A03FA0EFC28BF4CF0E6
:10037000020C43FA05F3C01851EBE37101F000459C
:1003800007D54FF0000EDCF1000C7EEB00006EEBA9
:100390000101B1F5801F1BD3B1F5001F0CD3490833
:1003A0005FEA30004FEA3C0C04F101044FEA44528A
:1003B00012F5800F80F09A80BCF1004F08BF5FEA11
:1003C000500C50F1000041EB045141EA050130BDF1
:1003D0005FEA4C0C404141EB0101013C28BFB1F503
:1003E000801FE9D291F0000F04BF01460020B1FA4E
:1003F00081F308BF2033A3F10B03B3F120020CDA21
:100400000C3208DD02F1140CC2F10C0201FA0CF0FE
:1004100021FA02F10CE002F11402D8BFC2F1200C63
:1004200001FA02F120FA0CFCDCBF41EA0C01904019
:10043000E41AA2BF01EB0451294330BD6FEA040462
:100440001F3C1CDA0C340EDC04F11404C4F120024D
:1004500020FA04F001FA02F340EA030021FA04F35F
:1004600045EA030130BDC4F10C04C4F1200220FAB6
:1004700002F001FA04F340EA0300294630BD21FAF4
:1004800004F0294630BD94F0000F83F4801306BFBA
:1004900081F480110134013D4EE77FEA645C18BFAE
:1004A0007FEA655C29D094EA050F08BF90EA020F45
:1004B00005D054EA000C04BF1946104630BD91EA3D
:1004C000030F1EBF0021002030BD5FEA545C05D140
:1004D0004000494128BF41F0004130BD14F580047F
:1004E0003CBF01F5801130BD01F0004545F0FE41F3
:1004F00041F470014FF0000030BD7FEA645C1ABF28
:10050000194610467FEA655C1CBF0B46024650EA5E
:10051000013406BF52EA033591EA030F41F400218A
:1005200030BD00BF90F0000F04BF0021704730B510
:100530004FF4806404F132044FF000054FF00001E5
:1005400050E700BF90F0000F04BF0021704730B5A6
:100550004FF4806404F1320410F0004548BF40427B
:100560004FF000013EE700BF42004FEAE2014FEAD0
:1005700031014FEA02701FBF12F07F4393F07F4FAB
:1005800081F06051704732F07F4208BF704793F0AE
:100590007F4F04BF41F40021704730B54FF46074C1
:1005A00001F0004521F000411CE700BF50EA0102C4
:1005B00008BF704730B54FF000050AE050EA01026D
:1005C00008BF704730B511F0004502D5404261EBDD
:1005D00041014FF4806404F132045FEA915C3FF41E
:1005E000D8AE4FF003025FEADC0C18BF03325FEABB
:1005F000DC0C18BF033202EBDC02C2F1200300FA6C
:1006000003FC20FA02F001FA03FE40EA0E0021FA90
:1006100002F11444BDE600BF70B54FF0FF0C4CF47E
:10062000E06C1CEA11541DBF1CEA135594EA0C0F30
:1006300095EA0C0F00F0DEF82C4481EA030621EA6B
:100640004C5123EA4C5350EA013518BF52EA0335A6
:1006500041F4801143F4801338D0A0FB02CE4FF058
:100660000005E1FB02E506F00042E0FB03E54FF088
:100670000006E1FB03569CF0000F18BF4EF0010E80
:10068000A4F1FF04B6F5007F64F5407404D25FEA7C
:100690004E0E6D4146EB060642EAC62141EA55512F
:1006A0004FEAC52040EA5E504FEACE2EB4F1FD0C71
:1006B00088BFBCF5E06F1ED8BEF1004F08BF5FEAEF
:1006C000500E50F1000041EB045170BD06F00046A1
:1006D00046EA010140EA020081EA0301B4EB5C044E
:1006E000C2BFD4EB0C0541EA045170BD41F4801146
:1006F0004FF0000E013C00F3AB8014F1360FDEBF6B
:10070000002001F0004170BDC4F10004203C35DA46
:100710000C341BDC04F11404C4F1200500FA05F3C9
:1007200020FA04F001FA05F240EA020001F000426A
:1007300021F0004110EBD37021FA04F642EB0601E0
:100740005EEA430E08BF20EAD37070BDC4F10C040A
:10075000C4F1200500FA04F320FA05F001FA04F2CE
:1007600040EA020001F0004110EBD37041F10001BA
:100770005EEA430E08BF20EAD37070BDC4F12005C5
:1007800000FA05F24EEA020E20FA04F301FA05F22D
:1007900043EA020321FA04F001F0004121FA04F2D5
:1007A00020EA020000EBD3705EEA430E08BF20EAA5
:1007B000D37070BD94F0000F0FD101F000464000DF
:1007C00041EB010111F4801F08BF013CF7D041EA61
:1007D000060195F0000F18BF704703F00046520065
:1007E00043EB030313F4801F08BF013DF7D043EA36
:1007F0000603704794EA0C0F0CEA135518BF95EAEC
:100800000C0F0CD050EA410618BF52EA4306D1D172
:1008100081EA030101F000414FF0000070BD50EA91
:10082000410606BF1046194652EA430619D094EA1B
:100830000C0F02D150EA013613D195EA0C0F05D105
:1008400052EA03361CBF104619460AD181EA030159
:1008500001F0004141F0FE4141F470014FF0000011
:1008600070BD41F0FE4141F4780170BD70B54FF0AC
:10087000FF0C4CF4E06C1CEA11541DBF1CEA13552C
:1008800094EA0C0F95EA0C0F00F0A7F8A4EB05040E
:1008900081EA030E52EA03354FEA013100F0888005
:1008A0004FEA03334FF0805545EA131343EA1263CE
:1008B0004FEA022245EA111545EA10654FEA002683
:1008C0000EF000419D4208BF964244F1FD0404F53C
:1008D000407402D25B084FEA3202B61A65EB030598
:1008E0005B084FEA32024FF480104FF4002CB6EB55
:1008F000020E75EB030E22BFB61A754640EA0C00D5
:100900005B084FEA3202B6EB020E75EB030E22BF14
:10091000B61A754640EA5C005B084FEA3202B6EB55
:10092000020E75EB030E22BFB61A754640EA9C0014
:100930005B084FEA3202B6EB020E75EB030E22BFE4
:10094000B61A754640EADC0055EA060E18D04FEAA2
:10095000051545EA16754FEA06164FEAC30343EA42
:1009600052734FEAC2025FEA1C1CC0D111F4801F0F
:100970000BD141EA00014FF000004FF0004CB6E708
:1009800011F4801F04BF01430020B4F1FD0C88BFA7
:10099000BCF5E06F3FF6AFAEB5EB030C04BFB6EBB2
:1009A000020C5FEA500C50F1000041EB045170BDA5
:1009B0000EF0004E4EEA113114EB5C04C2BFD4EBD2
:1009C0000C0541EA045170BD41F480114FF0000E56
:1009D000013C90E645EA060E8DE60CEA135594EAD2
:1009E0000C0F08BF95EA0C0F3FF43BAF94EA0C0FD5
:1009F0000AD150EA01347FF434AF95EA0C0F7FF44A
:100A000025AF104619462CE795EA0C0F06D152EA9D
:100A100003353FF4FDAE1046194622E750EA410681
:100A200018BF52EA43067FF4C5AE50EA41047FF492
:100A30000DAF52EA43057FF4EBAE12E74FF0FF3CF7
:100A400006E000BF4FF0010C02E000BF4FF0010CC8
:100A50004DF804CD4FEA410C7FEA6C5C4FEA430C41
:100A600018BF7FEA6C5C1BD001B050EA410C0CBF90
:100A700052EA430C91EA030F02BF90EA020F0020F2
:100A8000704710F1000F91EA030F58BF994208BF59
:100A900090422CBFD8176FEAE37040F00100704716
:100AA0004FEA410C7FEA6C5C02D150EA013C07D16D
:100AB0004FEA430C7FEA6C5CD6D152EA033CD3D0B8
:100AC0005DF8040B704700BF8446104662468C46B2
:100AD0001946634600E000BF01B5FFF7B7FF0028E5
:100AE00048BF10F1000F01BD4DF808EDFFF7F4FF0E
:100AF0000CBF012000205DF808FB00BF4DF808ED99
:100B0000FFF7EAFF34BF012000205DF808FB00BFBB
:100B10004DF808EDFFF7E0FF94BF012000205DF8DD
:100B200008FB00BF4DF808EDFFF7CEFF94BF012092
:100B300000205DF808FB00BF4DF808EDFFF7C4FF8B
:100B400034BF012000205DF808FB00BF4FEA410CD4
:100B50007FEA6C5C02D150EA013C0AD14FEA430CB7
:100B60007FEA6C5C02D152EA033C02D14FF00000F4
:100B700070474FF0010070474FEA410212F5001232
:100B800015D211D56FF47873B3EB625212D94FEAD4
:100B9000C12343F0004343EA505311F0004F23FABE
:100BA00002F018BF404270474FF00000704750EA13
:100BB000013005D111F0004008BF6FF000407047D0
:100BC0004FF00000704700BF4A0011D212F500122A
:100BD00011D20DD56FF47873B3EB62520ED44FEA95
:100BE000C12343F0004343EA505323FA02F0704715
:100BF0004FF00000704750EA013002D14FF0FF3053
:100C000070474FF0000070474FEA4102B2F1E043F5
:100C100024BFB3F5001CDCF1FE5C0DD901F0004CE3
:100C20004FEAC0024CEA5070B2F1004F40EB830033
:100C300008BF20F00100704711F0804F21D113F15F
:100C40003872BCBF01F00040704741F480114FEA98
:100C50005252C2F11802C2F1200C10FA0CF320FA21
:100C600002F018BF40F001004FEAC1234FEAD3233E
:100C700003FA0CFC40EA0C0023FA02F34FEA4303A8
:100C8000CCE77FEA625307D150EA01331EBF4FF031
:100C9000FE4040F44000704701F0004040F0FE404C
:100CA00040F40000704700BF53B94AB9002908BF9B
:100CB00000281CBF4FF0FF314FF0FF3000F0A0B90B
:100CC000ADF1080C6DE904CE00F03CF8DDF804E06D
:100CD000DDE9022304B0704738B500220023044642
:100CE0000D46FFF70BFF28B920462946BDE83840DE
:100CF00000F00AB8204605F1004100F005F8404236
:100D000061EB410138BD00BFD0B50C4B0022064657
:100D10000F46FFF781FCFFF757FF0446FFF702FC81
:100D2000074B0022FFF778FC02460B463046394657
:100D3000FFF7BAFAFFF748FF2146D0BD0000F03DAB
:100D40000000F0412DE9F047089D0C46002B4ED1E4
:100D500094468C458646B2FA82F262D94AB1C2F113
:100D60002003914020FA03F30CFA02FC194300FA25
:100D700002FE4FEA1C471FFA8CF6B1FBF7F44FEA6C
:100D80001E4307FB141143EA014304FB06F1994299
:100D90000AD91CEB030304F1FF3080F01281994261
:100DA00040F20F81023C6344591A1FFA8EF3B1FBE3
:100DB000F7F007FB101143EA014300FB06F69E42E1
:100DC0000AD91CEB030300F1FF3180F0FC809E4246
:100DD00040F2F980634402389B1B40EA0440002142
:100DE0001DB1D3400022C5E90032BDE8F0878B4237
:100DF00005D90DB1C5E9000100210846F5E7B3FAB0
:100E000083F1002946D1A34202D39042C0F0F08082
:100E1000861A64EB03030120002DE6D0C5E90063C8
:100E2000E3E7002A40F09080A1EB0C044FEA1C4855
:100E30001FFA8CF70121B4FBF8F64FEA1E4308FBBA
:100E4000164443EA044307FB06F0984208D91CEB1A
:100E5000030306F1FF3402D2984200F2CD80264609
:100E60001C1A1FFA8EF3B4FBF8F008FB104443EA97
:100E7000044300FB07F79F4208D91CEB030300F172
:100E8000FF3402D29F4200F2B0802046DB1B40EAD2
:100E90000640A5E7C1F120068B4022FA06F71F4362
:100EA00020FA06FC04FA01F343EA0C03F44000FACA
:100EB00001F8380C4FEA1349B4FBF0FE1FFA87FC27
:100EC00000FB1E4449EA04440EFB0CF9A14502FA5A
:100ED00001F20AD93C190EF1FF3A80F08480A14555
:100EE00040F28180AEF1020E3C44A4EB09041FFAEB
:100EF00083F9B4FBF0F300FB134449EA044403FB19
:100F00000CFCA44507D93C1903F1FF3067D2A44576
:100F100065D9023B3C4443EA0E40A0FB0293A4EB9C
:100F20000C049C42CE469C4651D34ED055B1B8EBF2
:100F30000E0364EB0C0404FA06F6CB401E43CC40CF
:100F4000C5E90064002150E7C2F1200320FA03F153
:100F50000CFA02FC24FA03F394400C434FEA1C48B9
:100F600000FA02FE1FFA8CF7B3FBF8F008FB103111
:100F7000230C43EA014300FB07F1994208D91CEB1B
:100F8000030300F1FF362CD299422AD90238634478
:100F90005B1AA4B2B3FBF8F108FB113344EA034433
:100FA00001FB07F3A34208D91CEB040401F1FF364F
:100FB00013D2A34211D902396444E41A41EA004130
:100FC00039E70446F0E6084606E7C845AED2B9EB75
:100FD000020E63EB070C0138A8E73146EDE7034644
:100FE00099E73046D4E7D6467FE7634402384DE7B9
:100FF0000646234608460FE7023E634430E700BF3B
:10100000704700BF80B483B000AF78607B685B69D5
:1010100003F08003802B0CBF01230023DBB21846B2
:101020000C37BD465DF8047B704780B483B000AFD9
:1010300078607B685B6903F04003402B0CBF0123A1
:101040000023DBB218460C37BD465DF8047B7047C1
:1010500080B483B000AF78607B685B6903F0010304
:10106000012B0CBF01230023DBB218460C37BD4611
:101070005DF8047B704780B483B000AF78607B6814
:101080005B6903F00203022B0CBF01230023DBB2D8
:1010900018460C37BD465DF8047B704780B483B0BA
:1010A00000AF78607B689B6903F00203022B0CBFE2
:1010B00001230023DBB218460C37BD465DF8047BE4
:1010C000704780B485B000AF78607B685B69FB6077
:1010D000FB687B689B69FB60FB6800BF1437BD46FB
:1010E0005DF8047B704780B483B000AF78603960EE
:1010F0007B681B6823F480623B681A437B681A6034
:1011000000BF0C37BD465DF8047B704780B483B0E8
:1011100000AF78607B681B6843F480727B681A605C
:1011200000BF0C37BD465DF8047B704780B483B0C8
:1011300000AF78607B681B6843F400727B681A60BC
:1011400000BF0C37BD465DF8047B704780B483B0A8
:1011500000AF78607B681B69DBB218460C37BD4670
:101160005DF8047B704780B483B000AF78600B46B5
:10117000FB707B681B6923F0FF02FB781A437B68D6
:101180001A6100BF0C37BD465DF8047B7047000054
:1011900080B582B000AF03460A46FB711346BB71AF
:1011A00000BF1E48FFF77AFF0346002BF9D11B480A
:1011B000FFF7ACFF00BF1948FFF74AFF0346002BBB
:1011C000F9D0D0211548FFF7CEFF00BF1348FFF735
:1011D00052FF0346002BF9D01048FFF772FFFB794E
:1011E00019460E48FFF7BFFF00BF0C48FFF70AFF84
:1011F0000346002BF9D0BB7919460848FFF7B3FF27
:1012000000BF0648FFF7FEFE0346002BF9D0034857
:10121000FFF78CFF00BF0837BD4680BD005400407B
:1012200080B584B000AF0346FB710023FB7300BFA1
:101230002C48FFF733FF0346002BF9D12948FFF76D
:1012400065FF00BF2748FFF703FF0346002BF9D0D7
:10125000D0212448FFF787FF00BF2248FFF70BFF8C
:101260000346002BF9D01F48FFF72BFFFB791946E7
:101270001C48FFF778FF00BF1A48FFF7C3FE03467C
:10128000002BF9D01748FFF741FF00BF1548FFF7C3
:10129000DFFE0346002BF9D0D1211248FFF763FF90
:1012A00000BF1048FFF7E7FE0346002BF9D00D48BA
:1012B000FFF707FF00210B48FFF715FF00BF0948A4
:1012C000FFF7B3FE0346002BF9D00648FFF73EFFB9
:1012D0000346FB730348FFF729FFFB7B18461037D3
:1012E000BD4680BD0054004090B583B000AF0446B9
:1012F000084611461A462346FB710346BB710B464E
:101300007B7113463B7197F82030554AA2FB0323AB
:10131000DB08DBB21B0158B297F82020504BA3FB2F
:101320000213D9080B469B000B445B00D31ADBB2B7
:101330005BB203435BB2DBB219460020FFF728FF24
:101340003B7F474AA2FB0323DB08DBB21B0158B2F9
:101350003A7F434BA3FB0213D9080B469B000B4477
:101360005B00D31ADBB25BB203435BB2DBB219465C
:101370000120FFF70DFF3B7E394AA2FB0323DB0868
:10138000DBB21B0158B23A7E354BA3FB0213D908DE
:101390000B469B000B445B00D31ADBB25BB20343EA
:1013A0005BB2DBB219460220FFF7F2FEFB79194669
:1013B0000320FFF7EDFEBB79294AA2FB0323DB08DC
:1013C000DBB21B0158B2BA79254BA3FB0213D90833
:1013D0000B469B000B445B00D31ADBB25BB20343AA
:1013E0005BB2DBB219460420FFF7D2FE7B791C4AC0
:1013F000A2FB0323DB08DBB21B0158B27A79184B3E
:10140000A3FB0213D9080B469B000B445B00D31AC5
:10141000DBB25BB203435BB2DBB219460520FFF7D8
:10142000B7FE3B790E4AA2FB0323DB08DBB21B01AC
:1014300058B23A790A4BA3FB0213D9080B469B001A
:101440000B445B00D31ADBB25BB203435BB2DBB28B
:1014500019460620FFF79CFE00BF0C37BD4690BD25
:10146000CDCCCCCC80B584B000AFF860B9607A60E8
:101470003B600020FFF7D4FE03461A463B6A1A7011
:101480000120FFF7CDFE03461A46FB691A700220C1
:10149000FFF7C6FE03461A46BB691A700320FFF722
:1014A000BFFE03461A46FB681A700420FFF7B8FE19
:1014B00003461A46BB681A700520FFF7B1FE0346C3
:1014C0001A467B681A700620FFF7AAFE03461A46E2
:1014D0003B681A703B6A1B781B09DBB21A46920004
:1014E00013445B00DAB23B6A1B7803F00F03DBB2F4
:1014F0001344DAB23B6A1A70FB691B781B09DBB232
:101500001A46920013445B00DAB2FB691B7803F0C1
:101510000F03DBB21344DAB2FB691A70BB691B78A4
:101520001B09DBB21A46920013445B00DAB2BB69B6
:101530001B7803F00F03DBB21344DAB2BB691A70F5
:10154000BB681B781B09DBB21A46920013445B0090
:10155000DAB2BB681B7803F00F03DBB21344DAB2D4
:10156000BB681A707B681B781B09DBB21A469200B5
:1015700013445B00DAB27B681B7803F00F03DBB225
:101580001344DAB27B681A703B681B781B09DBB224
:101590001A46920013445B00DAB23B681B7803F0F2
:1015A0000F03DBB21344DAB23B681A7000BF103786
:1015B000BD4680BD80B582B000AF1120FFF730FE80
:1015C0000346FB711220FFF72BFE0346BB71FB792C
:1015D0001B021AB2BB791BB21343BB80B7F90430AC
:1015E0001846FEF7AFFF4FF00002094BFFF73EF938
:1015F00002460B4610461946FFF706FB03463B60C2
:101600003B6807EE903AB0EE670A0837BD4680BDEA
:101610000000704080B483B000AF03463960FB71B6
:1016200097F90730002B0ADB3B68DAB20C4997F9CF
:1016300007301201D2B20B4483F800230AE03B6862
:10164000DAB20849FB7903F00F03043B1201D2B26E
:101650000B441A7600BF0C37BD465DF8047B70471B
:1016600000E100E000ED00E080B582B000AF7860FE
:101670007B68013BB3F1807F01D301230FE00A4A6D
:101680007B68013B53600F214FF0FF30FFF7C2FF33
:10169000054B00229A60044B07221A60002318466B
:1016A0000837BD4680BD00BF10E000E080B400AF49
:1016B000054B1B68044A43F00103136000BFBD469D
:1016C0005DF8047B704700BF10E000E080B500AF1C
:1016D000054B1B68054AA2FB03239B091846FFF72D
:1016E000C3FF00BF80BD00BFD0210020D34D6210DA
:1016F00080B483B000AF78607B681B6803F002039E
:10170000022B0CBF01230023DBB218460C37BD4669
:101710005DF8047B704780B483B000AF78607B686D
:101720001B6803F00403042B0CBF01230023DBB26E
:1017300018460C37BD465DF8047B704780B483B013
:1017400000AF78607B681B6803F00803082B0CBFB0
:1017500001230023DBB218460C37BD465DF8047B3D
:10176000704780B483B000AF78607B681B6803F07B
:101770002003202B0CBF01230023DBB218460C37BB
:10178000BD465DF8047B704780B483B000AF7860DD
:101790007B681B6803F08003802B0CBF01230023B0
:1017A000DBB218460C37BD465DF8047B704780B449
:1017B00085B000AF78607B681B68FB60FB687B6866
:1017C0005B68FB60FB6800BF1437BD465DF8047BB7
:1017D000704780B485B000AF78607B681B68FB60A1
:1017E000FB687B685B68FB60FB6800BF1437BD4625
:1017F0005DF8047B704780B485B000AF78607B688B
:101800001B68FB60FB687B685B68FB60FB6800BF74
:101810001437BD465DF8047B704780B489B000AFD3
:1018200078607B680C33FB60FB6853E8003FBB606B
:10183000BB6843F02003FB617B680C33FA69BA6133
:101840007B617969BA6941E800233B613B69002B00
:10185000E7D100BF00BF2437BD465DF8047B704769
:1018600080B489B000AF78607B680C33FB60FB68A4
:1018700053E8003FBB60BB6843F08003FB617B68BB
:101880000C33FA69BA617B617969BA6941E800236E
:101890003B613B69002BE7D100BF00BF2437BD4649
:1018A0005DF8047B704780B489B000AF78607B68D6
:1018B0001433FB60FB6853E8003FBB60BB6843F038
:1018C0000103FB617B681433FA69BA617B61796952
:1018D000BA6941E800233B613B69002BE7D100BFB7
:1018E00000BF2437BD465DF8047B704780B489B0E3
:1018F00000AF78607B680C33FB60FB6853E8003F07
:10190000BB60BB6823F02003FB617B680C33FA6982
:10191000BA617B617969BA6941E800233B613B693F
:10192000002BE7D100BF00BF2437BD465DF8047B24
:10193000704780B489B000AF78607B680C33FB607F
:10194000FB6853E8003FBB60BB6823F08003FB618A
:101950007B680C33FA69BA617B617969BA6941E8DD
:1019600000233B613B69002BE7D100BF00BF243758
:10197000BD465DF8047B704780B483B000AF7860EB
:101980007B68DB6803F02003202B0CBF01230023BE
:10199000DBB218460C37BD465DF8047B704780B457
:1019A00083B000AF78607B68DB6803F08003802B36
:1019B0000CBF01230023DBB218460C37BD465DF88F
:1019C000047B704780B483B000AF78607B685B684D
:1019D000DBB218460C37BD465DF8047B704780B417
:1019E00083B000AF78600B46FB70FA787B685A6072
:1019F00000BF0C37BD465DF8047B704780B500AF73
:101A0000284B294A1A60294B294A1A60294B2A4A2D
:101A10001A602A4B2A4A1A602A4B2B4A1A602B4B0F
:101A20002B4A1A602B4B2C4A1A602C4B2C4A1A60FA
:101A30002C4B2D4A1A602D4B2D4A1A602D4B1B68DA
:101A40001846FFF730FF2C4B1B681846FFF72BFF9B
:101A50002A4B1B681846FFF726FF294B1B681846C0
:101A6000FFF721FF274B1B681846FFF71CFF214B90
:101A70001B681846FFF7D1FE1F4B1B681846FFF77F
:101A8000CCFE1E4B1B681846FFF7C7FE1C4B1B689D
:101A90001846FFF7C2FE1B4B1B681846FFF7BDFE3A
:101AA00000BF80BD6477002014000020687700200C
:101AB000240000206C770020340000207077002084
:101AC0004400002074770020540000207877002024
:101AD000640000207C7700207400002080770020C4
:101AE0008400002084770020940000208877002064
:101AF000A4000020000000200400002008000020B6
:101B00000C0000201000002080B584B000AF034618
:101B10003960FB713B685B6801333A68D268B3FB9C
:101B2000F2F101FB02F29B1AFB603B689A68FB68CA
:101B30009A423BD01F4B1B681846FFF7D7FE1E4B3F
:101B40001B681846FFF7D2FE1C4B1B681846FFF7B0
:101B5000CDFE1B4B1B681846FFF7C8FE194B1B68D0
:101B60001846FFF7C3FE3B681A683B685B6813447E
:101B7000FA791A70FA683B685A600E4B1B6818466F
:101B8000FFF74BFE0C4B1B681846FFF746FE0B4B4E
:101B90001B681846FFF741FE094B1B681846FFF704
:101BA0003CFE084B1B681846FFF737FE00BF103796
:101BB000BD4680BD00000020040000200800002079
:101BC0000C0000201000002080B584B000AF7860C9
:101BD0007B68514A93420FD04F4A93421CD84F4AD8
:101BE000934215D04D4A934216D84D4A934207D09E
:101BF0004C4A934208D00FE04B4B1B68FB600FE050
:101C00004A4B1B68FB600BE0494B1B68FB6007E01D
:101C1000484B1B68FB6003E0474B1B68FB6000BF41
:101C2000FB685A68FB689B689A4202D14FF0FF3309
:101C30006DE07B68384A934205D1404B1B681846DB
:101C4000FFF754FE22E07B68354A934205D13C4BB6
:101C50001B681846FFF74AFE18E07B68314A93423A
:101C600005D1384B1B681846FFF740FE0EE07B6835
:101C70002A4A934205D1344B1B681846FFF736FEBB
:101C800004E0324B1B681846FFF730FEFB681A6809
:101C9000FB689B6813441B78FB72FB689B680133ED
:101CA000FA68D268B3FBF2F101FB02F29A1AFB6800
:101CB0009A607B68184A934205D1204B1B681846EE
:101CC000FFF7ABFD22E07B68154A934205D11C4B20
:101CD0001B681846FFF7A1FD18E07B68114A934284
:101CE00005D1184B1B681846FFF797FD0EE07B687F
:101CF0000A4A934205D1144B1B681846FFF78DFD25
:101D000004E0124B1B681846FFF787FDFB7A184664
:101D10001037BD4680BD00BF00100140005000409C
:101D20000044004000480040647700206C770020A9
:101D3000747700207C77002084770020000000204A
:101D400004000020080000200C00002010000020EB
:101D500080B584B000AF786039607B686B4A93428D
:101D60000FD06A4A93421CD8694A934215D0684AF8
:101D7000934216D8674A934207D0674A934208D0E5
:101D80000FE0664B1B68FB600FE0654B1B68FB6058
:101D90000BE0644B1B68FB6007E0634B1B68FB6058
:101DA00003E0624B1B68FB6000BF3B68002BC0F286
:101DB000A880FB685B680133FA68D268B3FBF2F174
:101DC00001FB02F29B1ABB607B68504A934205D12B
:101DD000574B1B681846FFF789FD22E07B684D4A88
:101DE000934205D1534B1B681846FFF77FFD18E05F
:101DF0007B68494A934205D14F4B1B681846FFF751
:101E000075FD0EE07B68424A934205D14B4B1B683F
:101E10001846FFF76BFD04E0494B1B681846FFF7B7
:101E200065FD00BFFB689A68BB689A42FAD0FB6800
:101E30001A68FB685B6813443A68D2B21A70BA68D1
:101E4000FB685A607B68314A934205D1384B1B6866
:101E50001846FFF7E2FC22E07B682E4A934205D148
:101E6000344B1B681846FFF7D8FC18E07B682A4AF9
:101E7000934205D1304B1B681846FFF7CEFC0EE0AD
:101E80007B68234A934205D12C4B1B681846FFF709
:101E9000C4FC04E02A4B1B681846FFF7BEFC7B68B5
:101EA0001A4A93420FD0194A934224D8184A9342AF
:101EB0001BD0174A93421ED8164A934209D0164A9D
:101EC00093420CD017E01A4B1B681846FFF7C8FC6A
:101ED00017E0184B1B681846FFF7C2FC11E0164BC1
:101EE0001B681846FFF7BCFC0BE0144B1B68184638
:101EF000FFF7B6FC05E0124B1B681846FFF7B0FC75
:101F000000BF00BF1037BD4680BD00BF00100140BC
:101F10000050004000440040004800406877002026
:101F20007077002078770020807700208877002065
:101F30000000002004000020080000200C00002009
:101F40001000002080B485B000AF78607B68214A23
:101F500093420FD01F4A93421CD81F4A934215D078
:101F60001D4A934216D81D4A934207D01C4A9342F9
:101F700008D00FE01B4B1B68FB600FE01A4B1B687F
:101F8000FB600BE0194B1B68FB6007E0184B1B68FC
:101F9000FB6003E0174B1B68FB6000BFFB68DB685E
:101FA0009AB2FB685B689BB213449AB2FB689B6869
:101FB0009BB2D31A9BB21A46FB68DB68B2FBF3F103
:101FC00001FB03F3D31A18461437BD465DF8047BB2
:101FD000704700BF00100140005000400044004026
:101FE00000480040647700206C7700207477002060
:101FF0007C7700208477002080B582B000AF7860C5
:10200000396007E03B685A1C3A601B7819467868CB
:10201000FFF79EFE3B681B78002BF3D100BF00BF8B
:102020000837BD4680BD000080B584B000AF786041
:102030007B681C4A93420FD01A4A93421CD81A4A12
:10204000934215D0184A934216D8184A934207D0A3
:10205000174A934208D00FE0164B1B68FB600FE055
:10206000154B1B68FB600BE0144B1B68FB6007E023
:10207000134B1B68FB6003E0124B1B68FB6000BF47
:10208000FB681868FB68DB681A4600210FF061F9ED
:10209000FB6800225A60FB6800229A6000BF10377C
:1020A000BD4680BD0010014000500040004400408B
:1020B00000480040647700206C770020747700208F
:1020C0007C7700208477002080B586B000AF7860F0
:1020D0007B684D4A93420FD04B4A934228D84B4AD3
:1020E00093421ED0494A934222D8494A93420AD089
:1020F000484A93420ED01BE0474B1B687B61474B1D
:102100001B683B611BE0464B1B687B61454B1B68B2
:102110003B6114E0444B1B687B61444B1B683B6193
:102120000DE0434B1B687B61424B1B683B6106E043
:10213000414B1B687B61414B1B683B6100BF78686A
:10214000FFF70FFB0346002B2CD07868FFF714FC39
:102150000346002B26D07868FFF734FC0346FB7358
:102160007868FFF7EBFA0346002B0BD17868FFF78E
:10217000BFFA0346002B05D17868FFF7CCFA034677
:10218000002B09D07868FFF736FB7868FFF70FFB64
:102190007868FFF71EFB34E0FB7B79691846FFF790
:1021A000B3FC2EE07868FFF7EFFA0346002B28D047
:1021B0007868FFF7F4FB0346002B22D03B695A688E
:1021C0003B699B689A4203D17868FFF7B2FB17E03E
:1021D0003B691A683B699B6813441B78BB733B6976
:1021E0009B6801333A69D268B3FBF2F101FB02F25A
:1021F0009A1A3B699A60BB7B19467868FFF7EFFB38
:1022000000BF1837BD4680BD00100140005000409F
:1022100000440040004800406477002068770020B8
:102220006C7700207077002074770020787700208A
:102230007C7700208077002084770020887700203A
:1022400080B400AF054B00221A70054B00221A70B3
:1022500000BFBD465DF8047B704700BF8D7800204D
:102260008E78002080B400AF034B01221A7000BFAB
:10227000BD465DF8047B70478D78002080B400AFC8
:10228000034B00221A7000BFBD465DF8047B704707
:102290008D78002080B582B000AF78600B46FB706F
:1022A00000BF124B1B78DBB2002BFAD10F4B01227F
:1022B0001A70FF2200210E480FF04BF8FB781A46E7
:1022C00079680B480FF049F90A4AFB781370074BFD
:1022D00000221A70084B01221A704FF47A71032001
:1022E0000AF06EF900BF0837BD4680BD8C7800202B
:1022F0008C7700208B7800208D78002080B500AF8F
:10230000024903480AF088F900BF80BDB8000020E8
:10231000B400002080B582B000AF03200AF066F957
:102320000346002B59D02F4B1B78DBB2002B4FD02C
:102330002D4B1B78DBB2012B33D800BF2B4B1B7806
:10234000DBB2002BFAD1294B01221A70284B1B78E3
:10235000DBB21A46274928480FF0FFF800237B60BC
:102360000AE0254A7B6813441B7819462348FFF787
:10237000EFFC7B6801337B601D4B1B78DBB21A4698
:102380007B689342EDDB184B1B78DBB20133DAB28A
:10239000154B1A70134B01221A70144B00221A703D
:1023A00016E0114B00221A70FFF768FF1449154818
:1023B000FFF722FE14491348FFF71EFE1049134889
:1023C000FFF71AFE10491148FFF716FEFFF756FFF8
:1023D0004FF47A7103200AF0F3F800BF0837BD46C6
:1023E00080BD00BF8D7800208E7800208C78002082
:1023F0008B7800208C77002090780020001001401E
:10240000F03E0108004C0040043F01080044004039
:1024100080B483B000AF786039607B683A689A61B5
:1024200000BF0C37BD465DF8047B704780B500AF38
:10243000064907480AF0F0F84FF47A7107200AF0CD
:10244000BFF8FFF7DBFA00BF80BD00BFD800002057
:10245000D400002080B584B000AF314B1B78DBB2D4
:10246000002B59D007200AF0C1F80346002B53D0A7
:102470002C4B1B78DBB2002B36D12B4B1B78DBB2FD
:10248000002B49D1294B1B78DBB2002B44D0284BC1
:102490001B78DBB2002B3FD0032005F099FB2548C9
:1024A000FFF7C2FD244BBB600923FB710023FB60D7
:1024B0000AE0FB68BA6813441B7819461D48FFF709
:1024C00047FCFB680133FB60FB79FA689A42F0DB5A
:1024D0001A4B00221A70144B01221A704FF47A71B1
:1024E00007200AF06DF817E0144B1B78DBB2002BC5
:1024F00012D10D4B00221A70104B01221A704FF4AA
:102500007A7107200AF05CF80D4B1B680833312202
:10251000FF2118460EF01DFF00BF1037BD4680BDDD
:10252000BD7A00208D78002092790020E8000020FC
:10253000E900002000100140C8000020EA0000204F
:102540005821002080B5ADF50A7D02AF07F508736C
:10255000A3F50773186007F50873A3F508731960EE
:1025600007F50873A3F507731B68032B01DC03232E
:10257000E4E007F50873A3F507731B68042B01DD7E
:102580000223DBE007F50873A3F508731B68043327
:102590001B6818460DF0ADF8034687F81B3297F814
:1025A0001B32032B01D90423C8E007F50873A3F5F8
:1025B00008731B6808331B6818460DF09AF8034629
:1025C000A7F81832B7F81832B3F5FA7F01D9042307
:1025D000B4E04FF400615C48FFF71AFF4FF48051FC
:1025E0005948FFF715FF07F50873A3F507731B6834
:1025F00003F18043013B9B0007F50872A2F50872C6
:10260000126813441B68C7F81432D7F814324F4AC3
:10261000934203D14E4B01221A7002E04C4B002230
:102620001A70D7F814324B4A934203D14A4B012215
:102630001A7002E0484B00221A70012387F8133207
:1026400097F81B3287F81032B7F818321B0A9BB282
:10265000DBB287F81132B7F81832DBB287F81232E2
:1026600007F5047197F8130207F5887301930123A6
:102670000093052303220AF07DF907F10F0207F109
:10268000100107F5887318460AF0FAF907F5087380
:10269000A3F211231B78002B2CD00023C7F81C3287
:1026A00010E007F50873A3F50472D7F81C32134441
:1026B0001B7819462948FFF74BFBD7F81C3201332A
:1026C000C7F81C3207F50873A3F211231B781A46CA
:1026D000D7F81C329342E4DB07F50873A3F2112309
:1026E0001A7807F1100311461846FFF7D3FDFFF7DC
:1026F000B9FD22E007F5047197F8130207F5887316
:10270000019301230093052303220AF033F907F113
:102710000F0207F1100107F5887318460AF0B0F9A7
:1027200007F50873A3F211231A7807F11003114675
:102730001846FFF7AFFDFFF795FD0523184607F58F
:102740000877BD4680BD00BF000002400050004039
:10275000937900200044004094790020001001404B
:1027600080B5ADF50A7D02AF07F50873A3F50773D1
:10277000186007F50873A3F50873196007F5087367
:10278000A3F507731B68032B01DC0323DBE007F5CC
:102790000873A3F507731B68042B01DD0223D2E045
:1027A00007F50873A3F508731B6804331B68184604
:1027B0000CF09FFF034687F81B3297F81B32012B62
:1027C00001D90423BFE007F50873A3F508731B685C
:1027D00008331B6818460CF08CFF034687F81A3242
:1027E00097F81A32032B01D90423ACE04FF40061AF
:1027F0005748FFF70DFE4FF480515548FFF708FE8C
:1028000007F50873A3F507731B6803F18043013BC9
:102810009B0007F50872A2F50872126813441B6842
:10282000C7F81432D7F814324A4A934203D14A4BBC
:1028300001221A7002E0484B00221A70D7F81432B5
:10284000464A934203D1464B01221A7002E0444BA0
:1028500000221A70022387F8133297F81B3287F888
:10286000103297F81A3287F8113207F5047197F889
:10287000130207F5887301930123009305230222B5
:102880000AF078F807F10F0207F1100107F58873D5
:1028900018460AF0F5F807F50873A3F211231B7820
:1028A000002B2CD00023C7F81C3210E007F508736A
:1028B000A3F50472D7F81C3213441B781946294833
:1028C000FFF746FAD7F81C320133C7F81C3207F578
:1028D0000873A3F211231B781A46D7F81C329342CF
:1028E000E4DB07F50873A3F211231A7807F110034C
:1028F00011461846FFF7CEFCFFF7B4FC22E007F5BF
:10290000047197F8130207F588730193012300936C
:10291000052302220AF02EF807F10F0207F1100139
:1029200007F5887318460AF0ABF807F50873A3F2A9
:1029300011231A7807F1100311461846FFF7AAFC75
:10294000FFF790FC0523184607F50877BD4680BDC4
:1029500000000240005000409379002000440040F5
:10296000947900200010014080B5ADF50A7D02AFDA
:1029700007F50873A3F50773186007F50873A3F547
:102980000873196007F50873A3F507731B68022B1A
:1029900001DC0323C4E007F50873A3F507731B6884
:1029A000032B01DD0223BBE007F50873A3F50873D1
:1029B0001B6804331B6818460CF09BFE034687F81F
:1029C0001B3297F81B32032B01D90423A8E04FF4E4
:1029D00000615648FFF71CFD4FF480515348FFF744
:1029E00017FD07F50873A3F507731B6803F1804310
:1029F000013B9B0007F50872A2F5087212681344A8
:102A00001B68C7F81432D7F81432494A934203D1ED
:102A1000484B01221A7002E0464B00221A70D7F888
:102A20001432454A934203D1444B01221A7002E00A
:102A3000424B00221A70032387F8133297F81B3297
:102A400087F8103207F5047197F8130207F58873B9
:102A50000193012300930523012209F08BFF07F165
:102A60000F0207F1100107F5887318460AF008F8FD
:102A700007F50873A3F211231B78002B2CD0002339
:102A8000C7F81C3210E007F50873A3F50472D7F8F5
:102A90001C3213441B7819462948FFF759F9D7F817
:102AA0001C320133C7F81C3207F50873A3F2112357
:102AB0001B781A46D7F81C329342E4DB07F50873FB
:102AC000A3F211231A7807F1100311461846FFF7F5
:102AD000E1FBFFF7C7FB22E007F5047197F813024B
:102AE00007F588730193012300930523012209F060
:102AF00041FF07F10F0207F1100107F5887318462F
:102B000009F0BEFF07F50873A3F211231A7807F145
:102B1000100311461846FFF7BDFBFFF7A3FB052383
:102B2000184607F50877BD4680BD00BF000002408B
:102B30000050004093790020004400409479002028
:102B40000010014080B5ADF50A7D02AF07F50873AE
:102B5000A3F50773186007F50873A3F508731960E8
:102B600007F50873A3F507731B68022B01DC032329
:102B7000C4E007F50873A3F507731B68032B01DD99
:102B80000223BBE007F50873A3F508731B68043341
:102B90001B6818460CF0ADFD034687F81B3297F80A
:102BA0001B32032B01D90423A8E04FF400615648DF
:102BB000FFF72EFC4FF480515348FFF729FC07F52F
:102BC0000873A3F507731B6803F18043013B9B0067
:102BD00007F50872A2F50872126813441B68C7F85B
:102BE0001432D7F81432494A934203D1484B012298
:102BF0001A7002E0464B00221A70D7F81432454A88
:102C0000934203D1444B01221A7002E0424B00224E
:102C10001A70042387F8133297F81B3287F81032A2
:102C200007F5047197F8130207F5887301930123E0
:102C300000930523012209F09DFE07F10F0207F121
:102C4000100107F58873184609F01AFF07F5087395
:102C5000A3F211231B78002B2CD00023C7F81C32C1
:102C600010E007F50873A3F50472D7F81C3213447B
:102C70001B7819462948FFF76BF8D7F81C32013347
:102C8000C7F81C3207F50873A3F211231B781A4604
:102C9000D7F81C329342E4DB07F50873A3F2112343
:102CA0001A7807F1100311461846FFF7F3FAFFF7F9
:102CB000D9FA22E007F5047197F8130207F5887333
:102CC0000193012300930523012209F053FE07F12C
:102CD0000F0207F1100107F58873184609F0D0FEBE
:102CE00007F50873A3F211231A7807F110031146B0
:102CF0001846FFF7CFFAFFF7B5FA0523184607F590
:102D00000877BD4680BD00BF000002400050004073
:102D10009379002000440040947900200010014085
:102D200080B5ADF50A7D02AF07F50873A3F507730B
:102D3000186007F50873A3F50873196007F50873A1
:102D4000A3F507731B68022B01DC0323C4E007F51E
:102D50000873A3F507731B68032B01DD0223BBE097
:102D600007F50873A3F508731B6804331B6818463E
:102D70000CF0BFFC034687F81B3297F81B32032B7D
:102D800001D90423A8E04FF400615648FFF740FB47
:102D90004FF480515348FFF73BFB07F50873A3F549
:102DA00007731B6803F18043013B9B0007F5087222
:102DB000A2F50872126813441B68C7F81432D7F8DA
:102DC0001432494A934203D1484B01221A7002E05F
:102DD000464B00221A70D7F81432454A934203D169
:102DE000444B01221A7002E0424B00221A70052364
:102DF00087F8133297F81B3287F8103207F5047101
:102E000097F8130207F588730193012300930523B4
:102E1000012209F0AFFD07F10F0207F1100107F5DC
:102E20008873184609F02CFE07F50873A3F21123E6
:102E30001B78002B2CD00023C7F81C3210E007F5BC
:102E40000873A3F50472D7F81C3213441B78194693
:102E50002948FEF77DFFD7F81C320133C7F81C3232
:102E600007F50873A3F211231B781A46D7F81C3212
:102E70009342E4DB07F50873A3F211231A7807F1F4
:102E8000100311461846FFF705FAFFF7EBF922E0A9
:102E900007F5047197F8130207F58873019301236E
:102EA00000930523012209F065FD07F10F0207F1E8
:102EB000100107F58873184609F0E2FD07F508735D
:102EC000A3F211231A7807F1100311461846FFF7F1
:102ED000E1F9FFF7C7F90523184607F50877BD465E
:102EE00080BD00BF000002400050004093790020E8
:102EF00000440040947900200010014080B5ADF5F9
:102F00000A7D02AF07F50873A3F50773186007F58C
:102F10000873A3F50873196007F50873A3F5077321
:102F20001B68022B01DC0323C4E007F50873A3F53B
:102F300007731B68032B01DD0223BBE007F5087351
:102F4000A3F508731B6804331B6818460CF0D1FB0B
:102F5000034687F81B3297F81B32032B01D9042351
:102F6000A8E04FF400615648FFF752FA4FF4805141
:102F70005348FFF74DFA07F50873A3F507731B686D
:102F800003F18043013B9B0007F50872A2F508722C
:102F9000126813441B68C7F81432D7F81432494A30
:102FA000934203D1484B01221A7002E0464B0022A3
:102FB0001A70D7F81432454A934203D1444B012288
:102FC0001A7002E0424B00221A70062387F813326F
:102FD00097F81B3287F8103207F5047197F813023F
:102FE00007F588730193012300930523012209F05B
:102FF000C1FC07F10F0207F1100107F588731846AD
:1030000009F03EFD07F50873A3F211231B78002B8E
:103010002CD00023C7F81C3210E007F50873A3F585
:103020000472D7F81C3213441B7819462948FEF75E
:103030008FFED7F81C320133C7F81C3207F508732E
:10304000A3F211231B781A46D7F81C329342E4DB13
:1030500007F50873A3F211231A7807F1100311463C
:103060001846FFF717F9FFF7FDF822E007F504719E
:1030700097F8130207F58873019301230093052342
:10308000012209F077FC07F10F0207F1100107F5A3
:103090008873184609F0F4FC07F50873A3F21123AE
:1030A0001A7807F1100311461846FFF7F3F8FFF7F7
:1030B000D9F80523184607F50877BD4680BD00BF3F
:1030C000000002400050004093790020004400407E
:1030D000947900200010014080B5ADF50A7D02AF63
:1030E00007F50873A3F50773186007F50873A3F5D0
:1030F0000873196007F50873A3F507731B68022BA3
:1031000001DC0323C4E007F50873A3F507731B680C
:10311000032B01DD0223BBE007F50873A3F5087359
:103120001B6804331B6818460CF0E3FA034687F863
:103130001B3297F81B32032B01D90423A8E04FF46C
:1031400000615648FFF764F94FF480515348FFF788
:103150005FF907F50873A3F507731B6803F1804354
:10316000013B9B0007F50872A2F508721268134430
:103170001B68C7F81432D7F81432494A934203D176
:10318000484B01221A7002E0464B00221A70D7F811
:103190001432454A934203D1444B01221A7002E093
:1031A000424B00221A70072387F8133297F81B321C
:1031B00087F8103207F5047197F8130207F5887342
:1031C0000193012300930523012209F0D3FB07F1AA
:1031D0000F0207F1100107F58873184609F050FC3B
:1031E00007F50873A3F211231B78002B2CD00023C2
:1031F000C7F81C3210E007F50873A3F50472D7F87E
:103200001C3213441B7819462948FEF7A1FDD7F854
:103210001C320133C7F81C3207F50873A3F21123DF
:103220001B781A46D7F81C329342E4DB07F5087383
:10323000A3F211231A7807F1100311461846FFF77D
:1032400029F8FFF70FF822E007F5047197F8130249
:1032500007F588730193012300930523012209F0E8
:1032600089FB07F10F0207F1100107F58873184673
:1032700009F006FC07F50873A3F211231A7807F189
:10328000100311461846FFF705F8FEF7EBFF05237C
:10329000184607F50877BD4680BD00BF0000024014
:1032A00000500040937900200044004094790020B1
:1032B0000010014080B5ADF50A7D02AF07F5087337
:1032C000A3F50773186007F50873A3F50873196071
:1032D00007F50873A3F507731B68042B01DC0323B0
:1032E000FBE007F50873A3F507731B68052B01DDE9
:1032F0000223F2E007F50873A3F508731B68043393
:103300001B6818460CF0F5F9034687F81B3297F84E
:103310001B32032B01D90423DFE007F50873A3F563
:1033200008731B6808331B6818460CF0E2F9034663
:1033300087F81A3297F81A32012B01D90423CCE00E
:1033400007F50873A3F508731B680C331B68184650
:103350000CF0CFF90346A7F81832B7F81832B3F5D6
:10336000FA7F01D90423B8E04FF400615D48FFF70C
:103370004FF84FF480515B48FFF74AF807F50873A0
:10338000A3F507731B6803F18043013B9B0007F51E
:103390000872A2F50872126813441B68C7F8143249
:1033A000D7F81432504A934203D1504B01221A707D
:1033B00002E04E4B00221A70D7F814324C4A934266
:1033C00003D14C4B01221A7002E04A4B00221A70C2
:1033D000082387F8133297F81B3287F80C3297F8D6
:1033E0001A3287F80D32B7F818321B0A9BB2DBB2DB
:1033F00087F80E32B7F81832DBB287F80F3207F5CC
:10340000037197F8130207F5867301930123009364
:103410000523042209F0AEFA07F10B0207F10C01B3
:1034200007F58673184609F02BFB07F50873A3F21E
:1034300015231B78002B2CD00023C7F81C3210E07A
:1034400007F50873A3F50572D7F81C3213441B78EF
:1034500019462948FEF77CFCD7F81C320133C7F81F
:103460001C3207F50873A3F215231B781A46D7F808
:103470001C329342E4DB07F50873A3F215231A7894
:1034800007F10C0311461846FEF704FFFEF7EAFEAB
:1034900022E007F5037197F8130207F5867301938D
:1034A000012300930523042209F064FA07F10B02BB
:1034B00007F10C0107F58673184609F0E1FA07F5E4
:1034C0000873A3F215231A7807F10C031146184666
:1034D000FEF7E0FEFEF7C6FE0523184607F508775F
:1034E000BD4680BD0000024000500040937900209E
:1034F00000440040947900200010014080B5ADF5F3
:103500000A7D02AF07F50873A3F50773186007F586
:103510000873A3F50873196007F50873A3F507731B
:103520001B68032B01DC0323E4E007F50873A3F514
:1035300007731B68042B01DD0223DBE007F508732A
:10354000A3F508731B6804331B6818460CF0D1F808
:10355000034687F81B3297F81B32032B01D904234B
:10356000C8E007F50873A3F508731B6808331B68E8
:1035700018460CF0BEF80346A7F81832B7F8183210
:10358000B3F5FA7F01D90423B4E04FF400615C483D
:10359000FEF73EFF4FF480515948FEF739FF07F51B
:1035A0000873A3F507731B6803F18043013B9B007D
:1035B00007F50872A2F50872126813441B68C7F871
:1035C0001432D7F814324F4A934203D14E4B0122A2
:1035D0001A7002E04C4B00221A70D7F814324B4A92
:1035E000934203D14A4B01221A7002E0484B002259
:1035F0001A70092387F8133297F81B3287F81032B4
:10360000B7F818321B0A9BB2DBB287F81132B7F851
:103610001832DBB287F8123207F5047197F81302FB
:1036200007F588730193012300930523032209F012
:10363000A1F907F10F0207F1100107F58873184689
:1036400009F01EFA07F50873A3F211231B78002B6B
:103650002CD00023C7F81C3210E007F50873A3F53F
:103660000472D7F81C3213441B7819462948FEF718
:103670006FFBD7F81C320133C7F81C3207F508730B
:10368000A3F211231B781A46D7F81C329342E4DBCD
:1036900007F50873A3F211231A7807F110031146F6
:1036A0001846FEF7F7FDFEF7DDFD22E007F5047191
:1036B00097F8130207F588730193012300930523FC
:1036C000032209F057F907F10F0207F1100107F57E
:1036D0008873184609F0D4F907F50873A3F211238B
:1036E0001A7807F1100311461846FEF7D3FDFEF7CE
:1036F000B9FD0523184607F50877BD4680BD00BF14
:103700000000024000500040937900200044004037
:10371000947900200010014080B5ADF5067D00AF22
:1037200007F50673A3F50573186007F50673A3F58F
:103730000673196007F50673A3F505731B68012B63
:1037400001DC0323A3E007F50673A3F505731B68EB
:10375000022B01DD02239AE04FF400614E48FEF790
:1037600057FE4FF480514C48FEF752FE07F50673A2
:10377000A3F505731B6803F18043013B9B0007F52C
:103780000672A2F50672126813441B68C7F810325D
:10379000D7F81032414A934203D1414B01221A70AB
:1037A00002E03F4B00221A70D7F810323D4A934294
:1037B00003D13D4B01221A7002E03B4B00221A70EC
:1037C0000A2387F80F3207F5887397F80F02012252
:1037D000052109F0A7F807F10F0207F1100107F51D
:1037E0008873184609F04CF907F50673A3F209230C
:1037F0001B78002B2CD00023C7F8143210E007F5FB
:103800000673A3F50272D7F8143213441B781946D5
:103810002648FEF79DFAD7F814320133C7F8143260
:1038200007F50673A3F209231B781A46D7F814325A
:103830009342E4DB07F50673A3F209231A7807F134
:10384000100311461846FEF725FDFEF70BFD1DE09F
:1038500007F5887397F80F020122052109F062F835
:1038600007F10F0207F1100107F58873184609F0F8
:1038700007F907F50673A3F209231A7807F1100375
:1038800011461846FEF706FDFEF7ECFC0523184628
:1038900007F50677BD4680BD00000240005000409D
:1038A00093790020004400409479002000100140EA
:1038B00080B5ADF5067D00AF07F50673A3F505737A
:1038C000186007F50673A3F50673196007F506730C
:1038D000A3F505731B68012B01DC0323A3E007F5A7
:1038E0000673A3F505731B68022B01DD02239AE022
:1038F0004FF400614E48FEF78BFD4FF480514C4869
:10390000FEF786FD07F50673A3F505731B6803F143
:103910008043013B9B0007F50672A2F50672126810
:1039200013441B68C7F81032D7F81032414A93424B
:1039300003D1414B01221A7002E03F4B00221A7062
:10394000D7F810323D4A934203D13D4B01221A7001
:1039500002E03B4B00221A700B2387F80F3207F569
:10396000887397F80F020122052108F0DBFF07F1A9
:103970000F0207F1100107F58873184609F080F867
:1039800007F50673A3F209231B78002B2CD0002324
:10399000C7F8143210E007F50673A3F50272D7F8E2
:1039A000143213441B7819462648FEF7D1F9D7F88C
:1039B00014320133C7F8143207F50673A3F2092352
:1039C0001B781A46D7F814329342E4DB07F50673E6
:1039D000A3F209231A7807F1100311461846FEF7DF
:1039E00059FCFEF73FFC1DE007F5887397F80F02BE
:1039F0000122052108F096FF07F10F0207F11001DF
:103A000007F58873184609F03BF807F50673A3F22B
:103A100009231A7807F1100311461846FEF73AFCFD
:103A2000FEF720FC0523184607F50677BD4680BD46
:103A30000000024000500040937900200044004004
:103A4000947900200010014080B5ADF5067D00AFEF
:103A500007F50673A3F50573186007F50673A3F55C
:103A60000673196007F50673A3F505731B68012B30
:103A700001DC0323A3E007F50673A3F505731B68B8
:103A8000022B01DD02239AE04FF400614E48FEF75D
:103A9000BFFC4FF480514C48FEF7BAFC07F50673A3
:103AA000A3F505731B6803F18043013B9B0007F5F9
:103AB0000672A2F50672126813441B68C7F810322A
:103AC000D7F81032414A934203D1414B01221A7078
:103AD00002E03F4B00221A70D7F810323D4A934261
:103AE00003D13D4B01221A7002E03B4B00221A70B9
:103AF0000C2387F80F3207F5887397F80F0201221D
:103B0000052108F00FFF07F10F0207F1100107F57B
:103B10008873184608F0B4FF07F50673A3F209236B
:103B20001B78002B2CD00023C7F8143210E007F5C7
:103B30000673A3F50272D7F8143213441B781946A2
:103B40002648FEF705F9D7F814320133C7F81432C6
:103B500007F50673A3F209231B781A46D7F8143227
:103B60009342E4DB07F50673A3F209231A7807F101
:103B7000100311461846FEF78DFBFEF773FB1DE0A0
:103B800007F5887397F80F020122052108F0CAFE95
:103B900007F10F0207F1100107F58873184608F0C6
:103BA0006FFF07F50673A3F209231A7807F11003D4
:103BB00011461846FEF76EFBFEF754FB0523184628
:103BC00007F50677BD4680BD00000240005000406A
:103BD00093790020004400409479002000100140B7
:103BE00080B5ADF50A7D02AF07F50873A3F507733D
:103BF000186007F50873A3F50873196007F50873D3
:103C0000A3F507731B68052B01DC0323F1E007F51F
:103C10000873A3F507731B68062B01DD0223E8E098
:103C200007F50873A3F508731B6804331B6818466F
:103C30000BF05FFD034687F81B3207F50873A3F509
:103C400008731B6808331B6818460BF052FD0346C7
:103C500087F81A3207F50873A3F508731B680C334D
:103C60001B6818460BF045FD034687F8193207F527
:103C70000873A3F508731B6810331B6818460BF014
:103C800038FD034687F818324FF400615B48FEF7B1
:103C9000BFFB4FF480515948FEF7BAFB07F5087394
:103CA000A3F507731B6803F18043013B9B0007F5F5
:103CB0000872A2F50872126813441B68C7F8143220
:103CC000D7F814324E4A934203D14E4B01221A7058
:103CD00002E04C4B00221A70D7F814324A4A934241
:103CE00003D14A4B01221A7002E0484B00221A709D
:103CF0000D2387F8133297F81B3287F80C3297F8A8
:103D00001A3287F80D3297F8193287F80E3297F881
:103D1000183287F80F3207F5037197F8130207F589
:103D200086730193012300930523042208F022FEE9
:103D300007F10B0207F10C0107F58673184608F02E
:103D40009FFE07F50873A3F215231B78002B2CD0D8
:103D50000023C7F81C3210E007F50873A3F50572BD
:103D6000D7F81C3213441B7819462948FDF7F0FF99
:103D7000D7F81C320133C7F81C3207F50873A3F2D9
:103D800015231B781A46D7F81C329342E4DB07F55B
:103D90000873A3F215231A7807F10C03114618468D
:103DA000FEF778FAFEF75EFA22E007F5037197F85E
:103DB000130207F586730193012300930523042260
:103DC00008F0D8FD07F10B0207F10C0107F5867327
:103DD000184608F055FE07F50873A3F215231A7864
:103DE00007F10C0311461846FEF754FAFEF73AFAAB
:103DF0000523184607F50877BD4680BD0000024040
:103E00000050004093790020004400409479002045
:103E10000010014080B5ADF5067D00AF07F50673D3
:103E2000A3F50573186007F50673A3F5067319600B
:103E300007F50673A3F505731B68012B01DC03234B
:103E4000A3E007F50673A3F505731B68022B01DDDC
:103E500002239AE04FF400614E48FEF7D9FA4FF47E
:103E600080514C48FEF7D4FA07F50673A3F50573A5
:103E70001B6803F18043013B9B0007F50672A2F526
:103E80000672126813441B68C7F81032D7F8103254
:103E9000414A934203D1414B01221A7002E03F4B49
:103EA00000221A70D7F810323D4A934203D13D4B9D
:103EB00001221A7002E03B4B00221A700E2387F891
:103EC0000F3207F5887397F80F020122052108F0D9
:103ED00029FD07F10F0207F1100107F58873184655
:103EE00008F0CEFD07F50673A3F209231B78002B1B
:103EF0002CD00023C7F8143210E007F50673A3F5A1
:103F00000272D7F8143213441B7819462648FDF77D
:103F10001FFFD7F814320133C7F8143207F50673C0
:103F2000A3F209231B781A46D7F814329342E4DB34
:103F300007F50673A3F209231A7807F11003114657
:103F40001846FEF7A7F9FEF78DF91DE007F588730F
:103F500097F80F020122052108F0E4FC07F10F0297
:103F600007F1100107F58873184608F089FD07F579
:103F70000673A3F209231A7807F1100311461846B5
:103F8000FEF788F9FEF76EF90523184607F5067760
:103F9000BD4680BD000002400050004093790020E3
:103FA00000440040947900200010014080B5ADF538
:103FB0000A7D02AF07F50873A3F50773186007F5CC
:103FC0000873A3F50873196007F50873A3F5077361
:103FD0001B68022B01DC0323C4E007F50873A3F57B
:103FE00007731B68032B01DD0223BBE007F5087391
:103FF000A3F508731B6804331B6818460BF079FBA4
:10400000034687F81B3297F81B32642B01D904232F
:10401000A8E04FF400615648FEF7FAF94FF48051DA
:104020005348FEF7F5F907F50873A3F507731B6806
:1040300003F18043013B9B0007F50872A2F508726B
:10404000126813441B68C7F81432D7F81432494A6F
:10405000934203D1484B01221A7002E0464B0022E2
:104060001A70D7F81432454A934203D1444B0122C7
:104070001A7002E0424B00221A700F2387F81332A5
:1040800097F81B3287F8103207F5047197F813027E
:1040900007F588730193012300930523012208F09B
:1040A00069FC07F10F0207F1100107F58873184644
:1040B00008F0E6FC07F50873A3F211231B78002B28
:1040C0002CD00023C7F81C3210E007F50873A3F5C5
:1040D0000472D7F81C3213441B7819462948FDF79F
:1040E00037FED7F81C320133C7F81C3207F50873C6
:1040F000A3F211231B781A46D7F81C329342E4DB53
:1041000007F50873A3F211231A7807F1100311467B
:104110001846FEF7BFF8FEF7A5F822E007F5047190
:1041200097F8130207F58873019301230093052381
:10413000012208F01FFC07F10F0207F1100107F53B
:104140008873184608F09CFC07F50873A3F2112346
:104150001A7807F1100311461846FEF79BF8FEF790
:1041600081F80523184607F50877BD4680BD00BFD6
:1041700000000240005000409379002000440040BD
:10418000947900200010014080B5ADF5067D00AFA8
:1041900007F50673A3F50573186007F50673A3F515
:1041A0000673196007F50673A3F505731B68012BE9
:1041B00001DC0323A3E007F50673A3F505731B6871
:1041C000022B01DD02239AE04FF400614E48FEF716
:1041D0001FF94FF480514C48FEF71AF907F50673A2
:1041E000A3F505731B6803F18043013B9B0007F5B2
:1041F0000672A2F50672126813441B68C7F81032E3
:10420000D7F81032414A934203D1414B01221A7030
:1042100002E03F4B00221A70D7F810323D4A934219
:1042200003D13D4B01221A7002E03B4B00221A7071
:10423000102387F80F3207F5887397F80F020122D1
:10424000052108F06FFB07F10F0207F1100107F5D8
:104250008873184608F014FC07F50673A3F20923C7
:104260001B78002B2CD00023C7F8143210E007F580
:104270000673A3F50272D7F8143213441B7819465B
:104280002648FDF765FDD7F814320133C7F814321C
:1042900007F50673A3F209231B781A46D7F81432E0
:1042A0009342E4DB07F50673A3F209231A7807F1BA
:1042B000100311461846FDF7EDFFFDF7D3FF1DE093
:1042C00007F5887397F80F020122052108F02AFBF1
:1042D00007F10F0207F1100107F58873184608F07F
:1042E000CFFB07F50673A3F209231A7807F1100331
:1042F00011461846FDF7CEFFFDF7B4FF052318461B
:1043000007F50677BD4680BD000002400050004022
:10431000937900200044004094790020001001406F
:1043200080B5ADF5067D00AF07F50673A3F50573FF
:10433000186007F50673A3F50673196007F5067391
:10434000A3F505731B68012B01DC0323A3E007F52C
:104350000673A3F505731B68022B01DD02239AE0A7
:104360004FF400614E48FEF753F84FF480514C482B
:10437000FEF74EF807F50673A3F505731B6803F106
:104380008043013B9B0007F50672A2F50672126896
:1043900013441B68C7F81032D7F81032414A9342D1
:1043A00003D1414B01221A7002E03F4B00221A70E8
:1043B000D7F810323D4A934203D13D4B01221A7087
:1043C00002E03B4B00221A70112387F80F3207F5E9
:1043D000887397F80F020122052108F0A3FA07F16C
:1043E0000F0207F1100107F58873184608F048FB23
:1043F00007F50673A3F209231B78002B2CD00023AA
:10440000C7F8143210E007F50673A3F50272D7F867
:10441000143213441B7819462648FDF799FCD7F847
:1044200014320133C7F8143207F50673A3F20923D7
:104430001B781A46D7F814329342E4DB07F506736B
:10444000A3F209231A7807F1100311461846FDF765
:1044500021FFFDF707FF1DE007F5887397F80F02AE
:104460000122052108F05EFA07F10F0207F11001A1
:1044700007F58873184608F003FB07F50673A3F2E7
:1044800009231A7807F1100311461846FDF702FFB9
:10449000FDF7E8FE0523184607F50677BD4680BD03
:1044A000000002400050004093790020004400408A
:1044B000947900200010014080B5ADF5067D00AF75
:1044C00007F50673A3F50573186007F50673A3F5E2
:1044D0000673196007F50673A3F505731B68012BB6
:1044E00001DC0323A3E007F50673A3F505731B683E
:1044F000022B01DD02239AE04FF400614E48FDF7E4
:1045000087FF4FF480514C48FDF782FF07F5067393
:10451000A3F505731B6803F18043013B9B0007F57E
:104520000672A2F50672126813441B68C7F81032AF
:10453000D7F81032414A934203D1414B01221A70FD
:1045400002E03F4B00221A70D7F810323D4A9342E6
:1045500003D13D4B01221A7002E03B4B00221A703E
:10456000122387F80F3207F5887397F80F0201229C
:10457000052108F0D7F907F10F0207F1100107F53F
:104580008873184608F07CFA07F50673A3F209232E
:104590001B78002B2CD00023C7F8143210E007F54D
:1045A0000673A3F50272D7F8143213441B78194628
:1045B0002648FDF7CDFBD7F814320133C7F8143283
:1045C00007F50673A3F209231B781A46D7F81432AD
:1045D0009342E4DB07F50673A3F209231A7807F187
:1045E000100311461846FDF755FEFDF73BFE1DE092
:1045F00007F5887397F80F020122052108F092F958
:1046000007F10F0207F1100107F58873184608F04B
:1046100037FA07F50673A3F209231A7807F1100396
:1046200011461846FDF736FEFDF71CFE0523184619
:1046300007F50677BD4680BD0000024000500040EF
:10464000937900200044004094790020001001403C
:1046500080B5ADF5067D00AF07F50673A3F50573CC
:10466000186007F50673A3F50673196007F506735E
:10467000A3F505731B68012B01DC0323A3E007F5F9
:104680000673A3F505731B68022B01DD02239AE074
:104690004FF400614E48FDF7BBFE4FF480514C488B
:1046A000FDF7B6FE07F50673A3F505731B6803F166
:1046B0008043013B9B0007F50672A2F50672126863
:1046C00013441B68C7F81032D7F81032414A93429E
:1046D00003D1414B01221A7002E03F4B00221A70B5
:1046E000D7F810323D4A934203D13D4B01221A7054
:1046F00002E03B4B00221A70132387F80F3207F5B4
:10470000887397F80F020122052108F00BF907F1D1
:104710000F0207F1100107F58873184608F0B0F989
:1047200007F50673A3F209231B78002B2CD0002376
:10473000C7F8143210E007F50673A3F50272D7F834
:10474000143213441B7819462648FDF701FBD7F8AD
:1047500014320133C7F8143207F50673A3F20923A4
:104760001B781A46D7F814329342E4DB07F5067338
:10477000A3F209231A7807F1100311461846FDF732
:1047800089FDFDF76FFD1DE007F5887397F80F02AF
:104790000122052108F0C6F807F10F0207F1100108
:1047A00007F58873184608F06BF907F50673A3F24E
:1047B00009231A7807F1100311461846FDF76AFD20
:1047C000FDF750FD0523184607F50677BD4680BD69
:1047D0000000024000500040937900200044004057
:1047E000947900200010014080B483B000AF78605D
:1047F00039603B681A047B689A6100BF0C37BD467C
:104800005DF8047B7047000080B500AF064907489B
:1048100007F002FF4FF47A71062007F0D1FEFDF792
:10482000EDF800BF80BD00BFFC000020F8000020B4
:1048300080B584B000AF314B1B78DBB2002B59D070
:10484000062007F0D3FE0346002B53D02C4B1B78D9
:10485000DBB2002B36D12B4B1B78DBB2002B49D1BE
:10486000294B1B78DBB2002B44D0284B1B78DBB2E2
:10487000002B3FD0002003F0ABF92548FDF7D4FB17
:10488000244BBB600923FB710023FB600AE0FB683B
:10489000BA6813441B7819461D48FDF759FAFB689E
:1048A0000133FB60FB79FA689A42F0DB1A4B002275
:1048B0001A70144B01221A704FF47A71062007F017
:1048C0007FFE17E0144B1B78DBB2002B12D10D4B8F
:1048D00000221A70104B01221A704FF47A710620D0
:1048E00007F06EFE0D4B1B6839333622FF21184648
:1048F0000CF02FFD00BF1037BD4680BDBD7A0020F3
:104900008D78002092790020EA000020E900002044
:1049100000100140EC000020E80000205821002099
:1049200080B5ADF50A7D02AF07F50873A3F50773EF
:10493000186007F50873A3F50873196007F5087385
:10494000A3F507731B68032B01DC0323DBE007F5EA
:104950000873A3F507731B68042B01DD0223D2E063
:1049600007F50873A3F508731B6804331B68184622
:104970000AF0BFFE034687F81B3297F81B32092B5B
:1049800001D90423BFE007F50873A3F508731B687A
:1049900008331B6818460AF0ACFE034687F81A3243
:1049A00097F81A32012B01D90423ACE04FF40061CF
:1049B0005748FFF719FF4FF480515548FFF714FF90
:1049C00007F50873A3F507731B6803F18043013BE8
:1049D0009B0007F50872A2F50872126813441B6861
:1049E000C7F81432D7F814324A4A934203D14A4BDB
:1049F00001221A7002E0484B00221A70D7F81432D4
:104A0000464A934203D1464B01221A7002E0444BBE
:104A100000221A70012387F8133297F81B3287F8A7
:104A2000103297F81A3287F8113207F5047197F8A7
:104A3000130207F5887301930123009303230222D5
:104A400007F098FF07F10F0207F1100107F58873CF
:104A5000184608F015F807F50873A3F211231B7820
:104A6000002B2CD00023C7F81C3210E007F5087388
:104A7000A3F50472D7F81C3213441B781946294851
:104A8000FDF766F9D7F81C320133C7F81C3207F579
:104A90000873A3F211231B781A46D7F81C329342ED
:104AA000E4DB07F50873A3F211231A7807F110036A
:104AB00011461846FDF7EEFBFDF7D4FB22E007F5A3
:104AC000047197F8130207F588730193012300938B
:104AD0000323022207F04EFF07F10F0207F1100136
:104AE00007F58873184607F0CBFF07F50873A3F2A4
:104AF00011231A7807F1100311461846FDF7CAFB77
:104B0000FDF7B0FB0523184607F50877BD4680BDC5
:104B10000000024000500040937900200044004013
:104B2000947900200010014080B5ADF50A7D02AFF8
:104B300007F50873A3F50773186007F50873A3F565
:104B40000873196007F50873A3F507731B68032B37
:104B500001DC0323DBE007F50873A3F507731B688B
:104B6000042B01DD0223D2E007F50873A3F50873D7
:104B70001B6804331B6818460AF0BBFD034687F820
:104B80001B3297F81B32062B01D90423BFE007F52F
:104B90000873A3F508731B6808331B6818460AF0EE
:104BA000A8FD034687F81A3297F81A32012B01D96B
:104BB0000423ACE04FF400615748FFF715FE4FF4B3
:104BC00080515548FFF710FE07F50873A3F50773EA
:104BD0001B6803F18043013B9B0007F50872A2F5B7
:104BE0000872126813441B68C7F81432D7F81432DD
:104BF0004A4A934203D14A4B01221A7002E0484BC1
:104C000000221A70D7F81432464A934203D1464B19
:104C100001221A7002E0444B00221A70022387F826
:104C2000133297F81B3287F8103297F81A3287F848
:104C3000113207F5047197F8130207F58873019391
:104C4000012300930323022207F094FE07F10F02D1
:104C500007F1100107F58873184607F011FF07F5F3
:104C60000873A3F211231B78002B2CD00023C7F864
:104C70001C3210E007F50873A3F50472D7F81C3254
:104C800013441B7819462948FDF762F8D7F81C32FF
:104C90000133C7F81C3207F50873A3F211231B7800
:104CA0001A46D7F81C329342E4DB07F50873A3F2E7
:104CB00011231A7807F1100311461846FDF7EAFA96
:104CC000FDF7D0FA22E007F5047197F8130207F513
:104CD00088730193012300930323022207F04AFE05
:104CE00007F10F0207F1100107F58873184607F066
:104CF000C7FE07F50873A3F211231A7807F1100312
:104D000011461846FDF7C6FAFDF7ACFA052318461A
:104D100007F50877BD4680BD000002400050004006
:104D20009379002000440040947900200010014055
:104D300080B5ADF50A7D02AF07F50873A3F50773DB
:104D4000186007F50873A3F50873196007F5087371
:104D5000A3F507731B68022B01DC0323C4E007F5EE
:104D60000873A3F507731B68032B01DD0223BBE067
:104D700007F50873A3F508731B6804331B6818460E
:104D80000AF0B7FC034687F81B3297F81B32012B59
:104D900001D90423A8E04FF400615648FFF724FD31
:104DA0004FF480515348FFF71FFD07F50873A3F533
:104DB00007731B6803F18043013B9B0007F50872F2
:104DC000A2F50872126813441B68C7F81432D7F8AA
:104DD0001432494A934203D1484B01221A7002E02F
:104DE000464B00221A70D7F81432454A934203D139
:104DF000444B01221A7002E0424B00221A70032336
:104E000087F8133297F81B3287F8103207F50471D0
:104E100097F8130207F58873019301230093032386
:104E2000012207F0A7FD07F10F0207F1100107F5B6
:104E30008873184607F024FE07F50873A3F21123C0
:104E40001B78002B2CD00023C7F81C3210E007F58C
:104E50000873A3F50472D7F81C3213441B78194663
:104E60002948FCF775FFD7F81C320133C7F81C320C
:104E700007F50873A3F211231B781A46D7F81C32E2
:104E80009342E4DB07F50873A3F211231A7807F1C4
:104E9000100311461846FDF7FDF9FDF7E3F922E08E
:104EA00007F5047197F8130207F58873019301233E
:104EB00000930323012207F05DFD07F10F0207F1C4
:104EC000100107F58873184607F0DAFD07F5087337
:104ED000A3F211231A7807F1100311461846FDF7C3
:104EE000D9F9FDF7BFF90523184607F50877BD4640
:104EF00080BD00BF000002400050004093790020B8
:104F000000440040947900200010014080B5ADF5C8
:104F10000A7D02AF07F50873A3F50773186007F55C
:104F20000873A3F50873196007F50873A3F50773F1
:104F30001B68022B01DC0323C4E007F50873A3F50B
:104F400007731B68032B01DD0223BBE007F5087321
:104F5000A3F508731B6804331B6818460AF0C9FBE5
:104F6000034687F81B3297F81B32092B01D904231B
:104F7000A8E04FF400615648FFF736FC4FF480512B
:104F80005348FFF731FC07F50873A3F507731B6857
:104F900003F18043013B9B0007F50872A2F50872FC
:104FA000126813441B68C7F81432D7F81432494A00
:104FB000934203D1484B01221A7002E0464B002273
:104FC0001A70D7F81432454A934203D1444B012258
:104FD0001A7002E0424B00221A70042387F8133241
:104FE00097F81B3287F8103207F5047197F813020F
:104FF00007F588730193012300930323012207F02F
:10500000B9FC07F10F0207F1100107F58873184684
:1050100007F036FD07F50873A3F211231B78002B68
:105020002CD00023C7F81C3210E007F50873A3F555
:105030000472D7F81C3213441B7819462948FCF730
:1050400087FED7F81C320133C7F81C3207F5087306
:10505000A3F211231B781A46D7F81C329342E4DBE3
:1050600007F50873A3F211231A7807F1100311460C
:105070001846FDF70FF9FDF7F5F822E007F5047182
:1050800097F8130207F58873019301230093032314
:10509000012207F06FFC07F10F0207F1100107F57D
:1050A0008873184607F0ECFC07F50873A3F2112388
:1050B0001A7807F1100311461846FDF7EBF8FDF7D3
:1050C000D1F80523184607F50877BD4680BD00BF17
:1050D000000002400050004093790020004400404E
:1050E000947900200010014080B5ADF50A7D02AF33
:1050F00007F50873A3F50773186007F50873A3F5A0
:105100000873196007F50873A3F507731B68022B72
:1051100001DC0323C4E007F50873A3F507731B68DC
:10512000032B01DD0223BBE007F50873A3F5087329
:105130001B6804331B6818460AF0DBFA034687F83D
:105140001B3297F81B32062B01D90423A8E04FF439
:1051500000615648FFF748FB4FF480515348FFF772
:1051600043FB07F50873A3F507731B6803F180433E
:10517000013B9B0007F50872A2F508721268134400
:105180001B68C7F81432D7F81432494A934203D146
:10519000484B01221A7002E0464B00221A70D7F8E1
:1051A0001432454A934203D1444B01221A7002E063
:1051B000424B00221A70052387F8133297F81B32EE
:1051C00087F8103207F5047197F8130207F5887312
:1051D0000193012300930323012207F0CBFB07F186
:1051E0000F0207F1100107F58873184607F048FC15
:1051F00007F50873A3F211231B78002B2CD0002392
:10520000C7F81C3210E007F50873A3F50472D7F84D
:105210001C3213441B7819462948FCF799FDD7F82E
:105220001C320133C7F81C3207F50873A3F21123AF
:105230001B781A46D7F81C329342E4DB07F5087353
:10524000A3F211231A7807F1100311461846FDF74F
:1052500021F8FDF707F822E007F5047197F813022B
:1052600007F588730193012300930323012207F0BC
:1052700081FB07F10F0207F1100107F5887318464B
:1052800007F0FEFB07F50873A3F211231A7807F164
:10529000100311461846FCF7FDFFFCF7E3FF05235A
:1052A000184607F50877BD4680BD00BF00000240E4
:1052B0000050004093790020004400409479002081
:1052C0000010014080B5ADF5067D00AF07F506730F
:1052D000A3F50573186007F50673A3F50673196047
:1052E00007F50673A3F505731B68012B01DC032387
:1052F000A3E007F50673A3F505731B68022B01DD18
:1053000002239AE04FF400614E48FFF76DFA4FF424
:1053100080514C48FFF768FA07F50673A3F505734B
:105320001B6803F18043013B9B0007F50672A2F561
:105330000672126813441B68C7F81032D7F810328F
:10534000414A934203D1414B01221A7002E03F4B84
:1053500000221A70D7F810323D4A934203D13D4BD8
:1053600001221A7002E03B4B00221A70062387F8D4
:105370000F3207F5887397F80F020122032107F017
:10538000D1FA07F10F0207F1100107F588731846EB
:1053900007F076FB07F50673A3F209231B78002BB1
:1053A0002CD00023C7F8143210E007F50673A3F5DC
:1053B0000272D7F8143213441B7819462648FCF7BA
:1053C000C7FCD7F814320133C7F8143207F5067357
:1053D000A3F209231B781A46D7F814329342E4DB70
:1053E00007F50673A3F209231A7807F11003114693
:1053F0001846FCF74FFFFCF735FF1DE007F58873F3
:1054000097F80F020122032107F08CFA07F10F022F
:1054100007F1100107F58873184607F031FB07F50F
:105420000673A3F209231A7807F1100311461846F0
:10543000FCF730FFFCF716FF0523184607F5067743
:10544000BD4680BD0000024000500040937900201E
:1054500000440040947900200010014080B483B0E3
:1054600000AF786039607B683A689A6100BF0C379A
:10547000BD465DF8047B704780B483B000AF7860B0
:1054800039603B681A047B689A6100BF0C37BD46DF
:105490005DF8047B7047000080B500AF06490748FF
:1054A00007F0BAF84FF47A71052007F089F8FCF795
:1054B000A5FA00BF80BD00BF1C010020180100201C
:1054C00080B584B000AF314B1B78DBB2002B59D0D4
:1054D000052007F08BF80346002B53D02C4B1B788C
:1054E000DBB2002B36D12B4B1B78DBB2002B49D122
:1054F000294B1B78DBB2002B44D0284B1B78DBB246
:10550000002B3FD0012002F063FB2548FCF78CFD07
:10551000244BBB600923FB710023FB600AE0FB689E
:10552000BA6813441B7819461D48FCF711FCFB6848
:105530000133FB60FB79FA689A42F0DB1A4B0022D8
:105540001A70144B01221A704FF47A71052007F07B
:1055500037F817E0144B1B78DBB2002B12D10D4B40
:1055600000221A70104B01221A704FF47A71052034
:1055700007F026F80D4B1B686F331822FF211846E1
:105580000BF0E7FE00BF1037BD4680BDBD7A00209E
:105590008D78002092790020EA000020E8000020A9
:1055A000001001400C010020E900002058210020DB
:1055B00080B5ADF5067D00AF07F50673A3F505735D
:1055C000186007F50673A3F50673196007F50673EF
:1055D000A3F505731B68012B01DC0323A3E007F58A
:1055E0000673A3F505731B68022B01DD02239AE005
:1055F0004FF400614E48FFF73FFF4FF480514C4895
:10560000FFF72CFF07F50673A3F505731B6803F17D
:105610008043013B9B0007F50672A2F506721268F3
:1056200013441B68C7F81032D7F81032414A93422E
:1056300003D1414B01221A7002E03F4B00221A7045
:10564000D7F810323D4A934203D13D4B01221A70E4
:1056500002E03B4B00221A70012387F80F3207F556
:10566000887397F80F020122022107F05BF907F116
:105670000F0207F1100107F58873184607F000FACA
:1056800007F50673A3F209231B78002B2CD0002307
:10569000C7F8143210E007F50673A3F50272D7F8C5
:1056A000143213441B7819462648FCF751FBD7F8EF
:1056B00014320133C7F8143207F50673A3F2092335
:1056C0001B781A46D7F814329342E4DB07F50673C9
:1056D000A3F209231A7807F1100311461846FCF7C4
:1056E000D9FDFCF7BFFD1DE007F5887397F80F02A1
:1056F0000122022107F016F907F10F0207F110014C
:1057000007F58873184607F0BBF907F50673A3F28F
:1057100009231A7807F1100311461846FCF7BAFD61
:10572000FCF7A0FD0523184607F50677BD4680BDAA
:1057300000000240005000409379002000440040E7
:10574000947900200010014080B5ADF5067D00AFD2
:1057500007F50673A3F50573186007F50673A3F53F
:105760000673196007F50673A3F505731B68012B13
:1057700001DC0323A3E007F50673A3F505731B689B
:10578000022B01DD02239AE04FF400614E48FFF73F
:1057900073FE4FF480514C48FFF760FE07F5067327
:1057A000A3F505731B6803F18043013B9B0007F5DC
:1057B0000672A2F50672126813441B68C7F810320D
:1057C000D7F81032414A934203D1414B01221A705B
:1057D00002E03F4B00221A70D7F810323D4A934244
:1057E00003D13D4B01221A7002E03B4B00221A709C
:1057F000022387F80F3207F5887397F80F0201220A
:10580000022107F08FF807F10F0207F1100107F5E9
:105810008873184607F034F907F50673A3F20923D5
:105820001B78002B2CD00023C7F8143210E007F5AA
:105830000673A3F50272D7F8143213441B78194685
:105840002648FCF785FAD7F814320133C7F814322A
:1058500007F50673A3F209231B781A46D7F814320A
:105860009342E4DB07F50673A3F209231A7807F1E4
:10587000100311461846FCF70DFDFCF7F3FC1DE084
:1058800007F5887397F80F020122022107F04AF802
:1058900007F10F0207F1100107F58873184607F0AA
:1058A000EFF807F50673A3F209231A7807F110033E
:1058B00011461846FCF7EEFCFCF7D4FC052318460D
:1058C00007F50677BD4680BD00000240005000404D
:1058D000937900200044004094790020001001409A
:1058E00080B5ADF5067D00AF07F50673A3F505732A
:1058F000186007F50673A3F50673196007F50673BC
:10590000A3F505731B68012B01DC0323A3E007F556
:105910000673A3F505731B68022B01DD02239AE0D1
:105920004FF400614E48FFF7A7FD4FF480514C48FB
:10593000FFF794FD07F50673A3F505731B6803F1E4
:105940008043013B9B0007F50672A2F506721268C0
:1059500013441B68C7F81032D7F81032414A9342FB
:1059600003D1414B01221A7002E03F4B00221A7012
:10597000D7F810323D4A934203D13D4B01221A70B1
:1059800002E03B4B00221A70032387F80F3207F521
:10599000887397F80F020122022106F0C3FF07F176
:1059A0000F0207F1100107F58873184607F068F831
:1059B00007F50673A3F209231B78002B2CD00023D4
:1059C000C7F8143210E007F50673A3F50272D7F892
:1059D000143213441B7819462648FCF7B9F9D7F856
:1059E00014320133C7F8143207F50673A3F2092302
:1059F0001B781A46D7F814329342E4DB07F5067396
:105A0000A3F209231A7807F1100311461846FCF790
:105A100041FCFCF727FC1DE007F5887397F80F029F
:105A20000122022106F07EFF07F10F0207F11001AB
:105A300007F58873184607F023F807F50673A3F2F5
:105A400009231A7807F1100311461846FCF722FCC7
:105A5000FCF708FC0523184607F50677BD4680BD10
:105A600000000240005000409379002000440040B4
:105A7000947900200010014080B5ADF5067D00AF9F
:105A800007F50673A3F50573186007F50673A3F50C
:105A90000673196007F50673A3F505731B68012BE0
:105AA00001DC0323A3E007F50673A3F505731B6868
:105AB000022B01DD02239AE04FF400614E48FFF70C
:105AC000DBFC4FF480514C48FFF7C8FC07F5067328
:105AD000A3F505731B6803F18043013B9B0007F5A9
