:020000040800F2
:1000000000000220B1A8000819A6000821A60008D7
:1000100029A6000831A6000839A600080000000043
:1000200000000000000000000000000041A60008E1
:100030004FA60008000000005DA600086DA600089D
:1000400001A9000801A9000801A9000801A90008E8
:1000500001A9000801A9000801A9000801A90008D8
:1000600001A9000801A9000801A9000801A90008C8
:1000700001A9000801A9000801A9000801A90008B8
:1000800001A9000801A9000801A9000801A90008A8
:1000900001A9000801A9000801A9000801A9000898
:1000A00001A9000801A9000801A9000801A9000888
:1000B00001A9000801A9000801A9000801A9000878
:1000C00001A9000801A9000801A9000801A9000868
:1000D00001A9000889A600089DA60008B1A600088D
:1000E00001A9000801A9000801A9000801A9000848
:1000F00001A9000801A9000801A9000801A9000838
:1001000001A9000801A9000801A9000801A9000827
:10011000C5A60008D9A6000801A9000801A9000881
:1001200001A9000801A9000801A9000801A9000807
:1001300001A90008000000000000000001A900085B
:1001400001A9000801A9000801A9000801A90008E7
:1001500001A9000801A9000801A90008EDA60008EE
:1001600001A9000801A9000801A9000801A90008C7
:1001700001A9000801A9000800000000000000001B
:0801800001A9000801A9000813
:1001900010B5054C237833B9044B13B10448AFF3C1
:1001A00000800123237010BD1C0600200000000009
:1001B0003433010808B5034B1BB103490348AFF3BF
:1001C000008008BD00000000200600203433010834
:1001D00010F8012B11F8013B012A28BF9A42F7D0F1
:1001E000D01A70470000000000000000000000006E
:1001F00001F0FF01102A2BDB10F0070F08D010F8D8
:10020000013B013A8B422DD010F0070F42B3F6D1DB
:10021000F0B441EA012141EA014122F007047FF0F4
:1002200000070023F0E80256083C85EA010586EA4B
:10023000010685FA47F5A3FA87F586FA47F6A5FA87
:1002400087F68EB9EED1F0BC01F0FF0102F0070293
:1002500032B110F8013B013A83EA010313B1F8D13E
:100260000020704701387047002D06BF354603381F
:10027000073815F0010F07D1013015F4807F02BF58
:10028000013015F4C03F0130F0BC0138704700BFA9
:10029000034613F8012B002AFBD1181A01387047C6
:1002A00081F0004102E000BF83F0004330B54FEA27
:1002B00041044FEA430594EA050F08BF90EA020F94
:1002C0001FBF54EA000C55EA020C7FEA645C7FEA27
:1002D000655C00F0E2804FEA5454D4EB5555B8BF4A
:1002E0006D420CDD2C4480EA020281EA030382EABB
:1002F000000083EA010180EA020281EA0303362D4D
:1003000088BF30BD11F0004F4FEA01314FF4801C1F
:100310004CEA113102D0404261EB410113F0004F31
:100320004FEA03334CEA133302D0524263EB4303E8
:1003300094EA050F00F0A780A4F10104D5F1200E86
:100340000DDB02FA0EFC22FA05F2801841F10001E1
:1003500003FA0EF2801843FA05F359410EE0A5F1B5
:1003600020050EF1200E012A03FA0EFC28BF4CF0E6
:10037000020C43FA05F3C01851EBE37101F000459C
:1003800007D54FF0000EDCF1000C7EEB00006EEBA9
:100390000101B1F5801F1BD3B1F5001F0CD3490833
:1003A0005FEA30004FEA3C0C04F101044FEA44528A
:1003B00012F5800F80F09A80BCF1004F08BF5FEA11
:1003C000500C50F1000041EB045141EA050130BDF1
:1003D0005FEA4C0C404141EB0101013C28BFB1F503
:1003E000801FE9D291F0000F04BF01460020B1FA4E
:1003F00081F308BF2033A3F10B03B3F120020CDA21
:100400000C3208DD02F1140CC2F10C0201FA0CF0FE
:1004100021FA02F10CE002F11402D8BFC2F1200C63
:1004200001FA02F120FA0CFCDCBF41EA0C01904019
:10043000E41AA2BF01EB0451294330BD6FEA040462
:100440001F3C1CDA0C340EDC04F11404C4F120024D
:1004500020FA04F001FA02F340EA030021FA04F35F
:1004600045EA030130BDC4F10C04C4F1200220FAB6
:1004700002F001FA04F340EA0300294630BD21FAF4
:1004800004F0294630BD94F0000F83F4801306BFBA
:1004900081F480110134013D4EE77FEA645C18BFAE
:1004A0007FEA655C29D094EA050F08BF90EA020F45
:1004B00005D054EA000C04BF1946104630BD91EA3D
:1004C000030F1EBF0021002030BD5FEA545C05D140
:1004D0004000494128BF41F0004130BD14F580047F
:1004E0003CBF01F5801130BD01F0004545F0FE41F3
:1004F00041F470014FF0000030BD7FEA645C1ABF28
:10050000194610467FEA655C1CBF0B46024650EA5E
:10051000013406BF52EA033591EA030F41F400218A
:1005200030BD00BF90F0000F04BF0021704730B510
:100530004FF4806404F132044FF000054FF00001E5
:1005400050E700BF90F0000F04BF0021704730B5A6
:100550004FF4806404F1320410F0004548BF40427B
:100560004FF000013EE700BF42004FEAE2014FEAD0
:1005700031014FEA02701FBF12F07F4393F07F4FAB
:1005800081F06051704732F07F4208BF704793F0AE
:100590007F4F04BF41F40021704730B54FF46074C1
:1005A00001F0004521F000411CE700BF50EA0102C4
:1005B00008BF704730B54FF000050AE050EA01026D
:1005C00008BF704730B511F0004502D5404261EBDD
:1005D00041014FF4806404F132045FEA915C3FF41E
:1005E000D8AE4FF003025FEADC0C18BF03325FEABB
:1005F000DC0C18BF033202EBDC02C2F1200300FA6C
:1006000003FC20FA02F001FA03FE40EA0E0021FA90
:1006100002F11444BDE600BF70B54FF0FF0C4CF47E
:10062000E06C1CEA11541DBF1CEA135594EA0C0F30
:1006300095EA0C0F00F0DEF82C4481EA030621EA6B
:100640004C5123EA4C5350EA013518BF52EA0335A6
:1006500041F4801143F4801338D0A0FB02CE4FF058
:100660000005E1FB02E506F00042E0FB03E54FF088
:100670000006E1FB03569CF0000F18BF4EF0010E80
:10068000A4F1FF04B6F5007F64F5407404D25FEA7C
:100690004E0E6D4146EB060642EAC62141EA55512F
:1006A0004FEAC52040EA5E504FEACE2EB4F1FD0C71
:1006B00088BFBCF5E06F1ED8BEF1004F08BF5FEAEF
:1006C000500E50F1000041EB045170BD06F00046A1
:1006D00046EA010140EA020081EA0301B4EB5C044E
:1006E000C2BFD4EB0C0541EA045170BD41F4801146
:1006F0004FF0000E013C00F3AB8014F1360FDEBF6B
:10070000002001F0004170BDC4F10004203C35DA46
:100710000C341BDC04F11404C4F1200500FA05F3C9
:1007200020FA04F001FA05F240EA020001F000426A
:1007300021F0004110EBD37021FA04F642EB0601E0
:100740005EEA430E08BF20EAD37070BDC4F10C040A
:10075000C4F1200500FA04F320FA05F001FA04F2CE
:1007600040EA020001F0004110EBD37041F10001BA
:100770005EEA430E08BF20EAD37070BDC4F12005C5
:1007800000FA05F24EEA020E20FA04F301FA05F22D
:1007900043EA020321FA04F001F0004121FA04F2D5
:1007A00020EA020000EBD3705EEA430E08BF20EAA5
:1007B000D37070BD94F0000F0FD101F000464000DF
:1007C00041EB010111F4801F08BF013CF7D041EA61
:1007D000060195F0000F18BF704703F00046520065
:1007E00043EB030313F4801F08BF013DF7D043EA36
:1007F0000603704794EA0C0F0CEA135518BF95EAEC
:100800000C0F0CD050EA410618BF52EA4306D1D172
:1008100081EA030101F000414FF0000070BD50EA91
:10082000410606BF1046194652EA430619D094EA1B
:100830000C0F02D150EA013613D195EA0C0F05D105
:1008400052EA03361CBF104619460AD181EA030159
:1008500001F0004141F0FE4141F470014FF0000011
:1008600070BD41F0FE4141F4780170BD70B54FF0AC
:10087000FF0C4CF4E06C1CEA11541DBF1CEA13552C
:1008800094EA0C0F95EA0C0F00F0A7F8A4EB05040E
:1008900081EA030E52EA03354FEA013100F0888005
:1008A0004FEA03334FF0805545EA131343EA1263CE
:1008B0004FEA022245EA111545EA10654FEA002683
:1008C0000EF000419D4208BF964244F1FD0404F53C
:1008D000407402D25B084FEA3202B61A65EB030598
:1008E0005B084FEA32024FF480104FF4002CB6EB55
:1008F000020E75EB030E22BFB61A754640EA0C00D5
:100900005B084FEA3202B6EB020E75EB030E22BF14
:10091000B61A754640EA5C005B084FEA3202B6EB55
:10092000020E75EB030E22BFB61A754640EA9C0014
:100930005B084FEA3202B6EB020E75EB030E22BFE4
:10094000B61A754640EADC0055EA060E18D04FEAA2
:10095000051545EA16754FEA06164FEAC30343EA42
:1009600052734FEAC2025FEA1C1CC0D111F4801F0F
:100970000BD141EA00014FF000004FF0004CB6E708
:1009800011F4801F04BF01430020B4F1FD0C88BFA7
:10099000BCF5E06F3FF6AFAEB5EB030C04BFB6EBB2
:1009A000020C5FEA500C50F1000041EB045170BDA5
:1009B0000EF0004E4EEA113114EB5C04C2BFD4EBD2
:1009C0000C0541EA045170BD41F480114FF0000E56
:1009D000013C90E645EA060E8DE60CEA135594EAD2
:1009E0000C0F08BF95EA0C0F3FF43BAF94EA0C0FD5
:1009F0000AD150EA01347FF434AF95EA0C0F7FF44A
:100A000025AF104619462CE795EA0C0F06D152EA9D
:100A100003353FF4FDAE1046194622E750EA410681
:100A200018BF52EA43067FF4C5AE50EA41047FF492
:100A30000DAF52EA43057FF4EBAE12E74FF0FF3CF7
:100A400006E000BF4FF0010C02E000BF4FF0010CC8
:100A50004DF804CD4FEA410C7FEA6C5C4FEA430C41
:100A600018BF7FEA6C5C1BD001B050EA410C0CBF90
:100A700052EA430C91EA030F02BF90EA020F0020F2
:100A8000704710F1000F91EA030F58BF994208BF59
:100A900090422CBFD8176FEAE37040F00100704716
:100AA0004FEA410C7FEA6C5C02D150EA013C07D16D
:100AB0004FEA430C7FEA6C5CD6D152EA033CD3D0B8
:100AC0005DF8040B704700BF8446104662468C46B2
:100AD0001946634600E000BF01B5FFF7B7FF0028E5
:100AE00048BF10F1000F01BD4DF808EDFFF7F4FF0E
:100AF0000CBF012000205DF808FB00BF4DF808ED99
:100B0000FFF7EAFF34BF012000205DF808FB00BFBB
:100B10004DF808EDFFF7E0FF94BF012000205DF8DD
:100B200008FB00BF4DF808EDFFF7CEFF94BF012092
:100B300000205DF808FB00BF4DF808EDFFF7C4FF8B
:100B400034BF012000205DF808FB00BF4FEA410CD4
:100B50007FEA6C5C02D150EA013C0AD14FEA430CB7
:100B60007FEA6C5C02D152EA033C02D14FF00000F4
:100B700070474FF0010070474FEA410212F5001232
:100B800015D211D56FF47873B3EB625212D94FEAD4
:100B9000C12343F0004343EA505311F0004F23FABE
:100BA00002F018BF404270474FF00000704750EA13
:100BB000013005D111F0004008BF6FF000407047D0
:100BC0004FF00000704700BF4A0011D212F500122A
:100BD00011D20DD56FF47873B3EB62520ED44FEA95
:100BE000C12343F0004343EA505323FA02F0704715
:100BF0004FF00000704750EA013002D14FF0FF3053
:100C000070474FF0000070474FEA4102B2F1E043F5
:100C100024BFB3F5001CDCF1FE5C0DD901F0004CE3
:100C20004FEAC0024CEA5070B2F1004F40EB830033
:100C300008BF20F00100704711F0804F21D113F15F
:100C40003872BCBF01F00040704741F480114FEA98
:100C50005252C2F11802C2F1200C10FA0CF320FA21
:100C600002F018BF40F001004FEAC1234FEAD3233E
:100C700003FA0CFC40EA0C0023FA02F34FEA4303A8
:100C8000CCE77FEA625307D150EA01331EBF4FF031
:100C9000FE4040F44000704701F0004040F0FE404C
:100CA00040F40000704700BF53B94AB9002908BF9B
:100CB00000281CBF4FF0FF314FF0FF3000F0A0B90B
:100CC000ADF1080C6DE904CE00F03CF8DDF804E06D
:100CD000DDE9022304B0704738B500220023044642
:100CE0000D46FFF70BFF28B920462946BDE83840DE
:100CF00000F00AB8204605F1004100F005F8404236
:100D000061EB410138BD00BFD0B50C4B0022064657
:100D10000F46FFF781FCFFF757FF0446FFF702FC81
:100D2000074B0022FFF778FC02460B463046394657
:100D3000FFF7BAFAFFF748FF2146D0BD0000F03DAB
:100D40000000F0412DE9F047089D0C46002B4ED1E4
:100D500094468C458646B2FA82F262D94AB1C2F113
:100D60002003914020FA03F30CFA02FC194300FA25
:100D700002FE4FEA1C471FFA8CF6B1FBF7F44FEA6C
:100D80001E4307FB141143EA014304FB06F1994299
:100D90000AD91CEB030304F1FF3080F01281994261
:100DA00040F20F81023C6344591A1FFA8EF3B1FBE3
:100DB000F7F007FB101143EA014300FB06F69E42E1
:100DC0000AD91CEB030300F1FF3180F0FC809E4246
:100DD00040F2F980634402389B1B40EA0440002142
:100DE0001DB1D3400022C5E90032BDE8F0878B4237
:100DF00005D90DB1C5E9000100210846F5E7B3FAB0
:100E000083F1002946D1A34202D39042C0F0F08082
:100E1000861A64EB03030120002DE6D0C5E90063C8
:100E2000E3E7002A40F09080A1EB0C044FEA1C4855
:100E30001FFA8CF70121B4FBF8F64FEA1E4308FBBA
:100E4000164443EA044307FB06F0984208D91CEB1A
:100E5000030306F1FF3402D2984200F2CD80264609
:100E60001C1A1FFA8EF3B4FBF8F008FB104443EA97
:100E7000044300FB07F79F4208D91CEB030300F172
:100E8000FF3402D29F4200F2B0802046DB1B40EAD2
:100E90000640A5E7C1F120068B4022FA06F71F4362
:100EA00020FA06FC04FA01F343EA0C03F44000FACA
:100EB00001F8380C4FEA1349B4FBF0FE1FFA87FC27
:100EC00000FB1E4449EA04440EFB0CF9A14502FA5A
:100ED00001F20AD93C190EF1FF3A80F08480A14555
:100EE00040F28180AEF1020E3C44A4EB09041FFAEB
:100EF00083F9B4FBF0F300FB134449EA044403FB19
:100F00000CFCA44507D93C1903F1FF3067D2A44576
:100F100065D9023B3C4443EA0E40A0FB0293A4EB9C
:100F20000C049C42CE469C4651D34ED055B1B8EBF2
:100F30000E0364EB0C0404FA06F6CB401E43CC40CF
:100F4000C5E90064002150E7C2F1200320FA03F153
:100F50000CFA02FC24FA03F394400C434FEA1C48B9
:100F600000FA02FE1FFA8CF7B3FBF8F008FB103111
:100F7000230C43EA014300FB07F1994208D91CEB1B
:100F8000030300F1FF362CD299422AD90238634478
:100F90005B1AA4B2B3FBF8F108FB113344EA034433
:100FA00001FB07F3A34208D91CEB040401F1FF364F
:100FB00013D2A34211D902396444E41A41EA004130
:100FC00039E70446F0E6084606E7C845AED2B9EB75
:100FD000020E63EB070C0138A8E73146EDE7034644
:100FE00099E73046D4E7D6467FE7634402384DE7B9
:100FF0000646234608460FE7023E634430E700BF3B
:10100000704700BF80B483B000AF78607B685B69D5
:1010100003F08003802B0CBF01230023DBB21846B2
:101020000C37BD465DF8047B704780B483B000AFD9
:1010300078607B685B6903F04003402B0CBF0123A1
:101040000023DBB218460C37BD465DF8047B7047C1
:1010500080B483B000AF78607B685B6903F0010304
:10106000012B0CBF01230023DBB218460C37BD4611
:101070005DF8047B704780B483B000AF78607B6814
:101080005B6903F00203022B0CBF01230023DBB2D8
:1010900018460C37BD465DF8047B704780B483B0BA
:1010A00000AF78607B689B6903F00203022B0CBFE2
:1010B00001230023DBB218460C37BD465DF8047BE4
:1010C000704780B485B000AF78607B685B69FB6077
:1010D000FB687B689B69FB60FB6800BF1437BD46FB
:1010E0005DF8047B704780B483B000AF78603960EE
:1010F0007B681B6823F480623B681A437B681A6034
:1011000000BF0C37BD465DF8047B704780B483B0E8
:1011100000AF78607B681B6843F480727B681A605C
:1011200000BF0C37BD465DF8047B704780B483B0C8
:1011300000AF78607B681B6843F400727B681A60BC
:1011400000BF0C37BD465DF8047B704780B483B0A8
:1011500000AF78607B681B69DBB218460C37BD4670
:101160005DF8047B704780B483B000AF78600B46B5
:10117000FB707B681B6923F0FF02FB781A437B68D6
:101180001A6100BF0C37BD465DF8047B7047000054
:1011900080B582B000AF03460A46FB711346BB71AF
:1011A00000BF1E48FFF77AFF0346002BF9D11B480A
:1011B000FFF7ACFF00BF1948FFF74AFF0346002BBB
:1011C000F9D0D0211548FFF7CEFF00BF1348FFF735
:1011D00052FF0346002BF9D01048FFF772FFFB794E
:1011E00019460E48FFF7BFFF00BF0C48FFF70AFF84
:1011F0000346002BF9D0BB7919460848FFF7B3FF27
:1012000000BF0648FFF7FEFE0346002BF9D0034857
:10121000FFF78CFF00BF0837BD4680BD005400407B
:1012200080B584B000AF0346FB710023FB7300BFA1
:101230002C48FFF733FF0346002BF9D12948FFF76D
:1012400065FF00BF2748FFF703FF0346002BF9D0D7
:10125000D0212448FFF787FF00BF2248FFF70BFF8C
:101260000346002BF9D01F48FFF72BFFFB791946E7
:101270001C48FFF778FF00BF1A48FFF7C3FE03467C
:10128000002BF9D01748FFF741FF00BF1548FFF7C3
:10129000DFFE0346002BF9D0D1211248FFF763FF90
:1012A00000BF1048FFF7E7FE0346002BF9D00D48BA
:1012B000FFF707FF00210B48FFF715FF00BF0948A4
:1012C000FFF7B3FE0346002BF9D00648FFF73EFFB9
:1012D0000346FB730348FFF729FFFB7B18461037D3
:1012E000BD4680BD0054004090B583B000AF0446B9
:1012F000084611461A462346FB710346BB710B464E
:101300007B7113463B7197F82030554AA2FB0323AB
:10131000DB08DBB21B0158B297F82020504BA3FB2F
:101320000213D9080B469B000B445B00D31ADBB2B7
:101330005BB203435BB2DBB219460020FFF728FF24
:101340003B7F474AA2FB0323DB08DBB21B0158B2F9
:101350003A7F434BA3FB0213D9080B469B000B4477
:101360005B00D31ADBB25BB203435BB2DBB219465C
:101370000120FFF70DFF3B7E394AA2FB0323DB0868
:10138000DBB21B0158B23A7E354BA3FB0213D908DE
:101390000B469B000B445B00D31ADBB25BB20343EA
:1013A0005BB2DBB219460220FFF7F2FEFB79194669
:1013B0000320FFF7EDFEBB79294AA2FB0323DB08DC
:1013C000DBB21B0158B2BA79254BA3FB0213D90833
:1013D0000B469B000B445B00D31ADBB25BB20343AA
:1013E0005BB2DBB219460420FFF7D2FE7B791C4AC0
:1013F000A2FB0323DB08DBB21B0158B27A79184B3E
:10140000A3FB0213D9080B469B000B445B00D31AC5
:10141000DBB25BB203435BB2DBB219460520FFF7D8
:10142000B7FE3B790E4AA2FB0323DB08DBB21B01AC
:1014300058B23A790A4BA3FB0213D9080B469B001A
:101440000B445B00D31ADBB25BB203435BB2DBB28B
:1014500019460620FFF79CFE00BF0C37BD4690BD25
:10146000CDCCCCCC80B584B000AFF860B9607A60E8
:101470003B600020FFF7D4FE03461A463B6A1A7011
:101480000120FFF7CDFE03461A46FB691A700220C1
:10149000FFF7C6FE03461A46BB691A700320FFF722
:1014A000BFFE03461A46FB681A700420FFF7B8FE19
:1014B00003461A46BB681A700520FFF7B1FE0346C3
:1014C0001A467B681A700620FFF7AAFE03461A46E2
:1014D0003B681A703B6A1B781B09DBB21A46920004
:1014E00013445B00DAB23B6A1B7803F00F03DBB2F4
:1014F0001344DAB23B6A1A70FB691B781B09DBB232
:101500001A46920013445B00DAB2FB691B7803F0C1
:101510000F03DBB21344DAB2FB691A70BB691B78A4
:101520001B09DBB21A46920013445B00DAB2BB69B6
:101530001B7803F00F03DBB21344DAB2BB691A70F5
:10154000BB681B781B09DBB21A46920013445B0090
:10155000DAB2BB681B7803F00F03DBB21344DAB2D4
:10156000BB681A707B681B781B09DBB21A469200B5
:1015700013445B00DAB27B681B7803F00F03DBB225
:101580001344DAB27B681A703B681B781B09DBB224
:101590001A46920013445B00DAB23B681B7803F0F2
:1015A0000F03DBB21344DAB23B681A7000BF103786
:1015B000BD4680BD80B582B000AF1120FFF730FE80
:1015C0000346FB711220FFF72BFE0346BB71FB792C
:1015D0001B021AB2BB791BB21343BB80B7F90430AC
:1015E0001846FEF7AFFF4FF00002094BFFF73EF938
:1015F00002460B4610461946FFF706FB03463B60C2
:101600003B6807EE903AB0EE670A0837BD4680BDEA
:101610000000704080B483B000AF03463960FB71B6
:1016200097F90730002B0ADB3B68DAB20C4997F9CF
:1016300007301201D2B20B4483F800230AE03B6862
:10164000DAB20849FB7903F00F03043B1201D2B26E
:101650000B441A7600BF0C37BD465DF8047B70471B
:1016600000E100E000ED00E080B582B000AF7860FE
:101670007B68013BB3F1807F01D301230FE00A4A6D
:101680007B68013B53600F214FF0FF30FFF7C2FF33
:10169000054B00229A60044B07221A60002318466B
:1016A0000837BD4680BD00BF10E000E080B400AF49
:1016B000054B1B68044A43F00103136000BFBD469D
:1016C0005DF8047B704700BF10E000E080B500AF1C
:1016D000054B1B68054AA2FB03239B091846FFF72D
:1016E000C3FF00BF80BD00BF40040020D34D621087
:1016F00080B483B000AF78607B681B6803F002039E
:10170000022B0CBF01230023DBB218460C37BD4669
:101710005DF8047B704780B483B000AF78607B686D
:101720001B6803F00403042B0CBF01230023DBB26E
:1017300018460C37BD465DF8047B704780B483B013
:1017400000AF78607B681B6803F00803082B0CBFB0
:1017500001230023DBB218460C37BD465DF8047B3D
:10176000704780B483B000AF78607B681B6803F07B
:101770002003202B0CBF01230023DBB218460C37BB
:10178000BD465DF8047B704780B483B000AF7860DD
:101790007B681B6803F08003802B0CBF01230023B0
:1017A000DBB218460C37BD465DF8047B704780B449
:1017B00085B000AF78607B681B68FB60FB687B6866
:1017C0005B68FB60FB6800BF1437BD465DF8047BB7
:1017D000704780B485B000AF78607B681B68FB60A1
:1017E000FB687B685B68FB60FB6800BF1437BD4625
:1017F0005DF8047B704780B485B000AF78607B688B
:101800001B68FB60FB687B685B68FB60FB6800BF74
:101810001437BD465DF8047B704780B489B000AFD3
:1018200078607B680C33FB60FB6853E8003FBB606B
:10183000BB6843F02003FB617B680C33FA69BA6133
:101840007B617969BA6941E800233B613B69002B00
:10185000E7D100BF00BF2437BD465DF8047B704769
:1018600080B489B000AF78607B680C33FB60FB68A4
:1018700053E8003FBB60BB6843F08003FB617B68BB
:101880000C33FA69BA617B617969BA6941E800236E
:101890003B613B69002BE7D100BF00BF2437BD4649
:1018A0005DF8047B704780B489B000AF78607B68D6
:1018B0001433FB60FB6853E8003FBB60BB6843F038
:1018C0000103FB617B681433FA69BA617B61796952
:1018D000BA6941E800233B613B69002BE7D100BFB7
:1018E00000BF2437BD465DF8047B704780B489B0E3
:1018F00000AF78607B680C33FB60FB6853E8003F07
:10190000BB60BB6823F02003FB617B680C33FA6982
:10191000BA617B617969BA6941E800233B613B693F
:10192000002BE7D100BF00BF2437BD465DF8047B24
:10193000704780B489B000AF78607B680C33FB607F
:10194000FB6853E8003FBB60BB6823F08003FB618A
:101950007B680C33FA69BA617B617969BA6941E8DD
:1019600000233B613B69002BE7D100BF00BF243758
:10197000BD465DF8047B704780B483B000AF7860EB
:101980007B68DB6803F02003202B0CBF01230023BE
:10199000DBB218460C37BD465DF8047B704780B457
:1019A00083B000AF78607B68DB6803F08003802B36
:1019B0000CBF01230023DBB218460C37BD465DF88F
:1019C000047B704780B483B000AF78607B685B684D
:1019D000DBB218460C37BD465DF8047B704780B417
:1019E00083B000AF78600B46FB70FA787B685A6072
:1019F00000BF0C37BD465DF8047B704780B500AF73
:101A0000284B294A1A60294B294A1A60294B2A4A2D
:101A10001A602A4B2A4A1A602A4B2B4A1A602B4B0F
:101A20002B4A1A602B4B2C4A1A602C4B2C4A1A60FA
:101A30002C4B2D4A1A602D4B2D4A1A602D4B1B68DA
:101A40001846FFF730FF2C4B1B681846FFF72BFF9B
:101A50002A4B1B681846FFF726FF294B1B681846C0
:101A6000FFF721FF274B1B681846FFF71CFF214B90
:101A70001B681846FFF7D1FE1F4B1B681846FFF77F
:101A8000CCFE1E4B1B681846FFF7C7FE1C4B1B689D
:101A90001846FFF7C2FE1B4B1B681846FFF7BDFE3A
:101AA00000BF80BD88560020380600208C560020DC
:101AB000400E00209056002048160020945600202A
:101AC000501E002098560020582600209C560020CA
:101AD000602E0020A056002068360020A45600206A
:101AE000703E0020A856002078460020AC5600200A
:101AF000804E00200000002004000020080000208C
:101B00000C0000201000002080B584B000AF034618
:101B10003960FB713B68D3F800380133C3F30A0323
:101B2000FB603B68D3F80428FB689A423BD0204B0B
:101B30001B681846FFF7DAFE1E4B1B681846FFF7B6
:101B4000D5FE1D4B1B681846FFF7D0FE1B4B1B68CC
:101B50001846FFF7CBFE1A4B1B681846FFF7C6FE68
:101B60003B68D3F800383A68F979D154FA683B6891
:101B7000C3F800280E4B1B681846FFF74EFE0D4BAE
:101B80001B681846FFF749FE0B4B1B681846FFF70A
:101B900044FE0A4B1B681846FFF73FFE084B1B68C4
:101BA0001846FFF73AFE00BF1037BD4680BD00BFA4
:101BB0000000002004000020080000200C0000208D
:101BC0001000002080B584B000AF78607B68504A78
:101BD00093420FD04E4A93421CD84E4A934215D09E
:101BE0004C4A934216D84C4A934207D04B4A9342F0
:101BF00008D00FE04A4B1B68FB600FE0494B1B68A5
:101C0000FB600BE0484B1B68FB6007E0474B1B6821
:101C1000FB6003E0464B1B68FB6000BFFB68D3F82A
:101C20000028FB68D3F804389A4202D14FF0FF3302
:101C300069E07B68364A934205D13E4B1B681846E3
:101C4000FFF754FE22E07B68334A934205D13A4BBA
:101C50001B681846FFF74AFE18E07B682F4A93423C
:101C600005D1364B1B681846FFF740FE0EE07B6837
:101C7000284A934205D1324B1B681846FFF736FEBF
:101C800004E0304B1B681846FFF730FEFB68D3F8C2
:101C90000438FA68D35CFB72FB68D3F8043801336C
:101CA000C3F30A02FB68C3F804287B68184A93420E
:101CB00005D1204B1B681846FFF7AFFD22E07B687B
:101CC000154A934205D11C4B1B681846FFF7A5FD2A
:101CD00018E07B68114A934205D1184B1B681846DF
:101CE000FFF79BFD0EE07B680A4A934205D1144B37
:101CF0001B681846FFF791FD04E0124B1B6818465D
:101D0000FFF78BFDFB7A18461037BD4680BD00BF3C
:101D100000100140005000400044004000480040D6
:101D2000885600209056002098560020A05600208B
:101D3000A856002000000020040000200800002019
:101D40000C0000201000002080B584B000AF786047
:101D500039607B68694A93420FD0684A93421CD825
:101D6000674A934215D0664A934216D8654A934211
:101D700007D0654A934208D00FE0644B1B68FB60B4
:101D80000FE0634B1B68FB600BE0624B1B68FB6062
:101D900007E0614B1B68FB6003E0604B1B68FB6066
:101DA00000BF3B68002BC0F2A580FB68D3F8003869
:101DB0000133C3F30A03BB607B68504A934205D1E9
:101DC000574B1B681846FFF791FD22E07B684D4A90
:101DD000934205D1534B1B681846FFF787FD18E067
:101DE0007B68494A934205D14F4B1B681846FFF761
:101DF0007DFD0EE07B68424A934205D14B4B1B6848
:101E00001846FFF773FD04E0494B1B681846FFF7BF
:101E10006DFD00BFFB68D3F80428BB689A42F9D077
:101E2000FB68D3F800383A68D1B2FA68D154BA687E
:101E3000FB68C3F800287B68304A934205D1384BD1
:101E40001B681846FFF7E9FC22E07B682D4A9342A5
:101E500005D1344B1B681846FFF7DFFC18E07B68A0
:101E6000294A934205D1304B1B681846FFF7D5FC31
:101E70000EE07B68224A934205D12C4B1B68184622
:101E8000FFF7CBFC04E02A4B1B681846FFF7C5FCA4
:101E90007B681A4A93420FD0184A934224D8184AB2
:101EA00093421BD0164A93421ED8164A934209D039
:101EB000154A93420CD017E0194B1B681846FFF7E0
:101EC000CFFC17E0174B1B681846FFF7C9FC11E061
:101ED000154B1B681846FFF7C3FC0BE0134B1B6840
:101EE0001846FFF7BDFC05E0114B1B681846FFF7CD
:101EF000B7FC00BF00BF1037BD4680BD00100140D9
:101F00000050004000440040004800408C56002033
:101F1000945600209C560020A4560020AC56002069
:101F20000000002004000020080000200C00002019
:101F30001000002080B485B000AF78607B681E4A36
:101F400093420FD01C4A93421CD81C4A934215D08E
:101F50001A4A934216D81A4A934207D0194A934212
:101F600008D00FE0184B1B68FB600FE0174B1B6895
:101F7000FB600BE0164B1B68FB6007E0154B1B6812
:101F8000FB6003E0144B1B68FB6000BFFB68D3F8E9
:101F900000389AB2FB68D3F804389BB2D31A9BB2CC
:101FA00003F500639BB2C3F30A0318461437BD461A
:101FB0005DF8047B704700BF0010014000500040F6
:101FC0000044004000480040885600209056002001
:101FD00098560020A0560020A856002080B582B058
:101FE00000AF7860396007E03B685A1C3A601B78A4
:101FF00019467868FFF7A8FE3B681B78002BF3D1E1
:1020000000BF00BF0837BD4680BD000080B584B06A
:1020100000AF78607B681D4A93420FD01B4A934201
:102020001CD81B4A934215D0194A934216D8194A14
:10203000934207D0184A934208D00FE0174B1B6811
:10204000FB600FE0164B1B68FB600BE0154B1B6839
:10205000FB6007E0144B1B68FB6003E0134B1B683D
:10206000FB6000BFFB684FF40062002118460DF0D2
:1020700004FEFB680022C3F80028FB680022C3F8B6
:10208000042800BF1037BD4680BD00BF00100140CE
:1020900000500040004400400048004088560020A6
:1020A0009056002098560020A0560020A8560020E8
:1020B00080B586B000AF78607B684C4A93420FD001
:1020C0004A4A934228D84A4A93421ED0484A9342E9
:1020D00022D8484A93420AD0474A93420ED01BE086
:1020E000464B1B687B61464B1B683B611BE0454BC5
:1020F0001B687B61444B1B683B6114E0434B1B68CE
:102100007B61434B1B683B610DE0424B1B687B616D
:10211000414B1B683B6106E0404B1B687B61404BB9
:102120001B683B6100BF7868FFF71BFB0346002B71
:102130002CD07868FFF720FC0346002B26D0786867
:10214000FFF740FC0346FB737868FFF7F7FA034696
:10215000002B0BD17868FFF7CBFA0346002B05D193
:102160007868FFF7D8FA0346002B09D07868FFF7A4
:1021700042FB7868FFF71BFB7868FFF72AFB32E029
:10218000FB7B79691846FFF7BFFC2CE07868FFF706
:10219000FBFA0346002B26D07868FFF700FC0346C5
:1021A000002B20D03B69D3F800283B69D3F80438D2
:1021B0009A4203D17868FFF7BCFB13E03B69D3F880
:1021C00004383A69D35CBB733B69D3F804380133F4
:1021D000C3F30A023B69C3F80428BB7B194678683D
:1021E000FFF7FDFB00BF1837BD4680BD0010014062
:1021F0000050004000440040004800408856002045
:102200008C560020905600209456002098560020AE
:102210009C560020A0560020A4560020A85600205E
:10222000AC56002080B400AF054B00221A70054B5D
:1022300000221A7000BFBD465DF8047B704700BFE6
:10224000B1570020B257002080B400AF034B0122E9
:102250001A7000BFBD465DF8047B7047B15700207F
:1022600080B400AF034B00221A7000BFBD465DF87A
:10227000047B7047B157002080B582B000AF786012
:102280000B46FB7000BF124B1B78DBB2002BFAD160
:102290000F4B01221A70FF2200210E480DF0EDFCB9
:1022A000FB781A4679680B480DF067FD0A4AFB78FF
:1022B0001370074B00221A70084B01221A704FF45A
:1022C0007A71032009F0FAFA00BF0837BD4680BDD5
:1022D000B0570020B0560020AF570020B157002063
:1022E00080B500AF0249034809F014FB00BF80BD70
:1022F000180000201400002080B582B000AF032039
:1023000009F0F2FA0346002B61D0334B1B78DBB2A5
:10231000002B57D0314B1B78DBB2012B33D800BFD9
:102320002F4B1B78DBB2002BFAD12D4B01221A70F8
:102330002C4B1B78DBB21A462B492C480DF01DFDA7
:1023400000237B600AE0294A7B6813441B78194606
:102350002748FFF7F9FC7B6801337B60214B1B7832
:10236000DBB21A467B689342EDDB1C4B1B78DBB279
:102370000133DAB2194B1A70174B01221A70184B3D
:1023800000221A701EE0154B00221A70FFF768FF3A
:1023900018491948FFF722FE18491748FFF71EFE93
:1023A00014491748FFF71AFE14491548FFF716FE9F
:1023B00010491448FFF712FE10491248FFF70EFEAD
:1023C000FFF74EFF4FF47A71032009F077FA00BF50
:1023D0000837BD4680BD00BFB1570020B25700206E
:1023E000B0570020AF570020B0560020B45700204F
:1023F00000100140503301080050004064330108D0
:10240000001401400044004080B483B000AF786005
:1024100039607B683A689A6100BF0C37BD465DF849
:10242000047B704780B500AF0649074809F072FA8F
:102430004FF47A71072009F041FAFFF7DFFA00BF85
:1024400080BD00BF340000203000002080B584B083
:1024500000AF414B1B78DBB2002B79D0072009F08D
:1024600043FA0346002B73D03C4B1B78DBB2002BA6
:102470006ED13B4B1B78DBB2002B30D1394B1B7834
:10248000DBB2002B2BD0384B1B78DBB2002B26D0D5
:10249000032005F063FB3548FFF7B8FD344B7B6044
:1024A0000923FB700023FB600AE0FB687A68134491
:1024B0001B7819462D48FFF747FCFB680133FB608A
:1024C000FB78FA689A42F0DB2A4B00221A70244B00
:1024D00001221A704FF47A71072009F0EFF9254BA9
:1024E0001B78DBB2002B33D1234B1B78DBB20133DB
:1024F000DAB2214B1A70204B1B78DBB2022B27D9A2
:102500001E4B1B78DBB20133DAB21C4B1A701A4B2C
:1025100000221A70174B01221A70114B00221A70F8
:10252000164B1B78DBB2042B12D9144B05221A7000
:102530000123BB6009E0124B1A68BB6807331344E0
:10254000FF221A70BB680133BB60BB68232BF2DD2E
:1025500000BF1037BD4680BDE1590020B1570020B3
:10256000B65800204000002041000020001001402B
:102570002400002042000020B7580020B35800205B
:10258000EC03002080B5ADF50A7D02AF07F50873B6
:10259000A3F50773186007F50873A3F508731960AE
:1025A00007F50873A3F507731B68032B01DC0323EE
:1025B000E4E007F50873A3F507731B68042B01DD3E
:1025C0000223DBE007F50873A3F508731B680433E7
:1025D0001B6818460CF036FB034687F81B3297F849
:1025E0001B32032B01D90423C8E007F50873A3F5B8
:1025F00008731B6808331B6818460CF023FB03465E
:10260000A7F81832B7F81832B3F5FA7F01D90423C6
:10261000B4E04FF400615C48FFF7F6FE4FF48051E0
:102620005948FFF7F1FE07F50873A3F507731B6818
:1026300003F18043013B9B0007F50872A2F5087285
:10264000126813441B68C7F81432D7F814324F4A83
:10265000934203D14E4B01221A7002E04C4B0022F0
:102660001A70D7F814324B4A934203D14A4B0122D5
:102670001A7002E0484B00221A70012387F81332C7
:1026800097F81B3287F81032B7F818321B0A9BB242
:10269000DBB287F81132B7F81832DBB287F81232A2
:1026A00007F5047197F8130207F588730193012366
:1026B00000930523032209F0D9FA07F10F0207F16D
:1026C000100107F58873184609F056FB07F50873E3
:1026D000A3F211231B78002B2CD00023C7F81C3247
:1026E00010E007F50873A3F50472D7F81C32134401
:1026F0001B7819462948FFF727FBD7F81C3201330E
:10270000C7F81C3207F50873A3F211231B781A4689
:10271000D7F81C329342E4DB07F50873A3F21123C8
:102720001A7807F1100311461846FFF7A5FDFFF7C9
:102730008BFD22E007F5047197F8130207F5887303
:102740000193012300930523032209F08FFA07F177
:102750000F0207F1100107F58873184609F00CFB0A
:1027600007F50873A3F211231A7807F11003114635
:102770001846FFF781FDFFF767FD0523184607F5AB
:102780000877BD4680BD00BF0000024000500040F9
:10279000B858002000440040B95800200010014003
:1027A00080B5ADF50A7D02AF07F50873A3F5077391
:1027B000186007F50873A3F50873196007F5087327
:1027C000A3F507731B68032B01DC0323DBE007F58C
:1027D0000873A3F507731B68042B01DD0223D2E005
:1027E00007F50873A3F508731B6804331B681846C4
:1027F0000CF028FA034687F81B3297F81B32012B9E
:1028000001D90423BFE007F50873A3F508731B681B
:1028100008331B6818460CF015FA034687F81A327D
:1028200097F81A32032B01D90423ACE04FF400616E
:102830005748FFF7E9FD4FF480515548FFF7E4FD95
:1028400007F50873A3F507731B6803F18043013B89
:102850009B0007F50872A2F50872126813441B6802
:10286000C7F81432D7F814324A4A934203D14A4B7C
:1028700001221A7002E0484B00221A70D7F8143275
:10288000464A934203D1464B01221A7002E0444B60
:1028900000221A70022387F8133297F81B3287F848
:1028A000103297F81A3287F8113207F5047197F849
:1028B000130207F588730193012300930523022275
:1028C00009F0D4F907F10F0207F1100107F5887339
:1028D000184609F051FA07F50873A3F211231B7883
:1028E000002B2CD00023C7F81C3210E007F508732A
:1028F000A3F50472D7F81C3213441B7819462948F3
:10290000FFF722FAD7F81C320133C7F81C3207F55B
:102910000873A3F211231B781A46D7F81C3293428E
:10292000E4DB07F50873A3F211231A7807F110030B
:1029300011461846FFF7A0FCFFF786FC22E007F5DA
:10294000047197F8130207F588730193012300932C
:102950000523022209F08AF907F10F0207F110019D
:1029600007F58873184609F007FA07F50873A3F20C
:1029700011231A7807F1100311461846FFF77CFC63
:10298000FFF762FC0523184607F50877BD4680BDB2
:102990000000024000500040B858002000440040B1
:1029A000B95800200010014080B5ADF50A7D02AF96
:1029B00007F50873A3F50773186007F50873A3F507
:1029C0000873196007F50873A3F507731B68022BDA
:1029D00001DC0323C4E007F50873A3F507731B6844
:1029E000032B01DD0223BBE007F50873A3F5087391
:1029F0001B6804331B6818460CF024F9034687F85B
:102A00001B3297F81B32032B01D90423A8E04FF4A3
:102A100000615648FFF7F8FC4FF480515348FFF728
:102A2000F3FC07F50873A3F507731B6803F18043F4
:102A3000013B9B0007F50872A2F508721268134467
:102A40001B68C7F81432D7F81432494A934203D1AD
:102A5000484B01221A7002E0464B00221A70D7F848
:102A60001432454A934203D1444B01221A7002E0CA
:102A7000424B00221A70032387F8133297F81B3257
:102A800087F8103207F5047197F8130207F5887379
:102A90000193012300930523012209F0E7F807F1D0
:102AA0000F0207F1100107F58873184609F064F961
:102AB00007F50873A3F211231B78002B2CD00023F9
:102AC000C7F81C3210E007F50873A3F50472D7F8B5
:102AD0001C3213441B7819462948FFF735F9D7F8FB
:102AE0001C320133C7F81C3207F50873A3F2112317
:102AF0001B781A46D7F81C329342E4DB07F50873BB
:102B0000A3F211231A7807F1100311461846FFF7B4
:102B1000B3FBFFF799FB22E007F5047197F8130266
:102B200007F588730193012300930523012209F01F
:102B30009DF807F10F0207F1100107F58873184699
:102B400009F01AF907F50873A3F211231A7807F1AF
:102B5000100311461846FFF78FFBFFF775FB05239F
:102B6000184607F50877BD4680BD00BF000002404B
:102B700000500040B858002000440040B9580020E0
:102B80000010014080B5ADF50A7D02AF07F508736E
:102B9000A3F50773186007F50873A3F508731960A8
:102BA00007F50873A3F507731B68022B01DC0323E9
:102BB000C4E007F50873A3F507731B68032B01DD59
:102BC0000223BBE007F50873A3F508731B68043301
:102BD0001B6818460CF036F8034687F81B3297F846
:102BE0001B32032B01D90423A8E04FF4006156489F
:102BF000FFF70AFC4FF480515348FFF705FC07F537
:102C00000873A3F507731B6803F18043013B9B0026
:102C100007F50872A2F50872126813441B68C7F81A
:102C20001432D7F81432494A934203D1484B012257
:102C30001A7002E0464B00221A70D7F81432454A47
:102C4000934203D1444B01221A7002E0424B00220E
:102C50001A70042387F8133297F81B3287F8103262
:102C600007F5047197F8130207F5887301930123A0
:102C700000930523012208F0F9FF07F10F0207F185
:102C8000100107F58873184609F076F807F5087300
:102C9000A3F211231B78002B2CD00023C7F81C3281
:102CA00010E007F50873A3F50472D7F81C3213443B
:102CB0001B7819462948FFF747F8D7F81C3201332B
:102CC000C7F81C3207F50873A3F211231B781A46C4
:102CD000D7F81C329342E4DB07F50873A3F2112303
:102CE0001A7807F1100311461846FFF7C5FAFFF7E7
:102CF000ABFA22E007F5047197F8130207F5887321
:102D00000193012300930523012208F0AFFF07F18F
:102D10000F0207F1100107F58873184609F02CF827
:102D200007F50873A3F211231A7807F1100311466F
:102D30001846FFF7A1FAFFF787FA0523184607F5AB
:102D40000877BD4680BD00BF000002400050004033
:102D5000B858002000440040B9580020001001403D
:102D600080B5ADF50A7D02AF07F50873A3F50773CB
:102D7000186007F50873A3F50873196007F5087361
:102D8000A3F507731B68022B01DC0323C4E007F5DE
:102D90000873A3F507731B68032B01DD0223BBE057
:102DA00007F50873A3F508731B6804331B681846FE
:102DB0000BF048FF034687F81B3297F81B32032BB2
:102DC00001D90423A8E04FF400615648FFF71CFB2B
:102DD0004FF480515348FFF717FB07F50873A3F52D
:102DE00007731B6803F18043013B9B0007F50872E2
:102DF000A2F50872126813441B68C7F81432D7F89A
:102E00001432494A934203D1484B01221A7002E01E
:102E1000464B00221A70D7F81432454A934203D128
:102E2000444B01221A7002E0424B00221A70052323
:102E300087F8133297F81B3287F8103207F50471C0
:102E400097F8130207F58873019301230093052374
:102E5000012208F00BFF07F10F0207F1100107F53F
:102E60008873184608F088FF07F50873A3F211234A
:102E70001B78002B2CD00023C7F81C3210E007F57C
:102E80000873A3F50472D7F81C3213441B78194653
:102E90002948FEF759FFD7F81C320133C7F81C3216
:102EA00007F50873A3F211231B781A46D7F81C32D2
:102EB0009342E4DB07F50873A3F211231A7807F1B4
:102EC000100311461846FFF7D7F9FFF7BDF922E0C6
:102ED00007F5047197F8130207F58873019301232E
:102EE00000930523012208F0C1FE07F10F0207F14C
:102EF000100107F58873184608F03EFF07F50873C0
:102F0000A3F211231A7807F1100311461846FFF7B0
:102F1000B3F9FFF799F90523184607F50877BD4679
:102F200080BD00BF0000024000500040B8580020A3
:102F300000440040B95800200010014080B5ADF5B4
:102F40000A7D02AF07F50873A3F50773186007F54C
:102F50000873A3F50873196007F50873A3F50773E1
:102F60001B68022B01DC0323C4E007F50873A3F5FB
:102F700007731B68032B01DD0223BBE007F5087311
:102F8000A3F508731B6804331B6818460BF05AFE40
:102F9000034687F81B3297F81B32032B01D9042311
:102FA000A8E04FF400615648FFF72EFA4FF4805125
:102FB0005348FFF729FA07F50873A3F507731B6851
:102FC00003F18043013B9B0007F50872A2F50872EC
:102FD000126813441B68C7F81432D7F81432494AF0
:102FE000934203D1484B01221A7002E0464B002263
:102FF0001A70D7F81432454A934203D1444B012248
:103000001A7002E0424B00221A70062387F813322E
:1030100097F81B3287F8103207F5047197F81302FE
:1030200007F588730193012300930523012208F01B
:103030001DFE07F10F0207F1100107F5887318460E
:1030400008F09AFE07F50873A3F211231B78002BF2
:103050002CD00023C7F81C3210E007F50873A3F545
:103060000472D7F81C3213441B7819462948FEF71E
:103070006BFED7F81C320133C7F81C3207F5087312
:10308000A3F211231B781A46D7F81C329342E4DBD3
:1030900007F50873A3F211231A7807F110031146FC
:1030A0001846FFF7E9F8FFF7CFF822E007F50471BB
:1030B00097F8130207F58873019301230093052302
:1030C000012208F0D3FD07F10F0207F1100107F507
:1030D0008873184608F050FE07F50873A3F2112311
:1030E0001A7807F1100311461846FFF7C5F8FFF7E5
:1030F000ABF80523184607F50877BD4680BD00BF2D
:103100000000024000500040B85800200044004039
:10311000B95800200010014080B5ADF50A7D02AF1E
:1031200007F50873A3F50773186007F50873A3F58F
:103130000873196007F50873A3F507731B68022B62
:1031400001DC0323C4E007F50873A3F507731B68CC
:10315000032B01DD0223BBE007F50873A3F5087319
:103160001B6804331B6818460BF06CFD034687F898
:103170001B3297F81B32032B01D90423A8E04FF42C
:1031800000615648FFF740F94FF480515348FFF76C
:103190003BF907F50873A3F507731B6803F1804338
:1031A000013B9B0007F50872A2F5087212681344F0
:1031B0001B68C7F81432D7F81432494A934203D136
:1031C000484B01221A7002E0464B00221A70D7F8D1
:1031D0001432454A934203D1444B01221A7002E053
:1031E000424B00221A70072387F8133297F81B32DC
:1031F00087F8103207F5047197F8130207F5887302
:103200000193012300930523012208F02FFD07F10C
:103210000F0207F1100107F58873184608F0ACFD9E
:1032200007F50873A3F211231B78002B2CD0002381
:10323000C7F81C3210E007F50873A3F50472D7F83D
:103240001C3213441B7819462948FEF77DFDD7F838
:103250001C320133C7F81C3207F50873A3F211239F
:103260001B781A46D7F81C329342E4DB07F5087343
:10327000A3F211231A7807F1100311461846FEF73E
:10328000FBFFFEF7E1FF22E007F5047197F8130258
:1032900007F588730193012300930523012208F0A9
:1032A000E5FC07F10F0207F1100107F588731846D6
:1032B00008F062FD07F50873A3F211231A7807F1ED
:1032C000100311461846FEF7D7FFFEF7BDFF052392
:1032D000184607F50877BD4680BD00BF00000240D4
:1032E00000500040B858002000440040B958002069
:1032F0000010014080B5ADF50A7D02AF07F50873F7
:10330000A3F50773186007F50873A3F50873196030
:1033100007F50873A3F507731B68042B01DC03236F
:10332000FBE007F50873A3F507731B68052B01DDA8
:103330000223F2E007F50873A3F508731B68043352
:103340001B6818460BF07EFC034687F81B3297F883
:103350001B32032B01D90423DFE007F50873A3F523
:1033600008731B6808331B6818460BF06BFC034698
:1033700087F81A3297F81A32012B01D90423CCE0CE
:1033800007F50873A3F508731B680C331B68184610
:103390000BF058FC0346A7F81832B7F81832B3F50B
:1033A000FA7F01D90423B8E04FF400615D48FFF7CC
:1033B0002BF84FF480515B48FFF726F807F50873A8
:1033C000A3F507731B6803F18043013B9B0007F5DE
:1033D0000872A2F50872126813441B68C7F8143209
:1033E000D7F81432504A934203D1504B01221A703D
:1033F00002E04E4B00221A70D7F814324C4A934226
:1034000003D14C4B01221A7002E04A4B00221A7081
:10341000082387F8133297F81B3287F80C3297F895
:103420001A3287F80D32B7F818321B0A9BB2DBB29A
:1034300087F80E32B7F81832DBB287F80F3207F58B
:10344000037197F8130207F5867301930123009324
:103450000523042208F00AFC07F10B0207F10C0116
:1034600007F58673184608F087FC07F50873A3F282
:1034700015231B78002B2CD00023C7F81C3210E03A
:1034800007F50873A3F50572D7F81C3213441B78AF
:1034900019462948FEF758FCD7F81C320133C7F803
:1034A0001C3207F50873A3F215231B781A46D7F8C8
:1034B0001C329342E4DB07F50873A3F215231A7854
:1034C00007F10C0311461846FEF7D6FEFEF7BCFEC8
:1034D00022E007F5037197F8130207F5867301934D
:1034E000012300930523042208F0C0FB07F10B021F
:1034F00007F10C0107F58673184608F03DFC07F547
:103500000873A3F215231A7807F10C031146184625
:10351000FEF7B2FEFEF798FE0523184607F508777A
:10352000BD4680BD0000024000500040B858002059
:1035300000440040B95800200010014080B5ADF5AE
:103540000A7D02AF07F50873A3F50773186007F546
:103550000873A3F50873196007F50873A3F50773DB
:103560001B68032B01DC0323E4E007F50873A3F5D4
:1035700007731B68042B01DD0223DBE007F50873EA
:10358000A3F508731B6804331B6818460BF05AFB3D
:10359000034687F81B3297F81B32032B01D904230B
:1035A000C8E007F50873A3F508731B6808331B68A8
:1035B00018460BF047FB0346A7F81832B7F8183245
:1035C000B3F5FA7F01D90423B4E04FF400615C48FD
:1035D000FEF71AFF4FF480515948FEF715FF07F523
:1035E0000873A3F507731B6803F18043013B9B003D
:1035F00007F50872A2F50872126813441B68C7F831
:103600001432D7F814324F4A934203D14E4B012261
:103610001A7002E04C4B00221A70D7F814324B4A51
:10362000934203D14A4B01221A7002E0484B002218
:103630001A70092387F8133297F81B3287F8103273
:10364000B7F818321B0A9BB2DBB287F81132B7F811
:103650001832DBB287F8123207F5047197F81302BB
:1036600007F588730193012300930523032208F0D3
:10367000FDFA07F10F0207F1100107F588731846EC
:1036800008F07AFB07F50873A3F211231B78002BCF
:103690002CD00023C7F81C3210E007F50873A3F5FF
:1036A0000472D7F81C3213441B7819462948FEF7D8
:1036B0004BFBD7F81C320133C7F81C3207F50873EF
:1036C000A3F211231B781A46D7F81C329342E4DB8D
:1036D00007F50873A3F211231A7807F110031146B6
:1036E0001846FEF7C9FDFEF7AFFD22E007F50471AD
:1036F00097F8130207F588730193012300930523BC
:10370000032208F0B3FA07F10F0207F1100107F5E1
:103710008873184608F030FB07F50873A3F21123ED
:103720001A7807F1100311461846FEF7A5FDFEF7BB
:103730008BFD0523184607F50877BD4680BD00BF01
:103740000000024000500040B858002000440040F3
:10375000B95800200010014080B5ADF5067D00AFDE
:1037600007F50673A3F50573186007F50673A3F54F
:103770000673196007F50673A3F505731B68012B23
:1037800001DC0323A3E007F50673A3F505731B68AB
:10379000022B01DD02239AE04FF400614E48FEF750
:1037A00033FE4FF480514C48FEF72EFE07F50673AA
:1037B000A3F505731B6803F18043013B9B0007F5EC
:1037C0000672A2F50672126813441B68C7F810321D
:1037D000D7F81032414A934203D1414B01221A706B
:1037E00002E03F4B00221A70D7F810323D4A934254
:1037F00003D13D4B01221A7002E03B4B00221A70AC
:103800000A2387F80F3207F5887397F80F02012211
:10381000052108F003FA07F10F0207F1100107F57F
:103820008873184608F0A8FA07F50673A3F209236F
:103830001B78002B2CD00023C7F8143210E007F5BA
:103840000673A3F50272D7F8143213441B78194695
:103850002648FEF779FAD7F814320133C7F8143244
:1038600007F50673A3F209231B781A46D7F814321A
:103870009342E4DB07F50673A3F209231A7807F1F4
:10388000100311461846FEF7F7FCFEF7DDFC1DE0BD
:1038900007F5887397F80F020122052108F0BEF999
:1038A00007F10F0207F1100107F58873184608F0B9
:1038B00063FA07F50673A3F209231A7807F11003D8
:1038C00011461846FEF7D8FCFEF7BEFC0523184645
:1038D00007F50677BD4680BD00000240005000405D
:1038E000B858002000440040B958002000100140A2
:1038F00080B5ADF5067D00AF07F50673A3F505733A
:10390000186007F50673A3F50673196007F50673CB
:10391000A3F505731B68012B01DC0323A3E007F566
:103920000673A3F505731B68022B01DD02239AE0E1
:103930004FF400614E48FEF767FD4FF480514C484C
:10394000FEF762FD07F50673A3F505731B6803F127
:103950008043013B9B0007F50672A2F506721268D0
:1039600013441B68C7F81032D7F81032414A93420B
:1039700003D1414B01221A7002E03F4B00221A7022
:10398000D7F810323D4A934203D13D4B01221A70C1
:1039900002E03B4B00221A700B2387F80F3207F529
:1039A000887397F80F020122052108F037F907F113
:1039B0000F0207F1100107F58873184608F0DCF9CB
:1039C00007F50673A3F209231B78002B2CD00023E4
:1039D000C7F8143210E007F50673A3F50272D7F8A2
:1039E000143213441B7819462648FEF7ADF9D7F870
:1039F00014320133C7F8143207F50673A3F2092312
:103A00001B781A46D7F814329342E4DB07F50673A5
:103A1000A3F209231A7807F1100311461846FEF79E
:103A20002BFCFEF711FC1DE007F5887397F80F02D9
:103A30000122052108F0F2F807F10F0207F1100149
:103A400007F58873184608F097F907F50673A3F28F
:103A500009231A7807F1100311461846FEF70CFCEB
:103A6000FEF7F2FB0523184607F50677BD4680BD35
:103A70000000024000500040B858002000440040C0
:103A8000B95800200010014080B5ADF5067D00AFAB
:103A900007F50673A3F50573186007F50673A3F51C
:103AA0000673196007F50673A3F505731B68012BF0
:103AB00001DC0323A3E007F50673A3F505731B6878
:103AC000022B01DD02239AE04FF400614E48FEF71D
:103AD0009BFC4FF480514C48FEF796FC07F50673AB
:103AE000A3F505731B6803F18043013B9B0007F5B9
:103AF0000672A2F50672126813441B68C7F81032EA
:103B0000D7F81032414A934203D1414B01221A7037
:103B100002E03F4B00221A70D7F810323D4A934220
:103B200003D13D4B01221A7002E03B4B00221A7078
:103B30000C2387F80F3207F5887397F80F020122DC
:103B4000052108F06BF807F10F0207F1100107F5E6
:103B50008873184608F010F907F50673A3F20923D5
:103B60001B78002B2CD00023C7F8143210E007F587
:103B70000673A3F50272D7F8143213441B78194662
:103B80002648FEF7E1F8D7F814320133C7F81432AB
:103B900007F50673A3F209231B781A46D7F81432E7
:103BA0009342E4DB07F50673A3F209231A7807F1C1
:103BB000100311461846FEF75FFBFEF745FB1DE0BC
:103BC00007F5887397F80F020122052108F026F8FF
:103BD00007F10F0207F1100107F58873184608F086
:103BE000CBF807F50673A3F209231A7807F110033F
:103BF00011461846FEF740FBFEF726FB0523184644
:103C000007F50677BD4680BD000002400050004029
:103C1000B858002000440040B9580020001001406E
:103C200080B5ADF50A7D02AF07F50873A3F50773FC
:103C3000186007F50873A3F50873196007F5087392
:103C4000A3F507731B68052B01DC0323F1E007F5DF
:103C50000873A3F507731B68062B01DD0223E8E058
:103C600007F50873A3F508731B6804331B6818462F
:103C70000AF0E8FF034687F81B3207F50873A3F53F
:103C800008731B6808331B6818460AF0DBFF0346FD
:103C900087F81A3207F50873A3F508731B680C330D
:103CA0001B6818460AF0CEFF034687F8193207F55D
:103CB0000873A3F508731B6810331B6818460AF0D5
:103CC000C1FF034687F818324FF400615B48FEF7E6
:103CD0009BFB4FF480515948FEF796FB07F508739C
:103CE000A3F507731B6803F18043013B9B0007F5B5
:103CF0000872A2F50872126813441B68C7F81432E0
:103D0000D7F814324E4A934203D14E4B01221A7017
:103D100002E04C4B00221A70D7F814324A4A934200
:103D200003D14A4B01221A7002E0484B00221A705C
:103D30000D2387F8133297F81B3287F80C3297F867
:103D40001A3287F80D3297F8193287F80E3297F841
:103D5000183287F80F3207F5037197F8130207F549
:103D600086730193012300930523042207F07EFF4D
:103D700007F10B0207F10C0107F58673184607F0EF
:103D8000FBFF07F50873A3F215231B78002B2CD03B
:103D90000023C7F81C3210E007F50873A3F505727D
:103DA000D7F81C3213441B7819462948FDF7CCFF7D
:103DB000D7F81C320133C7F81C3207F50873A3F299
:103DC00015231B781A46D7F81C329342E4DB07F51B
:103DD0000873A3F215231A7807F10C03114618464D
:103DE000FEF74AFAFEF730FA22E007F5037197F87A
:103DF000130207F586730193012300930523042220
:103E000007F034FF07F10B0207F10C0107F5867389
:103E1000184607F0B1FF07F50873A3F215231A78C7
:103E200007F10C0311461846FEF726FAFEF70CFAC6
:103E30000523184607F50877BD4680BD00000240FF
:103E400000500040B858002000440040B9580020FD
:103E50000010014080B5ADF5067D00AF07F5067393
:103E6000A3F50573186007F50673A3F506731960CB
:103E700007F50673A3F505731B68012B01DC03230B
:103E8000A3E007F50673A3F505731B68022B01DD9C
:103E900002239AE04FF400614E48FEF7B5FA4FF462
:103EA00080514C48FEF7B0FA07F50673A3F5057389
:103EB0001B6803F18043013B9B0007F50672A2F5E6
:103EC0000672126813441B68C7F81032D7F8103214
:103ED000414A934203D1414B01221A7002E03F4B09
:103EE00000221A70D7F810323D4A934203D13D4B5D
:103EF00001221A7002E03B4B00221A700E2387F851
:103F00000F3207F5887397F80F020122052107F099
:103F100085FE07F10F0207F1100107F588731846B7
:103F200007F02AFF07F50673A3F209231B78002B7D
:103F30002CD00023C7F8143210E007F50673A3F560
:103F40000272D7F8143213441B7819462648FDF73D
:103F5000FBFED7F814320133C7F8143207F50673A5
:103F6000A3F209231B781A46D7F814329342E4DBF4
:103F700007F50673A3F209231A7807F11003114617
:103F80001846FEF779F9FEF75FF91DE007F588732B
:103F900097F80F020122052107F040FE07F10F02FA
:103FA00007F1100107F58873184607F0E5FE07F5DD
:103FB0000673A3F209231A7807F110031146184675
:103FC000FEF75AF9FEF740F90523184607F506777C
:103FD000BD4680BD0000024000500040B85800209F
:103FE00000440040B95800200010014080B5ADF5F4
:103FF0000A7D02AF07F50873A3F50773186007F58C
:104000000873A3F50873196007F50873A3F5077320
:104010001B68022B01DC0323C4E007F50873A3F53A
:1040200007731B68032B01DD0223BBE007F5087350
:10403000A3F508731B6804331B6818460AF002FED8
:10404000034687F81B3297F81B32642B01D90423EF
:10405000A8E04FF400615648FEF7D6F94FF48051BE
:104060005348FEF7D1F907F50873A3F507731B68EA
:1040700003F18043013B9B0007F50872A2F508722B
:10408000126813441B68C7F81432D7F81432494A2F
:10409000934203D1484B01221A7002E0464B0022A2
:1040A0001A70D7F81432454A934203D1444B012287
:1040B0001A7002E0424B00221A700F2387F8133265
:1040C00097F81B3287F8103207F5047197F813023E
:1040D00007F588730193012300930523012207F05C
:1040E000C5FD07F10F0207F1100107F588731846A7
:1040F00007F042FE07F50873A3F211231B78002B8B
:104100002CD00023C7F81C3210E007F50873A3F584
:104110000472D7F81C3213441B7819462948FDF75E
:1041200013FED7F81C320133C7F81C3207F50873A9
:10413000A3F211231B781A46D7F81C329342E4DB12
:1041400007F50873A3F211231A7807F1100311463B
:104150001846FEF791F8FEF777F822E007F50471AC
:1041600097F8130207F58873019301230093052341
:10417000012207F07BFD07F10F0207F1100107F59F
:104180008873184607F0F8FD07F50873A3F21123AA
:104190001A7807F1100311461846FEF76DF8FEF77E
:1041A00053F80523184607F50877BD4680BD00BFC4
:1041B0000000024000500040B85800200044004079
:1041C000B95800200010014080B5ADF5067D00AF64
:1041D00007F50673A3F50573186007F50673A3F5D5
:1041E0000673196007F50673A3F505731B68012BA9
:1041F00001DC0323A3E007F50673A3F505731B6831
:10420000022B01DD02239AE04FF400614E48FEF7D5
:10421000FBF84FF480514C48FEF7F6F807F50673AB
:10422000A3F505731B6803F18043013B9B0007F571
:104230000672A2F50672126813441B68C7F81032A2
:10424000D7F81032414A934203D1414B01221A70F0
:1042500002E03F4B00221A70D7F810323D4A9342D9
:1042600003D13D4B01221A7002E03B4B00221A7031
:10427000102387F80F3207F5887397F80F02012291
:10428000052107F0CBFC07F10F0207F1100107F53C
:104290008873184607F070FD07F50673A3F209232B
:1042A0001B78002B2CD00023C7F8143210E007F540
:1042B0000673A3F50272D7F8143213441B7819461B
:1042C0002648FDF741FDD7F814320133C7F8143200
:1042D00007F50673A3F209231B781A46D7F81432A0
:1042E0009342E4DB07F50673A3F209231A7807F17A
:1042F000100311461846FDF7BFFFFDF7A5FF1DE0AF
:1043000007F5887397F80F020122052107F086FC54
:1043100007F10F0207F1100107F58873184607F03F
:104320002BFD07F50673A3F209231A7807F1100392
:1043300011461846FDF7A0FFFDF786FF0523184636
:1043400007F50677BD4680BD0000024000500040E2
:10435000B858002000440040B95800200010014027
:1043600080B5ADF5067D00AF07F50673A3F50573BF
:10437000186007F50673A3F50673196007F5067351
:10438000A3F505731B68012B01DC0323A3E007F5EC
:104390000673A3F505731B68022B01DD02239AE067
:1043A0004FF400614E48FEF72FF84FF480514C480F
:1043B000FEF72AF807F50673A3F505731B6803F1EA
:1043C0008043013B9B0007F50672A2F50672126856
:1043D00013441B68C7F81032D7F81032414A934291
:1043E00003D1414B01221A7002E03F4B00221A70A8
:1043F000D7F810323D4A934203D13D4B01221A7047
:1044000002E03B4B00221A70112387F80F3207F5A8
:10441000887397F80F020122052107F0FFFB07F1CF
:104420000F0207F1100107F58873184607F0A4FC86
:1044300007F50673A3F209231B78002B2CD0002369
:10444000C7F8143210E007F50673A3F50272D7F827
:10445000143213441B7819462648FDF775FCD7F82B
:1044600014320133C7F8143207F50673A3F2092397
:104470001B781A46D7F814329342E4DB07F506732B
:10448000A3F209231A7807F1100311461846FDF725
:10449000F3FEFDF7D9FE1DE007F5887397F80F02CC
:1044A0000122052107F0BAFB07F10F0207F1100105
:1044B00007F58873184607F05FFC07F50673A3F24B
:1044C00009231A7807F1100311461846FDF7D4FEA8
:1044D000FDF7BAFE0523184607F50677BD4680BDF1
:1044E0000000024000500040B85800200044004046
:1044F000B95800200010014080B5ADF5067D00AF31
:1045000007F50673A3F50573186007F50673A3F5A1
:104510000673196007F50673A3F505731B68012B75
:1045200001DC0323A3E007F50673A3F505731B68FD
:10453000022B01DD02239AE04FF400614E48FDF7A3
:1045400063FF4FF480514C48FDF75EFF07F506739B
:10455000A3F505731B6803F18043013B9B0007F53E
:104560000672A2F50672126813441B68C7F810326F
:10457000D7F81032414A934203D1414B01221A70BD
:1045800002E03F4B00221A70D7F810323D4A9342A6
:1045900003D13D4B01221A7002E03B4B00221A70FE
:1045A000122387F80F3207F5887397F80F0201225C
:1045B000052107F033FB07F10F0207F1100107F5A2
:1045C0008873184607F0D8FB07F50673A3F2092392
:1045D0001B78002B2CD00023C7F8143210E007F50D
:1045E0000673A3F50272D7F8143213441B781946E8
:1045F0002648FDF7A9FBD7F814320133C7F8143267
:1046000007F50673A3F209231B781A46D7F814326C
:104610009342E4DB07F50673A3F209231A7807F146
:10462000100311461846FDF727FEFDF70DFE1DE0AD
:1046300007F5887397F80F020122052107F0EEFABB
:1046400007F10F0207F1100107F58873184607F00C
:1046500093FB07F50673A3F209231A7807F11003F9
:1046600011461846FDF708FEFDF7EEFD0523184636
:1046700007F50677BD4680BD0000024000500040AF
:10468000B858002000440040B958002000100140F4
:1046900080B5ADF5067D00AF07F50673A3F505738C
:1046A000186007F50673A3F50673196007F506731E
:1046B000A3F505731B68012B01DC0323A3E007F5B9
:1046C0000673A3F505731B68022B01DD02239AE034
:1046D0004FF400614E48FDF797FE4FF480514C486F
:1046E000FDF792FE07F50673A3F505731B6803F14A
:1046F0008043013B9B0007F50672A2F50672126823
:1047000013441B68C7F81032D7F81032414A93425D
:1047100003D1414B01221A7002E03F4B00221A7074
:10472000D7F810323D4A934203D13D4B01221A7013
:1047300002E03B4B00221A70132387F80F3207F573
:10474000887397F80F020122052107F067FA07F135
:104750000F0207F1100107F58873184607F00CFBEC
:1047600007F50673A3F209231B78002B2CD0002336
:10477000C7F8143210E007F50673A3F50272D7F8F4
:10478000143213441B7819462648FDF7DDFAD7F892
:1047900014320133C7F8143207F50673A3F2092364
:1047A0001B781A46D7F814329342E4DB07F50673F8
:1047B000A3F209231A7807F1100311461846FDF7F2
:1047C0005BFDFDF741FD1DE007F5887397F80F02CB
:1047D0000122052107F022FA07F10F0207F110016B
:1047E00007F58873184607F0C7FA07F50673A3F2B2
:1047F00009231A7807F1100311461846FDF73CFD0E
:10480000FDF722FD0523184607F50677BD4680BD56
:104810000000024000500040B85800200044004012
:10482000B95800200010014080B483B000AF786018
:1048300039603B681A047B689A6100BF0C37BD463B
:104840005DF8047B7047000080B500AF064907485B
:1048500007F060F84FF47A71062007F02FF8FDF7A3
:10486000CDF800BF80BD00BF5400002050000020E4
:1048700080B584B000AF414B1B78DBB2002B79D000
:10488000062007F031F80346002B73D03C4B1B7811
:10489000DBB2002B6ED13B4B1B78DBB2002B30D14F
:1048A000394B1B78DBB2002B2BD0384B1B78DBB29B
:1048B000002B26D0002003F051F93548FDF7A6FB68
:1048C000344B7B600923FB700023FB600AE0FB682C
:1048D0007A6813441B7819462D48FDF735FAFB68B2
:1048E0000133FB60FB78FA689A42F0DB2A4B002226
:1048F0001A70244B01221A704FF47A71062006F0C8
:10490000DDFF254B1B78DBB2002B33D1234B1B780B
:10491000DBB20133DAB2214B1A70204B1B78DBB2C9
:10492000022B27D91E4B1B78DBB20133DAB21C4BAA
:104930001A701A4B00221A70174B01221A70114B71
:1049400000221A70164B1B78DBB2042B12D9144BC1
:1049500005221A700123BB6009E0124B1A68BB687C
:104960002A331344FF221A70BB680133BB60BB6853
:10497000362BF2DD00BF1037BD4680BDE159002067
:10498000B1570020B658002042000020410000200E
:10499000001001404400002040000020BA580020D0
:1049A000B4580020EC03002080B5ADF50A7D02AFBD
:1049B00007F50873A3F50773186007F50873A3F5E7
:1049C0000873196007F50873A3F507731B68032BB9
:1049D00001DC0323DBE007F50873A3F507731B680D
:1049E000042B01DD0223D2E007F50873A3F5087359
:1049F0001B6804331B6818460AF024F9034687F83D
:104A00001B3297F81B32092B01D90423BFE007F5AD
:104A10000873A3F508731B6808331B6818460AF06F
:104A200011F9034687F81A3297F81A32012B01D987
:104A30000423ACE04FF400615748FFF7F5FE4FF454
:104A400080515548FFF7F0FE07F50873A3F507738B
:104A50001B6803F18043013B9B0007F50872A2F538
:104A60000872126813441B68C7F81432D7F814325E
:104A70004A4A934203D14A4B01221A7002E0484B42
:104A800000221A70D7F81432464A934203D1464B9B
:104A900001221A7002E0444B00221A70012387F8A9
:104AA000133297F81B3287F8103297F81A3287F8CA
:104AB000113207F5047197F8130207F58873019313
:104AC000012300930323022207F0D0F807F10F021D
:104AD00007F1100107F58873184607F04DF907F53F
:104AE0000873A3F211231B78002B2CD00023C7F8E6
:104AF0001C3210E007F50873A3F50472D7F81C32D6
:104B000013441B7819462948FDF71EF9D7F81C32C3
:104B10000133C7F81C3207F50873A3F211231B7881
:104B20001A46D7F81C329342E4DB07F50873A3F268
:104B300011231A7807F1100311461846FDF79CFB64
:104B4000FDF782FB22E007F5047197F8130207F5E1
:104B500088730193012300930323022207F086F850
:104B600007F10F0207F1100107F58873184607F0E7
:104B700003F907F50873A3F211231A7807F110035C
:104B800011461846FDF778FBFDF75EFB0523184636
:104B900007F50877BD4680BD000002400050004088
:104BA000B858002000440040B958002000100140CF
:104BB00080B5ADF50A7D02AF07F50873A3F507735D
:104BC000186007F50873A3F50873196007F50873F3
:104BD000A3F507731B68032B01DC0323DBE007F558
:104BE0000873A3F507731B68042B01DD0223D2E0D1
:104BF00007F50873A3F508731B6804331B68184690
:104C00000AF020F8034687F81B3297F81B32062B70
:104C100001D90423BFE007F50873A3F508731B68E7
:104C200008331B6818460AF00DF8034687F81A3255
:104C300097F81A32012B01D90423ACE04FF400613C
:104C40005748FFF7F1FD4FF480515548FFF7ECFD51
:104C500007F50873A3F507731B6803F18043013B55
:104C60009B0007F50872A2F50872126813441B68CE
:104C7000C7F81432D7F814324A4A934203D14A4B48
:104C800001221A7002E0484B00221A70D7F8143241
:104C9000464A934203D1464B01221A7002E0444B2C
:104CA00000221A70022387F8133297F81B3287F814
:104CB000103297F81A3287F8113207F5047197F815
:104CC000130207F588730193012300930323022243
:104CD00006F0CCFF07F10F0207F1100107F588730A
:104CE000184607F049F807F50873A3F211231B785B
:104CF000002B2CD00023C7F81C3210E007F50873F6
:104D0000A3F50472D7F81C3213441B7819462948BE
:104D1000FDF71AF8D7F81C320133C7F81C3207F533
:104D20000873A3F211231B781A46D7F81C3293425A
:104D3000E4DB07F50873A3F211231A7807F11003D7
:104D400011461846FDF798FAFDF77EFA22E007F5BE
:104D5000047197F8130207F58873019301230093F8
:104D60000323022206F082FF07F10F0207F1100170
:104D700007F58873184606F0FFFF07F50873A3F2DE
:104D800011231A7807F1100311461846FDF774FA3B
:104D9000FDF75AFA0523184607F50877BD4680BD8A
:104DA0000000024000500040B8580020004400407D
:104DB000B95800200010014080B5ADF50A7D02AF62
:104DC00007F50873A3F50773186007F50873A3F5D3
:104DD0000873196007F50873A3F507731B68022BA6
:104DE00001DC0323C4E007F50873A3F507731B6810
:104DF000032B01DD0223BBE007F50873A3F508735D
:104E00001B6804331B68184609F01CFF034687F82B
:104E10001B3297F81B32012B01D90423A8E04FF471
:104E200000615648FFF700FD4FF480515348FFF7EB
:104E3000FBFC07F50873A3F507731B6803F18043B8
:104E4000013B9B0007F50872A2F508721268134433
:104E50001B68C7F81432D7F81432494A934203D179
:104E6000484B01221A7002E0464B00221A70D7F814
:104E70001432454A934203D1444B01221A7002E096
:104E8000424B00221A70032387F8133297F81B3223
:104E900087F8103207F5047197F8130207F5887345
:104EA0000193012300930323012206F0DFFE07F1A3
:104EB0000F0207F1100107F58873184606F05CFF32
:104EC00007F50873A3F211231B78002B2CD00023C5
:104ED000C7F81C3210E007F50873A3F50472D7F881
:104EE0001C3213441B7819462948FCF72DFFD7F8CC
:104EF0001C320133C7F81C3207F50873A3F21123E3
:104F00001B781A46D7F81C329342E4DB07F5087386
:104F1000A3F211231A7807F1100311461846FDF782
:104F2000ABF9FDF791F922E007F5047197F8130248
:104F300007F588730193012300930323012206F0F0
:104F400095FE07F10F0207F1100107F58873184667
:104F500006F012FF07F50873A3F211231A7807F180
:104F6000100311461846FDF787F9FDF76DF9052383
:104F7000184607F50877BD4680BD00BF0000024017
:104F800000500040B858002000440040B9580020AC
:104F90000010014080B5ADF50A7D02AF07F508733A
:104FA000A3F50773186007F50873A3F50873196074
:104FB00007F50873A3F507731B68022B01DC0323B5
:104FC000C4E007F50873A3F507731B68032B01DD25
:104FD0000223BBE007F50873A3F508731B680433CD
:104FE0001B68184609F02EFE034687F81B3297F817
:104FF0001B32092B01D90423A8E04FF40061564865
:10500000FFF712FC4FF480515348FFF70DFC07F5F2
:105010000873A3F507731B6803F18043013B9B00F2
:1050200007F50872A2F50872126813441B68C7F8E6
:105030001432D7F81432494A934203D1484B012223
:105040001A7002E0464B00221A70D7F81432454A13
:10505000934203D1444B01221A7002E0424B0022DA
:105060001A70042387F8133297F81B3287F810322E
:1050700007F5047197F8130207F58873019301236C
:1050800000930323012206F0F1FD07F10F0207F15F
:10509000100107F58873184606F06EFE07F50873D1
:1050A000A3F211231B78002B2CD00023C7F81C324D
:1050B00010E007F50873A3F50472D7F81C32134407
:1050C0001B7819462948FCF73FFED7F81C320133FC
:1050D000C7F81C3207F50873A3F211231B781A4690
:1050E000D7F81C329342E4DB07F50873A3F21123CF
:1050F0001A7807F1100311461846FDF7BDF8FDF7C1
:10510000A3F822E007F5047197F8130207F58873F6
:105110000193012300930323012206F0A7FD07F169
:105120000F0207F1100107F58873184606F024FEF8
:1051300007F50873A3F211231A7807F1100311463B
:105140001846FDF799F8FDF77FF80523184607F58F
:105150000877BD4680BD00BF0000024000500040FF
:10516000B858002000440040B95800200010014009
:1051700080B5ADF50A7D02AF07F50873A3F5077397
:10518000186007F50873A3F50873196007F508732D
:10519000A3F507731B68022B01DC0323C4E007F5AA
:1051A0000873A3F507731B68032B01DD0223BBE023
:1051B00007F50873A3F508731B6804331B681846CA
:1051C00009F040FD034687F81B3297F81B32062B87
:1051D00001D90423A8E04FF400615648FFF724FBEF
:1051E0004FF480515348FFF71FFB07F50873A3F5F1
:1051F00007731B6803F18043013B9B0007F50872AE
:10520000A2F50872126813441B68C7F81432D7F865
:105210001432494A934203D1484B01221A7002E0EA
:10522000464B00221A70D7F81432454A934203D1F4
:10523000444B01221A7002E0424B00221A700523EF
:1052400087F8133297F81B3287F8103207F504718C
:1052500097F8130207F58873019301230093032342
:10526000012206F003FD07F10F0207F1100107F517
:105270008873184606F080FD07F50873A3F2112322
:105280001B78002B2CD00023C7F81C3210E007F548
:105290000873A3F50472D7F81C3213441B7819461F
:1052A0002948FCF751FDD7F81C320133C7F81C32EE
:1052B00007F50873A3F211231B781A46D7F81C329E
:1052C0009342E4DB07F50873A3F211231A7807F180
:1052D000100311461846FCF7CFFFFCF7B5FF22E09C
:1052E00007F5047197F8130207F5887301930123FA
:1052F00000930323012206F0B9FC07F10F0207F126
:10530000100107F58873184606F036FD07F5087397
:10531000A3F211231A7807F1100311461846FCF77F
:10532000ABFFFCF791FF0523184607F50877BD464C
:1053300080BD00BF0000024000500040B85800206F
:1053400000440040B95800200010014080B5ADF580
:10535000067D00AF07F50673A3F50573186007F522
:105360000673A3F50673196007F50673A3F50573B5
:105370001B68012B01DC0323A3E007F50673A3F5EB
:1053800005731B68022B01DD02239AE04FF40061D4
:105390004E48FFF749FA4FF480514C48FFF744FA62
:1053A00007F50673A3F505731B6803F18043013B02
:1053B0009B0007F50672A2F50672126813441B687B
:1053C000C7F81032D7F81032414A934203D1414B0B
:1053D00001221A7002E03F4B00221A70D7F81032F7
:1053E0003D4A934203D13D4B01221A7002E03B4BF0
:1053F00000221A70062387F80F3207F5887397F892
:105400000F020122032106F009FC07F10F0207F148
:10541000100107F58873184606F0AEFC07F5067311
:10542000A3F209231B78002B2CD00023C7F81432D9
:1054300010E007F50673A3F50272D7F8143213448F
:105440001B7819462648FCF77FFCD7F81432013345
:10545000C7F8143207F50673A3F209231B781A461E
:10546000D7F814329342E4DB07F50673A3F209235D
:105470001A7807F1100311461846FCF7FDFEFCF7F9
:10548000E3FE1DE007F5887397F80F020122032160
:1054900006F0C4FB07F10F0207F1100107F588734E
:1054A000184606F069FC07F50673A3F209231A787B
:1054B00007F1100311461846FCF7DEFEFCF7C4FEA8
:1054C0000523184607F50677BD4680BD000002405B
:1054D00000500040B858002000440040B958002057
:1054E0000010014080B483B000AF786039607B6801
:1054F0003A689A6100BF0C37BD465DF8047B70477F
:1055000080B483B000AF786039603B681A047B6870
:105510009A6100BF0C37BD465DF8047B7047000000
:1055200080B500AF0649074806F0F4F94FF47A71E8
:10553000052006F0C3F9FCF761FA00BF80BD00BF8B
:10554000700000206C00002080B584B000AF414B9B
:105550001B78DBB2002B79D0052006F0C5F9034695
:10556000002B73D03C4B1B78DBB2002B6ED13B4B36
:105570001B78DBB2002B30D1394B1B78DBB2002B10
:105580002BD0384B1B78DBB2002B26D0012002F049
:10559000E5FA3548FCF73AFD344B7B600923FB7094
:1055A0000023FB600AE0FB687A6813441B78194605
:1055B0002D48FCF7C9FBFB680133FB60FB78FA68F8
:1055C0009A42F0DB2A4B00221A70244B01221A70F7
:1055D0004FF47A71052006F071F9254B1B78DBB288
:1055E000002B33D1234B1B78DBB20133DAB2214BD2
:1055F0001A70204B1B78DBB2022B27D91E4B1B786D
:10560000DBB20133DAB21C4B1A701A4B00221A704B
:10561000174B01221A70114B00221A70164B1B787F
:10562000DBB2042B12D90123BB600CE0124B052224
:105630001A70124B1A68BB6860331344FF221A7049
:10564000BB680133BB60BB68182BEFDD00BF1037B0
:10565000BD4680BDE1590020B1570020B65800205A
:1056600042000020400000200010014060000020A7
:1056700041000020BB580020B5580020EC0300205A
:1056800080B5ADF5067D00AF07F50673A3F505738C
:10569000186007F50673A3F50673196007F506731E
:1056A000A3F505731B68012B01DC0323A3E007F5B9
:1056B0000673A3F505731B68022B01DD02239AE034
:1056C0004FF400614E48FFF71BFF4FF480514C48E8
:1056D000FFF708FF07F50673A3F505731B6803F1D1
:1056E0008043013B9B0007F50672A2F50672126823
:1056F00013441B68C7F81032D7F81032414A93425E
:1057000003D1414B01221A7002E03F4B00221A7074
:10571000D7F810323D4A934203D13D4B01221A7013
:1057200002E03B4B00221A70012387F80F3207F585
:10573000887397F80F020122022106F06FFA07F131
:105740000F0207F1100107F58873184606F014FBE5
:1057500007F50673A3F209231B78002B2CD0002336
:10576000C7F8143210E007F50673A3F50272D7F8F4
:10577000143213441B7819462648FCF7E5FAD7F88B
:1057800014320133C7F8143207F50673A3F2092364
:105790001B781A46D7F814329342E4DB07F50673F8
:1057A000A3F209231A7807F1100311461846FCF7F3
:1057B00063FDFCF749FD1DE007F5887397F80F02BC
:1057C0000122022106F02AFA07F10F0207F1100167
:1057D00007F58873184606F0CFFA07F50673A3F2AB
:1057E00009231A7807F1100311461846FCF744FD07
:1057F000FCF72AFD0523184607F50677BD4680BD50
:105800000000024000500040B85800200044004012
:10581000B95800200010014080B5ADF5067D00AFFD
:1058200007F50673A3F50573186007F50673A3F56E
:105830000673196007F50673A3F505731B68012B42
:1058400001DC0323A3E007F50673A3F505731B68CA
:10585000022B01DD02239AE04FF400614E48FFF76E
:105860004FFE4FF480514C48FFF73CFE07F506739E
:10587000A3F505731B6803F18043013B9B0007F50B
:105880000672A2F50672126813441B68C7F810323C
:10589000D7F81032414A934203D1414B01221A708A
:1058A00002E03F4B00221A70D7F810323D4A934273
:1058B00003D13D4B01221A7002E03B4B00221A70CB
:1058C000022387F80F3207F5887397F80F02012239
:1058D000022106F0A3F907F10F0207F1100107F505
:1058E0008873184606F048FA07F50673A3F20923F1
:1058F0001B78002B2CD00023C7F8143210E007F5DA
:105900000673A3F50272D7F8143213441B781946B4
:105910002648FCF719FAD7F814320133C7F81432C5
:1059200007F50673A3F209231B781A46D7F8143239
:105930009342E4DB07F50673A3F209231A7807F113
:10594000100311461846FCF797FCFCF77DFC1DE0A0
:1059500007F5887397F80F020122022106F05EF91D
:1059600007F10F0207F1100107F58873184606F0DA
:1059700003FA07F50673A3F209231A7807F1100357
:1059800011461846FCF778FCFCF75EFC0523184628
:1059900007F50677BD4680BD00000240005000407C
:1059A000B858002000440040B958002000100140C1
:1059B00080B5ADF5067D00AF07F50673A3F5057359
:1059C000186007F50673A3F50673196007F50673EB
:1059D000A3F505731B68012B01DC0323A3E007F586
:1059E0000673A3F505731B68022B01DD02239AE001
:1059F0004FF400614E48FFF783FD4FF480514C484F
:105A0000FFF770FD07F50673A3F505731B6803F137
:105A10008043013B9B0007F50672A2F506721268EF
:105A200013441B68C7F81032D7F81032414A93422A
:105A300003D1414B01221A7002E03F4B00221A7041
:105A4000D7F810323D4A934203D13D4B01221A70E0
:105A500002E03B4B00221A70032387F80F3207F550
:105A6000887397F80F020122022106F0D7F807F198
:105A70000F0207F1100107F58873184606F07CF94C
:105A800007F50673A3F209231B78002B2CD0002303
:105A9000C7F8143210E007F50673A3F50272D7F8C1
:105AA000143213441B7819462648FCF74DF9D7F8F1
:105AB00014320133C7F8143207F50673A3F2092331
:105AC0001B781A46D7F814329342E4DB07F50673C5
:105AD000A3F209231A7807F1100311461846FCF7C0
