:020000040800F2
:1000000000000220E58800084D860008558600089B
:100010005D860008658600086D8600080000000007
:1000200000000000000000000000000075860008CD
:10003000838600080000000091860008A186000861
:100040003589000835890008358900083589000898
:100050003589000835890008358900083589000888
:100060003589000835890008358900083589000878
:100070003589000835890008358900083589000868
:100080003589000835890008358900083589000858
:100090003589000835890008358900083589000848
:1000A0003589000835890008358900083589000838
:1000B0003589000835890008358900083589000828
:1000C0003589000835890008358900083589000818
:1000D00035890008BD860008D1860008E58600083D
:1000E00035890008358900083589000835890008F8
:1000F00035890008358900083589000835890008E8
:1001000035890008358900083589000835890008D7
:10011000F98600080D870008358900083589000830
:1001200035890008358900083589000835890008B7
:100130003589000800000000000000003589000833
:100140003589000835890008358900083589000897
:10015000358900083589000835890008218700089D
:100160003589000835890008358900083589000877
:1001700035890008358900080000000000000000F3
:080180003589000835890008EB
:1001900010B5054C237833B9044B13B10448AFF3C1
:1001A00000800123237010BD8C050020000000009A
:1001B000E40D010808B5034B1BB103490348AFF335
:1001C000008008BD0000000090050020E40D01083B
:1001D00010F8012B11F8013B012A28BF9A42F7D0F1
:1001E000D01A70470000000000000000000000006E
:1001F00001F0FF01102A2BDB10F0070F08D010F8D8
:10020000013B013A8B422DD010F0070F42B3F6D1DB
:10021000F0B441EA012141EA014122F007047FF0F4
:1002200000070023F0E80256083C85EA010586EA4B
:10023000010685FA47F5A3FA87F586FA47F6A5FA87
:1002400087F68EB9EED1F0BC01F0FF0102F0070293
:1002500032B110F8013B013A83EA010313B1F8D13E
:100260000020704701387047002D06BF354603381F
:10027000073815F0010F07D1013015F4807F02BF58
:10028000013015F4C03F0130F0BC0138704700BFA9
:10029000034613F8012B002AFBD1181A01387047C6
:1002A00081F0004102E000BF83F0004330B54FEA27
:1002B00041044FEA430594EA050F08BF90EA020F94
:1002C0001FBF54EA000C55EA020C7FEA645C7FEA27
:1002D000655C00F0E2804FEA5454D4EB5555B8BF4A
:1002E0006D420CDD2C4480EA020281EA030382EABB
:1002F000000083EA010180EA020281EA0303362D4D
:1003000088BF30BD11F0004F4FEA01314FF4801C1F
:100310004CEA113102D0404261EB410113F0004F31
:100320004FEA03334CEA133302D0524263EB4303E8
:1003300094EA050F00F0A780A4F10104D5F1200E86
:100340000DDB02FA0EFC22FA05F2801841F10001E1
:1003500003FA0EF2801843FA05F359410EE0A5F1B5
:1003600020050EF1200E012A03FA0EFC28BF4CF0E6
:10037000020C43FA05F3C01851EBE37101F000459C
:1003800007D54FF0000EDCF1000C7EEB00006EEBA9
:100390000101B1F5801F1BD3B1F5001F0CD3490833
:1003A0005FEA30004FEA3C0C04F101044FEA44528A
:1003B00012F5800F80F09A80BCF1004F08BF5FEA11
:1003C000500C50F1000041EB045141EA050130BDF1
:1003D0005FEA4C0C404141EB0101013C28BFB1F503
:1003E000801FE9D291F0000F04BF01460020B1FA4E
:1003F00081F308BF2033A3F10B03B3F120020CDA21
:100400000C3208DD02F1140CC2F10C0201FA0CF0FE
:1004100021FA02F10CE002F11402D8BFC2F1200C63
:1004200001FA02F120FA0CFCDCBF41EA0C01904019
:10043000E41AA2BF01EB0451294330BD6FEA040462
:100440001F3C1CDA0C340EDC04F11404C4F120024D
:1004500020FA04F001FA02F340EA030021FA04F35F
:1004600045EA030130BDC4F10C04C4F1200220FAB6
:1004700002F001FA04F340EA0300294630BD21FAF4
:1004800004F0294630BD94F0000F83F4801306BFBA
:1004900081F480110134013D4EE77FEA645C18BFAE
:1004A0007FEA655C29D094EA050F08BF90EA020F45
:1004B00005D054EA000C04BF1946104630BD91EA3D
:1004C000030F1EBF0021002030BD5FEA545C05D140
:1004D0004000494128BF41F0004130BD14F580047F
:1004E0003CBF01F5801130BD01F0004545F0FE41F3
:1004F00041F470014FF0000030BD7FEA645C1ABF28
:10050000194610467FEA655C1CBF0B46024650EA5E
:10051000013406BF52EA033591EA030F41F400218A
:1005200030BD00BF90F0000F04BF0021704730B510
:100530004FF4806404F132044FF000054FF00001E5
:1005400050E700BF90F0000F04BF0021704730B5A6
:100550004FF4806404F1320410F0004548BF40427B
:100560004FF000013EE700BF42004FEAE2014FEAD0
:1005700031014FEA02701FBF12F07F4393F07F4FAB
:1005800081F06051704732F07F4208BF704793F0AE
:100590007F4F04BF41F40021704730B54FF46074C1
:1005A00001F0004521F000411CE700BF50EA0102C4
:1005B00008BF704730B54FF000050AE050EA01026D
:1005C00008BF704730B511F0004502D5404261EBDD
:1005D00041014FF4806404F132045FEA915C3FF41E
:1005E000D8AE4FF003025FEADC0C18BF03325FEABB
:1005F000DC0C18BF033202EBDC02C2F1200300FA6C
:1006000003FC20FA02F001FA03FE40EA0E0021FA90
:1006100002F11444BDE600BF70B54FF0FF0C4CF47E
:10062000E06C1CEA11541DBF1CEA135594EA0C0F30
:1006300095EA0C0F00F0DEF82C4481EA030621EA6B
:100640004C5123EA4C5350EA013518BF52EA0335A6
:1006500041F4801143F4801338D0A0FB02CE4FF058
:100660000005E1FB02E506F00042E0FB03E54FF088
:100670000006E1FB03569CF0000F18BF4EF0010E80
:10068000A4F1FF04B6F5007F64F5407404D25FEA7C
:100690004E0E6D4146EB060642EAC62141EA55512F
:1006A0004FEAC52040EA5E504FEACE2EB4F1FD0C71
:1006B00088BFBCF5E06F1ED8BEF1004F08BF5FEAEF
:1006C000500E50F1000041EB045170BD06F00046A1
:1006D00046EA010140EA020081EA0301B4EB5C044E
:1006E000C2BFD4EB0C0541EA045170BD41F4801146
:1006F0004FF0000E013C00F3AB8014F1360FDEBF6B
:10070000002001F0004170BDC4F10004203C35DA46
:100710000C341BDC04F11404C4F1200500FA05F3C9
:1007200020FA04F001FA05F240EA020001F000426A
:1007300021F0004110EBD37021FA04F642EB0601E0
:100740005EEA430E08BF20EAD37070BDC4F10C040A
:10075000C4F1200500FA04F320FA05F001FA04F2CE
:1007600040EA020001F0004110EBD37041F10001BA
:100770005EEA430E08BF20EAD37070BDC4F12005C5
:1007800000FA05F24EEA020E20FA04F301FA05F22D
:1007900043EA020321FA04F001F0004121FA04F2D5
:1007A00020EA020000EBD3705EEA430E08BF20EAA5
:1007B000D37070BD94F0000F0FD101F000464000DF
:1007C00041EB010111F4801F08BF013CF7D041EA61
:1007D000060195F0000F18BF704703F00046520065
:1007E00043EB030313F4801F08BF013DF7D043EA36
:1007F0000603704794EA0C0F0CEA135518BF95EAEC
:100800000C0F0CD050EA410618BF52EA4306D1D172
:1008100081EA030101F000414FF0000070BD50EA91
:10082000410606BF1046194652EA430619D094EA1B
:100830000C0F02D150EA013613D195EA0C0F05D105
:1008400052EA03361CBF104619460AD181EA030159
:1008500001F0004141F0FE4141F470014FF0000011
:1008600070BD41F0FE4141F4780170BD70B54FF0AC
:10087000FF0C4CF4E06C1CEA11541DBF1CEA13552C
:1008800094EA0C0F95EA0C0F00F0A7F8A4EB05040E
:1008900081EA030E52EA03354FEA013100F0888005
:1008A0004FEA03334FF0805545EA131343EA1263CE
:1008B0004FEA022245EA111545EA10654FEA002683
:1008C0000EF000419D4208BF964244F1FD0404F53C
:1008D000407402D25B084FEA3202B61A65EB030598
:1008E0005B084FEA32024FF480104FF4002CB6EB55
:1008F000020E75EB030E22BFB61A754640EA0C00D5
:100900005B084FEA3202B6EB020E75EB030E22BF14
:10091000B61A754640EA5C005B084FEA3202B6EB55
:10092000020E75EB030E22BFB61A754640EA9C0014
:100930005B084FEA3202B6EB020E75EB030E22BFE4
:10094000B61A754640EADC0055EA060E18D04FEAA2
:10095000051545EA16754FEA06164FEAC30343EA42
:1009600052734FEAC2025FEA1C1CC0D111F4801F0F
:100970000BD141EA00014FF000004FF0004CB6E708
:1009800011F4801F04BF01430020B4F1FD0C88BFA7
:10099000BCF5E06F3FF6AFAEB5EB030C04BFB6EBB2
:1009A000020C5FEA500C50F1000041EB045170BDA5
:1009B0000EF0004E4EEA113114EB5C04C2BFD4EBD2
:1009C0000C0541EA045170BD41F480114FF0000E56
:1009D000013C90E645EA060E8DE60CEA135594EAD2
:1009E0000C0F08BF95EA0C0F3FF43BAF94EA0C0FD5
:1009F0000AD150EA01347FF434AF95EA0C0F7FF44A
:100A000025AF104619462CE795EA0C0F06D152EA9D
:100A100003353FF4FDAE1046194622E750EA410681
:100A200018BF52EA43067FF4C5AE50EA41047FF492
:100A30000DAF52EA43057FF4EBAE12E74FF0FF3CF7
:100A400006E000BF4FF0010C02E000BF4FF0010CC8
:100A50004DF804CD4FEA410C7FEA6C5C4FEA430C41
:100A600018BF7FEA6C5C1BD001B050EA410C0CBF90
:100A700052EA430C91EA030F02BF90EA020F0020F2
:100A8000704710F1000F91EA030F58BF994208BF59
:100A900090422CBFD8176FEAE37040F00100704716
:100AA0004FEA410C7FEA6C5C02D150EA013C07D16D
:100AB0004FEA430C7FEA6C5CD6D152EA033CD3D0B8
:100AC0005DF8040B704700BF8446104662468C46B2
:100AD0001946634600E000BF01B5FFF7B7FF0028E5
:100AE00048BF10F1000F01BD4DF808EDFFF7F4FF0E
:100AF0000CBF012000205DF808FB00BF4DF808ED99
:100B0000FFF7EAFF34BF012000205DF808FB00BFBB
:100B10004DF808EDFFF7E0FF94BF012000205DF8DD
:100B200008FB00BF4DF808EDFFF7CEFF94BF012092
:100B300000205DF808FB00BF4DF808EDFFF7C4FF8B
:100B400034BF012000205DF808FB00BF4FEA410CD4
:100B50007FEA6C5C02D150EA013C0AD14FEA430CB7
:100B60007FEA6C5C02D152EA033C02D14FF00000F4
:100B700070474FF0010070474FEA410212F5001232
:100B800015D211D56FF47873B3EB625212D94FEAD4
:100B9000C12343F0004343EA505311F0004F23FABE
:100BA00002F018BF404270474FF00000704750EA13
:100BB000013005D111F0004008BF6FF000407047D0
:100BC0004FF00000704700BF4A0011D212F500122A
:100BD00011D20DD56FF47873B3EB62520ED44FEA95
:100BE000C12343F0004343EA505323FA02F0704715
:100BF0004FF00000704750EA013002D14FF0FF3053
:100C000070474FF0000070474FEA4102B2F1E043F5
:100C100024BFB3F5001CDCF1FE5C0DD901F0004CE3
:100C20004FEAC0024CEA5070B2F1004F40EB830033
:100C300008BF20F00100704711F0804F21D113F15F
:100C40003872BCBF01F00040704741F480114FEA98
:100C50005252C2F11802C2F1200C10FA0CF320FA21
:100C600002F018BF40F001004FEAC1234FEAD3233E
:100C700003FA0CFC40EA0C0023FA02F34FEA4303A8
:100C8000CCE77FEA625307D150EA01331EBF4FF031
:100C9000FE4040F44000704701F0004040F0FE404C
:100CA00040F40000704700BF53B94AB9002908BF9B
:100CB00000281CBF4FF0FF314FF0FF3000F0A0B90B
:100CC000ADF1080C6DE904CE00F03CF8DDF804E06D
:100CD000DDE9022304B0704738B500220023044642
:100CE0000D46FFF70BFF28B920462946BDE83840DE
:100CF00000F00AB8204605F1004100F005F8404236
:100D000061EB410138BD00BFD0B50C4B0022064657
:100D10000F46FFF781FCFFF757FF0446FFF702FC81
:100D2000074B0022FFF778FC02460B463046394657
:100D3000FFF7BAFAFFF748FF2146D0BD0000F03DAB
:100D40000000F0412DE9F047089D0C46002B4ED1E4
:100D500094468C458646B2FA82F262D94AB1C2F113
:100D60002003914020FA03F30CFA02FC194300FA25
:100D700002FE4FEA1C471FFA8CF6B1FBF7F44FEA6C
:100D80001E4307FB141143EA014304FB06F1994299
:100D90000AD91CEB030304F1FF3080F01281994261
:100DA00040F20F81023C6344591A1FFA8EF3B1FBE3
:100DB000F7F007FB101143EA014300FB06F69E42E1
:100DC0000AD91CEB030300F1FF3180F0FC809E4246
:100DD00040F2F980634402389B1B40EA0440002142
:100DE0001DB1D3400022C5E90032BDE8F0878B4237
:100DF00005D90DB1C5E9000100210846F5E7B3FAB0
:100E000083F1002946D1A34202D39042C0F0F08082
:100E1000861A64EB03030120002DE6D0C5E90063C8
:100E2000E3E7002A40F09080A1EB0C044FEA1C4855
:100E30001FFA8CF70121B4FBF8F64FEA1E4308FBBA
:100E4000164443EA044307FB06F0984208D91CEB1A
:100E5000030306F1FF3402D2984200F2CD80264609
:100E60001C1A1FFA8EF3B4FBF8F008FB104443EA97
:100E7000044300FB07F79F4208D91CEB030300F172
:100E8000FF3402D29F4200F2B0802046DB1B40EAD2
:100E90000640A5E7C1F120068B4022FA06F71F4362
:100EA00020FA06FC04FA01F343EA0C03F44000FACA
:100EB00001F8380C4FEA1349B4FBF0FE1FFA87FC27
:100EC00000FB1E4449EA04440EFB0CF9A14502FA5A
:100ED00001F20AD93C190EF1FF3A80F08480A14555
:100EE00040F28180AEF1020E3C44A4EB09041FFAEB
:100EF00083F9B4FBF0F300FB134449EA044403FB19
:100F00000CFCA44507D93C1903F1FF3067D2A44576
:100F100065D9023B3C4443EA0E40A0FB0293A4EB9C
:100F20000C049C42CE469C4651D34ED055B1B8EBF2
:100F30000E0364EB0C0404FA06F6CB401E43CC40CF
:100F4000C5E90064002150E7C2F1200320FA03F153
:100F50000CFA02FC24FA03F394400C434FEA1C48B9
:100F600000FA02FE1FFA8CF7B3FBF8F008FB103111
:100F7000230C43EA014300FB07F1994208D91CEB1B
:100F8000030300F1FF362CD299422AD90238634478
:100F90005B1AA4B2B3FBF8F108FB113344EA034433
:100FA00001FB07F3A34208D91CEB040401F1FF364F
:100FB00013D2A34211D902396444E41A41EA004130
:100FC00039E70446F0E6084606E7C845AED2B9EB75
:100FD000020E63EB070C0138A8E73146EDE7034644
:100FE00099E73046D4E7D6467FE7634402384DE7B9
:100FF0000646234608460FE7023E634430E700BF3B
:10100000704700BF80B483B000AF78607B685B69D5
:1010100003F08003802B0CBF01230023DBB21846B2
:101020000C37BD465DF8047B704780B483B000AFD9
:1010300078607B685B6903F04003402B0CBF0123A1
:101040000023DBB218460C37BD465DF8047B7047C1
:1010500080B483B000AF78607B685B6903F0010304
:10106000012B0CBF01230023DBB218460C37BD4611
:101070005DF8047B704780B483B000AF78607B6814
:101080005B6903F00203022B0CBF01230023DBB2D8
:1010900018460C37BD465DF8047B704780B483B0BA
:1010A00000AF78607B689B6903F00203022B0CBFE2
:1010B00001230023DBB218460C37BD465DF8047BE4
:1010C000704780B485B000AF78607B685B69FB6077
:1010D000FB687B689B69FB60FB6800BF1437BD46FB
:1010E0005DF8047B704780B483B000AF78603960EE
:1010F0007B681B6823F480623B681A437B681A6034
:1011000000BF0C37BD465DF8047B704780B483B0E8
:1011100000AF78607B681B6843F480727B681A605C
:1011200000BF0C37BD465DF8047B704780B483B0C8
:1011300000AF78607B681B6843F400727B681A60BC
:1011400000BF0C37BD465DF8047B704780B483B0A8
:1011500000AF78607B681B69DBB218460C37BD4670
:101160005DF8047B704780B483B000AF78600B46B5
:10117000FB707B681B6923F0FF02FB781A437B68D6
:101180001A6100BF0C37BD465DF8047B7047000054
:1011900080B582B000AF03460A46FB711346BB71AF
:1011A00000BF1E48FFF77AFF0346002BF9D11B480A
:1011B000FFF7ACFF00BF1948FFF74AFF0346002BBB
:1011C000F9D0D0211548FFF7CEFF00BF1348FFF735
:1011D00052FF0346002BF9D01048FFF772FFFB794E
:1011E00019460E48FFF7BFFF00BF0C48FFF70AFF84
:1011F0000346002BF9D0BB7919460848FFF7B3FF27
:1012000000BF0648FFF7FEFE0346002BF9D0034857
:10121000FFF78CFF00BF0837BD4680BD005400407B
:1012200080B584B000AF0346FB710023FB7300BFA1
:101230002C48FFF733FF0346002BF9D12948FFF76D
:1012400065FF00BF2748FFF703FF0346002BF9D0D7
:10125000D0212448FFF787FF00BF2248FFF70BFF8C
:101260000346002BF9D01F48FFF72BFFFB791946E7
:101270001C48FFF778FF00BF1A48FFF7C3FE03467C
:10128000002BF9D01748FFF741FF00BF1548FFF7C3
:10129000DFFE0346002BF9D0D1211248FFF763FF90
:1012A00000BF1048FFF7E7FE0346002BF9D00D48BA
:1012B000FFF707FF00210B48FFF715FF00BF0948A4
:1012C000FFF7B3FE0346002BF9D00648FFF73EFFB9
:1012D0000346FB730348FFF729FFFB7B18461037D3
:1012E000BD4680BD0054004090B583B000AF0446B9
:1012F000084611461A462346FB710346BB710B464E
:101300007B7113463B7197F82030554AA2FB0323AB
:10131000DB08DBB21B0158B297F82020504BA3FB2F
:101320000213D9080B469B000B445B00D31ADBB2B7
:101330005BB203435BB2DBB219460020FFF728FF24
:101340003B7F474AA2FB0323DB08DBB21B0158B2F9
:101350003A7F434BA3FB0213D9080B469B000B4477
:101360005B00D31ADBB25BB203435BB2DBB219465C
:101370000120FFF70DFF3B7E394AA2FB0323DB0868
:10138000DBB21B0158B23A7E354BA3FB0213D908DE
:101390000B469B000B445B00D31ADBB25BB20343EA
:1013A0005BB2DBB219460220FFF7F2FEFB79194669
:1013B0000320FFF7EDFEBB79294AA2FB0323DB08DC
:1013C000DBB21B0158B2BA79254BA3FB0213D90833
:1013D0000B469B000B445B00D31ADBB25BB20343AA
:1013E0005BB2DBB219460420FFF7D2FE7B791C4AC0
:1013F000A2FB0323DB08DBB21B0158B27A79184B3E
:10140000A3FB0213D9080B469B000B445B00D31AC5
:10141000DBB25BB203435BB2DBB219460520FFF7D8
:10142000B7FE3B790E4AA2FB0323DB08DBB21B01AC
:1014300058B23A790A4BA3FB0213D9080B469B001A
:101440000B445B00D31ADBB25BB203435BB2DBB28B
:1014500019460620FFF79CFE00BF0C37BD4690BD25
:10146000CDCCCCCC80B584B000AFF860B9607A60E8
:101470003B600020FFF7D4FE03461A463B6A1A7011
:101480000120FFF7CDFE03461A46FB691A700220C1
:10149000FFF7C6FE03461A46BB691A700320FFF722
:1014A000BFFE03461A46FB681A700420FFF7B8FE19
:1014B00003461A46BB681A700520FFF7B1FE0346C3
:1014C0001A467B681A700620FFF7AAFE03461A46E2
:1014D0003B681A703B6A1B781B09DBB21A46920004
:1014E00013445B00DAB23B6A1B7803F00F03DBB2F4
:1014F0001344DAB23B6A1A70FB691B781B09DBB232
:101500001A46920013445B00DAB2FB691B7803F0C1
:101510000F03DBB21344DAB2FB691A70BB691B78A4
:101520001B09DBB21A46920013445B00DAB2BB69B6
:101530001B7803F00F03DBB21344DAB2BB691A70F5
:10154000BB681B781B09DBB21A46920013445B0090
:10155000DAB2BB681B7803F00F03DBB21344DAB2D4
:10156000BB681A707B681B781B09DBB21A469200B5
:1015700013445B00DAB27B681B7803F00F03DBB225
:101580001344DAB27B681A703B681B781B09DBB224
:101590001A46920013445B00DAB23B681B7803F0F2
:1015A0000F03DBB21344DAB23B681A7000BF103786
:1015B000BD4680BD80B582B000AF1120FFF730FE80
:1015C0000346FB711220FFF72BFE0346BB71FB792C
:1015D0001B021AB2BB791BB21343BB80B7F90430AC
:1015E0001846FEF7AFFF4FF00002094BFFF73EF938
:1015F00002460B4610461946FFF706FB03463B60C2
:101600003B6807EE903AB0EE670A0837BD4680BDEA
:101610000000704080B483B000AF03463960FB71B6
:1016200097F90730002B0ADB3B68DAB20C4997F9CF
:1016300007301201D2B20B4483F800230AE03B6862
:10164000DAB20849FB7903F00F03043B1201D2B26E
:101650000B441A7600BF0C37BD465DF8047B70471B
:1016600000E100E000ED00E080B582B000AF7860FE
:101670007B68013BB3F1807F01D301230FE00A4A6D
:101680007B68013B53600F214FF0FF30FFF7C2FF33
:10169000054B00229A60044B07221A60002318466B
:1016A0000837BD4680BD00BF10E000E080B400AF49
:1016B000054B1B68044A43F00103136000BFBD469D
:1016C0005DF8047B704700BF10E000E080B500AF1C
:1016D000054B1B68054AA2FB03239B091846FFF72D
:1016E000C3FF00BF80BD00BFB0030020D34D621018
:1016F00080B483B000AF78607B681B6803F002039E
:10170000022B0CBF01230023DBB218460C37BD4669
:101710005DF8047B704780B483B000AF78607B686D
:101720001B6803F00403042B0CBF01230023DBB26E
:1017300018460C37BD465DF8047B704780B483B013
:1017400000AF78607B681B6803F00803082B0CBFB0
:1017500001230023DBB218460C37BD465DF8047B3D
:10176000704780B483B000AF78607B681B6803F07B
:101770002003202B0CBF01230023DBB218460C37BB
:10178000BD465DF8047B704780B483B000AF7860DD
:101790007B681B6803F08003802B0CBF01230023B0
:1017A000DBB218460C37BD465DF8047B704780B449
:1017B00085B000AF78607B681B68FB60FB687B6866
:1017C0005B68FB60FB6800BF1437BD465DF8047BB7
:1017D000704780B485B000AF78607B681B68FB60A1
:1017E000FB687B685B68FB60FB6800BF1437BD4625
:1017F0005DF8047B704780B485B000AF78607B688B
:101800001B68FB60FB687B685B68FB60FB6800BF74
:101810001437BD465DF8047B704780B489B000AFD3
:1018200078607B680C33FB60FB6853E8003FBB606B
:10183000BB6843F02003FB617B680C33FA69BA6133
:101840007B617969BA6941E800233B613B69002B00
:10185000E7D100BF00BF2437BD465DF8047B704769
:1018600080B489B000AF78607B680C33FB60FB68A4
:1018700053E8003FBB60BB6843F08003FB617B68BB
:101880000C33FA69BA617B617969BA6941E800236E
:101890003B613B69002BE7D100BF00BF2437BD4649
:1018A0005DF8047B704780B489B000AF78607B68D6
:1018B0001433FB60FB6853E8003FBB60BB6843F038
:1018C0000103FB617B681433FA69BA617B61796952
:1018D000BA6941E800233B613B69002BE7D100BFB7
:1018E00000BF2437BD465DF8047B704780B489B0E3
:1018F00000AF78607B680C33FB60FB6853E8003F07
:10190000BB60BB6823F02003FB617B680C33FA6982
:10191000BA617B617969BA6941E800233B613B693F
:10192000002BE7D100BF00BF2437BD465DF8047B24
:10193000704780B489B000AF78607B680C33FB607F
:10194000FB6853E8003FBB60BB6823F08003FB618A
:101950007B680C33FA69BA617B617969BA6941E8DD
:1019600000233B613B69002BE7D100BF00BF243758
:10197000BD465DF8047B704780B483B000AF7860EB
:101980007B68DB6803F02003202B0CBF01230023BE
:10199000DBB218460C37BD465DF8047B704780B457
:1019A00083B000AF78607B68DB6803F08003802B36
:1019B0000CBF01230023DBB218460C37BD465DF88F
:1019C000047B704780B483B000AF78607B685B684D
:1019D000DBB218460C37BD465DF8047B704780B417
:1019E00083B000AF78600B46FB70FA787B685A6072
:1019F00000BF0C37BD465DF8047B704780B500AF73
:101A0000204B214A1A60214B214A1A60214B224A5D
:101A10001A60224B224A1A60224B234A1A60234B37
:101A2000234A1A60234B244A1A60244B244A1A6022
:101A3000244B1B681846FFF736FF234B1B681846DC
:101A4000FFF731FF214B1B681846FFF72CFF204B97
:101A50001B681846FFF727FF1A4B1B681846FFF74D
:101A6000DCFE194B1B681846FFF7D7FE174B1B68A7
:101A70001846FFF7D2FE164B1B681846FFF7CDFE3F
:101A800000BF80BDE8450020A8050020EC450020EF
:101A9000B00D0020F0450020B8150020F4450020CE
:101AA000C01D0020F8450020C8250020FC4500206E
:101AB000D02D002000460020D8350020044600200C
:101AC000E03D00200000002004000020080000206D
:101AD0000C00002080B584B000AF03463960FB7174
:101AE0003B68D3F800380133C3F30A03FB603B685B
:101AF000D3F80428FB689A4231D01B4B1B68184668
:101B0000FFF7F4FE194B1B681846FFF7EFFE184B62
:101B10001B681846FFF7EAFE164B1B681846FFF7CE
:101B2000E5FE3B68D3F800383A68F979D154FA6891
:101B30003B68C3F800280C4B1B681846FFF76DFE86
:101B40000A4B1B681846FFF768FE094B1B681846CE
:101B5000FFF763FE074B1B681846FFF75EFE00BFEA
:101B60001037BD4680BD00BF0000002004000020EB
:101B7000080000200C00002080B584B000AF786021
:101B80007B68414A934209D03F4A934212D83F4A68
:101B9000934207D03E4A934208D00BE03D4B1B686E
:101BA000FB600BE03C4B1B68FB6007E03B4B1B689A
:101BB000FB6003E03A4B1B68FB6000BFFB68D3F897
:101BC0000028FB68D3F804389A4202D14FF0FF3363
:101BD00055E07B682C4A934205D1324B1B6818466E
:101BE000FFF784FE18E07B68284A934205D12E4B0C
:101BF0001B681846FFF77AFE0EE07B68244A934282
:101C000005D12A4B1B681846FFF770FE04E0284BED
:101C10001B681846FFF76AFEFB68D3F80438FA68B9
:101C2000D35CFB72FB68D3F804380133C3F30A02B8
:101C3000FB68C3F804287B68134A934205D1194B0B
:101C40001B681846FFF7E9FD18E07B680F4A9342CE
:101C500005D1154B1B681846FFF7DFFD0EE07B68CA
:101C60000B4A934205D1114B1B681846FFF7D5FD6F
:101C700004E00F4B1B681846FFF7CFFDFB7A1846B0
:101C80001037BD4680BD00BF001001400044004039
:101C900000500040E8450020F0450020F8450020B5
:101CA0000046002000000020040000200800002062
:101CB0000C00002080B584B000AF786039607B688C
:101CC000544A934209D0534A934212D8524A9342FB
:101CD00007D0524A934208D00BE0514B1B68FB607F
:101CE0000BE0504B1B68FB6007E04F4B1B68FB6031
:101CF00003E04E4B1B68FB6000BF3B68002BC0F24B
:101D00008580FB68D3F800380133C3F30A03BB6056
:101D10007B68404A934205D1454B1B681846FFF744
:101D2000E5FD18E07B683C4A934205D1414B1B68B6
:101D30001846FFF7DBFD0EE07B68384A934205D179
:101D40003D4B1B681846FFF7D1FD04E03B4B1B6879
:101D50001846FFF7CBFD00BFFB68D3F80428BB682B
:101D60009A42F9D0FB68D3F800383A68D1B2FA68E1
:101D7000D154BA68FB68C3F800287B68254A9342AF
:101D800005D12B4B1B681846FFF747FD18E07B6811
:101D9000214A934205D1274B1B681846FFF73DFDAA
:101DA0000EE07B681D4A934205D1234B1B68184601
:101DB000FFF733FD04E0214B1B681846FFF72DFDAC
:101DC0007B68144A934209D0124A934218D8124AA7
:101DD000934209D0114A93420CD011E0144B1B6876
:101DE0001846FFF73DFD11E0124B1B681846FFF740
:101DF00037FD0BE0104B1B681846FFF731FD05E07F
:101E00000E4B1B681846FFF72BFD00BF00BF1037B5
:101E1000BD4680BD0010014000440040005000401D
:101E2000EC450020F4450020FC450020044600203D
:101E30000000002004000020080000200C0000200A
:101E400080B485B000AF78607B68194A934209D0AE
:101E5000174A934212D8174A934207D0164A934220
:101E600008D00BE0154B1B68FB600BE0144B1B68A4
:101E7000FB6007E0134B1B68FB6003E0124B1B6821
:101E8000FB6000BFFB68D3F800389AB2FB68D3F858
:101E900004389BB2D31A9BB203F500639BB2C3F321
:101EA0000A0318461437BD465DF8047B704700BF2F
:101EB000001001400044004000500040E845002070
:101EC000F0450020F84500200046002080B582B093
:101ED00000AF7860396007E03B685A1C3A601B78B5
:101EE00019467868FFF7E6FE3B681B78002BF3D1B4
:101EF00000BF00BF0837BD4680BD000080B584B07C
:101F000000AF78607B68184A934209D0164A934222
:101F100012D8164A934207D0154A934208D00BE0D4
:101F2000144B1B68FB600BE0134B1B68FB6007E066
:101F3000124B1B68FB6003E0114B1B68FB6000BF8A
:101F4000FB684FF40062002118460BF083FCFB682D
:101F50000022C3F80028FB680022C3F8042800BF51
:101F60001037BD4680BD00BF001001400044004056
:101F700000500040E8450020F0450020F8450020D2
:101F80000046002080B586B000AF78607B68464A86
:101F9000934209D0444A93421BD8444A93420AD000
:101FA000434A93420ED014E0424B1B687B61424B84
:101FB0001B683B6114E0414B1B687B61404B1B6815
:101FC0003B610DE03F4B1B687B613F4B1B683B61F6
:101FD00006E03E4B1B687B613D4B1B683B6100BFCD
:101FE0007868FFF7BEFB0346002B2CD07868FFF71C
:101FF000C3FC0346002B26D07868FFF7E3FC0346BA
:10200000FB737868FFF79AFB0346002B0BD17868C7
:10201000FFF76EFB0346002B05D17868FFF77BFBCB
:102020000346002B09D07868FFF7E5FB7868FFF7D7
:10203000BEFB7868FFF7CDFB32E0FB7B7969184681
:10204000FFF748FD2CE07868FFF79EFB0346002B66
:1020500026D07868FFF7A3FC0346002B20D03B690D
:10206000D3F800283B69D3F804389A4203D1786842
:10207000FFF75FFC13E03B69D3F804383A69D35C9F
:10208000BB733B69D3F804380133C3F30A023B69DD
:10209000C3F80428BB7B19467868FFF7A0FC00BF93
:1020A0001837BD4680BD00BF00100140004400400D
:1020B00000500040E8450020EC450020F04500209D
:1020C000F4450020F8450020FC4500200046002093
:1020D0000446002080B400AF054B00221A70054B67
:1020E00000221A7000BFBD465DF8047B704700BF38
:1020F000094700200A47002080B400AF034B0122AB
:102100001A7000BFBD465DF8047B70470947002088
:1021100080B400AF034B00221A7000BFBD465DF8CB
:10212000047B70470947002080B582B000AF78601B
:102130000B46FB7000BF124B1B78DBB2002BFAD1B1
:102140000F4B01221A70FF2200210E480BF082FB78
:10215000FB781A4679680B480BF0FBFB0A4AFB78C0
:102160001370074B00221A70084B01221A704FF4AB
:102170007A71032007F0BCFB00BF0837BD4680BD65
:102180000847002008460020074700200947002094
:1021900080B500AF0249034807F0D6FB00BF80BD01
:1021A000140000201000002080B582B000AF032092
:1021B00007F0B4FB0346002B4FD02A4B1B78DBB251
:1021C000002B45D0284B1B78DBB2012B33D800BF46
:1021D000264B1B78DBB2002BFAD1244B01221A705C
:1021E000234B1B78DBB21A46224923480BF0B1FB84
:1021F00000237B600AE0204A7B6813441B78194661
:102200001E48FFF757FD7B6801337B60184B1B7836
:10221000DBB21A467B689342EDDB134B1B78DBB2D3
:102220000133DAB2104B1A700E4B01221A700F4BA9
:1022300000221A700CE00C4B00221A70FFF768FFA6
:102240000F491048FFF742FE0F490E48FFF73EFEC8
:102250004FF47A71032007F04BFB00BF0837BD46EF
:1022600080BD00BF094700200A4700200847002022
:1022700007470020084600200C47002000100140BE
:10228000000E010800500040140E010880B483B015
:1022900000AF786039607B683A689A6100BF0C379C
:1022A000BD465DF8047B704780B5ADF5087D02AF93
:1022B00007F50673A3F50573186007F50673A3F514
:1022C0000673196007F50673A3F505731B68022BE7
:1022D00001DC0323BAE007F50673A3F505731B6859
:1022E000032B01DD0223B1E007F50673A3F50673A6
:1022F0001B6804331B6818460AF09EF9034687F8EA
:10230000133297F81332032B01D904239EE007F50B
:102310000673A3F506731B6808331B6818460AF09A
:102320008BF90346A7F81032B7F81032B3F5FA7FED
:1023300001D904238AE04FF400614748FFF7A6FF64
:102340004FF480514448FFF7A1FF012387F80F3273
:1023500097F8133287F80C32B7F810321B0A9BB289
:10236000DBB287F80D32B7F81032DBB287F80E32E5
:1023700007F5037197F80F0207F5867301930123A0
:1023800000930523032207F09FFC07F10B0207F1DE
:102390000C0107F58673184607F01CFD07F5067358
:1023A000A3F20D231B78002B2CD00023C7F8143286
:1023B00010E007F50673A3F50372D7F8143213443F
:1023C0001B7819462548FFF775FCD7F814320133FE
:1023D000C7F8143207F50673A3F20D231B781A46CB
:1023E000D7F814329342E4DB07F50673A3F20D230A
:1023F0001A7807F10C0311461846FFF795FEFFF710
:102400007BFE22E007F5037197F80F0207F586734C
:102410000193012300930523032207F055FC07F1E4
:102420000B0207F10C0107F58673184607F0D2FC82
:1024300007F50673A3F20D231A7807F10C03114672
:102440001846FFF771FEFFF757FE0523184607F5FC
:102450000677BD4680BD00BF00000240001001406D
:1024600080B5ADF5087D02AF07F50673A3F50573DA
:10247000186007F50673A3F50673196007F5067370
:10248000A3F505731B68022B01DC0323B1E007F5FC
:102490000673A3F505731B68032B01DD0223A8E077
:1024A00007F50673A3F506731B6804331B6818460B
:1024B0000AF0C2F8034687F8133297F81332012B5B
:1024C00001D9042395E007F50673A3F506731B688D
:1024D00008331B6818460AF0AFF8034687F8123233
:1024E00097F81232032B01D9042382E04FF40061E4
:1024F0004248FFF7CBFE4FF480514048FFF7C6FE3D
:10250000022387F8113297F8133287F80C3297F8C4
:10251000123287F80D3207F5037197F8110207F5AB
:1025200086730193012300930523022207F0CCFB5D
:1025300007F10B0207F10C0107F58673184607F047
:1025400049FC07F50673A3F20D231B78002B2CD052
:102550000023C7F8143210E007F50673A3F50372E1
:10256000D7F8143213441B7819462548FFF7A2FB0D
:10257000D7F814320133C7F8143207F50673A3F203
:102580000D231B781A46D7F814329342E4DB07F583
:102590000673A3F20D231A7807F10C0311461846AF
:1025A000FFF7C2FDFFF7A8FD22E007F5037197F8DA
:1025B000110207F58673019301230093052302227C
:1025C00007F082FB07F10B0207F10C0107F5867398
:1025D000184607F0FFFB07F50673A3F20D231A78E0
:1025E00007F10C0311461846FFF79EFDFFF784FD27
:1025F0000523184607F50677BD4680BD000002405A
:102600000010014080B5ADF5087D02AF07F50673F7
:10261000A3F50573186007F50673A3F50673196033
:1026200007F50673A3F505731B68012B01DC032373
:102630009AE007F50673A3F505731B68022B01DD0D
:10264000022391E007F50673A3F506731B680433B4
:102650001B68184609F0F0FF034687F8133297F815
:102660001332032B01D904237EE04FF4006141486B
:10267000FFF70CFE4FF480513E48FFF707FE03239F
:1026800087F8123297F8133287F8103207F5047181
:1026900097F8120207F5887301930123009305232D
:1026A000012207F011FB07F10F0207F1100107F5F6
:1026B0008873184607F08EFB07F50673A3F209230B
:1026C0001B78002B2CD00023C7F8143210E007F53C
:1026D0000673A3F50272D7F8143213441B78194617
:1026E0002548FFF7E7FAD7F814320133C7F8143258
:1026F00007F50673A3F209231B781A46D7F814329C
:102700009342E4DB07F50673A3F209231A7807F175
:10271000100311461846FFF707FDFFF7EDFC22E016
:1027200007F5047197F8120207F5887301930123E6
:1027300000930523012207F0C7FA07F10F0207F102
:10274000100107F58873184607F044FB07F5067378
:10275000A3F209231A7807F1100311461846FFF770
:10276000E3FCFFF7C9FC0523184607F50677BD46CD
:1027700080BD00BF000002400010014080B5ADF5F3
:10278000087D02AF07F50673A3F50573186007F51A
:102790000673A3F50673196007F50673A3F50573B1
:1027A0001B68012B01DC03239AE007F50673A3F5F0
:1027B00005731B68022B01DD022391E007F5067308
:1027C000A3F506731B6804331B68184609F034FF31
:1027D000034687F8133297F81332032B01D90423E9
:1027E0007EE04FF400614148FFF750FD4FF4805107
:1027F0003E48FFF74BFD042387F8123297F8133257
:1028000087F8103207F5047197F8120207F58873FC
:102810000193012300930523012207F055FA07F1E4
:102820000F0207F1100107F58873184607F0D2FA76
:1028300007F50673A3F209231B78002B2CD0002385
:10284000C7F8143210E007F50673A3F50272D7F843
:10285000143213441B7819462548FFF72BFAD7F892
:1028600014320133C7F8143207F50673A3F20923B3
:102870001B781A46D7F814329342E4DB07F5067347
:10288000A3F209231A7807F1100311461846FFF73F
:102890004BFCFFF731FC22E007F5047197F81202B8
:1028A00007F588730193012300930523012207F0A4
:1028B0000BFA07F10F0207F1100107F588731846AC
:1028C00007F088FA07F50673A3F209231A7807F1CF
:1028D000100311461846FFF727FCFFF70DFC0523F0
:1028E000184607F50677BD4680BD00BF00000240D0
:1028F0000010014080B5ADF5087D02AF07F5067305
:10290000A3F50573186007F50673A3F50673196040
:1029100007F50673A3F505731B68012B01DC032380
:102920009AE007F50673A3F505731B68022B01DD1A
:10293000022391E007F50673A3F506731B680433C1
:102940001B68184609F078FE034687F8133297F89B
:102950001332032B01D904237EE04FF40061414878
:10296000FFF794FC4FF480513E48FFF78FFC05239E
:1029700087F8123297F8133287F8103207F504718E
:1029800097F8120207F5887301930123009305233A
:10299000012207F099F907F10F0207F1100107F57D
:1029A0008873184607F016FA07F50673A3F2092391
:1029B0001B78002B2CD00023C7F8143210E007F549
:1029C0000673A3F50272D7F8143213441B78194624
:1029D0002548FFF76FF9D7F814320133C7F81432DE
:1029E00007F50673A3F209231B781A46D7F81432A9
:1029F0009342E4DB07F50673A3F209231A7807F183
:102A0000100311461846FFF78FFBFFF775FB22E016
:102A100007F5047197F8120207F5887301930123F3
:102A200000930523012207F04FF907F10F0207F188
:102A3000100107F58873184607F0CCF907F50673FF
:102A4000A3F209231A7807F1100311461846FFF77D
:102A50006BFBFFF751FB0523184607F50677BD46CC
:102A600080BD00BF000002400010014080B5ADF500
:102A7000087D02AF07F50673A3F50573186007F527
:102A80000673A3F50673196007F50673A3F50573BE
:102A90001B68012B01DC03239AE007F50673A3F5FD
:102AA00005731B68022B01DD022391E007F5067315
:102AB000A3F506731B6804331B68184609F0BCFDB8
:102AC000034687F8133297F81332032B01D90423F6
:102AD0007EE04FF400614148FFF7D8FB4FF480518E
:102AE0003E48FFF7D3FB062387F8123297F81332DC
:102AF00087F8103207F5047197F8120207F588730A
:102B00000193012300930523012207F0DDF807F16B
:102B10000F0207F1100107F58873184607F05AF9FC
:102B200007F50673A3F209231B78002B2CD0002392
:102B3000C7F8143210E007F50673A3F50272D7F850
:102B4000143213441B7819462548FFF7B3F8D7F819
:102B500014320133C7F8143207F50673A3F20923C0
:102B60001B781A46D7F814329342E4DB07F5067354
:102B7000A3F209231A7807F1100311461846FFF74C
:102B8000D3FAFFF7B9FA22E007F5047197F81202B9
:102B900007F588730193012300930523012207F0B1
:102BA00093F807F10F0207F1100107F58873184633
:102BB00007F010F907F50673A3F209231A7807F155
:102BC000100311461846FFF7AFFAFFF795FA0523F1
:102BD000184607F50677BD4680BD00BF00000240DD
:102BE0000010014080B5ADF5087D02AF07F5067312
:102BF000A3F50573186007F50673A3F5067319604E
:102C000007F50673A3F505731B68012B01DC03238D
:102C10009AE007F50673A3F505731B68022B01DD27
:102C2000022391E007F50673A3F506731B680433CE
:102C30001B68184609F000FD034687F8133297F821
:102C40001332032B01D904237EE04FF40061414885
:102C5000FFF71CFB4FF480513E48FFF717FB07239B
:102C600087F8123297F8133287F8103207F504719B
:102C700097F8120207F58873019301230093052347
:102C8000012207F021F807F10F0207F1100107F503
:102C90008873184607F09EF807F50673A3F2092318
:102CA0001B78002B2CD00023C7F8143210E007F556
:102CB0000673A3F50272D7F8143213441B78194631
:102CC0002548FEF7F7FFD7F814320133C7F814325E
:102CD00007F50673A3F209231B781A46D7F81432B6
:102CE0009342E4DB07F50673A3F209231A7807F190
:102CF000100311461846FFF717FAFFF7FDF922E017
:102D000007F5047197F8120207F588730193012300
:102D100000930523012206F0D7FF07F10F0207F108
:102D2000100107F58873184607F054F807F5067385
:102D3000A3F209231A7807F1100311461846FFF78A
:102D4000F3F9FFF7D9F90523184607F50677BD46CD
:102D500080BD00BF000002400010014080B5ADF50D
:102D60000A7D02AF07F50873A3F50773186007F52E
:102D70000873A3F50873196007F50873A3F50773C3
:102D80001B68032B01DC0323D1E007F50873A3F5CF
:102D900007731B68042B01DD0223C8E007F50873E5
:102DA000A3F508731B6804331B68184609F044FC3C
:102DB000034687F81B3297F81B32032B01D90423F3
:102DC000B5E007F50873A3F508731B6808331B68A3
:102DD000184609F031FC034687F81A3297F81A3280
:102DE000012B01D90423A2E007F50873A3F50873AA
:102DF0001B680C331B68184609F01EFC0346A7F835
:102E00001832B7F81832B3F5FA7F01D904238EE0EF
:102E10004FF400614848FFF739FA4FF480514648B3
:102E2000FFF734FA082387F8173297F81B3287F830
:102E3000103297F81A3287F81132B7F818321B0A95
:102E40009BB2DBB287F81232B7F81832DBB287F8E0
:102E5000133207F5047197F8170207F58873019389
:102E6000012300930523042206F02EFF07F10F0231
:102E700007F1100107F58873184606F0ABFF07F558
:102E80000873A3F211231B78002B2CD00023C7F862
:102E90001C3210E007F50873A3F50472D7F81C3252
:102EA00013441B7819462548FEF704FFD7F81C3257
:102EB0000133C7F81C3207F50873A3F211231B78FE
:102EC0001A46D7F81C329342E4DB07F50873A3F2E5
:102ED00011231A7807F1100311461846FFF724F959
:102EE000FFF70AF922E007F5047197F8170207F5D2
:102EF00088730193012300930523042206F0E4FE66
:102F000007F10F0207F1100107F58873184606F064
:102F100061FF07F50873A3F211231A7807F1100374
:102F200011461846FFF700F9FFF7E6F805231846A3
:102F300007F50877BD4680BD000002400010014043
:102F400080B5ADF5087D02AF07F50673A3F50573EF
:102F5000186007F50673A3F50673196007F5067385
:102F6000A3F505731B68022B01DC0323BAE007F508
:102F70000673A3F505731B68032B01DD0223B1E083
:102F800007F50673A3F506731B6804331B68184620
:102F900009F052FB034687F8133297F81332032BDC
:102FA00001D904239EE007F50673A3F506731B6899
:102FB00008331B68184609F03FFB0346A7F8103298
:102FC000B7F81032B3F5FA7F01D904238AE04FF441
:102FD00000614748FFF75AF94FF480514448FFF722
:102FE00055F9092387F80F3297F8133287F80C3216
:102FF000B7F810321B0A9BB2DBB287F80D32B7F874
:103000001032DBB287F80E3207F5037197F80F0222
:1030100007F586730193012300930523032206F02D
:1030200053FE07F10B0207F10C0107F586731846F2
:1030300006F0D0FE07F50673A3F20D231B78002BD4
:103040002CD00023C7F8143210E007F50673A3F55F
:103050000372D7F8143213441B7819462548FEF73B
:1030600029FED7F814320133C7F8143207F5067376
:10307000A3F20D231B781A46D7F814329342E4DBEF
:1030800007F50673A3F20D231A7807F10C03114616
:103090001846FFF749F8FFF72FF822E007F503710C
:1030A00097F80F0207F58673019301230093052318
:1030B000032206F009FE07F10B0207F10C0107F5E8
:1030C0008673184606F086FE07F50673A3F20D23F5
:1030D0001A7807F10C0311461846FFF725F8FFF799
:1030E0000BF80523184607F50677BD4680BD00BFDF
:1030F000000002400010014080B5ADF5047D00AF36
:1031000007F50473A3F50373186007F50473A3F5BB
:103110000473196007F50473A3F503731B68002B90
:1031200001DC032379E007F50473A3F503731B683F
:10313000012B01DD022370E04FF400613948FFF7F5
:10314000A5F84FF480513748FFF7A0F80A2387F815
:103150000B3207F5867397F80B020122052106F062
:103160008BFD07F10B0207F10C0107F5867318467A
:1031700006F030FE07F50473A3F205231B78002B3D
:103180002CD00023C7F80C3210E007F50473A3F528
:103190000172D7F80C3213441B7819462248FEF707
:1031A00089FDD7F80C320133C7F80C3207F50473E8
:1031B000A3F205231B781A46D7F80C329342E4DBBE
:1031C00007F50473A3F205231A7807F10C031146DF
:1031D0001846FEF7A9FFFEF78FFF1DE007F586737F
:1031E00097F80B020122052106F046FD07F10B02BC
:1031F00007F10C0107F58673184606F0EBFD07F59D
:103200000473A3F205231A7807F10C03114618463C
:10321000FEF78AFFFEF770FF0523184607F50477CF
:10322000BD4680BD000002400010014080B5ADF5F4
:10323000047D00AF07F50473A3F50373186007F569
:103240000473A3F50473196007F50473A3F50373FE
:103250001B68002B01DC032379E007F50473A3F559
:1032600003731B68012B01DD022370E04FF4006142
:103270003948FFF70BF84FF480513748FFF706F84D
:103280000B2387F80B3207F5867397F80B020122A0
:10329000052106F0F1FC07F10B0207F10C0107F51F
:1032A0008673184606F096FD07F50473A3F205230E
:1032B0001B78002B2CD00023C7F80C3210E007F548
:1032C0000473A3F50172D7F80C3213441B78194626
:1032D0002248FEF7EFFCD7F80C320133C7F80C3266
:1032E00007F50473A3F205231B781A46D7F80C32AE
:1032F0009342E4DB07F50473A3F205231A7807F180
:103300000C0311461846FEF70FFFFEF7F5FE1DE011
:1033100007F5867397F80B020122052106F0ACFC35
:1033200007F10B0207F10C0107F58673184606F04A
:1033300051FD07F50473A3F205231A7807F10C0376
:1033400011461846FEF7F0FEFEF7D6FE0523184696
:1033500007F50477BD4680BD000002400010014023
:1033600080B5ADF5047D00AF07F50473A3F50373D5
:10337000186007F50473A3F50473196007F5047367
:10338000A3F503731B68002B01DC032379E007F529
:103390000473A3F503731B68012B01DD022370E0A6
:1033A0004FF400613948FEF771FF4FF48051374800
:1033B000FEF76CFF0C2387F80B3207F5867397F83E
:1033C0000B020122052106F057FC07F10B0207F161
:1033D0000C0107F58673184606F0FCFC07F504732C
:1033E000A3F205231B78002B2CD00023C7F80C3246
:1033F00010E007F50473A3F50172D7F80C321344FB
:103400001B7819462248FEF755FCD7F80C320133D9
:10341000C7F80C3207F50473A3F205231B781A468C
:10342000D7F80C329342E4DB07F50473A3F20523CB
:103430001A7807F10C0311461846FEF775FEFEF7E1
:103440005BFE1DE007F5867397F80B02012205214C
:1034500006F012FC07F10B0207F10C0107F5867369
:10346000184606F0B7FC07F50473A3F205231A7893
:1034700007F10C0311461846FEF756FEFEF73CFE18
:103480000523184607F50477BD4680BD00000240BD
:103490000010014080B5ADF50A7D02AF07F5087355
:1034A000A3F50773186007F50873A3F5087319608F
:1034B00007F50873A3F507731B68042B01DC0323CE
:1034C000C7E007F50873A3F507731B68052B01DD3B
:1034D0000223BEE007F50873A3F508731B680433E5
:1034E0001B68184609F0A8F8034687F81B3207F551
:1034F0000873A3F508731B6808331B68184609F0A6
:103500009BF8034687F81A3207F50873A3F508738A
:103510001B680C331B68184609F08EF8034687F8C1
:10352000193207F50873A3F508731B680C331B6881
:10353000184609F081F8034687F818324FF4006105
:103540004648FEF7A3FE4FF480514448FEF79EFE26
:103550000D2387F8173297F81B3287F8103297F847
:103560001A3287F8113297F8193287F8123297F821
:10357000183287F8133207F5047197F8170207F528
:1035800088730193012300930523042206F09CFB1A
:1035900007F10F0207F1100107F58873184606F0CE
:1035A00019FC07F50873A3F211231B78002B2CD00C
:1035B0000023C7F81C3210E007F50873A3F5047266
:1035C000D7F81C3213441B7819462548FEF772FBC6
:1035D000D7F81C320133C7F81C3207F50873A3F281
:1035E00011231B781A46D7F81C329342E4DB07F507
:1035F0000873A3F211231A7807F110031146184635
:10360000FEF792FDFEF778FD22E007F5047197F8CA
:10361000170207F588730193012300930523042201
:1036200006F052FB07F10F0207F1100107F588734E
:10363000184606F0CFFB07F50873A3F211231A789A
:1036400007F1100311461846FEF76EFDFEF754FD14
:103650000523184607F50877BD4680BD00000240E7
:103660000010014080B5ADF5047D00AF07F504738F
:10367000A3F50373186007F50473A3F504731960C9
:1036800007F50473A3F503731B68002B01DC032308
:1036900079E007F50473A3F503731B68012B01DDC3
:1036A000022370E04FF400613948FEF7EFFD4FF45C
:1036B00080513748FEF7EAFD0E2387F80B3207F5F5
:1036C000867397F80B020122052106F0D5FA07F15F
:1036D0000B0207F10C0107F58673184606F07AFB1A
:1036E00007F50473A3F205231B78002B2CD00023CD
:1036F000C7F80C3210E007F50473A3F50172D7F890
:103700000C3213441B7819462248FEF7D3FAD7F837
:103710000C320133C7F80C3207F50473A3F205230A
:103720001B781A46D7F80C329342E4DB07F5047392
:10373000A3F205231A7807F10C0311461846FEF789
:10374000F3FCFEF7D9FC1DE007F5867397F80B0232
:103750000122052106F090FA07F10B0207F10C0196
:1037600007F58673184606F035FB07F50473A3F2D8
:1037700005231A7807F10C0311461846FEF7D4FC0E
:10378000FEF7BAFC0523184607F50477BD4680BD51
:10379000000002400010014080B5ADF5087D02AF89
:1037A00007F50673A3F50573186007F50673A3F50F
:1037B0000673196007F50673A3F505731B68012BE3
:1037C00001DC03239AE007F50673A3F505731B6874
:1037D000022B01DD022391E007F50673A3F50673C2
:1037E0001B6804331B68184608F026FF034687F859
:1037F000133297F81332642B01D904237EE04FF47F
:1038000000614148FEF742FD4FF480513E48FEF70B
:103810003DFD0F2387F8123297F8133287F81032E4
:1038200007F5047197F8120207F5887301930123D5
:1038300000930523012206F047FA07F10F0207F172
:10384000100107F58873184606F0C4FA07F50673E9
:10385000A3F209231B78002B2CD00023C7F81432C5
:1038600010E007F50673A3F50272D7F8143213447B
:103870001B7819462548FEF71DFAD7F81432013394
:10388000C7F8143207F50673A3F209231B781A460A
:10389000D7F814329342E4DB07F50673A3F2092349
:1038A0001A7807F1100311461846FEF73DFCFEF7A3
:1038B00023FC22E007F5047197F8120207F58873DC
:1038C0000193012300930523012206F0FDF907F17E
:1038D0000F0207F1100107F58873184606F07AFA0F
:1038E00007F50673A3F209231A7807F110031146AE
:1038F0001846FEF719FCFEF7FFFB0523184607F5EF
:103900000677BD4680BD00BF0000024000100140A8
:1039100080B5ADF5047D00AF07F50473A3F503731F
:10392000186007F50473A3F50473196007F50473B1
:10393000A3F503731B68002B01DC032379E007F573
:103940000473A3F503731B68012B01DD022370E0F0
:103950004FF400613948FEF799FC4FF48051374825
:10396000FEF794FC102387F80B3207F5867397F85F
:103970000B020122052106F07FF907F10B0207F186
:103980000C0107F58673184606F024FA07F5047350
:10399000A3F205231B78002B2CD00023C7F80C3290
:1039A00010E007F50473A3F50172D7F80C32134445
:1039B0001B7819462248FEF77DF9D7F80C320133FF
:1039C000C7F80C3207F50473A3F205231B781A46D7
:1039D000D7F80C329342E4DB07F50473A3F2052316
:1039E0001A7807F10C0311461846FEF79DFBFEF707
:1039F00083FB1DE007F5867397F80B020122052172
:103A000006F03AF907F10B0207F10C0107F586738E
:103A1000184606F0DFF907F50473A3F205231A78B8
:103A200007F10C0311461846FEF77EFBFEF764FB18
:103A30000523184607F50477BD4680BD0000024007
:103A40000010014080B5ADF5047D00AF07F50473AB
:103A5000A3F50373186007F50473A3F504731960E5
:103A600007F50473A3F503731B68002B01DC032324
:103A700079E007F50473A3F503731B68012B01DDDF
:103A8000022370E04FF400613948FEF7FFFB4FF46A
:103A900080513748FEF7FAFB112387F80B3207F500
:103AA000867397F80B020122052106F0E5F807F16D
:103AB0000B0207F10C0107F58673184606F08AF928
:103AC00007F50473A3F205231B78002B2CD00023E9
:103AD000C7F80C3210E007F50473A3F50172D7F8AC
:103AE0000C3213441B7819462248FEF7E3F8D7F846
:103AF0000C320133C7F80C3207F50473A3F2052327
:103B00001B781A46D7F80C329342E4DB07F50473AE
:103B1000A3F205231A7807F10C0311461846FEF7A5
:103B200003FBFEF7E9FA1DE007F5867397F80B0231
:103B30000122052106F0A0F807F10B0207F10C01A4
:103B400007F58673184606F045F907F50473A3F2E6
:103B500005231A7807F10C0311461846FEF7E4FA1C
:103B6000FEF7CAFA0523184607F50477BD4680BD5F
:103B7000000002400010014080B5ADF5047D00AFAB
:103B800007F50473A3F50373186007F50473A3F531
:103B90000473196007F50473A3F503731B68002B06
:103BA00001DC032379E007F50473A3F503731B68B5
:103BB000012B01DD022370E04FF400613948FEF76C
:103BC00065FB4FF480513748FEF760FB122387F8FE
:103BD0000B3207F5867397F80B020122052106F0D8
:103BE0004BF807F10B0207F10C0107F58673184635
:103BF00006F0F0F807F50473A3F205231B78002BF9
:103C00002CD00023C7F80C3210E007F50473A3F59D
:103C10000172D7F80C3213441B7819462248FEF77C
:103C200049F8D7F80C320133C7F80C3207F50473A2
:103C3000A3F205231B781A46D7F80C329342E4DB33
:103C400007F50473A3F205231A7807F10C03114654
:103C50001846FEF769FAFEF74FFA1DE007F586737E
:103C600097F80B020122052106F006F807F10B0276
:103C700007F10C0107F58673184606F0ABF807F557
:103C80000473A3F205231A7807F10C0311461846B2
:103C9000FEF74AFAFEF730FA0523184607F50477CF
:103CA000BD4680BD000002400010014080B5ADF56A
:103CB000047D00AF07F50473A3F50373186007F5DF
:103CC0000473A3F50473196007F50473A3F5037374
:103CD0001B68002B01DC032379E007F50473A3F5CF
:103CE00003731B68012B01DD022370E04FF40061B8
:103CF0003948FEF7CBFA4FF480513748FEF7C6FA41
:103D0000132387F80B3207F5867397F80B0201220D
:103D1000052105F0B1FF07F10B0207F10C0107F5D2
:103D20008673184606F056F807F50473A3F20523C8
:103D30001B78002B2CD00023C7F80C3210E007F5BD
:103D40000473A3F50172D7F80C3213441B7819469B
:103D50002248FDF7AFFFD7F80C320133C7F80C3219
:103D600007F50473A3F205231B781A46D7F80C3223
:103D70009342E4DB07F50473A3F205231A7807F1F5
:103D80000C0311461846FEF7CFF9FEF7B5F91DE012
:103D900007F5867397F80B020122052105F06CFFE9
:103DA00007F10B0207F10C0107F58673184606F0C0
:103DB00011F807F50473A3F205231A7807F10C0331
:103DC00011461846FEF7B0F9FEF796F90523184696
:103DD00007F50477BD4680BD000002400010014099
:103DE00080B483B000AF786039603B681A047B68A8
:103DF0009A6100BF0C37BD465DF8047B7047000038
:103E000080B5ADF5087D02AF07F50673A3F5057320
:103E1000186007F50673A3F50673196007F50673B6
:103E2000A3F505731B68022B01DC0323B1E007F542
:103E30000673A3F505731B68032B01DD0223A8E0BD
:103E400007F50673A3F506731B6804331B68184651
:103E500008F0F2FB034687F8133297F81332092B68
:103E600001D9042395E007F50673A3F506731B68D3
:103E700008331B68184608F0DFFB034687F8123248
:103E800097F81232012B01D9042382E04FF400612C
:103E90004248FFF7A5FF4FF480514048FFF7A0FFCD
:103EA000012387F8113297F8133287F80C3297F80C
:103EB000123287F80D3207F5037197F8110207F5F2
:103EC00086730193012300930323022205F0FCFE75
:103ED00007F10B0207F10C0107F58673184605F090
:103EE00079FF07F50673A3F20D231B78002B2CD066
:103EF0000023C7F8143210E007F50673A3F5037228
:103F0000D7F8143213441B7819462548FDF7D2FE22
:103F1000D7F814320133C7F8143207F50673A3F249
:103F20000D231B781A46D7F814329342E4DB07F5C9
:103F30000673A3F20D231A7807F10C0311461846F5
:103F4000FEF7F2F8FEF7D8F822E007F5037197F8CC
:103F5000110207F5867301930123009303230222C4
:103F600005F0B2FE07F10B0207F10C0107F58673AD
:103F7000184605F02FFF07F50673A3F20D231A78F4
:103F800007F10C0311461846FEF7CEF8FEF7B4F819
:103F90000523184607F50677BD4680BD00000240A0
:103FA0000010014080B5ADF5087D02AF07F506733E
:103FB000A3F50573186007F50673A3F5067319607A
:103FC00007F50673A3F505731B68022B01DC0323B9
:103FD000B1E007F50673A3F505731B68032B01DD3C
:103FE0000223A8E007F50673A3F506731B680433E4
:103FF0001B68184608F020FB034687F8133297F831
:104000001332062B01D9042395E007F50673A3F5B7
:1040100006731B6808331B68184608F00DFB03463F
:1040200087F8123297F81232012B01D9042382E06B
:104030004FF400614248FFF7D3FE4FF480514048EF
:10404000FFF7CEFE022387F8113297F8133287F874
:104050000C3297F8123287F80D3207F5037197F892
:10406000110207F5867301930123009303230222B3
:1040700005F02AFE07F10B0207F10C0107F5867324
:10408000184605F0A7FE07F50673A3F20D231B786B
:10409000002B2CD00023C7F8143210E007F506736C
:1040A000A3F50372D7F8143213441B781946254838
:1040B000FDF700FED7F814320133C7F8143207F5C4
:1040C0000673A3F20D231B781A46D7F814329342D5
:1040D000E4DB07F50673A3F20D231A7807F10C034E
:1040E00011461846FEF720F8FEF706F822E007F51D
:1040F000037197F8110207F586730193012300936A
:104100000323022205F0E0FD07F10B0207F10C0189
:1041100007F58673184605F05DFE07F50673A3F2F2
:104120000D231A7807F10C0311461846FDF7FCFF22
:10413000FDF7E2FF0523184607F50677BD4680BD6B
:10414000000002400010014080B5ADF5087D02AFCF
:1041500007F50673A3F50573186007F50673A3F555
:104160000673196007F50673A3F505731B68012B29
:1041700001DC03239AE007F50673A3F505731B68BA
:10418000022B01DD022391E007F50673A3F5067308
:104190001B6804331B68184608F04EFA034687F87C
:1041A000133297F81332012B01D904237EE04FF428
:1041B00000614148FFF714FE4FF480513E48FFF77D
:1041C0000FFE032387F8123297F8133287F8103264
:1041D00007F5047197F8120207F58873019301231C
:1041E00000930323012205F06FFD07F10F0207F191
:1041F000100107F58873184605F0ECFD07F5067306
:10420000A3F209231B78002B2CD00023C7F814320B
:1042100010E007F50673A3F50272D7F814321344C1
:104220001B7819462548FDF745FDD7F814320133B0
:10423000C7F8143207F50673A3F209231B781A4650
:10424000D7F814329342E4DB07F50673A3F209238F
:104250001A7807F1100311461846FDF765FFFDF7C0
:104260004BFF22E007F5047197F8120207F58873F7
:104270000193012300930323012205F025FD07F19B
:104280000F0207F1100107F58873184605F0A2FD2B
:1042900007F50673A3F209231A7807F110031146F4
:1042A0001846FDF741FFFDF727FF0523184607F5E0
:1042B0000677BD4680BD00BF0000024000100140EF
:1042C00080B5ADF5087D02AF07F50673A3F505735C
:1042D000186007F50673A3F50673196007F50673F2
:1042E000A3F505731B68012B01DC03239AE007F596
:1042F0000673A3F505731B68022B01DD022391E011
:1043000007F50673A3F506731B6804331B6818468C
:1043100008F092F9034687F8133297F81332092B05
:1043200001D904237EE04FF400614148FFF758FDB6
:104330004FF480513E48FFF753FD042387F81232B3
:1043400097F8133287F8103207F5047197F81202C4
:1043500007F588730193012300930323012205F0DD
:10436000B3FC07F10F0207F1100107F58873184637
:1043700005F030FD07F50673A3F209231B78002B27
:104380002CD00023C7F8143210E007F50673A3F50C
:104390000272D7F8143213441B7819462548FDF7EA
:1043A00089FCD7F814320133C7F8143207F50673C5
:1043B000A3F209231B781A46D7F814329342E4DBA0
:1043C00007F50673A3F209231A7807F110031146C3
:1043D0001846FDF7A9FEFDF78FFE22E007F50471F0
:1043E00097F8120207F588730193012300930323C2
:1043F000012205F069FC07F10F0207F1100107F532
:104400008873184605F0E6FC07F50673A3F2092346
:104410001A7807F1100311461846FDF785FEFDF7DF
:104420006BFE0523184607F50677BD4680BD00BF25
:10443000000002400010014080B5ADF5087D02AFDC
:1044400007F50673A3F50573186007F50673A3F562
:104450000673196007F50673A3F505731B68012B36
:1044600001DC03239AE007F50673A3F505731B68C7
:10447000022B01DD022391E007F50673A3F5067315
:104480001B6804331B68184608F0D6F8034687F803
:10449000133297F81332062B01D904237EE04FF430
:1044A00000614148FFF79CFC4FF480513E48FFF704
:1044B00097FC052387F8123297F8133287F81032E9
:1044C00007F5047197F8120207F588730193012329
:1044D00000930323012205F0F7FB07F10F0207F118
:1044E000100107F58873184605F074FC07F506738C
:1044F000A3F209231B78002B2CD00023C7F8143219
:1045000010E007F50673A3F50272D7F814321344CE
:104510001B7819462548FDF7CDFBD7F81432013337
:10452000C7F8143207F50673A3F209231B781A465D
:10453000D7F814329342E4DB07F50673A3F209239C
:104540001A7807F1100311461846FDF7EDFDFDF747
:10455000D3FD22E007F5047197F8120207F588737E
:104560000193012300930323012205F0ADFB07F122
:104570000F0207F1100107F58873184605F02AFCB1
:1045800007F50673A3F209231A7807F11003114601
:104590001846FDF7C9FDFDF7AFFD0523184607F5E1
:1045A0000677BD4680BD00BF0000024000100140FC
:1045B00080B5ADF5047D00AF07F50473A3F5037373
:1045C000186007F50473A3F50473196007F5047305
:1045D000A3F503731B68002B01DC032379E007F5C7
:1045E0000473A3F503731B68012B01DD022370E044
:1045F0004FF400613948FFF7F3FB4FF4805137481F
:10460000FFF7EEFB062387F80B3207F5867397F862
:104610000B020122032105F02FFB07F10B0207F12A
:104620000C0107F58673184605F0D4FB07F50473F3
:10463000A3F205231B78002B2CD00023C7F80C32E3
:1046400010E007F50473A3F50172D7F80C32134498
:104650001B7819462248FDF72DFBD7F80C320133A1
:10466000C7F80C3207F50473A3F205231B781A462A
:10467000D7F80C329342E4DB07F50473A3F2052369
:104680001A7807F10C0311461846FDF74DFDFDF7AA
:1046900033FD1DE007F5867397F80B020122032115
:1046A00005F0EAFA07F10B0207F10C0107F5867332
:1046B000184605F08FFB07F50473A3F205231A785B
:1046C00007F10C0311461846FDF72EFDFDF714FD0A
:1046D0000523184607F50477BD4680BD000002405B
:1046E0000010014080B483B000AF786039607B680F
:1046F0003A689A6100BF0C37BD465DF8047B70478D
:1047000080B483B000AF786039603B681A047B687E
:104710009A6100BF0C37BD465DF8047B704700000E
:1047200080B5ADF5047D00AF07F50473A3F5037301
:10473000186007F50473A3F50473196007F5047393
:10474000A3F503731B68002B01DC032379E007F555
:104750000473A3F503731B68012B01DD022370E0D2
:104760004FF400613948FFF7CBFF4FF480513748D1
:10477000FFF7B8FF012387F80B3207F5867397F828
:104780000B020122022105F077FA07F10B0207F173
:104790000C0107F58673184605F01CFB07F504733A
:1047A000A3F205231B78002B2CD00023C7F80C3272
:1047B00010E007F50473A3F50172D7F80C32134427
:1047C0001B7819462248FDF775FAD7F80C320133E9
:1047D000C7F80C3207F50473A3F205231B781A46B9
:1047E000D7F80C329342E4DB07F50473A3F20523F8
:1047F0001A7807F10C0311461846FDF795FCFDF7F2
:104800007BFC1DE007F5867397F80B02012202215D
:1048100005F032FA07F10B0207F10C0107F5867378
:10482000184605F0D7FA07F50473A3F205231A78A2
:1048300007F10C0311461846FDF776FCFDF75CFC0A
:104840000523184607F50477BD4680BD00000240E9
:104850000010014080B5ADF5047D00AF07F504738D
:10486000A3F50373186007F50473A3F504731960C7
:1048700007F50473A3F503731B68002B01DC032306
:1048800079E007F50473A3F503731B68012B01DDC1
:10489000022370E04FF400613948FFF731FF4FF415
:1048A00080513748FFF71EFF022387F80B3207F5C8
:1048B000867397F80B020122022105F0DDF907F15A
:1048C0000B0207F10C0107F58673184605F082FA12
:1048D00007F50473A3F205231B78002B2CD00023CB
:1048E000C7F80C3210E007F50473A3F50172D7F88E
:1048F0000C3213441B7819462248FDF7DBF9D7F830
:104900000C320133C7F80C3207F50473A3F2052308
:104910001B781A46D7F80C329342E4DB07F5047390
:10492000A3F205231A7807F10C0311461846FDF788
:10493000FBFBFDF7E1FB1DE007F5867397F80B0223
:104940000122022105F098F907F10B0207F10C0191
:1049500007F58673184605F03DFA07F50473A3F2D0
:1049600005231A7807F10C0311461846FDF7DCFB06
:10497000FDF7C2FB0523184607F50477BD4680BD49
:10498000000002400010014080B5ADF5047D00AF8D
:1049900007F50473A3F50373186007F50473A3F513
:1049A0000473196007F50473A3F503731B68002BE8
:1049B00001DC032379E007F50473A3F503731B6897
:1049C000012B01DD022370E04FF400613948FFF74D
:1049D00097FE4FF480513748FFF784FE032387F892
:1049E0000B3207F5867397F80B020122022105F0BE
:1049F00043F907F10B0207F10C0107F5867318461E
:104A000005F0E8F907F50473A3F205231B78002BE2
:104A10002CD00023C7F80C3210E007F50473A3F57F
:104A20000172D7F80C3213441B7819462248FDF75F
:104A300041F9D7F80C320133C7F80C3207F504738B
:104A4000A3F205231B781A46D7F80C329342E4DB15
:104A500007F50473A3F205231A7807F10C03114636
:104A60001846FDF761FBFDF747FB1DE007F5867370
:104A700097F80B020122022105F0FEF807F10B0264
:104A800007F10C0107F58673184605F0A3F907F541
:104A90000473A3F205231A7807F10C031146184694
:104AA000FDF742FBFDF728FB0523184607F50477C1
:104AB000BD4680BD000002400010014080B5ADF54C
:104AC000047D00AF07F50473A3F50373186007F5C1
:104AD0000473A3F50473196007F50473A3F5037356
:104AE0001B68002B01DC032379E007F50473A3F5B1
:104AF00003731B68012B01DD022370E04FF400619A
:104B00003948FFF7FDFD4FF480513748FFF7EAFDC4
:104B1000042387F80B3207F5867397F80B020122FE
:104B2000022105F0A9F807F10B0207F10C0107F5C6
:104B30008673184605F04EF907F50473A3F20523B2
:104B40001B78002B2CD00023C7F80C3210E007F59F
:104B50000473A3F50172D7F80C3213441B7819467D
:104B60002248FDF7A7F8D7F80C320133C7F80C320A
:104B700007F50473A3F205231B781A46D7F80C3205
:104B80009342E4DB07F50473A3F205231A7807F1D7
:104B90000C0311461846FDF7C7FAFDF7ADFA1DE004
:104BA00007F5867397F80B020122022105F064F8DD
:104BB00007F10B0207F10C0107F58673184605F0A3
:104BC00009F907F50473A3F205231A7807F10C031A
:104BD00011461846FDF7A8FAFDF78EFA0523184688
:104BE00007F50477BD4680BD00000240001001407B
:104BF00080B5ADF50A7D02AF07F50873A3F507731D
:104C0000186007F50873A3F50873196007F50873B2
:104C1000A3F507731B68022B01DC0323BDE007F536
:104C20000873A3F507731B68032B01DD0223B4E0AF
:104C300007F50873A3F508731B6804331B6818464F
:104C400007F0FAFC0346A7F81A3207F50873A3F534
:104C500008731B6808331B68184607F0EDFC034611
:104C6000A7F81832B7F81822B7F81A329A4201D2C8
:104C7000042392E04FF400614A48FFF741FD4FF4EE
:104C800080514848FFF72EFD052387F81732B7F803
:104C90001A321B0A9BB2DBB287F81032B7F81A320D
:104CA000DBB287F81132B7F818321B0A9BB2DBB2BD
:104CB00087F81232B7F81832DBB287F8133207F5EB
:104CC000047197F8170207F5887301930123009385
:104CD0000223042204F0F8FF07F10F0207F110018C
:104CE00007F58873184605F075F807F50873A3F201
:104CF00011231B78002B2CD00023C7F81C3210E0A6
:104D000007F50873A3F50472D7F81C3213441B7817
:104D100019462548FCF7CEFFD7F81C320133C7F8F7
:104D20001C3207F50873A3F211231B781A46D7F833
:104D30001C329342E4DB07F50873A3F211231A78BF
:104D400007F1100311461846FDF7EEF9FDF7D4F907
:104D500022E007F5047197F8170207F588730193AD
:104D6000012300930223042204F0AEFF07F10F0297
:104D700007F1100107F58873184605F02BF807F5C1
:104D80000873A3F211231A7807F11003114618468D
:104D9000FDF7CAF9FDF7B0F90523184607F50877BE
:104DA000BD4680BD000002400010014080B5ADF559
:104DB000087D02AF07F50673A3F50573186007F5C4
:104DC0000673A3F50673196007F50673A3F505735B
:104DD0001B68012B01DC03239AE007F50673A3F59A
:104DE00005731B68022B01DD022391E007F50673B2
:104DF000A3F506731B6804331B68184607F01CFCF8
:104E0000034687F8133297F81332012B01D9042394
:104E10007EE04FF400614148FFF772FC4FF480518F
:104E20003E48FFF75FFC062387F8123297F81332EB
:104E300087F80C3207F5037197F8120207F58673AD
:104E40000193012300930223042204F03DFF07F1A4
:104E50000B0207F10C0107F58673184604F0BAFF40
:104E600007F50673A3F20D231B78002B2CD000232B
:104E7000C7F8143210E007F50673A3F50372D7F8EC
:104E8000143213441B7819462548FCF713FFD7F852
:104E900014320133C7F8143207F50673A3F20D2359
:104EA0001B781A46D7F814329342E4DB07F50673F1
:104EB000A3F20D231A7807F10C0311461846FDF7EB
:104EC00033F9FDF719F922E007F5037197F812029B
:104ED00007F586730193012300930223042204F053
:104EE000F3FE07F10B0207F10C0107F58673184674
:104EF00004F070FF07F50673A3F20D231A7807F18B
:104F00000C0311461846FDF70FF9FDF7F5F80523D8
:104F1000184607F50677BD4680BD00BF0000024079
:104F20000010014080B5ADF5087D02AF07F50673AE
:104F3000A3F50573186007F50673A3F506731960EA
:104F400007F50673A3F505731B68012B01DC03232A
:104F50009AE007F50673A3F505731B68022B01DDC4
:104F6000022391E007F50673A3F506731B6804336B
:104F70001B68184607F060FB034687F8133297F862
:104F80001332642B01D904237EE04FF400614148C1
:104F9000FFF7B6FB4FF480513E48FFF7A3FB072312
:104FA00087F8123297F8133287F80C3207F503713D
:104FB00097F8120207F586730193012300930223E9
:104FC000042204F081FE07F10B0207F10C0107F542
:104FD0008673184604F0FEFE07F50673A3F20D2350
:104FE0001B78002B2CD00023C7F8143210E007F5F3
:104FF0000673A3F50372D7F8143213441B781946CD
:105000002548FCF757FED7F814320133C7F814329D
:1050100007F50673A3F20D231B781A46D7F814324E
:105020009342E4DB07F50673A3F20D231A7807F128
:105030000C0311461846FDF777F8FDF75DF822E0FE
:1050400007F5037197F8120207F5867301930123A0
:1050500000930223042204F037FE07F10B0207F14C
:105060000C0107F58673184604F0B4FE07F50673C5
:10507000A3F20D231A7807F10C0311461846FDF729
:1050800053F8FDF739F80523184607F50677BD46AE
:1050900080BD00BF000002400010014080B5ADF5AA
:1050A000047D00AF07F50473A3F50373186007F5DB
:1050B0000473A3F50473196007F50473A3F5037370
:1050C0001B68002B01DC032379E007F50473A3F5CB
:1050D00003731B68012B01DD022370E04FF40061B4
:1050E0003948FFF70DFB4FF480513748FFF7FAFAC4
:1050F000082387F80B3207F5867397F80B02012215
:10510000022104F0B9FD07F10B0207F10C0107F5CC
:105110008673184604F05EFE07F50473A3F20523B8
:105120001B78002B2CD00023C7F80C3210E007F5B9
:105130000473A3F50172D7F80C3213441B78194697
:105140002248FCF7B7FDD7F80C320133C7F80C3210
:1051500007F50473A3F205231B781A46D7F80C321F
:105160009342E4DB07F50473A3F205231A7807F1F1
:105170000C0311461846FCF7D7FFFCF7BDFF1DE0F6
:1051800007F5867397F80B020122022104F074FDE3
:1051900007F10B0207F10C0107F58673184604F0BE
:1051A00019FE07F50473A3F205231A7807F10C031F
:1051B00011461846FCF7B8FFFCF79EFF052318467A
:1051C00007F50477BD4680BD000002400010014095
:1051D00080B586B000AF78600123FB7300233B618C
:1051E0007B687B611FE07B691B78202B05D17B6985
:1051F00000221A700123FB7312E0FB7B002B0FD0FF
:105200003B69072B0AD81D493B697A6941F823207D
:105210003B6901333B610023FB7301E0022328E07B
:105220007B6901337B617B691B78002BDBD13B6998
:10523000002B1DD0124BBB6016E0104B1A68BB68E8
:105240001B6819461046FAF7C3FF0346002B08D126
:10525000BB685B683A690949104698470346DBB268
:1052600007E0BB680C33BB60BB681B68002BE4D154
:10527000012318461837BD4680BD00BF0C480020EA
:105280003800002080B400AFBFF34F8F00BF064B43
:10529000DB6803F4E0620449044B1343CB60BFF3C3
:1052A0004F8F00BF00BFFDE700ED00E00400FA05EE
:1052B00080B483B000AF786039607B685A693B681E
:1052C00013403A689A420CBF01230023DBB2184610
:1052D0000C37BD465DF8047B704780B483B000AFE7
:1052E000786039607B683A689A6100BF0C37BD46C8
:1052F0005DF8047B704780B483B000AF786039609C
:105300003B681A047B689A6100BF0C37BD465DF8A4
:10531000047B704780B582B000AFFCF76FFBFF22C3
:105320000021244808F096FA234B00221A702349E2
:105330002348FCF7CBFD21492148FCF7C7FD214953
:105340001F48FCF7C3FD1D491D48FCF7BFFD00F0D9
:1053500059FD1D491A48FCF7B9FD1C491848FCF7CE
:10536000B5FD1B4B7B6016E07B681B681946144833
:10537000FCF7ACFD7B689B6819461148FCF7A6FD5D
:105380000E490F48FCF7A2FD7B68124A934207D0F2
:105390007B680C337B607B681B68002BE4D100E0EA
:1053A00000BF0D490648FCF791FD00BF0837BD4618
:1053B00080BD00BF304800202F49002098210108FF
:1053C000005000409C210108B8210108DC2101089F
:1053D00038000020BC0000200422010880B582B003
:1053E00000AF5BE03348FCF7C7FB0346FB71FB797A
:1053F00019463048FCF75EFCFB790D2B02D0FB7997
:105400000A2B2ED12C4B1B78002B25D02A4B1B7836
:105410001A462A4B00219954274B1B780133DAB2E4
:10542000254B1A702548FFF7D3FE0346BB71224B6C
:1054300000221A7022491F48FCF748FD97F90630F0
:10544000204A52F8233019461A48FCF73FFD1E49FE
:105450001848FCF73BFD21E019491648FCF736FDDA
:105460001CE0FB79082B02D0FB797F2B0AD1124B71
:105470001B78002B12D0104B1B78013BDAB20E4B7D
:105480001A700BE00C4B1B7819460C4AFB795354ED
:10549000094B1B780133DAB2074B1A700548FCF749
:1054A000CFFC0346002B9DD100BF00BF0837BD468F
:1054B00080BD00BF005000402F4900203048002030
:1054C00004220108200000200C22010880B584B0CD
:1054D00000AF7860396016491648FCF7F7FC1649AA
:1054E0001448FCF7F3FC154BFB6016E0FB681B68E7
:1054F00019461048FCF7EAFCFB689B6819460D4802
:10550000FCF7E4FC0E490B48FCF7E0FCFB680D4A95
:10551000934207D0FB680C33FB60FB681B68002BD1
:10552000E4D100E000BF002318461037BD4680BD1F
:1055300010220108005000402422010838000020F9
:1055400098210108BC00002080B584B000AF7860CD
:1055500039602B492B48FCF7B9FC2B492948FCF74B
:10556000B5FC2A4BFB603EE0FB681B6819462548EA
:10557000FCF7ACFCFB689B6819462248FCF7A6FCCC
:1055800023492048FCF7A2FCFB68224A934204D13D
:1055900021491C48FCF79AFC22E0FB681F4A934211
:1055A00004D11F491748FCF791FC19E0FB681D4A1C
:1055B000934204D11C491348FCF788FC10E0FB68B7
:1055C0001A4A934204D11A490E48FCF77FFC07E0BF
:1055D000FB68184A934203D117490A48FCF776FC46
:1055E000FB680C33FB60FB681B68002BBCD11349C4
:1055F0000448FCF76BFC002318461037BD4680BDFD
:105600003C220108005000402422010838000020FC
:1056100098210108BC000020542201087C010020D0
:1056200084220108D0010020B422010818020020C1
:10563000E422010824020020142301084423010865
:1056400080B584B000AF7860396014491448FCF725
:105650003DFC144BFB6016E0FB681B6819461048C4
:10566000FCF734FCFB689B6819460D48FCF72EFCE0
:105670000D490B48FCF72AFCFB680C4A934207D003
:10568000FB680C33FB60FB681B68002BE4D100E077
:1056900000BF002318461037BD4680BD70230108A7
:1056A00000500040C8000020982101087C01002023
:1056B00080B584B000AF7860396014491448FCF7B5
:1056C00005FC144BFB6016E0FB681B68194610488C
:1056D000FCF7FCFBFB689B6819460D48FCF7F6FBE2
:1056E0000D490B48FCF7F2FBFB680C4A934207D0CC
:1056F000FB680C33FB60FB681B68002BE4D100E007
:1057000000BF002318461037BD4680BDA023010806
:10571000005000408801002098210108D00100209D
:1057200080B584B000AF7860396014491448FCF744
:10573000CDFB144BFB6016E0FB681B681946104854
:10574000FCF7C4FBFB689B6819460D48FCF7BEFBE1
:105750000D490B48FCF7BAFBFB680C4A934207D093
:10576000FB680C33FB60FB681B68002BE4D100E096
:1057700000BF002318461037BD4680BDD023010866
:1057800000500040DC010020982101081802002090
:1057900080B584B000AF7860396014491448FCF7D4
:1057A00095FB144BFB6016E0FB681B68194610481C
:1057B000FCF78CFBFB689B6819460D48FCF786FBE1
:1057C0000D490B48FCF782FBFB680A4A934207D05D
:1057D000FB680C33FB60FB681B68002BE4D100E026
:1057E00000BF002318461037BD4680BD00240108C5
:1057F00000500040240200209821010880B584B0A8
:1058000000AF7860396014491448FCF75FFB144B13
:10581000FB6016E0FB681B6819461048FCF756FB56
:10582000FB689B6819460D48FCF750FB0D490B4877
:10583000FCF74CFBFB680C4A934207D0FB680C3327
:10584000FB60FB681B68002BE4D100E000BF002375
:1058500018461037BD4680BD302401080050004076
:1058600030020020982101084C01002080B582B050
:1058700000AF7860396004490448FCF727FB002337
:1058800018460837BD4680BD60240108005000401E
:1058900080B582B000AF7860396000F0B3FA0023C1
:1058A00018460837BD4680BDF0B5A3B004AF786098
:1058B000396007F1700407F1710207F1720107F115
:1058C000730007F16D03029307F16E03019307F173
:1058D0006F0300932346FBF7C5FDFBF76BFE87EDD7
:1058E0001D0A97F86F301D4697F86E301E4697F8E0
:1058F0006D301A4697F87230194697F871301C4689
:1059000097F8703003F5FA6307F1080003930294E7
:105910000191009233462A46314907F0A3FE07F170
:10592000080319462F48FCF7D1FA786FFAF71CFEE6
:1059300002460B4607F108002B4907F093FE07F1DA
:10594000080319462748FCF7C1FA07F1080327495D
:10595000184607F087FE07F1080319462148FCF7AF
:10596000B5FA07F108032249184607F07BFE07F154
:10597000080319461B48FCF7A9FA4FF480511D484B
:10598000FFF796FC0346002B0CD007F108031A49D9
:10599000184607F067FE07F1080319461148FCF79F
:1059A00095FA0BE007F108031449184607F05AFE70
:1059B00007F1080319460B48FCF788FA07F10803BA
:1059C0000F49184607F04EFE07F10803194605482F
:1059D000FCF77CFA002318467C37BD46F0BD00BFBB
:1059E0008824010800500040AC240108C4240108A8
:1059F000E8240108000402400C25010820250108C4
:105A00003425010880B590B000AF786039607B68BC
:105A1000012B01DC032336E07B68022B01DD02232E
:105A200031E03B6804331B68184606F005FEF86356
:105A3000FB6B002B05DC16491648FCF747FA0423DC
:105A400021E0FB6B142B05DD13491248FCF73EFAED
:105A5000042318E0114B01221A70FB6B4FF47A7289
:105A600002FB03F31A460E4B1A6007F10803FA6BA8
:105A70000C49184607F0F6FD07F1080319460548DA
:105A8000FCF724FA002318464037BD4680BD00BF0E
:105A900044250108005000406C25010830490020D1
:105AA0003C0300207825010880B582B000AF786003
:105AB00039607B68002B01DC03230BE07B68012B42
:105AC00001DD022306E0054B00221A70044807F0AE
:105AD000C1FD002318460837BD4680BD304900206F
