:020000040800F2
:1000000000000220CD560008355400083D54000879
:10001000455400084D5400085554000800000000E5
:100020000000000000000000000000005D54000817
:100030006B5400080000000079540008895400083F
:100040001D5700081D5700081D5700081D570008C0
:100050001D5700081D5700081D5700081D570008B0
:100060001D5700081D5700081D5700081D570008A0
:100070001D5700081D5700081D5700081D57000890
:100080001D5700081D5700081D5700081D57000880
:100090001D5700081D5700081D5700081D57000870
:1000A0001D5700081D5700081D5700081D57000860
:1000B0001D5700081D5700081D5700081D57000850
:1000C0001D5700081D5700081D5700081D57000840
:1000D0001D570008A5540008B9540008CD54000865
:1000E0001D5700081D5700081D5700081D57000820
:1000F0001D5700081D5700081D5700081D57000810
:100100001D5700081D5700081D5700081D570008FF
:10011000E1540008F55400081D5700081D57000859
:100120001D5700081D5700081D5700081D570008DF
:100130001D57000800000000000000001D570008C7
:100140001D5700081D5700081D5700081D570008BF
:100150001D5700081D5700081D57000809550008C5
:100160001D5700081D5700081D5700081D5700089F
:100170001D5700081D570008000000000000000087
:080180001D5700081D5700087F
:1001900010B5054C237833B9044B13B10448AFF3C1
:1001A00000800123237010BDD00400200000000057
:1001B0002CBB000808B5034B1BB103490348AFF340
:1001C000008008BD00000000D40400202CBB000803
:1001D00010F8012B11F8013B012A28BF9A42F7D0F1
:1001E000D01A70470000000000000000000000006E
:1001F00001F0FF01102A2BDB10F0070F08D010F8D8
:10020000013B013A8B422DD010F0070F42B3F6D1DB
:10021000F0B441EA012141EA014122F007047FF0F4
:1002200000070023F0E80256083C85EA010586EA4B
:10023000010685FA47F5A3FA87F586FA47F6A5FA87
:1002400087F68EB9EED1F0BC01F0FF0102F0070293
:1002500032B110F8013B013A83EA010313B1F8D13E
:100260000020704701387047002D06BF354603381F
:10027000073815F0010F07D1013015F4807F02BF58
:10028000013015F4C03F0130F0BC0138704700BFA9
:10029000034613F8012B002AFBD1181A01387047C6
:1002A00081F0004102E000BF83F0004330B54FEA27
:1002B00041044FEA430594EA050F08BF90EA020F94
:1002C0001FBF54EA000C55EA020C7FEA645C7FEA27
:1002D000655C00F0E2804FEA5454D4EB5555B8BF4A
:1002E0006D420CDD2C4480EA020281EA030382EABB
:1002F000000083EA010180EA020281EA0303362D4D
:1003000088BF30BD11F0004F4FEA01314FF4801C1F
:100310004CEA113102D0404261EB410113F0004F31
:100320004FEA03334CEA133302D0524263EB4303E8
:1003300094EA050F00F0A780A4F10104D5F1200E86
:100340000DDB02FA0EFC22FA05F2801841F10001E1
:1003500003FA0EF2801843FA05F359410EE0A5F1B5
:1003600020050EF1200E012A03FA0EFC28BF4CF0E6
:10037000020C43FA05F3C01851EBE37101F000459C
:1003800007D54FF0000EDCF1000C7EEB00006EEBA9
:100390000101B1F5801F1BD3B1F5001F0CD3490833
:1003A0005FEA30004FEA3C0C04F101044FEA44528A
:1003B00012F5800F80F09A80BCF1004F08BF5FEA11
:1003C000500C50F1000041EB045141EA050130BDF1
:1003D0005FEA4C0C404141EB0101013C28BFB1F503
:1003E000801FE9D291F0000F04BF01460020B1FA4E
:1003F00081F308BF2033A3F10B03B3F120020CDA21
:100400000C3208DD02F1140CC2F10C0201FA0CF0FE
:1004100021FA02F10CE002F11402D8BFC2F1200C63
:1004200001FA02F120FA0CFCDCBF41EA0C01904019
:10043000E41AA2BF01EB0451294330BD6FEA040462
:100440001F3C1CDA0C340EDC04F11404C4F120024D
:1004500020FA04F001FA02F340EA030021FA04F35F
:1004600045EA030130BDC4F10C04C4F1200220FAB6
:1004700002F001FA04F340EA0300294630BD21FAF4
:1004800004F0294630BD94F0000F83F4801306BFBA
:1004900081F480110134013D4EE77FEA645C18BFAE
:1004A0007FEA655C29D094EA050F08BF90EA020F45
:1004B00005D054EA000C04BF1946104630BD91EA3D
:1004C000030F1EBF0021002030BD5FEA545C05D140
:1004D0004000494128BF41F0004130BD14F580047F
:1004E0003CBF01F5801130BD01F0004545F0FE41F3
:1004F00041F470014FF0000030BD7FEA645C1ABF28
:10050000194610467FEA655C1CBF0B46024650EA5E
:10051000013406BF52EA033591EA030F41F400218A
:1005200030BD00BF90F0000F04BF0021704730B510
:100530004FF4806404F132044FF000054FF00001E5
:1005400050E700BF90F0000F04BF0021704730B5A6
:100550004FF4806404F1320410F0004548BF40427B
:100560004FF000013EE700BF42004FEAE2014FEAD0
:1005700031014FEA02701FBF12F07F4393F07F4FAB
:1005800081F06051704732F07F4208BF704793F0AE
:100590007F4F04BF41F40021704730B54FF46074C1
:1005A00001F0004521F000411CE700BF50EA0102C4
:1005B00008BF704730B54FF000050AE050EA01026D
:1005C00008BF704730B511F0004502D5404261EBDD
:1005D00041014FF4806404F132045FEA915C3FF41E
:1005E000D8AE4FF003025FEADC0C18BF03325FEABB
:1005F000DC0C18BF033202EBDC02C2F1200300FA6C
:1006000003FC20FA02F001FA03FE40EA0E0021FA90
:1006100002F11444BDE600BF70B54FF0FF0C4CF47E
:10062000E06C1CEA11541DBF1CEA135594EA0C0F30
:1006300095EA0C0F00F0DEF82C4481EA030621EA6B
:100640004C5123EA4C5350EA013518BF52EA0335A6
:1006500041F4801143F4801338D0A0FB02CE4FF058
:100660000005E1FB02E506F00042E0FB03E54FF088
:100670000006E1FB03569CF0000F18BF4EF0010E80
:10068000A4F1FF04B6F5007F64F5407404D25FEA7C
:100690004E0E6D4146EB060642EAC62141EA55512F
:1006A0004FEAC52040EA5E504FEACE2EB4F1FD0C71
:1006B00088BFBCF5E06F1ED8BEF1004F08BF5FEAEF
:1006C000500E50F1000041EB045170BD06F00046A1
:1006D00046EA010140EA020081EA0301B4EB5C044E
:1006E000C2BFD4EB0C0541EA045170BD41F4801146
:1006F0004FF0000E013C00F3AB8014F1360FDEBF6B
:10070000002001F0004170BDC4F10004203C35DA46
:100710000C341BDC04F11404C4F1200500FA05F3C9
:1007200020FA04F001FA05F240EA020001F000426A
:1007300021F0004110EBD37021FA04F642EB0601E0
:100740005EEA430E08BF20EAD37070BDC4F10C040A
:10075000C4F1200500FA04F320FA05F001FA04F2CE
:1007600040EA020001F0004110EBD37041F10001BA
:100770005EEA430E08BF20EAD37070BDC4F12005C5
:1007800000FA05F24EEA020E20FA04F301FA05F22D
:1007900043EA020321FA04F001F0004121FA04F2D5
:1007A00020EA020000EBD3705EEA430E08BF20EAA5
:1007B000D37070BD94F0000F0FD101F000464000DF
:1007C00041EB010111F4801F08BF013CF7D041EA61
:1007D000060195F0000F18BF704703F00046520065
:1007E00043EB030313F4801F08BF013DF7D043EA36
:1007F0000603704794EA0C0F0CEA135518BF95EAEC
:100800000C0F0CD050EA410618BF52EA4306D1D172
:1008100081EA030101F000414FF0000070BD50EA91
:10082000410606BF1046194652EA430619D094EA1B
:100830000C0F02D150EA013613D195EA0C0F05D105
:1008400052EA03361CBF104619460AD181EA030159
:1008500001F0004141F0FE4141F470014FF0000011
:1008600070BD41F0FE4141F4780170BD70B54FF0AC
:10087000FF0C4CF4E06C1CEA11541DBF1CEA13552C
:1008800094EA0C0F95EA0C0F00F0A7F8A4EB05040E
:1008900081EA030E52EA03354FEA013100F0888005
:1008A0004FEA03334FF0805545EA131343EA1263CE
:1008B0004FEA022245EA111545EA10654FEA002683
:1008C0000EF000419D4208BF964244F1FD0404F53C
:1008D000407402D25B084FEA3202B61A65EB030598
:1008E0005B084FEA32024FF480104FF4002CB6EB55
:1008F000020E75EB030E22BFB61A754640EA0C00D5
:100900005B084FEA3202B6EB020E75EB030E22BF14
:10091000B61A754640EA5C005B084FEA3202B6EB55
:10092000020E75EB030E22BFB61A754640EA9C0014
:100930005B084FEA3202B6EB020E75EB030E22BFE4
:10094000B61A754640EADC0055EA060E18D04FEAA2
:10095000051545EA16754FEA06164FEAC30343EA42
:1009600052734FEAC2025FEA1C1CC0D111F4801F0F
:100970000BD141EA00014FF000004FF0004CB6E708
:1009800011F4801F04BF01430020B4F1FD0C88BFA7
:10099000BCF5E06F3FF6AFAEB5EB030C04BFB6EBB2
:1009A000020C5FEA500C50F1000041EB045170BDA5
:1009B0000EF0004E4EEA113114EB5C04C2BFD4EBD2
:1009C0000C0541EA045170BD41F480114FF0000E56
:1009D000013C90E645EA060E8DE60CEA135594EAD2
:1009E0000C0F08BF95EA0C0F3FF43BAF94EA0C0FD5
:1009F0000AD150EA01347FF434AF95EA0C0F7FF44A
:100A000025AF104619462CE795EA0C0F06D152EA9D
:100A100003353FF4FDAE1046194622E750EA410681
:100A200018BF52EA43067FF4C5AE50EA41047FF492
:100A30000DAF52EA43057FF4EBAE12E74FF0FF3CF7
:100A400006E000BF4FF0010C02E000BF4FF0010CC8
:100A50004DF804CD4FEA410C7FEA6C5C4FEA430C41
:100A600018BF7FEA6C5C1BD001B050EA410C0CBF90
:100A700052EA430C91EA030F02BF90EA020F0020F2
:100A8000704710F1000F91EA030F58BF994208BF59
:100A900090422CBFD8176FEAE37040F00100704716
:100AA0004FEA410C7FEA6C5C02D150EA013C07D16D
:100AB0004FEA430C7FEA6C5CD6D152EA033CD3D0B8
:100AC0005DF8040B704700BF8446104662468C46B2
:100AD0001946634600E000BF01B5FFF7B7FF0028E5
:100AE00048BF10F1000F01BD4DF808EDFFF7F4FF0E
:100AF0000CBF012000205DF808FB00BF4DF808ED99
:100B0000FFF7EAFF34BF012000205DF808FB00BFBB
:100B10004DF808EDFFF7E0FF94BF012000205DF8DD
:100B200008FB00BF4DF808EDFFF7CEFF94BF012092
:100B300000205DF808FB00BF4DF808EDFFF7C4FF8B
:100B400034BF012000205DF808FB00BF4FEA410CD4
:100B50007FEA6C5C02D150EA013C0AD14FEA430CB7
:100B60007FEA6C5C02D152EA033C02D14FF00000F4
:100B700070474FF0010070474FEA410212F5001232
:100B800015D211D56FF47873B3EB625212D94FEAD4
:100B9000C12343F0004343EA505311F0004F23FABE
:100BA00002F018BF404270474FF00000704750EA13
:100BB000013005D111F0004008BF6FF000407047D0
:100BC0004FF00000704700BF4A0011D212F500122A
:100BD00011D20DD56FF47873B3EB62520ED44FEA95
:100BE000C12343F0004343EA505323FA02F0704715
:100BF0004FF00000704750EA013002D14FF0FF3053
:100C000070474FF0000070474FEA4102B2F1E043F5
:100C100024BFB3F5001CDCF1FE5C0DD901F0004CE3
:100C20004FEAC0024CEA5070B2F1004F40EB830033
:100C300008BF20F00100704711F0804F21D113F15F
:100C40003872BCBF01F00040704741F480114FEA98
:100C50005252C2F11802C2F1200C10FA0CF320FA21
:100C600002F018BF40F001004FEAC1234FEAD3233E
:100C700003FA0CFC40EA0C0023FA02F34FEA4303A8
:100C8000CCE77FEA625307D150EA01331EBF4FF031
:100C9000FE4040F44000704701F0004040F0FE404C
:100CA00040F40000704700BF53B94AB9002908BF9B
:100CB00000281CBF4FF0FF314FF0FF3000F0A0B90B
:100CC000ADF1080C6DE904CE00F03CF8DDF804E06D
:100CD000DDE9022304B0704738B500220023044642
:100CE0000D46FFF70BFF28B920462946BDE83840DE
:100CF00000F00AB8204605F1004100F005F8404236
:100D000061EB410138BD00BFD0B50C4B0022064657
:100D10000F46FFF781FCFFF757FF0446FFF702FC81
:100D2000074B0022FFF778FC02460B463046394657
:100D3000FFF7BAFAFFF748FF2146D0BD0000F03DAB
:100D40000000F0412DE9F047089D0C46002B4ED1E4
:100D500094468C458646B2FA82F262D94AB1C2F113
:100D60002003914020FA03F30CFA02FC194300FA25
:100D700002FE4FEA1C471FFA8CF6B1FBF7F44FEA6C
:100D80001E4307FB141143EA014304FB06F1994299
:100D90000AD91CEB030304F1FF3080F01281994261
:100DA00040F20F81023C6344591A1FFA8EF3B1FBE3
:100DB000F7F007FB101143EA014300FB06F69E42E1
:100DC0000AD91CEB030300F1FF3180F0FC809E4246
:100DD00040F2F980634402389B1B40EA0440002142
:100DE0001DB1D3400022C5E90032BDE8F0878B4237
:100DF00005D90DB1C5E9000100210846F5E7B3FAB0
:100E000083F1002946D1A34202D39042C0F0F08082
:100E1000861A64EB03030120002DE6D0C5E90063C8
:100E2000E3E7002A40F09080A1EB0C044FEA1C4855
:100E30001FFA8CF70121B4FBF8F64FEA1E4308FBBA
:100E4000164443EA044307FB06F0984208D91CEB1A
:100E5000030306F1FF3402D2984200F2CD80264609
:100E60001C1A1FFA8EF3B4FBF8F008FB104443EA97
:100E7000044300FB07F79F4208D91CEB030300F172
:100E8000FF3402D29F4200F2B0802046DB1B40EAD2
:100E90000640A5E7C1F120068B4022FA06F71F4362
:100EA00020FA06FC04FA01F343EA0C03F44000FACA
:100EB00001F8380C4FEA1349B4FBF0FE1FFA87FC27
:100EC00000FB1E4449EA04440EFB0CF9A14502FA5A
:100ED00001F20AD93C190EF1FF3A80F08480A14555
:100EE00040F28180AEF1020E3C44A4EB09041FFAEB
:100EF00083F9B4FBF0F300FB134449EA044403FB19
:100F00000CFCA44507D93C1903F1FF3067D2A44576
:100F100065D9023B3C4443EA0E40A0FB0293A4EB9C
:100F20000C049C42CE469C4651D34ED055B1B8EBF2
:100F30000E0364EB0C0404FA06F6CB401E43CC40CF
:100F4000C5E90064002150E7C2F1200320FA03F153
:100F50000CFA02FC24FA03F394400C434FEA1C48B9
:100F600000FA02FE1FFA8CF7B3FBF8F008FB103111
:100F7000230C43EA014300FB07F1994208D91CEB1B
:100F8000030300F1FF362CD299422AD90238634478
:100F90005B1AA4B2B3FBF8F108FB113344EA034433
:100FA00001FB07F3A34208D91CEB040401F1FF364F
:100FB00013D2A34211D902396444E41A41EA004130
:100FC00039E70446F0E6084606E7C845AED2B9EB75
:100FD000020E63EB070C0138A8E73146EDE7034644
:100FE00099E73046D4E7D6467FE7634402384DE7B9
:100FF0000646234608460FE7023E634430E700BF3B
:10100000704700BF80B483B000AF78607B685B69D5
:1010100003F08003802B0CBF01230023DBB21846B2
:101020000C37BD465DF8047B704780B483B000AFD9
:1010300078607B685B6903F04003402B0CBF0123A1
:101040000023DBB218460C37BD465DF8047B7047C1
:1010500080B483B000AF78607B685B6903F0010304
:10106000012B0CBF01230023DBB218460C37BD4611
:101070005DF8047B704780B483B000AF78607B6814
:101080005B6903F00203022B0CBF01230023DBB2D8
:1010900018460C37BD465DF8047B704780B483B0BA
:1010A00000AF78607B689B6903F00203022B0CBFE2
:1010B00001230023DBB218460C37BD465DF8047BE4
:1010C000704780B485B000AF78607B685B69FB6077
:1010D000FB687B689B69FB60FB6800BF1437BD46FB
:1010E0005DF8047B704780B483B000AF78603960EE
:1010F0007B681B6823F480623B681A437B681A6034
:1011000000BF0C37BD465DF8047B704780B483B0E8
:1011100000AF78607B681B6843F480727B681A605C
:1011200000BF0C37BD465DF8047B704780B483B0C8
:1011300000AF78607B681B6843F400727B681A60BC
:1011400000BF0C37BD465DF8047B704780B483B0A8
:1011500000AF78607B681B69DBB218460C37BD4670
:101160005DF8047B704780B483B000AF78600B46B5
:10117000FB707B681B6923F0FF02FB781A437B68D6
:101180001A6100BF0C37BD465DF8047B7047000054
:1011900080B582B000AF03460A46FB711346BB71AF
:1011A00000BF1E48FFF77AFF0346002BF9D11B480A
:1011B000FFF7ACFF00BF1948FFF74AFF0346002BBB
:1011C000F9D0D0211548FFF7CEFF00BF1348FFF735
:1011D00052FF0346002BF9D01048FFF772FFFB794E
:1011E00019460E48FFF7BFFF00BF0C48FFF70AFF84
:1011F0000346002BF9D0BB7919460848FFF7B3FF27
:1012000000BF0648FFF7FEFE0346002BF9D0034857
:10121000FFF78CFF00BF0837BD4680BD005400407B
:1012200080B584B000AF0346FB710023FB7300BFA1
:101230002C48FFF733FF0346002BF9D12948FFF76D
:1012400065FF00BF2748FFF703FF0346002BF9D0D7
:10125000D0212448FFF787FF00BF2248FFF70BFF8C
:101260000346002BF9D01F48FFF72BFFFB791946E7
:101270001C48FFF778FF00BF1A48FFF7C3FE03467C
:10128000002BF9D01748FFF741FF00BF1548FFF7C3
:10129000DFFE0346002BF9D0D1211248FFF763FF90
:1012A00000BF1048FFF7E7FE0346002BF9D00D48BA
:1012B000FFF707FF00210B48FFF715FF00BF0948A4
:1012C000FFF7B3FE0346002BF9D00648FFF73EFFB9
:1012D0000346FB730348FFF729FFFB7B18461037D3
:1012E000BD4680BD0054004090B583B000AF0446B9
:1012F000084611461A462346FB710346BB710B464E
:101300007B7113463B7197F82030554AA2FB0323AB
:10131000DB08DBB21B0158B297F82020504BA3FB2F
:101320000213D9080B469B000B445B00D31ADBB2B7
:101330005BB203435BB2DBB219460020FFF728FF24
:101340003B7F474AA2FB0323DB08DBB21B0158B2F9
:101350003A7F434BA3FB0213D9080B469B000B4477
:101360005B00D31ADBB25BB203435BB2DBB219465C
:101370000120FFF70DFF3B7E394AA2FB0323DB0868
:10138000DBB21B0158B23A7E354BA3FB0213D908DE
:101390000B469B000B445B00D31ADBB25BB20343EA
:1013A0005BB2DBB219460220FFF7F2FEFB79194669
:1013B0000320FFF7EDFEBB79294AA2FB0323DB08DC
:1013C000DBB21B0158B2BA79254BA3FB0213D90833
:1013D0000B469B000B445B00D31ADBB25BB20343AA
:1013E0005BB2DBB219460420FFF7D2FE7B791C4AC0
:1013F000A2FB0323DB08DBB21B0158B27A79184B3E
:10140000A3FB0213D9080B469B000B445B00D31AC5
:10141000DBB25BB203435BB2DBB219460520FFF7D8
:10142000B7FE3B790E4AA2FB0323DB08DBB21B01AC
:1014300058B23A790A4BA3FB0213D9080B469B001A
:101440000B445B00D31ADBB25BB203435BB2DBB28B
:1014500019460620FFF79CFE00BF0C37BD4690BD25
:10146000CDCCCCCC80B584B000AFF860B9607A60E8
:101470003B600020FFF7D4FE03461A463B6A1A7011
:101480000120FFF7CDFE03461A46FB691A700220C1
:10149000FFF7C6FE03461A46BB691A700320FFF722
:1014A000BFFE03461A46FB681A700420FFF7B8FE19
:1014B00003461A46BB681A700520FFF7B1FE0346C3
:1014C0001A467B681A700620FFF7AAFE03461A46E2
:1014D0003B681A703B6A1B781B09DBB21A46920004
:1014E00013445B00DAB23B6A1B7803F00F03DBB2F4
:1014F0001344DAB23B6A1A70FB691B781B09DBB232
:101500001A46920013445B00DAB2FB691B7803F0C1
:101510000F03DBB21344DAB2FB691A70BB691B78A4
:101520001B09DBB21A46920013445B00DAB2BB69B6
:101530001B7803F00F03DBB21344DAB2BB691A70F5
:10154000BB681B781B09DBB21A46920013445B0090
:10155000DAB2BB681B7803F00F03DBB21344DAB2D4
:10156000BB681A707B681B781B09DBB21A469200B5
:1015700013445B00DAB27B681B7803F00F03DBB225
:101580001344DAB27B681A703B681B781B09DBB224
:101590001A46920013445B00DAB23B681B7803F0F2
:1015A0000F03DBB21344DAB23B681A7000BF103786
:1015B000BD4680BD80B582B000AF1120FFF730FE80
:1015C0000346FB711220FFF72BFE0346BB71FB792C
:1015D0001B021AB2BB791BB21343BB80B7F90430AC
:1015E0001846FEF7AFFF4FF00002094BFFF73EF938
:1015F00002460B4610461946FFF706FB03463B60C2
:101600003B6807EE903AB0EE670A0837BD4680BDEA
:101610000000704080B483B000AF03463960FB71B6
:1016200097F90730002B0ADB3B68DAB20C4997F9CF
:1016300007301201D2B20B4483F800230AE03B6862
:10164000DAB20849FB7903F00F03043B1201D2B26E
:101650000B441A7600BF0C37BD465DF8047B70471B
:1016600000E100E000ED00E080B582B000AF7860FE
:101670007B68013BB3F1807F01D301230FE00A4A6D
:101680007B68013B53600F214FF0FF30FFF7C2FF33
:10169000054B00229A60044B07221A60002318466B
:1016A0000837BD4680BD00BF10E000E080B400AF49
:1016B000054B1B68044A43F00103136000BFBD469D
:1016C0005DF8047B704700BF10E000E080B500AF1C
:1016D000054B1B68054AA2FB03239B091846FFF72D
:1016E000C3FF00BF80BD00BFF4020020D34D6210D5
:1016F00080B483B000AF78607B681B6803F002039E
:10170000022B0CBF01230023DBB218460C37BD4669
:101710005DF8047B704780B483B000AF78607B686D
:101720001B6803F00403042B0CBF01230023DBB26E
:1017300018460C37BD465DF8047B704780B483B013
:1017400000AF78607B681B6803F00803082B0CBFB0
:1017500001230023DBB218460C37BD465DF8047B3D
:10176000704780B483B000AF78607B681B6803F07B
:101770002003202B0CBF01230023DBB218460C37BB
:10178000BD465DF8047B704780B483B000AF7860DD
:101790007B681B6803F08003802B0CBF01230023B0
:1017A000DBB218460C37BD465DF8047B704780B449
:1017B00085B000AF78607B681B68FB60FB687B6866
:1017C0005B68FB60FB6800BF1437BD465DF8047BB7
:1017D000704780B485B000AF78607B681B68FB60A1
:1017E000FB687B685B68FB60FB6800BF1437BD4625
:1017F0005DF8047B704780B485B000AF78607B688B
:101800001B68FB60FB687B685B68FB60FB6800BF74
:101810001437BD465DF8047B704780B489B000AFD3
:1018200078607B680C33FB60FB6853E8003FBB606B
:10183000BB6843F02003FB617B680C33FA69BA6133
:101840007B617969BA6941E800233B613B69002B00
:10185000E7D100BF00BF2437BD465DF8047B704769
:1018600080B489B000AF78607B680C33FB60FB68A4
:1018700053E8003FBB60BB6843F08003FB617B68BB
:101880000C33FA69BA617B617969BA6941E800236E
:101890003B613B69002BE7D100BF00BF2437BD4649
:1018A0005DF8047B704780B489B000AF78607B68D6
:1018B0001433FB60FB6853E8003FBB60BB6843F038
:1018C0000103FB617B681433FA69BA617B61796952
:1018D000BA6941E800233B613B69002BE7D100BFB7
:1018E00000BF2437BD465DF8047B704780B489B0E3
:1018F00000AF78607B680C33FB60FB6853E8003F07
:10190000BB60BB6823F02003FB617B680C33FA6982
:10191000BA617B617969BA6941E800233B613B693F
:10192000002BE7D100BF00BF2437BD465DF8047B24
:10193000704780B489B000AF78607B680C33FB607F
:10194000FB6853E8003FBB60BB6823F08003FB618A
:101950007B680C33FA69BA617B617969BA6941E8DD
:1019600000233B613B69002BE7D100BF00BF243758
:10197000BD465DF8047B704780B483B000AF7860EB
:101980007B68DB6803F02003202B0CBF01230023BE
:10199000DBB218460C37BD465DF8047B704780B457
:1019A00083B000AF78607B68DB6803F08003802B36
:1019B0000CBF01230023DBB218460C37BD465DF88F
:1019C000047B704780B483B000AF78607B685B684D
:1019D000DBB218460C37BD465DF8047B704780B417
:1019E00083B000AF78600B46FB70FA787B685A6072
:1019F00000BF0C37BD465DF8047B704780B500AF73
:101A0000204B214A1A60214B214A1A60214B224A5D
:101A10001A60224B224A1A60224B234A1A60234B37
:101A2000234A1A60234B244A1A60244B244A1A6022
:101A3000244B1B681846FFF736FF234B1B681846DC
:101A4000FFF731FF214B1B681846FFF72CFF204B97
:101A50001B681846FFF727FF1A4B1B681846FFF74D
:101A6000DCFE194B1B681846FFF7D7FE174B1B68A7
:101A70001846FFF7D2FE164B1B681846FFF7CDFE3F
:101A800000BF80BD2C250020EC0400203025002064
:101A9000F408002034250020FC0C0020382500200C
:101AA000041100203C2500200C15002040250020BA
:101AB00014190020442500201C1D0020482500206A
:101AC0002421002000000020040000200800002045
:101AD0000C00002080B584B000AF03463960FB7174
:101AE0003B68D3F800340133C3F30903FB603B6860
:101AF000D3F80424FB689A4231D01B4B1B6818466C
:101B0000FFF7F4FE194B1B681846FFF7EFFE184B62
:101B10001B681846FFF7EAFE164B1B681846FFF7CE
:101B2000E5FE3B68D3F800343A68F979D154FA6895
:101B30003B68C3F800240C4B1B681846FFF76DFE8A
:101B40000A4B1B681846FFF768FE094B1B681846CE
:101B5000FFF763FE074B1B681846FFF75EFE00BFEA
:101B60001037BD4680BD00BF0000002004000020EB
:101B7000080000200C00002080B584B000AF786021
:101B80007B68414A934209D03F4A934212D83F4A68
:101B9000934207D03E4A934208D00BE03D4B1B686E
:101BA000FB600BE03C4B1B68FB6007E03B4B1B689A
:101BB000FB6003E03A4B1B68FB6000BFFB68D3F897
:101BC0000024FB68D3F804349A4202D14FF0FF336B
:101BD00055E07B682C4A934205D1324B1B6818466E
:101BE000FFF784FE18E07B68284A934205D12E4B0C
:101BF0001B681846FFF77AFE0EE07B68244A934282
:101C000005D12A4B1B681846FFF770FE04E0284BED
:101C10001B681846FFF76AFEFB68D3F80434FA68BD
:101C2000D35CFB72FB68D3F804340133C3F30902BD
:101C3000FB68C3F804247B68134A934205D1194B0F
:101C40001B681846FFF7E9FD18E07B680F4A9342CE
:101C500005D1154B1B681846FFF7DFFD0EE07B68CA
:101C60000B4A934205D1114B1B681846FFF7D5FD6F
:101C700004E00F4B1B681846FFF7CFFDFB7A1846B0
:101C80001037BD4680BD00BF001001400044004039
:101C9000005000402C250020342500203C25002049
:101CA000442500200000002004000020080000203F
:101CB0000C00002080B584B000AF786039607B688C
:101CC000544A934209D0534A934212D8524A9342FB
:101CD00007D0524A934208D00BE0514B1B68FB607F
:101CE0000BE0504B1B68FB6007E04F4B1B68FB6031
:101CF00003E04E4B1B68FB6000BF3B68002BC0F24B
:101D00008580FB68D3F800340133C3F30903BB605B
:101D10007B68404A934205D1454B1B681846FFF744
:101D2000E5FD18E07B683C4A934205D1414B1B68B6
:101D30001846FFF7DBFD0EE07B68384A934205D179
:101D40003D4B1B681846FFF7D1FD04E03B4B1B6879
:101D50001846FFF7CBFD00BFFB68D3F80424BB682F
:101D60009A42F9D0FB68D3F800343A68D1B2FA68E5
:101D7000D154BA68FB68C3F800247B68254A9342B3
:101D800005D12B4B1B681846FFF747FD18E07B6811
:101D9000214A934205D1274B1B681846FFF73DFDAA
:101DA0000EE07B681D4A934205D1234B1B68184601
:101DB000FFF733FD04E0214B1B681846FFF72DFDAC
:101DC0007B68144A934209D0124A934218D8124AA7
:101DD000934209D0114A93420CD011E0144B1B6876
:101DE0001846FFF73DFD11E0124B1B681846FFF740
:101DF00037FD0BE0104B1B681846FFF731FD05E07F
:101E00000E4B1B681846FFF72BFD00BF00BF1037B5
:101E1000BD4680BD0010014000440040005000401D
:101E200030250020382500204025002048250020AE
:101E30000000002004000020080000200C0000200A
:101E400080B485B000AF78607B68194A934209D0AE
:101E5000174A934212D8174A934207D0164A934220
:101E600008D00BE0154B1B68FB600BE0144B1B68A4
:101E7000FB6007E0134B1B68FB6003E0124B1B6821
:101E8000FB6000BFFB68D3F800349AB2FB68D3F85C
:101E900004349BB2D31A9BB203F580639BB2C3F3A5
:101EA000090318461437BD465DF8047B704700BF30
:101EB0000010014000440040005000402C2500204C
:101EC000342500203C2500204425002080B582B028
:101ED00000AF7860396007E03B685A1C3A601B78B5
:101EE00019467868FFF7E6FE3B681B78002BF3D1B4
:101EF00000BF00BF0837BD4680BD000080B586B07A
:101F000000AF78607B68464A934209D0444A9342C6
:101F10001BD8444A93420AD0434A93420ED014E05D
:101F2000424B1B687B61424B1B683B6114E0414B99
:101F30001B687B61404B1B683B610DE03F4B1B689E
:101F40007B613F4B1B683B6106E03E4B1B687B613E
:101F50003D4B1B683B6100BF7868FFF702FC0346FE
:101F6000002B2CD07868FFF707FD0346002B26D006
:101F70007868FFF727FD0346FB737868FFF7DEFB01
:101F80000346002B0BD17868FFF7B2FB0346002B0A
:101F900005D17868FFF7BFFB0346002B09D07868AE
:101FA000FFF729FC7868FFF702FC7868FFF711FC5F
:101FB00032E0FB7B79691846FFF78CFD2CE07868EE
:101FC000FFF7E2FB0346002B26D07868FFF7E7FC1B
:101FD0000346002B20D03B69D3F800243B69D3F89B
:101FE00004349A4203D17868FFF7A3FC13E03B69FD
:101FF000D3F804343A69D35CBB733B69D3F8043437
:102000000133C3F309023B69C3F80424BB7B1946BF
:102010007868FFF7E4FC00BF1837BD4680BD00BFFD
:102020000010014000440040005000402C250020DA
:102030003025002034250020382500203C250020B4
:1020400040250020442500204825002080B400AF12
:10205000054B00221A70054B00221A7000BFBD46C6
:102060005DF8047B704700BF4C2600204D26002001
:1020700080B400AF034B01221A7000BFBD465DF86B
:10208000047B70474C26002080B400AF034B002235
:102090001A7000BFBD465DF8047B70474C260020D7
:1020A00080B582B000AF78600B46FB70FF22002144
:1020B000074806F0E0F9FB781A467968044806F00C
:1020C0005AFA044AFB78137000BF0837BD4680BD3A
:1020D0004C2500204B26002080B500AF0249034864
:1020E00004F026FB00BF80BD14000020100000207B
:1020F00080B582B000AF032004F004FB0346002B40
:1021000037D01E4B1B78DBB2002B2DD01C4B1B781D
:10211000DBB2022B1BD800237B600AE0194A7B68E4
:1021200013441B7819461848FFF7C4FD7B68013338
:102130007B60164B1B781A467B689342EEDB104B94
:102140001B78DBB20133DAB20D4B1A700CE00C4B8A
:1021500000221A70FFF798FF0D490E48FFF7B6FEF0
:102160000D490C48FFF7B2FE4FF4FA71032004F05A
:10217000B3FA00BF0837BD4680BD00BF4C26002023
:102180004D2600204C250020001001404B26002049
:1021900048BB0008001401405CBB000880B483B059
:1021A00000AF786039607B683A689A6100BF0C378D
:1021B000BD465DF8047B704780B5ADF5087D02AF84
:1021C00007F50673A3F50573186007F50673A3F505
:1021D0000673196007F50673A3F505731B68022BD8
:1021E00001DC032373E007F50673A3F505731B6891
:1021F000032B01DD02236AE007F50673A3F50673DE
:102200001B6804331B68184605F008F9034687F875
:10221000173297F81732032B01D9042357E007F53B
:102220000673A3F506731B6808331B68184605F090
:10223000F5F80346A7F81432B7F81432B3F5FA7F6D
:1022400001D9042343E0012387F8133297F81732AA
:1022500087F81032B7F814321B0A9BB2DBB287F84A
:102260001132B7F81432DBB287F8123207F5047175
:1022700097F8130207F58873019301230093052350
:10228000032204F015FC07F10F0207F1100107F516
:102290008873184604F092FC4FF400610E48FFF773
:1022A0007DFF4FF480510C48FFF778FF052004F0C4
:1022B00071FB07F50673A3F209231A7807F11003DF
:1022C00011461846FFF7ECFEFFF7D2FE052318462D
:1022D00007F50677BD4680BD0000024080B5ADF52C
:1022E000087D02AF07F50673A3F50573186007F5BF
:1022F0000673A3F50673196007F50673A3F5057356
:102300001B68022B01DC03236AE007F50673A3F5C3
:1023100005731B68032B01DD022361E007F50673DB
:10232000A3F506731B6804331B68184605F076F89E
:10233000034687F8173297F81732032B01D9042385
:102340004EE007F50673A3F506731B6808331B6898
:10235000184605F063F8034687F8163297F81632E8
:10236000012B01D904233BE0022387F8153297F8AB
:10237000173287F8103297F8163287F8113207F5BE
:10238000047197F8150207F58873019301230093F0
:102390000523022204F08CFB07F10F0207F1100164
:1023A00007F58873184604F009FC4FF400610F48E4
:1023B000FFF7F4FE4FF480510C48FFF7EFFE0520C5
:1023C00004F0E8FA07F50673A3F209231A7807F177
:1023D000100311461846FFF763FEFFF749FE052379
:1023E000184607F50677BD4680BD00BF00000240D5
:1023F00080B5ADF5067D02AF07F50473A3F5037351
:10240000186007F50473A3F50473196007F50473E6
:10241000A3F503731B68012B01DC032353E007F5CD
:102420000473A3F503731B68022B01DD02234AE04A
:1024300007F50473A3F504731B6804331B6818467F
:1024400004F0ECFF034687F80F3297F80F32032BA6
:1024500001D9042337E0032387F80E3297F80F32AF
:1024600087F80C3207F5037197F80E0207F58673AB
:102470000193012300930523012204F019FB07F1C6
:102480000B0207F10C0107F58673184604F096FB62
:102490004FF400610E48FFF781FE4FF480510C4865
:1024A000FFF77CFE052004F075FA07F50473A3F22C
:1024B00005231A7807F10C0311461846FFF7F0FDC3
:1024C000FFF7D6FD0523184607F50477BD4680BD06
:1024D0000000024080B5ADF5067D02AF07F504733C
:1024E000A3F50373186007F50473A3F5047319606B
:1024F00007F50473A3F503731B68012B01DC0323A9
:1025000053E007F50473A3F503731B68022B01DD89
:1025100002234AE007F50473A3F504731B68043330
:102520001B68184604F07AFF034687F80F3297F8C5
:102530000F32032B01D9042337E0042387F80E322E
:1025400097F80F3287F80C3207F5037197F80E02EF
:1025500007F586730193012300930523012204F0FC
:10256000A7FA07F10B0207F10C0107F5867318466D
:1025700004F024FB4FF400610E48FFF70FFE4FF408
:1025800080510C48FFF70AFE052004F003FA07F516
:102590000473A3F205231A7807F10C0311461846B9
:1025A000FFF77EFDFFF764FD0523184607F5047766
:1025B000BD4680BD0000024080B5ADF5067D02AF8E
:1025C00007F50473A3F50373186007F50473A3F507
:1025D0000473196007F50473A3F503731B68012BDB
:1025E00001DC032353E007F50473A3F503731B68B1
:1025F000022B01DD02234AE007F50473A3F50473FF
:102600001B6804331B68184604F008FF034687F86C
:102610000F3297F80F32032B01D9042337E005233B
:1026200087F80E3297F80F3287F80C3207F50371EE
:1026300097F80E0207F58673019301230093052393
:10264000012204F035FA07F10B0207F10C0107F53E
:102650008673184604F0B2FA4FF400610E48FFF793
:102660009DFD4FF480510C48FFF798FD052004F0C4
:1026700091F907F50473A3F205231A7807F10C0307
:1026800011461846FFF70CFDFFF7F2FC052318462C
:1026900007F50477BD4680BD0000024080B5ADF56A
:1026A000067D02AF07F50473A3F50373186007F501
:1026B0000473A3F50473196007F50473A3F503739A
:1026C0001B68012B01DC032353E007F50473A3F51A
:1026D00003731B68022B01DD02234AE007F5047334
:1026E000A3F504731B6804331B68184604F096FEB8
:1026F000034687F80F3297F80F32032B01D90423D2
:1027000037E0062387F80E3297F80F3287F80C323D
:1027100007F5037197F80E0207F5867301930123FD
:1027200000930523012204F0C3F907F10B0207F11E
:102730000C0107F58673184604F040FA4FF4006167
:102740000E48FFF72BFD4FF480510C48FFF726FD94
:10275000052004F01FF907F50473A3F205231A7886
:1027600007F10C0311461846FFF79AFCFFF780FCAF
:102770000523184607F50477BD4680BD00000240DA
:1027800080B5ADF5067D02AF07F50473A3F50373BD
:10279000186007F50473A3F50473196007F5047353
:1027A000A3F503731B68012B01DC032353E007F53A
:1027B0000473A3F503731B68022B01DD02234AE0B7
:1027C00007F50473A3F504731B6804331B681846EC
:1027D00004F024FE034687F80F3297F80F32032BDC
:1027E00001D9042337E0072387F80E3297F80F3218
:1027F00087F80C3207F5037197F80E0207F5867318
:102800000193012300930523012204F051F907F1FC
:102810000B0207F10C0107F58673184604F0CEF998
:102820004FF400610E48FFF7B9FC4FF480510C489B
:10283000FFF7B4FC052004F0ADF807F50473A3F22C
:1028400005231A7807F10C0311461846FFF728FCF8
:10285000FFF70EFC0523184607F50477BD4680BD3B
:102860000000024080B5ADF5087D02AF07F50673A4
:10287000A3F50573186007F50673A3F506731960D1
:1028800007F50673A3F505731B68032B01DC03230F
:102890008AE007F50673A3F505731B68042B01DDB9
:1028A000022381E007F50673A3F506731B68043362
:1028B0001B68184604F0B2FD034687F8173297F8F4
:1028C0001732032B01D904236EE007F50673A3F535
:1028D00006731B6808331B68184604F09FFD034607
:1028E00087F8163297F81632012B01D904235BE0E2
:1028F00007F50673A3F506731B680C331B681846AF
:1029000004F08CFD0346A7F81432B7F81432B3F57F
:10291000FA7F01D9042347E0082387F8133297F898
:10292000173287F80C3297F8163287F80D32B7F85D
:1029300014321B0A9BB2DBB287F80E32B7F814329E
:10294000DBB287F80F3207F5037197F8130207F52A
:1029500086730193012300930523042204F0A8F851
:1029600007F10B0207F10C0107F58673184604F016
:1029700025F94FF400610F48FFF710FC4FF4805128
:102980000C48FFF70BFC052004F004F807F506736C
:10299000A3F20D231A7807F10C0311461846FFF72E
:1029A0007FFBFFF765FB0523184607F50677BD4655
:1029B00080BD00BF0000024080B5ADF5087D02AFCC
:1029C00007F50673A3F50573186007F50673A3F5FD
:1029D0000673196007F50673A3F505731B68022BD0
:1029E00001DC032373E007F50673A3F505731B6889
:1029F000032B01DD02236AE007F50673A3F50673D6
:102A00001B6804331B68184604F008FD034687F86A
:102A1000173297F81732032B01D9042357E007F533
:102A20000673A3F506731B6808331B68184604F089
:102A3000F5FC0346A7F81432B7F81432B3F5FA7F61
:102A400001D9042343E0092387F8133297F817329A
:102A500087F81032B7F814321B0A9BB2DBB287F842
:102A60001132B7F81432DBB287F8123207F504716D
:102A700097F8130207F58873019301230093052348
:102A8000032204F015F807F10F0207F1100107F512
:102A90008873184604F092F84FF400610E48FFF76F
:102AA0007DFB4FF480510C48FFF778FB052003F0C5
:102AB00071FF07F50673A3F209231A7807F11003D3
:102AC00011461846FFF7ECFAFFF7D2FA052318462D
:102AD00007F50677BD4680BD0000024080B5ADF524
:102AE000047D00AF07F50473A3F50373186007F5C1
:102AF0000473A3F50473196007F50473A3F5037356
:102B00001B68002B01DC032337E007F50473A3F5F2
:102B100003731B68012B01DD02232EE00A2387F8D3
:102B20000F3207F5887397F80F020122052103F091
:102B300097FF07F10F0207F1100107F58873184698
:102B400004F03CF84FF400610E48FFF727FB4FF408
:102B500080510C48FFF722FB052003F01BFF07F50F
:102B60000473A3F201231A7807F1100311461846E3
:102B7000FFF796FAFFF77CFA0523184607F5047766
:102B8000BD4680BD0000024080B5ADF5047D00AFBC
:102B900007F50473A3F50373186007F50473A3F531
:102BA0000473196007F50473A3F503731B68002B06
:102BB00001DC032337E007F50473A3F503731B68F7
:102BC000012B01DD02232EE00B2387F80F3207F5DE
:102BD000887397F80F020122052103F041FF07F1E6
:102BE0000F0207F1100107F58873184603F0E6FF9E
:102BF0004FF400610E48FFF7D1FA4FF480510C48B2
:102C0000FFF7CCFA052003F0C5FE07F50473A3F225
:102C100001231A7807F1100311461846FFF740FA0E
:102C2000FFF726FA0523184607F50477BD4680BD51
:102C30000000024080B5ADF5047D00AF07F50473D8
:102C4000A3F50373186007F50473A3F50473196003
:102C500007F50473A3F503731B68002B01DC032342
:102C600037E007F50473A3F503731B68012B01DD3F
:102C700002232EE00C2387F80F3207F5887397F8AC
:102C80000F020122052103F0EBFE07F10F0207F10D
:102C9000100107F58873184603F090FF4FF40061A8
:102CA0000E48FFF77BFA4FF480510C48FFF776FA95
:102CB000052003F06FFE07F50473A3F201231A78D1
:102CC00007F1100311461846FFF7EAF9FFF7D0F9AC
:102CD0000523184607F50477BD4680BD0000024075
:102CE00080B5ADF5067D02AF07F50473A3F5037358
:102CF000186007F50473A3F50473196007F50473EE
:102D0000A3F503731B68012B01DC032353E007F5D4
:102D10000473A3F503731B68022B01DD02234AE051
:102D200007F50473A3F504731B6804331B68184686
:102D300004F074FB034687F80F3297F80F32022B2A
:102D400001D9042337E00D2387F80E3297F80F32AC
:102D500087F80C3207F5037197F80E0207F58673B2
:102D60000193012300930523012203F0A1FE07F143
:102D70000B0207F10C0107F58673184603F01EFFDE
:102D80004FF400610E48FFF709FA4FF480510C48E8
:102D9000FFF704FA052003F0FDFD07F50473A3F225
:102DA00005231A7807F10C0311461846FFF778F946
:102DB000FFF75EF90523184607F50477BD4680BD89
:102DC0000000024080B5ADF5047D00AF07F5047347
:102DD000A3F50373186007F50473A3F50473196072
:102DE00007F50473A3F503731B68002B01DC0323B1
:102DF00037E007F50473A3F503731B68012B01DDAE
:102E000002232EE00E2387F80F3207F5887397F818
:102E10000F020122052103F023FE07F10F0207F143
:102E2000100107F58873184603F0C8FE4FF40061DF
:102E30000E48FFF7B3F94FF480510C48FFF7AEF995
:102E4000052003F0A7FD07F50473A3F201231A7808
:102E500007F1100311461846FFF722F9FFF708F9AA
:102E60000523184607F50477BD4680BD00000240E3
:102E700080B5ADF5067D02AF07F50473A3F50373C6
:102E8000186007F50473A3F50473196007F504735C
:102E9000A3F503731B68012B01DC032353E007F543
:102EA0000473A3F503731B68022B01DD02234AE0C0
:102EB00007F50473A3F504731B6804331B681846F5
:102EC00004F0ACFA034687F80F3297F80F32642B00
:102ED00001D9042337E00F2387F80E3297F80F3219
:102EE00087F80C3207F5037197F80E0207F5867321
:102EF0000193012300930523012203F0D9FD07F17B
:102F00000B0207F10C0107F58673184603F056FE15
:102F10004FF400610E48FFF741F94FF480510C481F
:102F2000FFF73CF9052003F035FD07F50473A3F224
:102F300005231A7807F10C0311461846FFF7B0F87D
:102F4000FFF796F80523184607F50477BD4680BDC0
:102F50000000024080B5ADF5047D00AF07F50473B5
:102F6000A3F50373186007F50473A3F504731960E0
:102F700007F50473A3F503731B68002B01DC03231F
:102F800037E007F50473A3F503731B68012B01DD1C
:102F900002232EE0102387F80F3207F5887397F885
:102FA0000F020122052103F05BFD07F10F0207F17B
:102FB000100107F58873184603F000FE4FF4006116
:102FC0000E48FFF7EBF84FF480510C48FFF7E6F896
:102FD000052003F0DFFC07F50473A3F201231A7840
:102FE00007F1100311461846FFF75AF8FFF740F8AB
:102FF0000523184607F50477BD4680BD0000024052
:1030000080B5ADF5047D00AF07F50473A3F5037338
:10301000186007F50473A3F50473196007F50473CA
:10302000A3F503731B68002B01DC032337E007F5CE
:103030000473A3F503731B68012B01DD02232EE04B
:10304000112387F80F3207F5887397F80F020122D2
:10305000052103F005FD07F10F0207F1100107F547
:103060008873184603F0AAFD4FF400610E48FFF77D
:1030700095F84FF480510C48FFF790F8052003F0C5
:1030800089FC07F50473A3F201231A7807F11003F2
:1030900011461846FFF704F8FEF7EAFF0523184625
:1030A00007F50477BD4680BD0000024080B483B0C0
:1030B00000AF786039603B681A047B689A6100BF92
:1030C0000C37BD465DF8047B7047000080B5ADF558
:1030D000087D02AF07F50673A3F50573186007F5C1
:1030E0000673A3F50673196007F50673A3F5057358
:1030F0001B68022B01DC03236AE007F50673A3F5C6
:1031000005731B68032B01DD022361E007F50673DD
:10311000A3F506731B6804331B68184604F07EF998
:10312000034687F8173297F81732092B01D9042381
:103130004EE007F50673A3F506731B6808331B689A
:10314000184604F06BF9034687F8163297F81632E2
:10315000012B01D904233BE0012387F8153297F8AE
:10316000173287F8103297F8163287F8113207F5C0
:10317000047197F8150207F58873019301230093F2
:103180000323022203F094FC07F10F0207F1100160
:1031900007F58873184603F011FD4FF400610F48DE
:1031A000FFF784FF4FF480510C48FFF77FFF0520A5
:1031B00003F0F0FB07F50673A3F209231A7807F171
:1031C000100311461846FEF76BFFFEF751FF05236B
:1031D000184607F50677BD4680BD00BF00000240D7
:1031E00080B5ADF5087D02AF07F50673A3F505734D
:1031F000186007F50673A3F50673196007F50673E3
:10320000A3F505731B68022B01DC03236AE007F5B5
:103210000673A3F505731B68032B01DD022361E030
:1032200007F50673A3F506731B6804331B6818467D
:1032300004F0F4F8034687F8173297F81732062B94
:1032400001D904234EE007F50673A3F506731B6846
:1032500008331B68184604F0E1F8034687F8163275
:1032600097F81632012B01D904233BE0022387F89B
:10327000153297F8173287F8103297F8163287F818
:10328000113207F5047197F8150207F58873019359
:10329000012300930323022203F00AFC07F10F022B
:1032A00007F1100107F58873184603F087FC4FF407
:1032B00000610F48FFF7FAFE4FF480510C48FFF70A
:1032C000F5FE052003F066FB07F50673A3F209235C
:1032D0001A7807F1100311461846FEF7E1FEFEF7D3
:1032E000C7FE0523184607F50677BD4680BD00BF1B
:1032F0000000024080B5ADF5067D02AF07F504730E
:10330000A3F50373186007F50473A3F5047319603C
:1033100007F50473A3F503731B68012B01DC03237A
:1033200053E007F50473A3F503731B68022B01DD5B
:1033300002234AE007F50473A3F504731B68043302
:103340001B68184604F06AF8034687F80F3297F8AE
:103350000F32012B01D9042337E0032387F80E3203
:1033600097F80F3287F80C3207F5037197F80E02C1
:1033700007F586730193012300930323012203F0D1
:1033800097FB07F10B0207F10C0107F5867318464E
:1033900003F014FC4FF400610E48FFF787FE4FF472
:1033A00080510C48FFF782FE052003F0F3FA07F581
:1033B0000473A3F205231A7807F10C03114618468B
:1033C000FEF76EFEFEF754FE0523184607F5047758
:1033D000BD4680BD0000024080B5ADF5067D02AF60
:1033E00007F50473A3F50373186007F50473A3F5D9
:1033F0000473196007F50473A3F503731B68012BAD
:1034000001DC032353E007F50473A3F503731B6882
:10341000022B01DD02234AE007F50473A3F50473D0
:103420001B6804331B68184603F0F8FF034687F84F
:103430000F3297F80F32092B01D9042337E0042308
:1034400087F80E3297F80F3287F80C3207F50371C0
:1034500097F80E0207F58673019301230093032367
:10346000012203F025FB07F10B0207F10C0107F520
:103470008673184603F0A2FB4FF400610E48FFF775
:1034800015FE4FF480510C48FFF710FE052003F0A5
:1034900081FA07F50473A3F205231A7807F10C03E8
:1034A00011461846FEF7FCFDFEF7E2FD052318461F
:1034B00007F50477BD4680BD0000024080B5ADF53C
:1034C000067D02AF07F50473A3F50373186007F5D3
:1034D0000473A3F50473196007F50473A3F503736C
:1034E0001B68012B01DC032353E007F50473A3F5EC
:1034F00003731B68022B01DD02234AE007F5047306
:10350000A3F504731B6804331B68184603F086FF99
:10351000034687F80F3297F80F32062B01D90423A0
:1035200037E0052387F80E3297F80F3287F80C3210
:1035300007F5037197F80E0207F5867301930123CF
:1035400000930323012203F0B3FA07F10B0207F102
:103550000C0107F58673184603F030FB4FF4006149
:103560000E48FFF7A3FD4FF480510C48FFF79EFD76
:10357000052003F00FFA07F50473A3F205231A7868
:1035800007F10C0311461846FEF78AFDFEF770FDA1
:103590000523184607F50477BD4680BD00000240AC
:1035A00080B483B000AF786039607B683A689A6114
:1035B00000BF0C37BD465DF8047B704780B483B014
:1035C00000AF786039603B681A047B689A6100BF7D
:1035D0000C37BD465DF8047B7047000080B5ADF543
:1035E000047D00AF07F50473A3F50373186007F5B6
:1035F0000473A3F50473196007F50473A3F503734B
:103600001B68002B01DC032337E007F50473A3F5E7
:1036100003731B68012B01DD02232EE0012387F8D1
:103620000F3207F5887397F80F020122022103F089
:1036300017FA07F10F0207F1100107F58873184612
:1036400003F0BCFA4FF400610E48FFF7B7FF4FF4E8
:1036500080510C48FFF7A4FF052003F09BF907F504
:103660000473A3F201231A7807F1100311461846D8
:10367000FEF716FDFEF7FCFC0523184607F5047758
:10368000BD4680BD0000024080B5ADF5047D00AFB1
:1036900007F50473A3F50373186007F50473A3F526
:1036A0000473196007F50473A3F503731B68002BFB
:1036B00001DC032337E007F50473A3F503731B68EC
:1036C000012B01DD02232EE0022387F80F3207F5DC
:1036D000887397F80F020122022103F0C1F907F164
:1036E0000F0207F1100107F58873184603F066FA18
:1036F0004FF400610E48FFF761FF4FF480510C4812
:10370000FFF74EFF052003F045F907F50473A3F218
:1037100001231A7807F1100311461846FEF7C0FC82
:10372000FEF7A6FC0523184607F50477BD4680BDC5
:103730000000024080B5ADF5047D00AF07F50473CD
:10374000A3F50373186007F50473A3F504731960F8
:1037500007F50473A3F503731B68002B01DC032337
:1037600037E007F50473A3F503731B68012B01DD34
:1037700002232EE0032387F80F3207F5887397F8AA
:103780000F020122022103F06BF907F10F0207F18A
:10379000100107F58873184603F010FA4FF4006122
:1037A0000E48FFF70BFF4FF480510C48FFF7F8FE6F
:1037B000052003F0EFF807F50473A3F201231A784C
:1037C00007F1100311461846FEF76AFCFEF750FC9D
:1037D0000523184607F50477BD4680BD000002406A
:1037E00080B5ADF5047D00AF07F50473A3F5037351
:1037F000186007F50473A3F50473196007F50473E3
:10380000A3F503731B68002B01DC032337E007F5E6
:103810000473A3F503731B68012B01DD02232EE063
:10382000042387F80F3207F5887397F80F020122F7
:10383000022103F015F907F10F0207F1100107F556
:103840008873184603F0BAF94FF400610E48FFF789
:10385000B5FE4FF480510C48FFF7A2FE052003F09F
:1038600099F807F50473A3F201231A7807F11003FE
:1038700011461846FEF714FCFEF7FAFB052318461E
:1038800007F50477BD4680BD0000024080B586B0D4
:1038900000AF78600123FB7300233B617B687B6191
:1038A0001FE07B691B78202B05D17B6900221A70F1
:1038B0000123FB7312E0FB7B002B0FD03B69072B2E
:1038C0000AD81D493B697A6941F823203B690133D5
:1038D0003B610023FB7301E0022328E07B69013395
:1038E0007B617B691B78002BDBD13B69002B1DD0F2
:1038F000124BBB6016E0104B1A68BB681B68194678
:103900001046FCF765FC0346002B08D1BB685B68DA
:103910003A690949104698470346DBB207E0BB689D
:103920000C33BB60BB681B68002BE4D10123184635
:103930001837BD4680BD00BF50260020380000204B
:1039400080B400AFBFF34F8F00BF064BDB6803F4BA
:10395000E0620449044B1343CB60BFF34F8F00BFB9
:1039600000BFFDE700ED00E00400FA0580B483B07D
:1039700000AF786039607B685A693B6813403A68E9
:103980009A420CBF01230023DBB218460C37BD4618
:103990005DF8047B704780B483B000AF7860396015
:1039A0007B683A689A6100BF0C37BD465DF8047BBE
:1039B000704780B483B000AF786039603B681A0408
:1039C0007B689A6100BF0C37BD465DF8047B704789
:1039D00080B582B000AFFEF711F8802200212448A4
:1039E00004F049FD234B00221A7023492348FEF7B7
:1039F0006DFA21492148FEF769FA21491F48FEF76F
:103A000065FA1D491D48FEF761FA00F089FC1D4961
:103A10001A48FEF75BFA1C491848FEF757FA1B4B89
:103A20007B6016E07B681B6819461448FEF74EFA67
:103A30007B689B6819461148FEF748FA0E490F4803
:103A4000FEF744FA7B68124A934207D07B680C3336
:103A50007B607B681B68002BE4D100E000BF0D4950
:103A60000648FEF733FA00BF0837BD4680BD00BFE9
:103A700074260020F4260020BCCB00080050004033
:103A8000C0CB0008DCCB000800CC000838000020C8
:103A90009800002028CC000880B582B000AF62E01A
:103AA0003648FEF769F80346FB71FB79194633483F
:103AB000FEF700F9FB790D2B02D0FB790A2B2ED1F2
:103AC0002F4B1B78002B25D02D4B1B781A462D4BE6
:103AD000002199542A4B1B780133DAB2284B1A7013
:103AE0002848FFF7D3FE0346BB71254B00221A700E
:103AF00025492248FEF7EAF997F90630234A52F899
:103B0000233019461D48FEF7E1F921491B48FEF70D
:103B1000DDF928E01C491948FEF7D8F923E0FB79C4
:103B2000082B02D0FB797F2B0AD1154B1B78002B79
:103B300019D0134B1B78013BDAB2114B1A7012E00B
:103B40000F4B1B7819460F4AFB7953540C4B1B78CB
:103B50000133DAB20A4B1A70094B1B78802B02D959
:103B6000074B00221A700548FEF76AF90346002B3E
:103B700096D100BF00BF0837BD4680BD0050004051
:103B8000F42600207426002028CC00082000002005
:103B900030CC000880B584B000AF78603960164939
:103BA0001648FEF793F916491448FEF78FF9154B9E
:103BB000FB6016E0FB681B6819461048FEF786F9A3
:103BC000FB689B6819460D48FEF780F90E490B48C3
:103BD000FEF77CF9FB680D4A934207D0FB680C3373
:103BE000FB60FB681B68002BE4D100E000BF0023F2
:103BF00018461037BD4680BD34CC00080050004048
:103C000048CC000838000020BCCB000898000020F9
:103C100080B584B000AF786039602B492B48FEF73F
:103C200055F92B492948FEF751F92A4BFB603EE034
:103C3000FB681B6819462548FEF748F9FB689B6836
:103C400019462248FEF742F923492048FEF73EF97B
:103C5000FB68224A934204D121491C48FEF736F9F9
:103C600022E0FB681F4A934204D11F491748FEF720
:103C70002DF919E0FB681D4A934204D11C491348F1
:103C8000FEF724F910E0FB681A4A934204D11A495E
:103C90000E48FEF71BF907E0FB68184A934203D170
:103CA00017490A48FEF712F9FB680C33FB60FB6802
:103CB0001B68002BBCD113490448FEF707F9002309
:103CC00018461037BD4680BD60CC0008005000404B
:103CD00048CC000838000020BCCB00089800002029
:103CE00078CC000858010020A8CC000888010020EA
:103CF000D8CC0008C401002008CD0008D001002065
:103D000038CD000868CD000880B584B000AF786079
:103D1000396014491448FEF7D9F8144BFB6016E0DB
:103D2000FB681B6819461048FEF7D0F8FB689B68D3
:103D300019460D48FEF7CAF80D490B48FEF7C6F8BC
:103D4000FB680C4A934207D0FB680C33FB60FB68AE
:103D50001B68002BE4D100E000BF00231846103799
:103D6000BD4680BD94CD000800500040A400002056
:103D7000BCCB00085801002080B584B000AF78604B
:103D8000396014491448FEF7A1F8144BFB6016E0A3
:103D9000FB681B6819461048FEF798F8FB689B689B
:103DA00019460D48FEF792F80D490B48FEF78EF8BC
:103DB000FB680C4A934207D0FB680C33FB60FB683E
:103DC0001B68002BE4D100E000BF00231846103729
:103DD000BD4680BDC4CD00080050004064010020F5
:103DE000BCCB00088801002080B584B000AF7860AB
:103DF000396014491448FEF769F8144BFB6016E06B
:103E0000FB681B6819461048FEF760F8FB689B6862
:103E100019460D48FEF75AF80D490B48FEF756F8BB
:103E2000FB680C4A934207D0FB680C33FB60FB68CD
:103E30001B68002BE4D100E000BF002318461037B8
:103E4000BD4680BDF4CD0008005000409401002024
:103E5000BCCB0008C401002080B584B000AF7860FE
:103E6000396014491448FEF731F8144BFB6016E032
:103E7000FB681B6819461048FEF728F8FB689B682A
:103E800019460D48FEF722F80D490B48FEF71EF8BB
:103E9000FB680A4A934207D0FB680C33FB60FB685F
:103EA0001B68002BE4D100E000BF00231846103748
:103EB000BD4680BD24CE000800500040D001002047
:103EC000BCCB000880B584B000AF7860396014497D
:103ED0001448FDF7FBFF144BFB6016E0FB681B6802
:103EE00019461048FDF7F2FFFB689B6819460D481C
:103EF000FDF7ECFF0D490B48FDF7E8FFFB680C4AA6
:103F0000934207D0FB680C33FB60FB681B68002BF7
:103F1000E4D100E000BF002318461037BD4680BD45
:103F200054CE000800500040DC010020BCCB00084B
:103F30004C01002080B582B000AF78603960044940
:103F40000448FDF7C3FF002318460837BD4680BD6F
:103F500084CE00080050004080B582B000AF786089
:103F6000396000F0DDF9002318460837BD4680BDF2
:103F7000F0B5A3B004AF7860396007F1700407F1C1
:103F8000710207F1720107F1730007F16D030293EB
:103F900007F16E03019307F16F0300932346FDF7CA
:103FA00061FAFDF707FB87ED1D0A97F86F301D4694
:103FB00097F86E301E4697F86D301A4697F87230B3
:103FC000194697F871301C4697F8703003F5FA637C
:103FD00007F10800039302940191009233462A46A8
:103FE000314904F0E5F907F1080319462F48FDF7B8
:103FF0006DFF786FFCF7B8FA02460B4607F1080030
:104000002B4904F0D5F907F1080319462748FDF7B5
:104010005DFF07F108032749184604F0C9F907F1C5
:10402000080319462148FDF751FF07F1080322490B
:10403000184604F0BDF907F1080319461B48FDF7BF
:1040400045FF4FF480511D48FFF790FC0346002BBD
:104050000CD007F108031A49184604F0A9F907F132
:10406000080319461148FDF731FF0BE007F108037B
:104070001449184604F09CF907F1080319460B4847
:10408000FDF724FF07F108030F49184604F090F9E3
:1040900007F1080319460548FDF718FF00231846E5
:1040A0007C37BD46F0BD00BFACCE000800500040DC
:1040B000D0CE0008E8CE00080CCF00080004024073
:1040C00030CF000844CF000858CF0008F0B5A3B0A7
:1040D00004AF7860396007F1740407F1750207F1E5
:1040E000760107F1770007F17103029307F172037C
:1040F000019307F1730300932346FDF7B3F997F893
:1041000073301D4697F872301E4697F871301A4684
:1041100097F87630194697F875301C4697F8743042
:1041200003F5FA6307F10C000393029401910092E6
:1041300033462A46064904F03BF907F10C031946B9
:104140000448FDF7C3FE002318467C37BD46F0BD8A
:10415000ACCE000800500040F0B5A3B004AF7860CA
:1041600039607B68062B01DC032388E07B68072B22
:1041700001DD022383E03B6804331B68184603F02B
:104180004DF9034687F877303B6808331B681846BB
:1041900003F044F9034687F876303B680C331B681C
:1041A000184603F03BF9034687F875303B68103337
:1041B0001B68184603F032F9034687F874303B68F1
:1041C00014331B68184603F029F9034687F8733047
:1041D0003B6818331B68184603F020F9034687F83C
:1041E000723097F87730172B13D897F876303B2B2F
:1041F0000FD897F875303B2B0BD897F874301F2BDE
:1042000007D897F873300C2B03D897F87230632BCC
:1042100001D9042333E097F8720097F8732097F8D8
:10422000741097F87530029397F87630019397F8E9
:104230007730009303460120FDF756F897F8775042
:1042400097F8766097F8753097F8742097F87310A0
:1042500097F8720000F5FA6007F10C0403900291E0
:104260000192009333462A460749204604F0A0F8FD
:1042700007F10C0319460548FDF728FE00231846F0
:104280007C37BD46F0BD00BF68CF0008005000403D
:1042900080B582B000AF78603960FFF751FB000055
:1042A00080B582B000AF786039604FF48051064825
:1042B000FFF77FFB05490648FDF708FE0023184677
:1042C0000837BD4680BD00BF0004024098CF0008FB
:1042D0000050004080B582B000AF786039604FF484
:1042E00080510648FFF757FB05490648FDF7EEFDEC
:1042F000002318460837BD4680BD00BF00040240B9
:10430000ACCF00080050004080B500AF0249034820
:1043100002F00EFA00BF80BDAC020020A80200200F
:1043200080B500AF32493348FDF7D0FD32493148FE
:10433000FDF7CCFD31492F48FDF7C8FD30492D4828
:10434000FDF7C4FD2F492B48FDF7C0FD2E49294834
:10435000FDF7BCFD2D492748FDF7B8FD2C49254840
:10436000FDF7B4FD2B492348FDF7B0FD2A4921484C
:10437000FDF7ACFD29491F48FDF7A8FD28491D4858
:10438000FDF7A4FD1A491B48FDF7A0FD2549194872
:10439000FDF79CFD24491748FDF798FD2349154872
:1043A000FDF794FD22491348FDF790FD214911487E
:1043B000FDF78CFD20490F48FDF788FD1F490D488A
:1043C000FDF784FD1E490B48FDF780FD1D49094896
:1043D000FDF77CFD1C490748FDF778FD04490548B9
:1043E000FDF774FD19490348FDF770FD00BF80BD5E
:1043F000BCCF000800500040F0CF000824D00008D7
:1044000058D0000890D00008C4D00008FCD00008A4
:1044100030D1000864D1000898D10008CCD1000840
:1044200000D2000834D2000868D200089CD20008EC
:10443000D0D2000804D3000838D300086CD3000899
:10444000A0D30008D8D300080CD4000830CC000852
:1044500080B500AFFDF7D2FA012002F0EBFA024B73
:10446000024A1A6000BF80BDF8270020FD26002008
:1044700080B5D0B000AF4FE02D48FDF77DFB03467F
:1044800087F83F312B4B1B78DBB2002B0AD197F812
:104490003F31CA2B40D1274B01221A70264B0022F4
:1044A0001A7039E097F83F31EF2B21D1214B0022D0
:1044B0001A70214B1B78DBB207F1380219461F48EE
:1044C00002F080FDC7F83801D7F83831002B1BDD2A
:1044D0001B4AD7F8383152F823203B1D194918469A
:1044E00003F066FF3B1D19461748FDF7EFFC0BE094
:1044F000114B1B78DBB25A1CD1B20F4A117019460E
:104500000E4A97F83F3153540B4B1B78DBB2FF2B0D
:1045100002D1084B00221A700548FDF791FC0346B2
:10452000002BA9D100BF00BF07F5A077BD4680BD15
:1045300000100140FC270020FF2800200028002058
:10454000B8020020CCD400080050004080B500AF75
:10455000FFF77EFF0249034802F0EAF800BF80BD82
:10456000D8020020D402002080B483B000AF78606D
:1045700039607B683A689A6100BF0C37BD465DF8C8
:10458000047B704780B483B000AF786039603B68CB
:104590001A047B689A6100BF0C37BD465DF8047B46
:1045A0007047000080B500AF064A13786FF3000330
:1045B0001370044A13786FF34703137000F004F884
:1045C00000BF80BD0029002080B500AF2021024837
:1045D000FFF7D8FF00BF80BD0008024080B500AFE4
:1045E00020210248FFF7C0FF00BF80BD0008024045
:1045F00080B500AF0D4B1B78C3F34603DBB2032B32
:1046000011D801A252F823F0194600081F460008ED
:10461000254600082546000800F00AF803E000F0EF
:1046200041F800E000BF00BF80BD00BF00290020AE
:1046300080B500AF1A4B1B7803F00103DBB2002BEF
:1046400012D0002002F05EF80346002B25D0144A59
:1046500013786FF300031370FFF7B6FF4FF47A710E
:10466000002002F039F818E00D4B1B7803F001032D
:10467000DBB2002B11D1002002F044F80346002BDE
:104680000BD0074A137843F001031370FFF7A6FF1E
:104690004FF47A71002002F01FF800BF80BD00BF08
:1046A0000029002080B400AF00BFBD465DF8047B48
:1046B0007047000080B500AF0249034802F038F8A7
:1046C00000BF80BDE8020020E402002080B485B075
:1046D00000AF78607B6803F00703FB600C4BDB687E
:1046E000BB60BA684FF6FF031340BB60FB681A0259
:1046F000BB68134343F0BF6343F40033BB60044A19
:10470000BB68D36000BF1437BD465DF8047B7047BB
:1047100000ED00E080B400AF044BDB681B0A03F03F
:1047200007031846BD465DF8047B704700ED00E0C6
:1047300080B483B000AF0346FB7197F90730002BBC
:104740000BDBFB7903F01F02074997F907305B0980
:10475000012000FA02F241F8232000BF0C37BD46C9
:104760005DF8047B704700BF00E100E080B483B0D7
:1047700000AF03463960FB7197F90730002B0ADB65
:104780003B68DAB20C4997F907301201D2B20B44F8
:1047900083F800230AE03B68DAB20849FB7903F0AA
:1047A0000F03043B1201D2B20B441A7600BF0C3740
:1047B000BD465DF8047B704700E100E000ED00E0DD
:1047C00080B489B000AFF860B9607A60FB6803F02C
:1047D0000703FB61FB69C3F10703042B28BF042314
:1047E000BB61FB690433062B02D9FB69033B00E084
:1047F00000237B614FF0FF32BB6902FA03F3DA4317
:10480000BB681A407B699A404FF0FF317B6901FA1F
:1048100003F3D9437B680B40134318462437BD4646
:104820005DF8047B704780B483B000AF78607B682C
:104830001B6823F080027B681A6000BF0C37BD46FE
:104840005DF8047B704780B483B000AF78607B680C
:104850001B6823F040027B681A6000BF0C37BD461E
:104860005DF8047B704780B483B000AF7860396036
:104870007B68DB6823F0FE023B681A437B68DA60E2
:1048800000BF0C37BD465DF8047B704780B483B031
:1048900000AF78607B68DB6823F001027B68DA6038
:1048A00000BF0C37BD465DF8047B704780B400AF95
:1048B000054B1B68044A43F48033136000BFBD46B8
:1048C0005DF8047B704700BF0038024080B400AF41
:1048D000074B1B6803F40033B3F5003F0CBF012303
:1048E0000023DBB21846BD465DF8047B704700BF6D
:1048F0000038024080B483B000AF7860064B9B68FC
:1049000023F0030204497B6813438B6000BF0C371C
:10491000BD465DF8047B70470038024080B400AFAC
:10492000044B9B6803F00C031846BD465DF8047BFE
:10493000704700BF0038024080B483B000AF786099
:10494000064B9B6823F0F00204497B6813438B609D
:1049500000BF0C37BD465DF8047B7047003802404D
:1049600080B483B000AF7860064B9B6823F4E052BC
:1049700004497B6813438B6000BF0C37BD465DF86C
:10498000047B70470038024080B483B000AF786089
:10499000064B9B6823F4604204497B6813438B6099
:1049A00000BF0C37BD465DF8047B704700380240FD
:1049B00080B400AF054B1B68044A43F0807313605A
:1049C00000BFBD465DF8047B704700BF0038024061
:1049D00080B400AF074B1B6803F00073B3F1007F96
:1049E0000CBF01230023DBB21846BD465DF8047BF3
:1049F000704700BF0038024080B485B000AFF86057
:104A0000B9607A603B600D4B5A680D4B1340F968F2
:104A1000BA6811437A6892010A43084913434B600C
:104A2000064B5B6823F4403204493B6813434B60F8
:104A300000BF1437BD465DF8047B70470038024064
:104A40000080BFFF80B485B000AF7860084B1A6B60
:104A500007497B6813430B63054B1A6B7B68134054
:104A6000FB60FB6800BF1437BD465DF8047B7047F0
:104A70000038024080B485B000AF7860084B1A6CF3
:104A800007497B6813430B64054B1A6C7B68134022
:104A9000FB60FB6800BF1437BD465DF8047B7047C0
:104AA0000038024080B485B000AF7860084B5A6C83
:104AB00007497B6813434B64054B5A6C7B68134072
:104AC000FB60FB6800BF1437BD465DF8047B704790
:104AD0000038024080B483B000AF7860064B1B689A
:104AE00023F0070204497B6813430B6000BF0C37B7
:104AF000BD465DF8047B7047003C024080B400AFC7
:104B0000044B1B6803F007031846BD465DF8047BA1
:104B1000704700BF003C024080B483B000AF7860B3
:104B2000064B1B6823F4804204497B6813430B60E7
:104B300000BF0C37BD465DF8047B70470070004035
:104B400080B400AF074B5B6803F48043B3F5804F3C
:104B50000CBF01230023DBB21846BD465DF8047B81
:104B6000704700BF0070004080B483B000AF786031
:104B70007B68DB6843F400527B68DA6000BF0C3767
:104B8000BD465DF8047B704780B483B000AF7860A9
:104B90007B681B6923F490427B681A617B685B69C0
:104BA00023F02A027B685A6100BF0C37BD465DF8CE
:104BB000047B704780B483B000AF786039603B6895
:104BC0001A047B689A6100BF0C37BD465DF8047B10
:104BD0007047000080B500AF4FF48040FFF762FFE0
:104BE0004FF08050FFF746FF0320FFF76FFDFFF700
:104BF00091FD034600220F211846FFF7E1FD034611
:104C000019464FF0FF30FFF7B1FD00F035F800F026
:104C1000A1FB00F07BF800F03DFB00F0A1F900F0F3
:104C200017FA00F03BF900F0D3FA00F0C7F800F0F3
:104C30006FFAFEF7CDFE012001F0FCFE4FF480710B
:104C40000C48FFF7B7FFFFF7ADFC00F085FD01F062
:104C500019FDFFF72FFDFDF7F9F9FDF73DFAFFF715
:104C600053FBFFF773FC00F083FD01F033FE01F00E
:104C700037FEFCE70008024080B500AF0120FFF7D7
:104C800029FF00BFFFF73AFF0346012BFAD14FF48B
:104C90008040FFF741FFFFF709FE00BFFFF716FE58
:104CA0000346012BFAD14FF40033C02204214FF404
:104CB0008000FFF7A1FEFFF77BFE00BFFFF788FE35
:104CC0000346012BFAD100BFFFF73AFF0346002B42
:104CD000FAD08020FFF730FE0020FFF741FE0020D1
:104CE000FFF752FE0220FFF705FE00BFFFF716FE9A
:104CF0000346082BFAD1044801F0A6FC024801F053
:104D0000B1FC00BF80BD00BF0048E80180B58CB099
:104D100000AF07F1180300221A605A609A60DA6047
:104D20001A615A613B4600221A605A609A60DA6042
:104D30001A615A610220FFF785FEC0233B600223FF
:104D40007B600323BB600123FB6000233B610423E2
:104D50007B613B461946164800F091FE4FF4001067
:104D6000FFF788FE1348FFF791FD1248FFF76BFD30
:104D70001048FFF758FD0023BB610F4BFB61002378
:104D80003B6200237B624FF48063BB624FF480433D
:104D9000FB6207F118031946064800F0E7FF0021FF
:104DA0000448FFF760FD00BF3037BD4680BD00BF3F
:104DB0000004024000540040A086010080B58CB081
:104DC00000AF07F1180300221A605A609A60DA6097
:104DD0001A615A613B4600221A605A609A60DA6092
:104DE0001A615A610420FFF72DFE0120FFF72AFE09
:104DF0004FF400733B6002237B600323BB600123FD
:104E0000FB6000233B6104237B613B4619461F483E
:104E100000F035FE4FF480733B6002237B60032378
:104E2000BB600123FB6000233B6104237B613B46A5
:104E30001946174800F023FE4FF40000FFF71AFE52
:104E40001448FFF723FD1348FFF7FDFC1148FFF757
:104E5000EAFC0023BB61104BFB6100233B62002393
:104E60007B624FF48063BB624FF48043FB6207F1C7
:104E700018031946074800F079FF00210548FFF79D
:104E8000F2FC00BF3037BD4680BD00BF00080240C5
:104E900000000240005C0040A086010080B58EB09A
:104EA00000AF07F11C0300221A605A609A60DA60B2
:104EB0001A615A619A613B1D00221A605A609A6019
:104EC000DA601A615A614FF40020FFF7D3FD042025
:104ED000FFF7B8FD4FF440637B600223BB60032300
:104EE000FB6000233B6100237B610823BB613B1D0A
:104EF0001946194800F0C3FDFFF70CFC03460022D9
:104F000000211846FFF75CFC034619463420FFF7E2
:104F10002DFC3420FFF70CFC4FF41653FB610023EB
:104F20003B6200237B620023BB620C23FB620023F5
:104F30003B6300237B6307F11C031946074801F01C
:104F4000E9FA0648FFF720FE0448FFF70DFE00BF10
:104F50003837BD4680BD00BF00080240004C00400D
:104F600080B58EB000AF07F11C0300221A605A60B2
:104F70009A60DA601A615A619A613B1D00221A60D8
:104F80005A609A60DA601A615A614FF48010FFF734
:104F900071FD0420FFF756FD0820FFF753FD4FF485
:104FA00080537B600223BB600323FB6000233B61D3
:104FB00000237B610823BB613B1D1946214800F09B
:104FC0005EFD04237B600223BB600323FB600023A0
:104FD0003B6100237B610823BB613B1D19461A48D6
:104FE00000F04DFDFFF796FB034600220021184616
:104FF000FFF7E6FB034619463520FFF7B7FB3520E0
:10500000FFF796FB4FF4E133FB6100233B62002383
:105010007B620023BB620C23FB6200233B63002303
:105020007B6307F11C031946084801F073FA07482F
:10503000FFF7AAFD0548FFF797FD00BF3837BD46CB
:1050400080BD00BF00080240000C0240005000403C
:1050500080B58EB000AF07F11C0300221A605A60C1
:105060009A60DA601A615A619A613B1D00221A60E7
:105070005A609A60DA601A615A611020FFF712FDD7
:105080000120FFF7DFFC4FF4C0637B600223BB60AD
:105090000323FB6000233B6100237B610723BB618B
:1050A0003B1D1946184800F0EAFCFFF733FB0346A6
:1050B000002200211846FFF783FB034619462520EE
:1050C000FFF754FB2520FFF733FB4FF41653FB612A
:1050D00000233B6200237B620023BB620C23FB6244
:1050E00000233B6300237B6307F11C031946074839
:1050F00001F010FA0548FFF747FD0448FFF734FDBB
:1051000000BF3837BD4680BD00000240001001409E
:1051100080B58EB000AF07F11C0300221A605A6000
:105120009A60DA601A615A619A613B1D00221A6026
:105130005A609A60DA601A615A614FF40030FFF7E2
:1051400099FC0120FFF77EFC0C237B600223BB60EF
:105150000323FB6000233B6100237B610723BB61CA
:105160003B1D1946184800F08AFCFFF7D3FA0346A6
:10517000002200211846FFF723FB0346194626208C
:10518000FFF7F4FA2620FFF7D3FA4FF4E133FB617F
:1051900000233B6200237B620023BB620C23FB6283
:1051A00000233B6300237B6307F11C031946074878
:1051B00001F0B0F90548FFF7E7FC0448FFF7D4FC1D
:1051C00000BF3837BD4680BD0000024000440040AB
:1051D00080B58EB000AF07F11C0300221A605A6040
:1051E0009A60DA601A615A619A613B1D00221A6066
:1051F0005A609A60DA601A615A614FF48020FFF7B2
:1052000039FC0220FFF71EFC4FF440637B60022351
:10521000BB600323FB6000233B6100237B6107230A
:10522000BB613B1D1946194800F029FCFFF772FAD3
:105230000346002200211846FFF7C2FA034619462A
:105240002720FFF793FA2720FFF772FA4FF416533F
:10525000FB6100233B6200237B620023BB620C23C3
:10526000FB6200233B6300237B6307F11C031946A9
:10527000074801F04FF90648FFF786FC0448FFF79E
:1052800073FC00BF3837BD4680BD00BF000402403C
:105290000048004080B58EB000AF07F11C0300222B
:1052A0001A605A609A60DA601A615A619A613B1D0D
:1052B00000221A605A609A60DA601A615A612020EE
:1052C000FFF7F0FB0420FFF7BDFBC0237B60022348
:1052D000BB600323FB6000233B6100237B61082349
:1052E000BB613B1D1946194800F0C9FBFFF712FAD4
:1052F0000346002200211846FFF762FA03461946CA
:105300004720FFF733FA4720FFF712FA4FF41653FE
:10531000FB6100233B6200237B620023BB620C2302
:10532000FB6200233B6300237B6307F11C031946E8
:10533000074801F0EFF80648FFF726FC0448FFF79E
:1053400013FC00BF3837BD4680BD00BF00080240D7
:105350000014014080B586B000AF3B4600221A60C1
:105360005A609A60DA601A615A610420FFF76AFB9A
:105370008020FFF767FB0120FFF764FB0220FFF7A7
:1053800061FB0820FFF75EFB41F602012648FFF7AC
:1053900011FC4FF490712548FFF70CFC4FF480513D
:1053A0002348FFF707FC4EF20C033B6000237B60B1
:1053B00000233B613B4619461C4800F060FB41F668
:1053C00002033B6001237B600023BB600023FB6082
:1053D00000233B613B461946134800F050FB4FF455
:1053E00090733B6001237B600023BB600023FB6064
:1053F00000233B613B4619460C4800F040FB4FF44C
:1054000080533B6001237B600023BB600023FB6073
:1054100000233B613B461946054800F030FB00BFC6
:105420001837BD4680BD00BF0000024000080240A2
:105430000004024080B400AF00BFFDE780B400AFBD
:1054400000BFFDE780B400AF00BFFDE780B400AF50
:1054500000BFFDE780B400AF00BFFDE780B400AF40
:1054600000BFBD465DF8047B704780B400AF00BF4D
:10547000BD465DF8047B704780B400AF00BFBD46F9
:105480005DF8047B7047000080B500AF044B1B68DB
:105490000133034A136001F089F900BF80BD00BFEA
:1054A0000429002080B500AF0248FCF727FD00BFAB
:1054B00080BD00BF0010014080B500AF0248FCF77E
:1054C0001DFD00BF80BD00BF0044004080B500AF9F
:1054D0000248FCF713FD00BF80BD00BF004800403C
:1054E00080B500AF0248FCF709FD00BF80BD00BFDA
:1054F000004C004080B500AF0248FCF7FFFC00BF45
:1055000080BD00BF0050004080B500AF0248FCF7EE
:10551000F5FC00BF80BD00BF0014014080B400AFA7
:1055200001231846BD465DF8047B704780B582B004
:1055300000AF7860396002F0F1FF034616221A606E
:105540004FF0FF3318460837BD4680BD80B582B0A6
:1055500000AF78604FF0FF317868FFF7E7FF00BFDA
:10556000FDE780B586B000AFF860B9607A600023CF
:105570007B610AE0AFF300800146BB685A1CBA6049
:10558000CAB21A707B6901337B617A697B689A427F
:10559000F0DB7B6818461837BD4680BD80B586B005
:1055A00000AFF860B9607A6000237B6109E0BB68F6
:1055B0005A1CBA601B781846AFF300807B69013330
:1055C0007B617A697B689A42F1DB7B681846183701
:1055D000BD4680BD80B483B000AF78604FF0FF332C
:1055E00018460C37BD465DF8047B704780B483B025
:1055F00000AF786039603B684FF400525A60002376
:1056000018460C37BD465DF8047B704780B483B004
:1056100000AF7860012318460C37BD465DF8047B67
:10562000704780B485B000AFF860B9607A6000233D
:1056300018461437BD465DF8047B704780B586B0C8
:1056400000AF7860144A154BD31A7B617B693B61CC
:10565000134B1B68002B02D1114B124A1A60104BDE
:105660001A687B6813443A699A4207D202F056FFDF
:1056700003460C221A604FF0FF3309E0084B1B6809
:10568000FB60074B1A687B681344054A1360FB688C
:1056900018461837BD4680BD0000022000040000F7
:1056A00008290020702B002080B400AF064BD3F8EF
:1056B0008830054A43F47003C2F8883000BFBD4605
:1056C0005DF8047B704700BF00ED00E0DFF834D0E8
:1056D000FFF7EAFF0C480D490D4A002302E0D458B9
:1056E000C4500433C4188C42F9D30A4A0A4C00232C
:1056F00001E013600432A242FBD302F015FFFFF772
:1057000069FA70470000022000000020D004002049
:10571000A0D90008D00400206C2B0020FEE780B444
:1057200083B000AF786039607B683A689A6100BFE7
:105730000C37BD465DF8047B704780B483B000AF82
:10574000786039603B681A047B689A6100BF0C3747
:10575000BD465DF8047B704780B400AF034B002268
:105760001A7000BFBD465DF8047B70470C2900200D
:1057700080B500AF0249034800F0DAFF00BF80BDEA
:10578000FC020020F802002080B500AF144B1B780B
:10579000002B12D0012000F0B5FF0346002B1DD0D6
:1057A0000F4B00221A7002210E48FFF7C6FF4FF47C
:1057B0007A71012000F090FF10E0012000F0A2FFBC
:1057C0000346002B0AD0064B01221A70022105481D
:1057D000FFF7A5FFC821012000F07EFF00BF80BDBC
:1057E0000C2900200000024080B48BB000AFF860AC
:1057F000B9607A60FB681A68BB687B617B6993FA61
:10580000A3F33B613B69BB61BB69002B01D1202342
:1058100003E0BB69B3FA83F3DBB25B00032101FA57
:1058200003F3DB431A40BB683B623B6A93FAA3F382
:10583000FB61FB697B627B6A002B01D1202303E0C3
:105840007B6AB3FA83F3DBB25B00796801FA03F396
:105850001A43FB681A6000BF2C37BD465DF8047B15
:10586000704780B485B000AFF860B9607A60FB68BB
:105870005A68BB68DB431A40BB68796801FB03F3D5
:105880001A43FB685A6000BF1437BD465DF8047BBD
:10589000704780B48BB000AFF860B9607A60FB6885
:1058A0009A68BB687B617B6993FAA3F33B613B69B0
:1058B000BB61BB69002B01D1202303E0BB69B3FAB4
:1058C00083F3DBB25B00032101FA03F3DB431A40ED
:1058D000BB683B623B6A93FAA3F3FB61FB697B62A3
:1058E0007B6A002B01D1202303E07B6AB3FA83F3A8
:1058F000DBB25B00796801FA03F31A43FB689A6034
:1059000000BF2C37BD465DF8047B704780B48BB078
:1059100000AFF860B9607A60FB68DA68BB687B61E9
:105920007B6993FAA3F33B613B69BB61BB69002BC5
:1059300001D1202303E0BB69B3FA83F3DBB25B0040
:10594000032101FA03F3DB431A40BB683B623B6A65
:1059500093FAA3F3FB61FB697B627B6A002B01D1A5
:10596000202303E07B6AB3FA83F3DBB25B00796840
:1059700001FA03F31A43FB68DA6000BF2C37BD4617
:105980005DF8047B704780B48BB000AFF860B960FD
:105990007A60FB681A6ABB687B617B6993FAA3F340
:1059A0003B613B69BB61BB69002B01D1202303E054
:1059B000BB69B3FA83F3DBB29B000F2101FA03F357
:1059C000DB431A40BB683B623B6A93FAA3F3FB617B
:1059D000FB697B627B6A002B01D1202303E07B6A99
:1059E000B3FA83F3DBB29B00796801FA03F31A433D
:1059F000FB681A6200BF2C37BD465DF8047B704718
:105A000080B48BB000AFF860B9607A60FB685A6A06
:105A1000BB681B0A7B617B6993FAA3F33B613B691B
:105A2000BB61BB69002B01D1202303E0BB69B3FA42
:105A300083F3DBB29B000F2101FA03F3DB431A402F
:105A4000BB681B0A3B623B6A93FAA3F3FB61FB69E9
:105A50007B627B6A002B01D1202303E07B6AB3FACF
:105A600083F3DBB29B00796801FA03F31A43FB6806
:105A70005A6200BF2C37BD465DF8047B704780B585
:105A80008AB000AF7860396000237B6200233B62FC
:105A90003B681B68BB61BB6993FAA3F37B617B69BD
:105AA000FB61FB69002B01D1202303E0FB69B3FA02
:105AB00083F3DBB27B6257E03B681A6801217B6AA3
:105AC00001FA03F313403B623B6A002B49D03B6869
:105AD0005B68012B03D03B685B68022B0DD13B68F0
